:100000000C9472000C9493000C9493000C94FF04D5
:100010000C94ED040C9423050C9411050C9493009E
:100020000C9493000C9493000C9493000C94930004
:100030000C9493000C9470040C9493000C94930013
:100040000C9493000C9493000C9493000C949300E4
:100050000C9493000C9493000C9493000C94F6036E
:100060000C9493000C9440040C9493000C94930013
:100070000C9493000C9493000C9493000C949300B4
:100080000C9493000C9493000C9493000C949300A4
:100090000C9493000C9493000C9493000C94930094
:1000A0000C9493000C9493000C9493000C94930084
:1000B0000C9493000C9493000C9493000C94930074
:1000C0000C9493000C9493000C9493000C94930064
:1000D0000C9493000C9493000C9493000C94930054
:1000E0000C94930011241FBECFEFD1E2DEBFCDBF31
:1000F00000E00CBF17E0A0E0B2E0E0E1FAE100E0D0
:100100000BBF02C007900D92A631B107D9F727E0C7
:10011000A6E1B7E001C01D92AB36B207E1F70E943D
:1001200034050C94060D0C9400009091C00095FFCE
:10013000FCCF8093C60008958DE00E9495008AE070
:100140000C9495000F931F93CF93DF9300D000D0B2
:100150001F92CDB7DEB730E00AE010E0009769F4F7
:1001600080E327960FB6F894DEBF0FBECDBFDF91B8
:10017000CF911F910F910C94950021E0230FE1E0A6
:10018000F0E0EC0FFD1FE30FF11D37FDFA95B8010C
:100190000E948C0C805D8083CB01322F009769F721
:1001A00012166CF41FEF120FE1E0F0E0EC0FFD1FF0
:1001B000E10FF11D80810E949500212FF1CF27963C
:1001C0000FB6F894DEBF0FBECDBFDF91CF911F9168
:1001D0000F910895CF93DF93EC018991882319F053
:1001E0000E949500FACFDF91CF9108958B3008F0EF
:1001F0008AE080935807E82FF0E0ED5FFD4F8081A3
:1002000090E090938900809388000895FC0180819C
:10021000813351F48181823339F48281833321F433
:1002200081E09381943309F080E0089510921707DC
:100230002E982F988DB3837F8DBB10921807109244
:10024000190710921A0710925707089581E08093BA
:1002500017072E9A8DB38C608DBB109218070895E6
:100260008770806480937C0080917B00886080939D
:100270007B0080917A00806480937A0080917A007C
:1002800086FDFCCF809178009091790020E180E09C
:1002900090E0DC0130917A00306430937A00309144
:1002A0007A0036FDFCCF4091780050917900840FA0
:1002B000951FA11DB11D215069F724E0B695A795A2
:1002C000979587952A95D1F70895CF92DF92EF926F
:1002D000FF92CF93DF938DE00E943001EC019C01EF
:1002E000A4E6B0E00E94C20CCC24CA9423E0D22E33
:1002F000E12CF12CA70196010E94A00C2093590734
:100300009E01AFEFB0E00E94C20CA70196010E94CF
:10031000A00C30E03093990020939800DF91CF91AA
:10032000FF90EF90DF90CF900895E2E0F1E08081C0
:100330008064808381E080936A070C946501FC01EE
:1003400080E02AE0919130ED390F3A3030F4829F0D
:10035000900D112480ED890FF5CF08955F926F9273
:100360007F928F929F92AF92BF92CF92DF92EF9245
:10037000FF920F931F93CF93DF93CDB7DEB72C97E8
:100380000FB6F894DEBF0FBECDBFCE0101965C0163
:10039000CC24DD24C81AD90A00EB10E0512C3E0110
:1003A0009DE0690E711CC8010E94760C81508E3F41
:1003B00018F575014601E0EB8E0E911CC4018E0DFF
:1003C0009F1D0E94760CF70181937F01E615F705CA
:1003D000A9F7C8010C960E94760CF82EC5010E9460
:1003E000EA0082E392E00E94EA008F2D90E00E94F2
:1003F000A2000E949C005394035F1F4FFDE0CF0EAC
:10040000D11C023381E0180771F6511006C086E353
:1004100092E00E94EA000E949C002C960FB6F8948D
:10042000DEBF0FBECDBFDF91CF911F910F91FF9027
:10043000EF90DF90CF90BF90AF909F908F907F9084
:100440006F905F90089592B19F7092B992B140E120
:10045000849F90011124922B92B9129A85E08A957B
:10046000F1F70000129887EC90E00197F1F700C0D7
:1004700000000895CF93C82F109A82958F700E9424
:1004800023028C2F8F700E94230287EC90E001974B
:10049000F1F700C00000CF910895EF92FF920F9303
:1004A0001F93CF93DF9300D000D01F92CDB7DEB75C
:1004B0008C0197FF2DC08DE20E943A0211950195A3
:1004C000110980E09AE0E92EF12C21E0280FE1E00B
:1004D000F0E0EC0FFD1FE80FF11D87FDFA95C80154
:1004E000B7010E948C0C805D80838B01822F672B6B
:1004F00061F71216F4F41FEF120FE1E0F0E0EC0FD9
:10050000FD1FE10FF11D80810E943A02212FF1CFE2
:10051000892BB9F680E327960FB6F894DEBF0FBE9D
:10052000CDBFDF91CF911F910F91FF90EF900C9471
:100530003A0227960FB6F894DEBF0FBECDBFDF910B
:10054000CF911F910F91FF90EF900895CF93DF937C
:10055000EC018991882319F00E943A02FACFDF91C9
:10056000CF910895CF93C82F109882958F700E94D5
:1005700023028C2F8F700E94230287EC90E001975A
:10058000F1F700C00000CF910895809157078F5F69
:1005900080935707833058F480E80E94B20282E4C7
:1005A00092E00E94A60284E592E00C94EA0082E0C8
:1005B0008093170783E080931A072F9A10925707AA
:1005C00080E80E94B20281E692E00E94A60282E7E1
:1005D00092E0EBCF4F925F926F927F928F929F92B9
:1005E000AF92BF92CF92DF92EF92FF920F931F9341
:1005F000CF93DF93CDB7DEB72C970FB6F894DEBF5D
:100600000FBECDBF2C01CE0101966C01EE24FF245C
:10061000E81AF90A80EB682E712C5E019DE0A90EA4
:10062000B11C86014701E0EB8E0E911CC401800FC6
:10063000911F0E94760CF80181938F01EA15FB054A
:10064000A9F74BE050E0B201C6010E94F80C892BDB
:1006500061F4C3010E94760C81508E3F20F460E06B
:10066000C3010E947E0C81E00CC0FDE06F0E711C86
:100670008DE0E80EF11C92E3691691E0790689F6A7
:1006800080E02C960FB6F894DEBF0FBECDBFDF9191
:10069000CF911F910F91FF90EF90DF90CF90BF907F
:1006A000AF909F908F907F906F905F904F90089544
:1006B0004F925F926F927F928F929F92AF92BF9272
:1006C000CF92DF92EF92FF920F931F93CF93DF931E
:1006D000CDB7DEB72C970FB6F894DEBF0FBECDBFF7
:1006E000C82E592ED62ECE0101967C010027112747
:1006F000081B190B8AE0482E5E019DE0A90EB11C73
:100700003701480180EB880E911CC401860D971DAE
:100710000E94760CF30181933F01EA15FB05A9F7CE
:100720004BE050E06C2D752DC7010E94F80C892B11
:1007300009F45AC04A94035F1F4F4110E1CF00EB08
:1007400010E0C8010E94760C81508E3F08F445C02D
:10075000EC2CF52CB12CA12CCA2CF70161917F0156
:10076000C8018A0D9B1D662379F00E947E0CFFEF65
:10077000AF1ABF0A8BE0A816B10471F760E0C80198
:100780000B960E947E0C0CC07C0160E0C7010E94A9
:100790007E0CC3949FEFE91AF90AECE0CE12F5CF74
:1007A0006D2DC8010C960E947E0C81E02C960FB630
:1007B000F894DEBF0FBECDBFDF91CF911F910F9197
:1007C000FF90EF90DF90CF90BF90AF909F908F9071
:1007D0007F906F905F904F900895035F1F4F02339B
:1007E000F1E01F0709F0ADCF80E0E0CF1F920F923C
:1007F0000FB60F9211242F933F938F939F93AF9334
:10080000BF938091660790916707A0916807B091A8
:1008100069073091650723E0230F2D3758F50196BE
:10082000A11DB11D2093650780936607909367070C
:10083000A0936807B0936907809161079091620760
:10084000A0916307B09164070196A11DB11D80932B
:10085000610790936207A0936307B0936407BF9109
:10086000AF919F918F913F912F910F900FBE0F905D
:100870001F90189526E8230F0296A11DB11DD2CF17
:100880001F920F920FB60F9211240BB60F922F9357
:100890008F939F93EF93FF939091C6008091C00038
:1008A00085FFFCCF9093C600809156078F5F8F71B4
:1008B00020915507281741F0E0915607F0E0EB5CD6
:1008C000F84F908380935607FF91EF919F918F91FE
:1008D0002F910F900BBE0F900FBE0F901F90189589
:1008E0001F920F920FB60F9211240BB60F922F93F7
:1008F0003F934F935F936F937F938F939F93AF93A8
:10090000BF93CF93DF93EF93FF9350E040E0E1E09C
:10091000F0E0AFE0942F9F01042E01C0220F0A9453
:10092000EAF72A2720930B018AE18A95F1F700C0A4
:1009300026B120952F7091F070E060E030E0862FB6
:10094000E901062E02C0D595C7950A94E2F7C0FDCD
:1009500040C06F5F7F4F6430710589F74F5F5F4F15
:1009600044305105B9F68FEF909100029817E1F0ED
:100970008F3FC1F090911C07911114C0282F26952C
:100980002695E4E02E9F90011124225F3D4F982F81
:100990009370290F311DF901908190931B0791E00D
:1009A00090931C0780930002FF91EF91DF91CF910C
:1009B000BF91AF919F918F917F916F915F914F9177
:1009C0003F912F910F900BBE0F900FBE0F901F9075
:1009D0001895880F880F890FC7CF1F920F920FB6F7
:1009E0000F9211248F9381E08093180784E0809305
:1009F00016078F910F900FBE0F901F9018951F92A2
:100A00000F920FB60F9211248F9381E080931807F5
:100A100083E0809316078F910F900FBE0F901F9069
:100A200018951F920F920FB60F9211248F9381E0A9
:100A30008093190782E0809316078F910F900FBE65
:100A40000F901F9018951F920F920FB60F921124BE
:100A50008F9381E080931907809316078F910F90F1
:100A60000FBE0F901F901895CF93DF93CDB7DEB7D1
:100A7000A0970FB6F894DEBF0FBECDBF789484B5B3
:100A8000826084BD84B5816084BD85B5826085BD8A
:100A900085B5816085BD80916E00816080936E0018
:100AA000109281008091810082608093810080910A
:100AB00081008160809381008091800081608093BB
:100AC00080008091B10084608093B1008091B0007B
:100AD00081608093B000809191008260809391004A
:100AE000809191008160809391008091900081605D
:100AF000809390008091A10082608093A1008091FA
:100B0000A10081608093A1008091A000816080930A
:100B1000A0008091210182608093210180912101B8
:100B20008160809321018091200181608093200168
:100B300080917A00846080937A0080917A0082604C
:100B400080937A0080917A00816080937A0080910E
:100B50007A00806880937A001092C1008FEF81B98B
:100B600012B82FEF40E782E0215040408040E1F78B
:100B700000C00000109883E00E942302EFE1FEE431
:100B80003197F1F700C0000083E00E94230287E55F
:100B900092E00197F1F700C0000083E00E94230279
:100BA000E7ECF0E03197F1F700C0000082E00E942E
:100BB000230287EC90E00197F1F700C0000088E283
:100BC0000E94B2028CE00E94B20286E00E94B20251
:100BD00081E00E94B202EFE3FFE13197F1F700C03C
:100BE000000080910A018F6080930A0180910B01BF
:100BF0008F6080930B0187B1807F87B988B18F6048
:100C000088B982E08093B00095E09093B1009BE9B1
:100C10009093B3008093700010921B0710921C07F2
:100C20001092C50087E68093C4001092C00088E946
:100C30008093C10086E08093C20010925607109204
:100C4000550784B1806C84B985B18F7385B980EF05
:100C5000809369008FE080936A0080E38DBB1092DF
:100C60001707109219071092180710921A0710927E
:100C7000570780E480937C0010927B0087E8809384
:100C80007A0080917A00806480937A0080917A0063
:100C900086FDFCCF809178009091790080910101D0
:100CA00088608093010182E88093A0008AE18093AC
:100CB000A1008FE39CE99093A7008093A60080EDAC
:100CC00097E09093A9008093A80080910701886124
:100CD0008093070180910801877E80930801259AFF
:100CE00021E8209380009AE090938100109289007F
:100CF00010928800109258078091010180628093C1
:100D00000101809102018F7D8093020110925E07A4
:100D100010925B0710925A0710925D0710925C07C1
:100D200080910101806480930101809102018F7B99
:100D3000809302016B9A20939000909391001092FF
:100D400099001092980010926A07109259077894AF
:100D500081E00E94B2028FE39FE10197F1F700C0AA
:100D6000000080E80E94B20281E892E00E94A602A0
:100D700080EC0E94B20282E992E00E94A6020E94E8
:100D80009C0081EA92E00E94EA000E949C008CEEA6
:100D900092E00E94EA000E949C001092220740ED1F
:100DA000C42E47E0D42E50EAA52E5FE0B52E442491
:100DB0004A9463E0562E612C712CFF24F3942CE3AB
:100DC000E22E30E0832E30E0932E809119078823A5
:100DD000D9F110921907F0921A072F9A80911A07E9
:100DE000813009F041C080E80E94B2028DE593E0B5
:100DF0000E94A6028EE693E00E94EA000E949C00F8
:100E000080911C07882309F410C180911C079091E0
:100E10003407882309F433C580911B0710921B0700
:100E200010921C078A32C1F5109202021092010240
:100E3000992331F11092340780EC0E94B2028DE9BF
:100E400093E00E94A602F1C0809118078823C1F2A6
:100E50001092180780911707813091F692E09093D5
:100E6000170790931A07B9CF823051F680E80E9495
:100E7000B2028EE793E00E94A6028FE893E0BCCF17
:100E8000F0923407109233071092230780EC0E94EF
:100E9000B2028EEA93E0D5CF992309F41FC21092D3
:100EA000020210920102833209F0F2C41092340758
:100EB00080E0E82FF0E0ED5DF84F9081992311F08C
:100EC0008F5FF7CF823058F08091230790ED980F15
:100ED0009A3028F40091240700530A3050F080E83B
:100EE0000E94B2028FEB93E00E94A60280ED93E095
:100EF00000C18053EAE08E9F000D112485E297E047
:100F00000E949F01182F61E470E085E297E00E9443
:100F1000ED0C312C009721F001960E949F01382E94
:100F20000F3109F42CC150F5043109F413C160F4F8
:100F30000A3009F4E1C00B3009F4C1C080E80E9416
:100F4000B2028BE196E0D0CF053109F4F0C00E314A
:100F5000A9F7809102018F7D8093020110925E07B4
:100F600010925B0710925A0780E80E94B20289EC47
:100F700094E00E94A6028AED94E0BBC0033309F41A
:100F800046C118F5093209F421C10233B9F61150EE
:100F90001A3008F049C1E12FF0E0EE0FFF1FE25ECA
:100FA000FD4F80819181009709F43EC10E94EA02C1
:100FB000882309F45CC180E80E94B20284E795E0CE
:100FC0000E94A60285E895E094C00A3509F472C132
:100FD0000B3509F456C10B3309F0B0CF80E80E94FD
:100FE000B20287EC95E00E94A60200EB10E0312CE3
:100FF000C8010E94760C81508E3F08F43394035F41
:101000001F4F0233F1E01F0799F7832D90E00E94F4
:101010004D0281ED95E00E94A60288ED95E00E94C8
:10102000EA000E949C000E94AE01809155079091B9
:101030005607981709F46BC3E82FF0E0EB5CF84F04
:1010400090819A3021F090819D3009F0EBC18E01A2
:101050000F5F1F4FD80120E0180190915607809133
:1010600055079817D9F02F31C9F090915607809104
:101070005507981709F4D9C18091550790E08B5C0A
:10108000984FFC019081809155078F5F8F718093FD
:1010900055079A3019F09D3009F0C8C1F801E20FE8
:1010A000F11D1082F80181918F01882309F4C1C1DB
:1010B00090E00E94E50CF80131978083F3CF80EC3B
:1010C0000E94B20282EE93E00E94A60283EF93E0B8
:1010D0000E94EA000E949C00B092A900A092A80081
:1010E00080EC0E94B20286E094E00E94A60287E1B2
:1010F00094E00E94EA00DBC080EC0E94B20289E228
:1011000094E00E94A6028AE394E00E94EA000E9412
:101110009C00D092A900C092A80080EC0E94B2026C
:101120008DE494E00E94A6028EE594E0E2CF0E9456
:10113000950180E80E94B20280E794E00E94A60236
:1011400081E894E00E94EA008091590790E00E94B3
:10115000A200ADC0809102018F7B809302011092AA
:1011600099001092980010926A0780E80E94B202DB
:101170008FE894E00E94A60280EA94E0BACF3E9CF9
:10118000C001112490935B0780935A07809102015C
:10119000806280930201F0925E0710925D071092C8
:1011A0005C0780E80E94B2028EEA94E00E94A602E8
:1011B0008FEB94E00E94EA00812F90E00E94A20051
:1011C0008BE796E00E94EA00832DC0CF812F0E941A
:1011D000F60089EC0E94B20287EB93E00E94A6021F
:1011E00089EC0E94B20287EE94E00E94A6028091F0
:1011F000580790E00E944D028DE992E00E94A602FD
:101200008AEE94E00E94EA00809158079FCF115027
:101210001A3050F4E12FF0E0EE0FFF1FE25EFD4FB9
:1012200080819181009751F480E80E94B20282EFA0
:1012300094E00E94A60283E095E05BCF632D0E94BC
:101240005803882351F080E80E94B2028EE195E0B5
:101250000E94A6028FE295E04CCF80E80E94B20285
:1012600083E495E00E94A60284E595E042CF80E801
:101270000E94B2028AE995E00E94A6028BEA95E0FC
:1012800038CF85E297E00E940601882371F00E9422
:1012900026011092570780E80E94B20281EF95E084
:1012A0000E94A60282E096E024CF0E94C5020E941E
:1012B0009C00BBCE85E297E00E9406018823A9F33B
:1012C0000E9416011092570780E80E94B20281E83E
:1012D00092E00E94A6028CE096E00BCF10920202F0
:1012E0001092010290ED980F9A3068F5E091220774
:1012F000E43008F09ACE91E09E0F90932207F0E040
:10130000E35EF84F8083E92FF0E0E35EF84F108250
:1013100080EC0E94B20281E396E00E94A60200E007
:1013200010912207011728F48AE20E943A020F5F07
:10133000F7CF143028F48FE50E943A021F5FF9CFEF
:101340008AEB93E07ECD813419F5809122078430B9
:10135000B1F48DE197E00E940601882381F00E949C
:1013600026011092570780E80E94B20281EF95E0B3
:101370000E94A60282E096E00E94EA0002C00E945B
:10138000C5020E949C001092220710921D074DCEAC
:101390008234C1F480912207843089F78DE197E08F
:1013A0000E940601882359F30E94160110925707E4
:1013B00080E80E94B20281E892E00E94A6028CE0DE
:1013C00096E0DACF833411F5809158078F5F8B3028
:1013D00008F08AE00E94F60089EC0E94B20287EBD6
:1013E00093E00E94A60289EC0E94B20287EE94E08C
:1013F0000E94A6028091580790E00E944D028DE95C
:1014000092E00E94A6028AE396E0FCCE843409F0C2
:101410000CCE809158078150990B8F3F9807D1F6D9
:1014200080E0D8CF8F5F8F7102CE90E02F5F9D93C9
:1014300014CE44E050E062E476E0C1010E94F80C72
:10144000892BD9F4CE0105960E940601882381F0EC
:101450000E9426011092570780E80E94B20281EF95
:1014600095E00E94A60282E096E00E94EA0002C097
:101470000E94C5020E949C004AC147E050E06FE311
:1014800076E0C1010E94F80C892BA1F4CE010896E8
:101490000E940601882361F30E94160110925707EB
:1014A00080E80E94B20281E892E00E94A6028CE0ED
:1014B00096E0DBCF44E050E06AE376E0C1010E94B1
:1014C000F80C892B21F5CE0105960E949F010E9400
:1014D000F600109202021092010289EC0E94B20200
:1014E00087EE94E00E94A6028091580790E00E9447
:1014F0004D028DE992E00E94A6028AEE94E00E94DD
:10150000EA008091580790E00E94A200B3CF4CE01F
:1015100050E067E476E0C1010E94F80C892BD9F411
:1015200080EC0E94B20282EE93E00E94A60283EF5A
:1015300093E00E94EA000E949C00B092A900A09251
:10154000A80080EC0E94B20286E094E00E94A6020D
:1015500087E194E08ACF4DE050E06EED72E0C1018A
:101560000E94F80C892BD9F480EC0E94B20289E227
:1015700094E00E94A6028AE394E00E94EA000E949E
:101580009C00D092A900C092A80080EC0E94B202F8
:101590008DE494E00E94A6028EE594E066CF46E0DA
:1015A00050E064E576E0C1010E94F80C892BC9F592
:1015B000CE0107960E949F01082F6CE270E0CE01D9
:1015C00007960E94ED0C10E0009721F001960E9412
:1015D0009F01182F1E9DC001112490935B078093DB
:1015E0005A0780910201806280930201F0925E07A7
:1015F00010925D0710925C0780E80E94B2028EEAAA
:1016000094E00E94A6028FEB94E00E94EA00802FF3
:1016100090E00E94A2008BE796E00E94EA00812FF2
:1016200072CF4AE050E06BE576E0C1010E94F80C11
:10163000892B71F4809102018F7B809302011092BB
:1016400099001092980010926A0780EA94E00DCFFA
:1016500049E050E066E676E0C1010E94F80C892B73
:1016600049F40E94950181E894E00E94EA0080918B
:10167000590749CF4CE050E060E776E0C1010E9495
:10168000F80C892BE9F46CE270E0CE010D960E9413
:10169000ED0C009791F0FC011192CF010E949F0187
:1016A000682FCE010D960E945803882319F08FE20F
:1016B00095E0DBCE84E595E0D8CE8DE796E0D5CEFB
:1016C0004CE050E063E976E0C1010E94F80C892B00
:1016D00061F4CE010D960E94EA02882319F085E894
:1016E00095E0C3CE8BEA95E0C0CE4CE050E060E5DB
:1016F00073E0C1010E94F80C892B09F083C088EDCA
:1017000095E00E94EA000E949C000E94AE01809138
:101710006A07813011F40E94650120915F073091C2
:1017200060072F5F3F4F3093600720935F078091E2
:1017300001029091020201969093020280930102AD
:10174000203D374008F446C01092600710925F07B2
:10175000803E9E42E8F089E00E9430018C0180ECDE
:101760000E94B2028AEB96E00E94A6029801A8E2CB
:10177000B0E00E94C20CA30192010E94A00C822F33
:10178000220F990B0E944D028DEB96E00E94A6025B
:1017900089E00E9430019C01A8E2B0E00E94C20CE6
:1017A000A30192010E94A00C8091080183FD2DC02D
:1017B00022312CF480910801886080930801809187
:1017C000080184FD28C02B312CF080910801806134
:1017D0008093080180915E07882369F080915C07FF
:1017E00090915D070196803A4FE09407D0F4909372
:1017F0005D0780935C078114910409F4E6CA0E9496
:101800000000DBCA80EA96E030CE2531C4F2809138
:101810000801877FD2CF2831ECF6809108018F7EB6
:10182000D7CF10925D0710925C0780915A07909174
:101830005B07009729F0019790935B0780935A0705
:1018400080915A0790915B07892BA9F6809102013C
:101850008F7D8093020110925E0710925B071092B9
:101860005A0780E80E94B20282EC96E00E94A6022B
:1018700083ED96E00E94EA000E949C00BCCF80E0CD
:10188000992309F42BCD109202021092010280E0FC
:1018900090ED980F9A3018F0813409F0C6CBE091A2
:1018A0003307EF3068F491E09E0F90933307F0E038
:1018B000ED5DF84F8083E92FF0E0ED5DF84F108289
:1018C00080EC0E94B2028CE296E00E94A60283E2C3
:1018D00097E00E94A602109133071C5F103108F0B8
:1018E000A4CB80E20E943A021F5FF8CFF999FECFA5
:1018F00092BD81BDF89A992780B50895262FF99950
:10190000FECF1FBA92BD81BD20BD0FB6F894FA9AE2
:10191000F99A0FBE0196089597FB072E16F40094CE
:1019200007D077FD09D00E94D10C07FC05D03EF40A
:10193000909581959F4F0895709561957F4F08957B
:10194000A1E21A2EAA1BBB1BFD010DC0AA1FBB1FC3
:10195000EE1FFF1FA217B307E407F50720F0A21B35
:10196000B30BE40BF50B661F771F881F991F1A94A2
:1019700069F760957095809590959B01AC01BD01CC
:10198000CF010895A29FB001B39FC001A39F700D26
:10199000811D1124911DB29F700D811D1124911D77
:1019A0000895AA1BBB1B51E107C0AA1FBB1FA617A6
:1019B000B70710F0A61BB70B881F991F5A95A9F7F8
:1019C00080959095BC01CD0108959111089581569F
:1019D0008A5108F4805285580895FC018191861738
:1019E00021F08823D9F7992708953197CF010895D9
:1019F000FB01DC014150504030F08D910190801985
:101A000019F40020B9F7881B990B0895F894FFCFBB
:101A1000FF0F27000204080E192C4E7CB4FF313250
:101A2000334134353642373839432A302344DD06D2
:101A3000E306E706EE06F406FB06020707070B07B8
:101A40001107207820004C49535441205641434906
:101A50004100434F4449474F20494E434F5252455E
:101A600043544F004552524F523A434F4449474F17
:101A700000212120494E545255534F20212120202E
:101A80002000414C41524D413A494E545255534F1A
:101A900000414C41524D413A204445534143544941
:101AA0005600543A2D2D432020204C3A302F31300F
:101AB00000436F6D616E646F733A2041524D3A7806
:101AC000787878202F2044495341524D3A787878DD
:101AD00078202F204C555A3A302D3130202F204776
:101AE0004152414A453A4142524952202F204741F2
:101AF00052414A453A43455252415200484F524E94
:101B00004F3A74656D702C6D696E202F20534F4EC7
:101B100049444F3A4F4E2028766F6C20706F7220E8
:101B2000706F7420413029202F20534F4E49444F6D
:101B30003A4F4646202F204D45524341444F3A41AB
:101B400044442C6E6F6D2C63616E74202F204D45C4
:101B5000524341444F3A44454C2C6E6F6D202F2028
:101B60004D45524341444F3A4C49535400212120A2
:101B7000494E43454E44494F202121202000414CED
:101B800041524D413A494E43454E44494F0021216F
:101B900020494E54525553494F4E20212120004197
:101BA0004C41524D413A41434345534F00434D440C
:101BB0002043414E43454C41444F20202000434D9B
:101BC000443A2020202020202020202020200043D4
:101BD0004D4420494E56414C49444F20202020007E
:101BE0004552524F523A434D445F5445434C414451
:101BF0004F00474152414A452041425249454E44D7
:101C00004F20004F4B3A474152414A455F414252B3
:101C100049454E444F00474152414A4520414249BF
:101C20004552544F2020004F4B3A474152414A45BC
:101C30005F4142494552544F00474152414A452075
:101C400043455252414E444F20004F4B3A47415278
:101C5000414A455F43455252414E444F004741522D
:101C6000414A45204345525241444F2020004F4BAA
:101C70003A474152414A455F4345525241444F0021
:101C8000534F4E49444F204F4E20202020202020EB
:101C9000004F4B3A534F4E49444F5F4F4E2C005329
:101CA0004F4E49444F204F46462020202020200000
:101CB0004F4B3A534F4E49444F5F4F464600484FB3
:101CC000524E4F3A204F4E20202020202020004FFF
:101CD0004B3A484F524E4F2C00484F524E4F3A20ED
:101CE0004F4646202020202020004F4B3A484F529C
:101CF0004E4F5F4F4646004C3A004F4B3A4C555AB8
:101D00002C0050524F4420444553434F4E4F4349BB
:101D1000444F004552524F523A50524F445543544B
:101D20004F5F444553434F4E4F4349444F004D4549
:101D3000524341444F202B20202020202020004FC0
:101D40004B3A4D45524341444F5F4147524547410D
:101D5000444F004D455243204C4C454E4F2F445567
:101D6000502020004552524F523A4D455243414473
:101D70004F5F4C4C454E4F5F4F5F4455504C49436D
:101D800041444F004D45524341444F202D202020D7
:101D900020202020004F4B3A4D45524341444F5F95
:101DA000454C494D494E41444F004D455243204E0C
:101DB0004F204558495354452020004552524F5218
:101DC0003A4D45524341444F5F4E4F5F454E434F5E
:101DD0004E545241444F004D45524341444F3A20E6
:101DE00000206974656D20002D2D2D204C49535421
:101DF00041204445204D45524341444F202D2D2D37
:101E000000414C41524D413A2041524D4144412004
:101E100020004F4B3A41524D414441004F4B3A4410
:101E20004553414354495641444100434D442044A5
:101E30004553434F4E4F4349444F2000434D443A8E
:101E400000436F6469676F3A20004C555A3A00446A
:101E5000495341524D3A00474152414A453A414265
:101E600052495200484F524E4F3A00534F4E494448
:101E70004F3A4F464600534F4E49444F3A4F4E005B
:101E80004D45524341444F3A4144442C004552523F
:101E90004F523A464F524D41544F5F4D4552434188
:101EA000444F004D45524341444F3A44454C2C0069
:101EB0004552524F523A434F4D414E444F5F444575
:101EC00053434F4E4F4349444F00543A0043202060
:101ED0002000484F524E4F3A204C4953544F202037
:101EE000202000484F524E4F3A46494E006C6563E1
:101EF00068650070616E00687565766F7300617269
:101F0000726F7A0061636569746500617A756361F7
:101F10007200636166650073616C00706173746167
:061F20000061677561001D
:00000001FF
