:100000000C9472000C9493000C9493000C94780858
:100010000C9466080C949C080C948A080C94930029
:100020000C9493000C9493000C9493000C94930004
:100030000C9493000C94C1070C9493000C949300BF
:100040000C9493000C9493000C9493000C949300E4
:100050000C9493000C9493000C9493000C94470719
:100060000C9493000C9491070C9493000C949300BF
:100070000C9493000C9493000C9493000C949300B4
:100080000C9493000C9493000C9493000C949300A4
:100090000C9493000C9493000C9493000C94930094
:1000A0000C9493000C9493000C9493000C94930084
:1000B0000C9493000C9493000C9493000C94930074
:1000C0000C9493000C9493000C9493000C94930064
:1000D0000C9493000C9493000C9493000C94930054
:1000E0000C94930011241FBECFEFD1E2DEBFCDBF31
:1000F00000E00CBF19E0A0E0B2E0EEE8FCE200E0B6
:100100000BBF02C007900D92AA3DB107D9F72AE0B4
:10011000AAEDB9E001C01D92AB37B207E1F70E942A
:10012000D1080C9445160C94000081E480937C0067
:1001300080917B00886080937B0080917A0080644E
:1001400080937A0080917A0086FDFCCF80917800C0
:100150009091790020E180E090E0DC0130917A001C
:10016000306430937A0030917A0036FDFCCF4091B4
:10017000780050917900840F951FA11DB11D215069
:1001800069F724E0B695A795979587952A95D1F7B5
:1001900008959091C00095FFFCCF8093C60008950C
:1001A0008DE00E94C9008AE00C94C9000F931F9350
:1001B000CF93DF9300D000D01F92CDB7DEB730E0F1
:1001C0000AE010E0009769F480E327960FB6F894F0
:1001D000DEBF0FBECDBFDF91CF911F910F910C9469
:1001E000C90021E0230FE1E0F0E0EC0FFD1FE30F79
:1001F000F11D37FDFA95B8010E94B915805D808325
:10020000CB01322F009769F712166CF41FEF120F13
:10021000E1E0F0E0EC0FFD1FE10FF11D80810E9495
:10022000C900212FF1CF27960FB6F894DEBF0FBE7D
:10023000CDBFDF91CF911F910F910895CF93DF93A1
:10024000EC018991882319F00E94C900FACFDF914F
:10025000CF9108952FB7F8946091040A7091050A20
:100260008091060A9091070A2FBF08958EBD0DB4A4
:1002700007FEFDCF8EB508958B3008F08AE080939D
:10028000540A9091530A913051F4E82FF0E0E65F60
:10029000FD4F808190E0909399008093980008959D
:1002A0008B3008F08AE08093540AE82FF0E0E65F94
:1002B000FD4F808190E09093990080939800809109
:1002C000020180648093020181E08093530A0895C3
:1002D0002898880F80680E94360180E00E943601CD
:1002E000289A0895CF93C62F2898880F0E94360128
:1002F0008C2F0E943601289ACF910895CF92DF92D9
:10030000EF92FF920F931F93CF93DF93F82EC92E96
:10031000E62E8A0160E081E00E94720164E085E0DF
:100320000E94720160E88AE00E947201DF2CCF2DEA
:10033000DC2D699189E00E9472018C2F8D198E1538
:10034000C0F363E081E00E947201C8E8D3E185E078
:100350000E94680182FD02C02197C9F760E081E038
:100360000E94720182E20E946801F801808381E2AA
:100370000E946801F8018183DF91CF911F910F9155
:10038000FF90EF90DF90CF9008950F931F93CF933E
:10039000DF93162F082FEC01699189E00E9472010A
:1003A0008C2F801B8117C0F3DF91CF911F910F918C
:1003B00008950F931F93CF93DF931F921F92CDB792
:1003C000DEB760E088E00E94720160E88AE00E9487
:1003D000720180E6898384E08A8362E0CE0101961F
:1003E0000E94C50166E089E392E00E94C50164E0D5
:1003F00087E79AE00E94C5016FE784E00E947201DE
:100400006EE081E00E94720160E08DE00E94720166
:1004100009EB1BE084E00E946801837129F401501C
:100420001109C1F780E00CC088E00E94680183FFD9
:10043000F9CF86E00E946801982F9B7181E091F7C7
:100440000F900F90DF91CF911F910F9108951F93FF
:10045000CF93DF93EC01162F60E081E00E947201E0
:1004600060E88AE00E947201612FCE010E94C501FE
:1004700060E08DE00E9472016FE784E00E947201EB
:100480006CE081E00E94720160E88DE00E947201E0
:10049000C9EBDBE084E00E946801817341F421979D
:1004A000C9F760E081E00E94720180E017C060E05F
:1004B00081E00E9472018AE00E946801882371F045
:1004C00089E00E946801C82F8CE00E946801877053
:1004D000843041F4CF7081E0CA3039F7DF91CF9199
:1004E0001F91089586E00E946801982F9B7181E01A
:1004F000A9F3DBCFCF92DF92EF92FF920F931F937E
:10050000CF93DF93EC01162F042FC52E790160E8FD
:100510008AE00E947201612FCE010E94C50160E055
:100520008DE00E9472016FE784E00E9472016CE02E
:1005300081E00E94720160E88DE00E947201C9EBC7
:10054000DBE084E00E946801817361F42197C9F7C0
:1005500080E0DF91CF911F910F91FF90EF90DF909E
:10056000CF90089586E00E9468018B7189F78AE038
:100570000E946801882399F0F7011081811708F41F
:10058000182FD02EC02FDC2D8C2F8D19811728F419
:1005900089E00E9468018993F7CFF701108381E019
:1005A000D8CFEF92FF920F931F93CF93DF93CDB7E6
:1005B000DEB7AB970FB6F894DEBF0FBECDBF182FD6
:1005C00088E00E94680183FF25C08091020290911B
:1005D0000302A0910402B09105028FA398A7A9A7D6
:1005E000BAA7AE01475D5F4F62E0CE0187960E94D9
:1005F0007E0180E18BA79E01255D3F4FAE014D5EE0
:100600005F4F64E0CE0187960E947A02811115C087
:1006100090E005C00E94D901982F8111D6CF892F73
:10062000AB960FB6F894DEBF0FBECDBFDF91CF9172
:100630001F910F91FF90EF9008958BA5803140F3AB
:100640001B8B8091060290910702A0910802B09145
:1006500009028BA39CA3ADA3BEA38E010D5D1F4F0A
:10066000AE014B5D5F4F62E0C8010E947E0164E015
:10067000C8010E942702882359F2FE017396DE0109
:1006800011967D0181918D93E017F107D9F7AE01A5
:100690004F5E5F4F60E1C7010E947E0162E1C701CA
:1006A0000E94270291E08111BACFB2CF8F929F9220
:1006B000AF92BF92EF92FF920F931F93CF93DF936E
:1006C000CDB7DEB765970FB6F894DEBF0FBECDBFCE
:1006D0007C0113E08090020290900302A09004023B
:1006E000B090050200E160E088E00E94720188E0BD
:1006F0000E94680183FD08C00E94D901811104C0D5
:10070000115089F780E021C0898A9A8AAB8ABC8A15
:10071000AE014D5E5F4F62E0CE0141960E947E01C8
:100720000D8B9E012B5E3F4FAE014F5F5F4F64E02C
:10073000CE0141960E947A02882311F38D8980317F
:10074000F8F28981F701808381E065960FB6F8940D
:10075000DEBF0FBECDBFDF91CF911F910F91FF90F4
:10076000EF90BF90AF909F908F90089570E070933E
:100770005F0A60935E0AE2E0F1E08081806280833C
:1007800081E08093640A0E942A016093600A70935A
:10079000610A8093620A9093630A08958B3098F0FF
:1007A0008AE08093520A9091800090689093800034
:1007B000E82FF0E0E65FFD4F808190E090938900A4
:1007C0008093880008958093520A8111ECCF809124
:1007D00080008F77809380002D981092890010926E
:1007E00088000895FC018081813351F48181823336
:1007F00039F48281833321F481E09381943309F0C9
:1008000080E008951092580A2E982F988DB3837F18
:100810008DBB1092080A1092090A1092590A109280
:10082000510A089581E08093580A2E9A8DB38C6006
:100830008DBB1092080A0895FC0180E02AE0919196
:1008400030ED390F3A3030F4829F900D112480ED55
:10085000890FF5CF0895CF92DF92EF92FF920F9319
:100860001F93CF9310E000E0C0E0C8010E94A315E1
:100870008F3F01F187E7E82E8AE0F82EC8018757FD
:100880009A406C01C6018E0D9F1D0E94A315F701B1
:1008900091917F0189130EC0FBE7EF16FAE0FF0686
:1008A00089F78C2FCF911F910F91FF90EF90DF90E0
:1008B000CF900895CF5F0B5F1F4FCA30B1F6CFEFD7
:1008C000F0CF5F926F927F928F929F92AF92BF9282
:1008D000CF92DF92EF92FF920F931F93CF93DF930C
:1008E000CDB7DEB72C970FB6F894DEBF0FBECDBFE5
:1008F000CE0101965C01CC24DD24C81AD90A00EB94
:1009000010E0512C3E019DE0690E711CC8010E944F
:10091000A31581508E3F18F575014601E0EB8E0E50
:10092000911CC4018E0D9F1D0E94A315F701819398
:100930007F01E615F705A9F7C8010C960E94A315DB
:10094000F82EC5010E941E018FE392E00E941E0155
:100950008F2D90E00E94D6000E94D0005394035F38
:100960001F4FFDE0CF0ED11C023381E0180771F656
:10097000511006C083E492E00E941E010E94D00044
:100980002C960FB6F894DEBF0FBECDBFDF91CF918E
:100990001F910F91FF90EF90DF90CF90BF90AF909D
:1009A0009F908F907F906F905F900895CF93DF938B
:1009B00060E088E00E94720160E081E00E947201C4
:1009C00060E88AE00E94720160E589E00E9472019D
:1009D00060E089E00E94720163E081E00E947201A0
:1009E000CFEF85E00E94680182FD02C0C150C9F7C7
:1009F00060E081E00E94720182E20E946801D82FCB
:100A000081E20E946801C82F6FE784E00E947201B2
:100A100060E88AE00E94720160E589E00E9472014C
:100A200060E089E00E9472016D2F89E00E947201EE
:100A30006C2F89E00E9472016CE081E00E947201DB
:100A400060E88DE00E9472018FE39FE10197F1F76A
:100A500000C0000060E081E00E94720160E08DE073
:100A6000DF91CF910C94720192B19F7092B992B1C3
:100A700040E1849F90011124922B92B9129A85E053
:100A80008A95F1F70000129887EC90E00197F1F752
:100A900000C000000895CF93C82F109A82958F70E0
:100AA0000E9434058C2F8F700E94340587EC90E0F3
:100AB0000197F1F700C00000CF910895EF92FF92E7
:100AC0000F931F93CF93DF9300D000D01F92CDB729
:100AD000DEB78C0197FF2DC08DE20E944B0511956A
:100AE0000195110980E09AE0E92EF12C21E0280F10
:100AF000E1E0F0E0EC0FFD1FE80FF11D87FDFA9536
:100B0000C801B7010E94B915805D80838B01822FD7
:100B1000672B61F71216F4F41FEF120FE1E0F0E01B
:100B2000EC0FFD1FE10FF11D80810E944B05212F6D
:100B3000F1CF892BB9F680E327960FB6F894DEBF84
:100B40000FBECDBFDF91CF911F910F91FF90EF901E
:100B50000C944B0527960FB6F894DEBF0FBECDBFA1
:100B6000DF91CF911F910F91FF90EF900895CF9358
:100B7000DF93EC018991882319F00E944B05FACF8D
:100B8000DF91CF910895CF93C82F109882958F70E1
:100B90000E9434058C2F8F700E94340587EC90E002
:100BA0000197F1F700C00000CF910895CF9380E83E
:100BB0000E94C305C0E0E0915B0AEC0F80915A0AE5
:100BC000E81758F4F0E0E652F64F80810E944B059A
:100BD000CF5FC03181F7CF91089580E2F7CF809148
:100BE000510A8F5F8093510A833058F480E80E9445
:100BF000C3058FE492E00E94B70581E692E00C9471
:100C00001E0182E08093580A83E08093590A2F9A4C
:100C10001092510A80E80E94C3058EE692E00E947D
:100C2000B7058FE792E0EBCF4F925F926F927F9282
:100C30008F929F92AF92BF92CF92DF92EF92FF92EC
:100C40000F931F93CF93DF93CDB7DEB72C970FB6DB
:100C5000F894DEBF0FBECDBF2C01CE0101966C0112
:100C6000EE24FF24E81AF90A80EB682E712C5E014D
:100C70009DE0A90EB11C86014701E0EB8E0E911C90
:100C8000C401800F911F0E94A315F80181938F0169
:100C9000EA15FB05A9F74BE050E0B201C6010E943E
:100CA0003716892B61F4C3010E94A31581508E3F32
:100CB00020F460E0C3010E94AB1581E00CC0FDE0B0
:100CC0006F0E711C8DE0E80EF11C92E3691691E045
:100CD000790689F680E02C960FB6F894DEBF0FBE39
:100CE000CDBFDF91CF911F910F91FF90EF90DF90DB
:100CF000CF90BF90AF909F908F907F906F905F90BC
:100D00004F9008953F924F925F926F927F928F9291
:100D10009F92AF92BF92CF92DF92EF92FF920F938A
:100D20001F93CF93DF93CDB7DEB72C970FB6F89410
:100D3000DEBF0FBECDBF482E392E562ECE010196F6
:100D40005C01CC24DD24C81AD90A00EB10E03E0176
:100D50009DE0690E711C7501460180EB880E911CA7
:100D6000C4018E0D9F1D0E94A315F70181937F0181
:100D7000E615F705A9F74BE050E0642D732DC5018A
:100D80000E943716892B09F03FC0045F1F4FC8012E
:100D90000E94A315851521F0652DC8010E94AB1591
:100DA00082E012C07C0160E0C7010E94AB15B394E1
:100DB0009FEFE91AF90AECE0BE12F5CF652DC801E4
:100DC0000C960E94AB1581E02C960FB6F894DEBF0E
:100DD0000FBECDBFDF91CF911F910F91FF90EF908C
:100DE000DF90CF90BF90AF909F908F907F906F904B
:100DF0005F904F903F900895035F1F4F0233F1E0E3
:100E00001F0771F480E0E0CF035F1F4FFDE0CF0EBE
:100E1000D11C023381E0180709F09DCF00EB10E0F0
:100E2000C8010E94A31581508E3F30F3E42CF32CAF
:100E3000D12CC12CBC2CF70161917F01C8018C0D14
:100E40009D1D662309F4AECF0E94AB15FFEFCF1AAC
:100E5000DF0A8BE0C816D10469F760E0C8010B9681
:100E60000E94AB15ABCF1F93CF93DF93EC01162FEE
:100E70000E94A315811739F0612FCE01DF91CF9128
:100E80001F910C94AB15DF91CF911F9108951F9284
:100E90000F920FB60F9211242F933F938F939F932E
:100EA000AF93BF938091730A9091740AA091750AD1
:100EB000B091760A3091720A23E0230F2D3758F54E
:100EC0000196A11DB11D2093720A8093730A90931D
:100ED000740AA093750AB093760A80916E0A909175
:100EE0006F0AA091700AB091710A0196A11DB11DFF
:100EF00080936E0A90936F0AA093700AB093710A60
:100F0000BF91AF919F918F913F912F910F900FBE05
:100F10000F901F90189526E8230F0296A11DB11D72
:100F2000D2CF1F920F920FB60F9211240BB60F92D1
:100F30002F938F939F93EF93FF939091C60080918F
:100F4000C00085FFFCCF9093C60080912F0A8F5F71
:100F50008F712091500A281741F0E0912F0AF0E09C
:100F6000E05DF54F908380932F0AFF91EF919F9161
:100F70008F912F910F900BBE0F900FBE0F901F906F
:100F800018951F920F920FB60F9211240BB60F9265
:100F90002F933F934F935F936F937F938F939F9381
:100FA000AF93BF93CF93DF93EF93FF938091040AA6
:100FB0009091050AA091060AB091070A0A96A11D10
:100FC000B11D8093040A9093050AA093060AB0937A
:100FD000070A30E020E0A1E0B0E07FE0622FCD0121
:100FE000022E01C0880F0A94EAF7872780930B012D
:100FF0008AE68A95F1F700C086B180958F7091F0EE
:1010000050E040E090E0E42FEC01042E02C0D595C2
:10101000C7950A94E2F7C0FD55C04F5F5F4F44305B
:10102000510589F72F5F3F4F24303105B9F6EFEFB7
:10103000809101028E1341C08091030A8F3F29F0F5
:101040008091030A8F5F8093030A8091030A8230A4
:10105000F9F4809100028E17D9F0E0930002EF3F7F
:10106000B9F08091160A811113C08E2F869586954E
:10107000E37024E0829FC00111248B5E9D4FE80F36
:10108000F92FF11D80818093150A81E08093160A63
:10109000FF91EF91DF91CF91BF91AF919F918F9190
:1010A0007F916F915F914F913F912F910F900BBE68
:1010B0000F900FBE0F901F901895E09301021092B1
:1010C000030AC3CFEE0FEE0FE60FB2CF1F920F92BF
:1010D0000FB60F9211248F9381E08093080A84E069
:1010E0008093020A8F910F900FBE0F901F9018955A
:1010F0001F920F920FB60F9211248F9381E080936D
:10110000080A83E08093020A8F910F900FBE0F9020
:101110001F9018951F920F920FB60F9211248F9364
:1011200081E08093090A82E08093020A8F910F90F8
:101130000FBE0F901F9018951F920F920FB60F922F
:1011400011248F9381E08093090A8093020A8F9182
:101150000F900FBE0F901F901895DC01EAEDF9E09B
:1011600090E02D91222329F0973219F021939F5F6F
:10117000F8CFE92FF0E0E652F64F108290935A0A2A
:1011800010925B0A10925D0A10925C0A0E94D605CA
:1011900081E090915A0A913108F480E080936D0AC1
:1011A0000895CF93DF93CDB7DEB7EB970FB6F894E2
:1011B000DEBF0FBECDBF789484B5826084BD84B598
:1011C000816084BD85B5826085BD85B5816085BD42
:1011D00080916E00816080936E00109281008091FA
:1011E0008100826080938100809181008160809382
:1011F0008100809180008160809380008091B100A7
:1012000084608093B1008091B00081608093B000D1
:101210008091910082608093910080919100816023
:1012200080939100809190008160809390008091E4
:10123000A10082608093A1008091A10081608093D1
:10124000A1008091A00081608093A0008091210185
:10125000826080932101809121018160809321012E
:101260008091200181608093200180917A008460C8
:1012700080937A0080917A00826080937A008091D6
:101280007A00816080937A0080917A0080688093F0
:101290007A001092C1008FEF81B912B82FEF80E76A
:1012A00092E0215080409040E1F700C0000010988B
:1012B00083E00E943405EFE1FEE43197F1F700C0CE
:1012C000000083E00E94340587E592E00197F1F782
:1012D00000C0000083E00E943405E7ECF0E03197A5
:1012E000F1F700C0000082E00E94340587EC90E036
:1012F0000197F1F700C0000088E20E94C3058CE06E
:101300000E94C30586E00E94C30581E00E94C305D8
:10131000EFE3FFE13197F1F700C0000080910A018F
:101320008F6080930A0180910B018F6080930B0185
:1013300087B1807F87B988B18F6088B982E0809358
:10134000B00097E09093B1009BE99093B300809335
:1013500070001092150A1092160A1092C50087E6C6
:101360008093C4001092C00088E98093C10086E099
:101370008093C20010922F0A1092500A84B1806CA0
:1013800084B985B18F7385B980EF809369008FE050
:1013900080936A0080E38DBB1092580A1092090A6C
:1013A0001092080A1092590A1092510A80E4809310
:1013B0007C0010927B0087E880937A0080917A000D
:1013C000806480937A0080917A0086FDFCCF8091C2
:1013D00078009091790080910101886080930101EB
:1013E00082E88093A0008AE18093A1008FE39CE9CA
:1013F0009093A7008093A60080ED97E09093A900BA
:101400008093A800809107018861809307018091F3
:101410000801877E80930801259A2D9881E08093AA
:1014200080009AE0909381001092890010928800C9
:101430001092520A80910101806280930101809193
:1014400002018F7D809302011092640A10925F0A5C
:1014500010925E0A1092600A1092610A1092620A5B
:101460001092630A80910101806480930101809150
:1014700002018F7B809302016B9A81E88093900038
:101480009093910010929900109298001092530A34
:101490001092540A9D9AA59AFFEF20E782E0F1503E
:1014A00020408040E1F700C0000084B1876084B92B
:1014B0002398289A81E58CBD6FE081E00E9472013B
:1014C00013E09FEFE0E7F2E09150E040F040E1F7F9
:1014D00000C0000081E00E94680184FF02C011503A
:1014E00081F76DE88AE20E94720167E08BE20E9458
:1014F000720160E08CE20E9472016FE38DE20E9453
:10150000720160E485E10E9472016DE381E10E9455
:10151000720184E10E946801982F937029F4682F6A
:10152000636084E10E9472011092140A989AA09854
:10153000789481E00E94C3058FE39FE10197F1F762
:1015400000C0000080E80E94C30580ED92E00E9488
:10155000B70580EC0E94C30581EE92E00E94B705BA
:101560000E94D00082EF92E00E941E010E94D000F3
:101570008DE393E00E941E010E94D0008EE693E06E
:101580000E941E010E94D00010921C0A6E0190E37E
:10159000C90ED11C44244A9443E0542E612C712C72
:1015A0008091090A882309F451C01092090A81E048
:1015B0008093590A2F9A8091590A10926D0A8130AE
:1015C00009F053C080E80E94C3058DEE93E00E94AD
:1015D000B7058EEF93E00E941E010E94D00080911B
:1015E000140A813009F4A4C008F44CC0823009F414
:1015F000BBC28091160A882309F42FC58091160A70
:1016000000912E0A882311F40C9466151091150A86
:101610001092150A1092160A1A3209F0C6C20E94D8
:101620002A016093650A7093660A8093670A909313
:10163000680A002309F4ACC210922E0A80E80E94C6
:10164000C30581ED95E00E94B70507C58091080AA2
:10165000882329F21092080A8091580A813009F0F3
:10166000BECF82E08093580AA3CF823009F0B7CF73
:1016700080E80E94C3058EE094E00E94B7058FE1E8
:1016800094E0A9CF8091120A9091130A009729F053
:1016900001979093130A8093120A8091110A8F5F29
:1016A000853018F48093110AA4CF1092110A60E0DB
:1016B00081E00E94720160E88AE00E94720186E285
:1016C000898361E0CE0101960E94C50167E08DE04B
:1016D0000E9472016FE784E00E9472016CE081E079
:1016E0000E94720167E88DE00E94720109EB1BE025
:1016F00084E00E946801817319F401501109C1F757
:1017000084E00E946801082F8AE00E946801182F77
:1017100060E081E00E94720105FF6BCF112309F4A4
:1017200068CF89E00E94680181E08093140A61CF4C
:1017300003E908AF80E289AF85E08BAF9E01255CAD
:101740003F4FA60162E0CE01C8960E947A0288232C
:1017500009F413C18BAD853008F40FC188A899A88E
:10176000AAA8BBA8182D19251A251B258CA9181362
:1017700004C18092770A9092780AA092790AB09276
:101780007A0A09A780E78AA78BA69CA6ADA6BEA663
:101790001FA760E081E00E94720160E88AE00E9479
:1017A00072017E01E9E2EE0EF11CF70161917F0109
:1017B00089E00E947201CE14DF04B9F763E081E092
:1017C0000E9472010FEF85E00E94680182FD02C055
:1017D0000150C9F760E081E00E94720182E20E943C
:1017E0006801082F81E20E94680193E9998390E7DC
:1017F0009A838B829C82AD82BE821F8308878987F1
:1018000083E08AAF9E01265C3F4FAE014B5C5F4F89
:1018100069E0CE0101960E947A0260E088E00E94B1
:10182000720180910E0A811181C08091570A88232C
:1018300009F425C1813009F0BEC00E942B048F3FFE
:1018400009F0A4C010E000E0C8010E94A3158F3F7A
:1018500009F096C09090550A37E7A32E3AE0B32ED0
:10186000F12CE12CF50161915F01C8018E0D9F1DE6
:101870000E943307FFEFEF1AFF0A24E0E216F1049B
:1018800089F7692DC80104960E9433078091550A93
:10189000882309F482C081E594E00E941E018091B2
:1018A000560A90E00E94D6000E94D00080E80E9474
:1018B000C30583E694E00E94B70580E80E94C30553
:1018C00084E794E00E94B7058091560A90E00E9458
:1018D0005E058091560A0E94D1021092570A8091AB
:1018E000770A80930A0A8091780A80930B0A809184
:1018F000790A80930C0A80917A0A80930D0A81E01C
:1019000080930E0A8CE390E09093130A8093120A5E
:101910000E942A016093650A7093660A8093670AA1
:101920009093680A0E94D60482E0FFCE8091120A4A
:101930009091130A892B09F478CF9091770A8091BE
:101940000A0A981372CF9091780A80910B0A981323
:101950006CCF9091790A80910C0A981366CF909180
:101960007A0A80910D0A981360CF8CE390E09093EF
:10197000130A8093120A0E94D6041092140A39CED8
:101980000B5F1F4F0233110509F05ECF82E894E030
:101990000E941E010E94D000A0CF8DE294E00E9420
:1019A0001E010E94D00080E80E94C30580E494E0FC
:1019B0000E94B70592CF8230D1F40E942B048F3F52
:1019C00099F06FEFE5E08E9FC00111240E9433076C
:1019D00081EA94E00E941E010E94D00080E80E94EB
:1019E000C3058CEA94E0E4CF8DEB94E0D1CF833053
:1019F00009F073CF0E942B048F3FB1F3F5E08F9F66
:101A0000C001112404960E94A3158130A9F5198202
:101A1000CE0101960E945603882359F189810091D5
:101A2000560A080F081708F40FEF802F0E94D10202
:101A30008823E1F081ED94E00E941E0110E0C801CE
:101A40000E94D6000E94D00080E80E94C30583E671
:101A500094E00E94B70580E80E94C3058DED94E0F4
:101A60000E94B705C8010E945E0537CF88EE94E05A
:101A70008FCF80E095E08CCF84E195E089CF0E9404
:101A80002B048F3F71F489E295E00E941E010E94B1
:101A9000D00080E80E94C30589E395E00E94B70565
:101AA0001ECF25E0829FC001112404960E94A31539
:101AB00081110DC0A09A8AE495E00E941E010E9447
:101AC000D00080E80E94C30582E695E0E7CF198246
:101AD000CE0101960E9456038823D1F18981882383
:101AE00059F1815089830E94D1028823F1F0A09A94
:101AF00083E795E00E941E01898190E00E94D60054
:101B00000E94D00080E80E94C30583E694E00E9412
:101B1000B70580E80E94C3058AE895E00E94B705F2
:101B2000898190E00E945E05DACE88EE94E00E9402
:101B30001E010E94D000D3CE85E995E00E941E01CF
:101B40000E94D00080E80E94C3058FEA95E0A6CFEE
:101B500080E095E00E941E010E94D00080E80E9473
:101B6000C30580EC95E09ACF80910F0A9091100AFE
:101B70000196803DE7E09E0728F49093100A809339
:101B80000F0A37CD1092100A10920F0AA098F5CEC6
:101B900081E080932E0A10922D0A10921D0A80E88F
:101BA0000E94C30582EE95E04ECD002309F4CCC21D
:101BB0000E942A016093650A7093660A8093670AFF
:101BC0009093680A133209F090C710922E0A80E8A9
:101BD0000E94C30583E694E00E94B70580E0E82FE9
:101BE000F0E0E35EF54F9081992311F08F5FF7CF1E
:101BF000823058F080911D0A90ED980F9A3028F4A9
:101C000010911E0A10531A3050F080E80E94C3054C
:101C100083EF95E00E94B70584E096E0C6C080534C
:101C2000FAE08F9F100D11248FE19AE00E941C04AE
:101C3000082F61E470E08FE19AE00E9425165C01B4
:101C4000E12C009721F001960E941C04E82E193225
:101C500009F468C1D0F5153109F4AAC028F51B3084
:101C600009F487C0143109F4CCC01A3041F580EC76
:101C70000E94C3058DE596E00E94B7058EE696E0CA
:101C80000E941E010E94D00080ED97E09093A90071
:101C90008093A80080EC0E94C30581E896E00E9432
:101CA000B70582E996E081C0173109F4E5C008F470
:101CB000BDC01E3109F421C11F3109F4E8C080E81C
:101CC0000E94C3058FE998E0A5CF1C3309F415C223
:101CD00080F5133309F447C11B3309F494C112335F
:101CE00071F701500A3008F04CC1E02FF0E0EE0F20
:101CF000FF1FEB5DFD4F008111810115110509F4F6
:101D000040C1C8010E941406882309F472C1B801B9
:101D1000CE0101960E94301668E977E0CE01019667
:101D20000E941A16CE0101960E94AD0883EA97E040
:101D30003CC01E3309F4C3C108F4A5C11A3509F427
:101D4000EFC11B3509F0BBCF8FE19AE00E94F2038F
:101D5000882309F4AFC10E9412041092510A80E84E
:101D60000E94C30585E798E00E94B70586E898E0E1
:101D70001CC080EC0E94C30586E196E00E94B70576
:101D800087E296E00E941E010E94D00080EA9FE058
:101D90009093A9008093A80080EC0E94C3058AE379
:101DA00096E00E94B7058BE496E00E941E0184C174
:101DB000802F0E94500180E80E94C30584EA96E0CB
:101DC0000E94B70589EC0E94C3058CE694E00E944E
:101DD000B70589EC0E94C30585EB96E00E94B70524
:101DE0008091540A90E00E945E0588EB96E00E9484
:101DF000B7058CEB96E00E941E018091540A90E09A
:101E000079C0809102018F7B80930201109299002A
:101E1000109298001092530A80E80E94C3058AEC41
:101E200096E00E94B7058BED96E0BFCF8091530AF4
:101E3000813019F089EE96E0B8CF8091540A8F5F17
:101E40000E943C0189EC0E94C3058CE694E00E944C
:101E5000B70589EC0E94C30585EB96E00E94B705A3
:101E60008091540A90E00E945E0588EB96E00E9403
:101E7000B7058EEF96E0BFCF8091530A8130D1F63F
:101E80008091540A815087FFDBCF80E0D9CF6E2D3F
:101E9000802F0E94B60380E80E94C30586E097E089
:101EA0000E94B70586E80E94C30510E0C8010E94A1
:101EB0005E0583E40E944B0589EC0E94C3058CE615
:101EC00094E00E94B70589EC0E94C305F12CC7017C
:101ED0000E945E058FEA99E00E94B70587E197E0CE
:101EE0000E941E01C8010E94D60084E099E00E9471
:101EF0001E01C7010E94D600DFC0809102018F7DC4
:101F0000809302011092640A10925F0A10925E0A96
:101F100080E80E94C30581E297E00E94B70582E352
:101F200097E043CF802F0E94CE0389EC0E94C30527
:101F30008CE694E00E94B70589EC0E94C30586EF09
:101F400098E00E94B7058091520A90E00E945E05D9
:101F500088EB96E00E94B7058FE397E00E941E0190
:101F60008091520A4CCF01500A3058F4E02FF0E033
:101F7000EE0FFF1FEB5DFD4F008111810115110573
:101F800051F480E80E94C30587E497E00E94B705FA
:101F900088E597E00ACF6E2DC8010E948206F82ED0
:101FA00081110AC080E80E94C30583E797E00E9480
:101FB000B70584E897E0F9CEB801CE0101960E94FA
:101FC000301622E06EE872E0F21611F06BE972E072
:101FD000CE0101960E941A16CE0101960E94AD080C
:101FE00082E0F81203C085EA92E0DFCE8CEB92E04B
:101FF000DCCE80E80E94C30588EB97E00E94B7051D
:1020000089EC97E0D2CE80E80E94C30585EE97E088
:102010000E94B70580EBE82EF12C10E0C7010E946A
:10202000A31581508E3F08F41F5F9DE0E90EF11C5F
:10203000E2E3EE16E1E0FE0689F7812F90E00E94D0
:102040005E058FEE97E00E94B70586EF97E00E944D
:102050001E010E94D0000E9461048091500A90915C
:102060002F0A981709F48FC3E82FF0E0E05DF54FD1
:1020700090819A3009F412C190819D3009F40EC10B
:102080008F5F8F71ECCF8FE19AE00E94F20388237B
:1020900089F081E08093570A1092550A1092560AEF
:1020A00080E80E94C3058FE098E00E94B70580E2B7
:1020B00098E07BCE0E94EF050E94D000CECFC501F4
:1020C0000196AB2811F48FE19AE00E94F203882375
:1020D00089F381E08093570A8093550A0093560A4A
:1020E00080E80E94C30584E398E00E94B70585E478
:1020F00098E00E941E01802F82CE8FE19AE00E941C
:10210000F2038823B9F282E08093570A80E80E94A4
:10211000C30588E598E00E94B70589E698E045CEBA
:102120008FE19AE00E94F203882321F20E940204C8
:102130001092510A80E80E94C30580ED92E00E944F
:10214000B70580E998E031CE0E942A016093650AC4
:102150007093660A8093670A9093680A80ED810FF6
:102160008A3068F5E0911C0AE43008F076CF81E00F
:102170008E0F80931C0AF0E0E95EF54F1083E82F84
:10218000F0E0E95EF54F108280E80E94C30585EB20
:1021900098E00E94B70500E010911C0A011728F48E
:1021A0008AE20E944B050F5FF7CF143028F48FE5C9
:1021B0000E944B051F5FF9CF8FE694E044CA1134AB
:1021C00019F580911C0A8430B1F487E19AE00E94ED
:1021D000F203882381F00E9412041092510A80E8D1
:1021E0000E94C30585E798E00E94B70586E898E05D
:1021F0000E941E0102C00E94EF050E94D0001092B2
:102200001C0A1092170A29CF1234C1F480911C0ABB
:10221000843089F787E19AE00E94F203882359F31A
:102220000E9402041092510A80E80E94C30580EDCA
:1022300092E00E94B70580E998E0DACF133411F5F7
:102240008091520A8F5F8B3008F08AE00E94CE03A3
:1022500089EC0E94C3058CE694E00E94B70589ECE6
:102260000E94C30586EF98E00E94B7058091520A4C
:1022700090E00E945E0588EB96E00E94B7058EEB29
:1022800098E06CCE143409F0E8CE8091520A815067
:10229000990B8F3F9807D1F680E0D8CF80E020914E
:1022A0002F0A9091500A2917A1F18F3190F52091B2
:1022B0002F0A9091500A291709F44DC0E091500A55
:1022C000F0E0E05DF54F90812091500A2F5F2F7173
:1022D0002093500A9A3011F09D30A1F530912F0AC9
:1022E0002091500A3217A9F0E091500AF0E0E05D29
:1022F000F54F20819D3049F42A3059F49091500ACD
:102300009F5F9F719093500A04C09A3011F42D3052
:10231000A9F3E1E0F0E0EC0FFD1FE80FF11D1082E2
:10232000882309F430C28E010F5F1F4FF80181919D
:102330008F018823D1F090E00E941216F8013197A6
:102340008083F4CF983011F09F3731F4882309F45B
:10235000A6CF8150A4CF90E0E1E0F0E0EC0FFD1FAC
:10236000E80FF11D90838F5F9ACF44E050E066EC58
:1023700078E0CE0101960E943716892BD9F4CE0160
:1023800005960E94F203882381F00E9412041092A5
:10239000510A80E80E94C30585E798E00E94B705CE
:1023A00086E898E00E941E0102C00E94EF050E948C
:1023B000D000E9C147E050E063EC78E0CE0101963F
:1023C0000E943716892BA1F4CE0108960E94F203D1
:1023D000882359F30E9402041092510A80E80E9457
:1023E000C30580ED92E00E94B70580E998E0DACF5E
:1023F00044E050E06EEB78E0CE0101960E94371683
:10240000892B41F5CE0105960E941C040E94CE0343
:102410000E942A016093650A7093660A8093670A96
:102420009093680A89EC0E94C30586EF98E00E94A9
:10243000B7058091520A90E00E945E0588EB96E015
:102440000E94B7058FE397E00E941E018091520A17
:1024500090E09EC04CE050E06BEC78E0CE0101963D
:102460000E943716892BE9F480EC0E94C30586E1AF
:1024700096E00E94B70587E296E00E941E010E9446
:10248000D00080EA9FE09093A9008093A80080ECA0
:102490000E94C3058AE396E00E94B7058BE496E0AC
:1024A00081CF4DE050E06FE273E0CE0101960E94D3
:1024B0003716892BE9F480EC0E94C3058DE596E080
:1024C0000E94B7058EE696E00E941E010E94D00091
:1024D00080ED97E09093A9008093A80080EC0E9483
:1024E000C30581E896E00E94B70582E996E05ACFDD
:1024F00046E050E068ED78E0CE0101960E94371684
:10250000892B09F048C0CE0107960E941C04E82ED2
:102510006CE270E0CE0107960E94251600E000975D
:1025200021F001960E941C04082F602F8E2D0E941E
:10253000B60380E80E94C30586E097E00E94B705D5
:1025400086E80E94C305F12CC7010E945E0583E462
:102550000E944B0589EC0E94C3058CE694E00E9422
:10256000B70589EC0E94C30510E0C8010E945E0512
:102570008FEA99E00E94B70587E197E00E941E016B
:10258000C7010E94D60084E099E00E941E01C801A4
:102590000E94D6000CCF4AE050E06FED78E0CE010B
:1025A00001960E943716892BA9F4809102018F7B36
:1025B0008093020110929900109298001092530A91
:1025C00080E80E94C3058AEC96E00E94B7058BED77
:1025D00096E0E8CE49E050E06AEE78E0CE01019660
:1025E0000E943716892BC9F51091540A111101C0A8
:1025F00015E06CE270E0CE010A960E942516009765
:1026000021F001960E941C04182F812F0E94500176
:1026100080E80E94C30584EA96E00E94B70589EC31
:102620000E94C3058CE694E00E94B70589EC0E94E5
:10263000C30585EB96E00E94B7058091540A90E0AF
:102640000E945E0588EB96E00E94B7058CEB96E051
:102650000E941E018091540AFBCE44E050E064EFDA
:1026600078E0CE0101960E943716892BB9F580914A
:10267000530A813019F089EE96E094CE8D818B3229
:10268000F9F48091540A8F5F0E943C0189EC0E940A
:10269000C3058CE694E00E94B70589EC0E94C3054F
:1026A00085EB96E00E94B7058091540A90E00E9465
:1026B0005E0588EB96E00E94B7058EEF96E0C8CFE6
:1026C0008D3239F48091540A815087FFDDCF80E04C
:1026D000DBCFCE0105960E941C04D6CF4CE050E023
:1026E00069EF78E0CE0101960E943716892B11F52B
:1026F0006CE270E0CE010D960E9425160097B9F0AD
:10270000FC011192CF010E941C04682FCE010D968E
:102710000E948206811103C084E897E043CE823094
:1027200019F485EA92E03ECE8CEB92E03BCE86E057
:1027300099E038CE4CE050E06CE179E0CE010196B2
:102740000E943716892B61F4CE010D960E94140663
:10275000882319F083EA97E025CE89EC97E022CE12
:102760004CE050E060EE73E0CE0101960E94371617
:10277000892B09F0DDC086EF97E00E941E010E94C0
:10278000D0000E94610480916D0A882371F08091CD
:102790005C0A90915D0A01968C32F1E09F0708F087
:1027A00051C190935D0A80935C0A0E942A010091B6
:1027B000690A10916A0A20916B0A30916C0A601BB9
:1027C000710B820B930B643F71408105910508F4F6
:1027D0005AC00E942A016093690A70936A0A809322
:1027E0006B0A90936C0A0E942A010091650A10916D
:1027F000660A2091670A3091680A601B710B820B90
:10280000930B683B7B4081059105E0F00E949500A9
:102810008C0180EC0E94C3058DE799E00E94B7050A
:102820009801A8E2B0E00E94EF15A30192010E9476
:10283000CD15822F220F990B0E945E0580E899E04A
:102840000E94B7050E9495009C01A8E2B0E00E949A
:10285000EF15A30192010E94CD158091080183FD1F
:1028600027C122312CF480910801886080930801EF
:102870008091080184FD23C12B312CF08091080147
:102880008061809308018091640A882309F446C01E
:102890000E942A010091600A1091610A2091620A47
:1028A0003091630A601B710B820B930B683E73407F
:1028B0008105910598F10E942A016093600A709346
:1028C000610A8093620A9093630A80915E0A9091F4
:1028D0005F0A009729F0019790935F0A80935E0A40
:1028E00080915E0A90915F0A892BC1F48091020168
:1028F0008F7D809302011092640A10925F0A1092F9
:102900005E0A80E80E94C30585E899E00E94B70549
:1029100086E999E00E941E010E94D00080E090E0CC
:10292000892B11F40C94D00A0E9400000C94D00A58
:102930004DE050E069E279E0CE0101960E94371641
:10294000892B89F4CE010E960E94F203882309F4A4
:102950002CCD81E08093570A1092550A1092560AA6
:1029600080E298E01FCD4BE050E067E379E0CE01D4
:1029700001960E943716892B19F5CE010C960E94FC
:102980001C04182F6CE270E0CE010C960E942516F4
:10299000009799F001960E94F203882309F405CD6F
:1029A00081E08093570A8093550A1093560A85E474
:1029B00098E00E941E01812F4BCDCE010C96EBCFEB
:1029C00047E050E063E479E0CE0101960E943716BB
:1029D000892B69F4CE0108960E94F203882309F43A
:1029E000E4CC82E08093570A89E698E0DBCC48E0AB
:1029F00050E06BE479E0CE0101960E943716892BF6
:102A0000F1F4CE0109960E941C04182F6CE270E0CC
:102A1000CE0109960E942516009771F001960E943A
:102A2000F203882309F4C1CC83E08093570A109302
:102A3000560A84E599E0BDCFCE010996F0CF83E632
:102A400099E0B0CC10925D0A10925C0A80915B0A0A
:102A50008F5F80935B0A90915A0A981730F5109215
:102A60006D0A80E80E94C3058091580A813029F4DC
:102A700085E798E00E94B70598CE8091580A823089
:102A800089F48091590A813019F48DEE93E0F2CFE8
:102A90008091590A823019F48EE094E0EBCF8EE6F3
:102AA00092E0E8CF80ED92E0E5CF0E94D6057DCEA2
:102AB00025310CF4DDCE80910801877FD7CE2831F7
:102AC0000CF0E1CE809108018F7EDBCE10E0002378
:102AD00009F43ACB0E942A016093650A7093660A52
:102AE0008093670A9093680A10E080ED810F8A3026
:102AF00018F0113409F0B1CAE0912D0AEF3068F4F2
:102B000081E08E0F80932D0AF0E0E35EF54F108395
:102B1000E82FF0E0E35EF54F108280E80E94C305E5
:102B200080EB98E00E94B7058DE19AE00E94B7051E
:102B300010912D0A1C5F103108F08FCA80E20E94AC
:102B40004B051F5FF8CFF999FECF92BD81BDF89A72
:102B5000992780B50895262FF999FECF1FBA92BD07
:102B600081BD20BD0FB6F894FA9AF99A0FBE01966E
:102B7000089597FB072E16F4009407D077FD09D02F
:102B80000E94FE1507FC05D03EF4909581959F4F5D
:102B90000895709561957F4F0895A1E21A2EAA1BA2
:102BA000BB1BFD010DC0AA1FBB1FEE1FFF1FA217FD
:102BB000B307E407F50720F0A21BB30BE40BF50BFA
:102BC000661F771F881F991F1A9469F76095709583
:102BD000809590959B01AC01BD01CF010895A29F06
:102BE000B001B39FC001A39F700D811D1124911DE1
:102BF000B29F700D811D1124911D0895AA1BBB1B4E
:102C000051E107C0AA1FBB1FA617B70710F0A61BEC
:102C1000B70B881F991F5A95A9F780959095BC010D
:102C2000CD0108959111089581568A5108F480527A
:102C300085580895FB01DC010D900020E9F71197FC
:102C400001900D920020E1F70895FC018191861713
:102C500021F08823D9F7992708953197CF01089556
:102C6000FB01DC0101900D920020E1F70895FB01CA
:102C7000DC014150504030F08D910190801919F4E1
:0E2C80000020B9F7881B990B0895F894FFCF38
:102C8E00FFFF30040000A0040000000204080E192B
:102C9E002C4E7CB4FF31323341343536423738391D
:102CAE00432A302344A009A609AA09B109B709BECF
:102CBE0009C509CA09CE09D409FFFFFFFFFFFF208E
:102CCE007820004C4953544120564143494100431A
:102CDE004F4449474F20494E434F52524543544F5C
:102CEE00004552524F523A434F4449474F0021211B
:102CFE0020494E545255534F20212120202000416F
:102D0E004C41524D413A494E545255534F00204179
:102D1E00435455414C495A41444F00204147524576
:102D2E004741444F004F4B3A4D45524341444F5F4C
:102D3E0041435455414C495A41444F004F4B3A4D33
:102D4E0045524341444F5F414752454741444F002E
:102D5E00414C41524D413A2044455341435449560A
:102D6E0000543A2D2D43202020204C3A302F313064
:102D7E002000436F6D616E646F733A2041524D3A7D
:102D8E0078787878202F2044495341524D3A7878FC
:102D9E007878202F204C555A3A302D3130202F2064
:102DAE00474152414A453A4142524952202F20470B
:102DBE004152414A453A43455252415200454E52C4
:102DCE004F4C3A4144554C544F202F20454E524FB4
:102DDE004C3A48494A4F2C4E202F20424F525241D6
:102DEE0052202F2041434345534F533A4E00484FF4
:102DFE00524E4F3A74656D702C6D696E202F2053B4
:102E0E004F4E49444F3A4F4E5B2C302D31305D20A2
:102E1E002F20534F4E49444F3A4F4646202F2056AF
:102E2E004F4C3A4E202F20564F4C3A2B202F2056E7
:102E3E004F4C3A2D202F204D45524341444F3A419D
:102E4E0044442C6E6F6D2C63616E74202F204D45A3
:102E5E00524341444F3A44454C2C6E6F6D202F2007
:102E6E004D45524341444F3A4C4953540021212081
:102E7E00494E43454E44494F202121202000414CCC
:102E8E0041524D413A494E43454E44494F0021214E
:102E9E0020494E54525553494F4E20212120004176
:102EAE004C41524D413A41434345534F004F4B3AEB
:102EBE00454E524F4C41444F5F4144554C544F0088
:102ECE00454E524F4C41444F204144554C544F2097
:102EDE00004F4B3A454E524F4C41444F5F48494A82
:102EEE004F2C0020202020202020202020202020B9
:102EFE0020202000454E524F4C2048494A4F204337
:102F0E003A004552524F523A454550524F4D5F4C42
:102F1E004C454E415F4F5F4455504C494341444FE1
:102F2E00004F4B3A424F525241444F005441524A85
:102F3E0045544120424F5252414441200045525285
:102F4E004F523A5549445F4E4F5F45584953544589
:102F5E00004F4B3A41434345534F532C0052454388
:102F6E004152474120433A004552524F523A45533F
:102F7E004352494249525F434F4E5441444F5200CF
:102F8E004552524F523A4C4545525F434F4E544173
:102F9E00444F52004552524F523A5549445F4E4F9C
:102FAE005F45535F48494A4F0041434345534F3AAB
:102FBE0044454E454741444F0041434345534F20FE
:102FCE0044454E454741444F200041434345534FEE
:102FDE003A434F4E43454449444F5F4144554C5448
:102FEE004F0041434345534F204144554C544F20CD
:102FFE0020200041434345534F3A434F4E434544EF
:10300E0049444F5F48494A4F2C0048494A4F204F88
:10301E004B20433A0041434345534F3A44454E45B6
:10302E004741444F5F53494E5F4355504F530053F2
:10303E00494E204355504F53202020202020200061
:10304E004552524F52204C45435455524120202058
:10305E0000434D442043414E43454C41444F2020B4
:10306E002000434D443A20202020202020202020E4
:10307E00202000434D4420494E56414C49444F2098
:10308E00202020004552524F523A434D445F544542
:10309E00434C41444F00474152414A452041425220
:1030AE0049454E444F20004F4B3A474152414A4505
:1030BE005F41425249454E444F002020202020209F
:1030CE002020204142494552544F004F4B3A474130
:1030DE0052414A455F4142494552544F0047415281
:1030EE00414A452043455252414E444F20004F4BDA
:1030FE003A474152414A455F43455252414E444F31
:10310E0000202020202020202020434552524144E0
:10311E004F004F4B3A474152414A455F4345525249
:10312E0041444F00534F4E49444F3A204F4E2020BA
:10313E002020202000563A002F3130004F4B3A53BA
:10314E004F4E49444F5F4F4E2C00534F4E49444F04
:10315E003A204F46462020202020004F4B3A534F16
:10316E004E49444F5F4F4646004552524F523A53D6
:10317E004F4E49444F5F4150414741444F004F4BE2
:10318E003A564F4C2C00484F524E4F3A202020209A
:10319E00202020202020004F4B3A484F524E4F2CDB
:1031AE0000484F524E4F3A204F46462020202020B6
:1031BE0020004F4B3A484F524E4F5F4F4646004FFE
:1031CE004B3A4C555A2C0050524F442044455343D1
:1031DE004F4E4F4349444F004552524F523A505270
:1031EE004F445543544F5F444553434F4E4F43490D
:1031FE00444F004D45524341444F204C4C454E4F99
:10320E00202020004552524F523A4D4552434144E0
:10321E004F5F4C4C454E4F0020454C494D494E4159
:10322E00444F004F4B3A4D45524341444F5F454C3E
:10323E00494D494E41444F004D455243204E4F207B
:10324E004558495354452020004552524F523A4D4D
:10325E0045524341444F5F4E4F5F454E434F4E5490
:10326E005241444F004D45524341444F3A200020B5
:10327E006974656D20002D2D2D204C49535441202D
:10328E004445204D45524341444F202D2D2D0045A0
:10329E004E524F4C204144554C544F20202020007C
:1032AE004F4B3A454E524F4C414E444F5F41445561
:1032BE004C544F00454E524F4C2048494A4F202007
:1032CE0020202020004F4B3A454E524F4C414E4449
:1032DE004F5F48494A4F2C00424F525241522054A0
:1032EE0041524A4554412020004F4B3A424F5252D0
:1032FE00414E444F00414C41524D413A2041524DB6
:10330E004144412020004F4B3A41524D414441002F
:10331E004F4B3A444553414354495641444100436F
:10332E004D4420444553434F4E4F4349444F200094
:10333E00434D443A00436F6469676F3A20004C5521
:10334E005A3A0044495341524D3A00474152414A7C
:10335E00453A414252495200484F524E4F3A00535D
:10336E004F4E49444F3A4F464600534F4E49444FF5
:10337E003A4F4E00564F4C3A004D45524341444F42
:10338E003A4144442C004552524F523A464F524D08
:10339E0041544F5F4D45524341444F004D455243BA
:1033AE0041444F3A44454C2C00454E524F4C3A4105
:1033BE0044554C544F2C00454E524F4C3A48494AB6
:1033CE004F2C00424F525241522C00414343455321
:1033DE004F533A004F4B3A524543415247414E44A8
:1033EE004F2C004552524F523A434F4D414E444F8F
:1033FE005F444553434F4E4F4349444F00543A00A8
:10340E004320202000484F524E4F3A204C495354EF
:10341E004F2020202000484F524E4F3A46494E0032
:10342E006C656368650070616E00687565766F73B4
:10343E00006172726F7A0061636569746500617A0A
:10344E007563617200636166650073616C00706123
:0A345E00737461006167756100007E
:00000001FF
