:100000000C9472000C9493000C9493000C942907A8
:100010000C9417070C944D070C943B070C94930019
:100020000C9493000C9493000C9493000C94930004
:100030000C9493000C9485060C9493000C949300FC
:100040000C9493000C9493000C9493000C949300E4
:100050000C9493000C9493000C9493000C940B0656
:100060000C9493000C9455060C9493000C949300FC
:100070000C9493000C9493000C9493000C949300B4
:100080000C9493000C9493000C9493000C949300A4
:100090000C9493000C9493000C9493000C94930094
:1000A0000C9493000C9493000C9493000C94930084
:1000B0000C9493000C9493000C9493000C94930074
:1000C0000C9493000C9493000C9493000C94930064
:1000D0000C9493000C9493000C9493000C94930054
:1000E0000C94930011241FBECFEFD1E2DEBFCDBF31
:1000F00000E00CBF19E0A0E0B2E0E2E9F6E200E0C7
:100100000BBF02C007900D92AE34B107D9F729E0BA
:10011000AEE4B9E001C01D92A93DB207E1F70E942B
:1001200082070C9447130C94000081E480937C00B8
:1001300080917B00886080937B0080917A0080644E
:1001400080937A0080917A0086FDFCCF80917800C0
:100150009091790020E180E090E0DC0130917A001C
:10016000306430937A0030917A0036FDFCCF4091B4
:10017000780050917900840F951FA11DB11D215069
:1001800069F724E0B695A795979587952A95D1F7B5
:1001900008959091C00095FFFCCF8093C60008950C
:1001A0008DE00E94C9008AE00C94C9000F931F9350
:1001B000CF93DF9300D000D01F92CDB7DEB730E0F1
:1001C0000AE010E0009769F480E327960FB6F894F0
:1001D000DEBF0FBECDBFDF91CF911F910F910C9469
:1001E000C90021E0230FE1E0F0E0EC0FFD1FE30F79
:1001F000F11D37FDFA95B8010E94BB12805D808326
:10020000CB01322F009769F712166CF41FEF120F13
:10021000E1E0F0E0EC0FFD1FE10FF11D80810E9495
:10022000C900212FF1CF27960FB6F894DEBF0FBE7D
:10023000CDBFDF91CF911F910F910895CF93DF93A1
:10024000EC018991882319F00E94C900FACFDF914F
:10025000CF9108958EBD0DB407FEFDCF8EB50895E4
:100260008B3008F08AE08093BA099091B9099130F7
:1002700051F4E82FF0E0EC5FFD4F808190E0909327
:1002800099008093980008958B3008F08AE080935D
:10029000BA09E82FF0E0EC5FFD4F808190E0909389
:1002A00099008093980080910201806480930201FC
:1002B00081E08093B90908952898880F81600E9491
:1002C0002A0180E00E942A01289A0895CF93C62F20
:1002D0002898880F0E942A018C2F0E942A01289AB0
:1002E000CF9108950F931F93CF93DF93162F082F6D
:1002F000EC01699189E00E9466018C2F801B8117B7
:10030000C0F3DF91CF911F910F910895CF93DF93A9
:1003100060E088E00E94660160E88AE00E94660171
:1003200066E083E392E00E94720164E085ED99E06B
:100330000E9472016EE081E00E94660160E08DE043
:100340000E946601C9EBDBE084E00E945C018371DE
:1003500021F42197C9F780E00CC088E00E945C017D
:1003600083FFF9CF86E00E945C01982F9B7181E0AA
:1003700091F7DF91CF910895EF92FF920F931F9322
:10038000CF93DF931F92CDB7DEB77C0160E88AE0A0
:100390000E94660186E2898361E0CE0101960E9497
:1003A000720167E08DE00E94660160E884E00E94CF
:1003B00066016CE081E00E94660167E88DE00E94C2
:1003C000660109EB1BE084E00E945C01817329F463
:1003D00001501109C1F780E013C086E00E945C0162
:1003E0008B71C9F78AE00E945C01182F882329F0DD
:1003F00089E00E945C01F701808381E0112359F3B9
:100400000F90DF91CF911F910F91FF90EF90089582
:10041000CF92DF92EF92FF920F931F93CF93DF93D0
:10042000EC01162F7A01690160E88AE00E946601FA
:10043000612FCE010E94720160E08DE00E94660192
:1004400060E884E00E9466016CE081E00E94660141
:1004500060E88DE00E946601C9EBDBE084E00E9469
:100460005C01817361F42197C9F780E0DF91CF913E
:100470001F910F91FF90EF90DF90CF90089586E04D
:100480000E945C018B7189F78AE00E945C018823DD
:10049000C9F0E114F104B1F0C114D10499F0F601EE
:1004A0001081811708F4182F0E2DCE2DDF2D8C2FE3
:1004B000801B811728F489E00E945C018993F7CFA3
:1004C000F601108381E0D2CFEF92FF920F931F933A
:1004D000CF93DF93CDB7DEB7A5970FB6F894DEBF05
:1004E0000FBECDBFE82E0E948601982F8823A1F170
:1004F00080E38BA384E0F82EFCA280E18DA38E0123
:100500000D5D1F4F9E012B5D3F4FAE014D5E5F4F56
:1005100062E0C8010E940802982F8823E9F08DA1AB
:100520008031C8F0EB8A80EA8983FA82FE017396F3
:10053000DE01139681918D93E017F107D9F730E032
:1005400020E050E040E062E1CE0101960E94080206
:1005500091E0811101C090E0892FA5960FB6F89423
:10056000DEBF0FBECDBFDF91CF911F910F91FF90E6
:10057000EF9008950F931F93CF93DF93CDB7DEB71E
:1005800063970FB6F894DEBF0FBECDBF8C010E94FB
:1005900086018823D1F080E3898B84E08A8B80E117
:1005A0008B8B9E012D5E3F4FAE014F5F5F4F62E030
:1005B000CE0141960E940802882339F08B89882356
:1005C00021F08981F801808381E063960FB6F89469
:1005D000DEBF0FBECDBFDF91CF911F910F91089568
:1005E0008B3098F08AE08093B809909180009068F1
:1005F00090938000E82FF0E0EC5FFD4F808190E069
:10060000909389008093880008958093B8098111A0
:10061000ECCF809180008F77809380002D9810928E
:100620008900109288000895FC018081813351F483
:100630008181823339F48281833321F481E0938193
:10064000943309F080E008951092BE092E982F98F7
:100650008DB3837F8DBB1092780910927909109227
:10066000BF091092B709089581E08093BE092E9AC0
:100670008DB38C608DBB109278090895FC0180E0E9
:100680002AE0919130ED390F3A3030F4829F900D8D
:10069000112480ED890FF5CF0895CF92DF92EF926C
:1006A000FF920F931F93CF9310E000E0C0E0C801CA
:1006B0000E94A5128F3F01F185EDE82E89E0F82E0A
:1006C000C801855D99406C01C6018E0D9F1D0E9479
:1006D000A512F70191917F0189130EC0F9EDEF1674
:1006E000F9E0FF0689F78C2FCF911F910F91FF90B2
:1006F000EF90DF90CF900895CF5F0B5F1F4FCA3010
:10070000B1F6CFEFF0CF5F926F927F928F929F9270
:10071000AF92BF92CF92DF92EF92FF920F931F930F
:10072000CF93DF93CDB7DEB72C970FB6F894DEBF2B
:100730000FBECDBFCE0101965C01CC24DD24C81ACA
:10074000D90A00EB10E0512C3E019DE0690E711CAE
:10075000C8010E94A51281508E3F18F5750146010F
:10076000E0EB8E0E911CC4018E0D9F1D0E94A51200
:10077000F70181937F01E615F705A9F7C8010C96EB
:100780000E94A512F82EC5010E941E0189E392E085
:100790000E941E018F2D90E00E94D6000E94D00082
:1007A0005394035F1F4FFDE0CF0ED11C023381E055
:1007B000180771F6511006C08DE392E00E941E01E9
:1007C0000E94D0002C960FB6F894DEBF0FBECDBFAE
:1007D000DF91CF911F910F91FF90EF90DF90CF901D
:1007E000BF90AF909F908F907F906F905F90089593
:1007F00092B19F7092B992B140E1849F900111240F
:10080000922B92B9129A85E08A95F1F7000012981E
:1008100087EC90E00197F1F700C000000895CF93B6
:10082000C82F109A82958F700E94F8038C2F8F70BA
:100830000E94F80387EC90E00197F1F700C00000F8
:10084000CF910895EF92FF920F931F93CF93DF9371
:1008500000D000D01F92CDB7DEB78C0197FF2DC01E
:100860008DE20E940F0411950195110980E09AE034
:10087000E92EF12C21E0280FE1E0F0E0EC0FFD1F64
:10088000E80FF11D87FDFA95C801B7010E94BB1260
:10089000805D80838B01822F672B61F71216F4F441
:1008A0001FEF120FE1E0F0E0EC0FFD1FE10FF11D73
:1008B00080810E940F04212FF1CF892BB9F680E3AC
:1008C00027960FB6F894DEBF0FBECDBFDF91CF9154
:1008D0001F910F91FF90EF900C940F0427960FB685
:1008E000F894DEBF0FBECDBFDF91CF911F910F9166
:1008F000FF90EF900895CF93DF93EC0189918823C7
:1009000019F00E940F04FACFDF91CF910895CF9391
:10091000C82F109882958F700E94F8038C2F8F70CB
:100920000E94F80387EC90E00197F1F700C0000007
:10093000CF910895CF9380E80E948704C0E0E091B2
:10094000C109EC0F8091C009E81758F4F0E0E25BB0
:10095000F64F80810E940F04CF5FC03181F7CF91A5
:10096000089580E2F7CF8091B7098F5F8093B70930
:10097000833058F480E80E94870489E492E00E9462
:100980007B048BE592E00C941E0182E08093BE090B
:1009900083E08093BF092F9A1092B70980E80E94E4
:1009A000870488E692E00E947B0489E792E0EBCF1F
:1009B0004F925F926F927F928F929F92AF92BF926F
:1009C000CF92DF92EF92FF920F931F93CF93DF931B
:1009D000CDB7DEB72C970FB6F894DEBF0FBECDBFF4
:1009E0002C01CE0101966C01EE24FF24E81AF90ACD
:1009F00080EB682E712C5E019DE0A90EB11C860172
:100A00004701E0EB8E0E911CC401800F911F0E94E4
:100A1000A512F80181938F01EA15FB05A9F74BE0B8
:100A200050E0B201C6010E943913892B61F4C30161
:100A30000E94A51281508E3F20F460E0C3010E9405
:100A4000AD1281E00CC0FDE06F0E711C8DE0E80E70
:100A5000F11C92E3691691E0790689F680E02C9604
:100A60000FB6F894DEBF0FBECDBFDF91CF911F91BF
:100A70000F91FF90EF90DF90CF90BF90AF909F903D
:100A80008F907F906F905F904F9008953F924F921C
:100A90005F926F927F928F929F92AF92BF92CF920E
:100AA000DF92EF92FF920F931F93CF93DF93CDB717
:100AB000DEB72C970FB6F894DEBF0FBECDBF482E21
:100AC000392E562ECE0101965C01CC24DD24C81AA5
:100AD000D90A00EB10E03E019DE0690E711C750122
:100AE000460180EB880E911CC4018E0D9F1D0E9453
:100AF000A512F70181937F01E615F705A9F74BE0F1
:100B000050E0642D732DC5010E943913892B09F023
:100B10003FC0045F1F4FC8010E94A512851521F038
:100B2000652DC8010E94AD1282E012C07C0160E018
:100B3000C7010E94AD12B3949FEFE91AF90AECE0E5
:100B4000BE12F5CF652DC8010C960E94AD1281E052
:100B50002C960FB6F894DEBF0FBECDBFDF91CF91BC
:100B60001F910F91FF90EF90DF90CF90BF90AF90CB
:100B70009F908F907F906F905F904F903F900895DF
:100B8000035F1F4F0233F1E01F0771F480E0E0CFF5
:100B9000035F1F4FFDE0CF0ED11C023381E0180729
:100BA00009F09DCF00EB10E0C8010E94A512815012
:100BB0008E3F30F3E42CF32CD12CC12CBC2CF7014C
:100BC00061917F01C8018C0D9D1D662309F4AECF94
:100BD0000E94AD12FFEFCF1ADF0A8BE0C816D104D6
:100BE00069F760E0C8010B960E94AD12ABCF1F936E
:100BF000CF93DF93EC01162F0E94A512811739F0D5
:100C0000612FCE01DF91CF911F910C94AD12DF9136
:100C1000CF911F9108951F920F920FB60F9211243A
:100C20002F933F938F939F93AF93BF938091D1095D
:100C30009091D209A091D309B091D4093091D009F3
:100C400023E0230F2D3758F50196A11DB11D2093E8
:100C5000D0098093D1099093D209A093D309B0937E
:100C6000D4098091CC099091CD09A091CE09B09181
:100C7000CF090196A11DB11D8093CC099093CD0998
:100C8000A093CE09B093CF09BF91AF919F918F915F
:100C90003F912F910F900FBE0F901F90189526E84F
:100CA000230F0296A11DB11DD2CF1F920F920FB636
:100CB0000F9211240BB60F922F938F939F93EF9364
:100CC000FF939091C6008091C00085FFFCCF909368
:100CD000C600809195098F5F8F712091B609281702
:100CE00041F0E0919509F0E0EA56F64F9083809349
:100CF0009509FF91EF919F918F912F910F900BBECE
:100D00000F900FBE0F901F9018951F920F920FB665
:100D10000F9211240BB60F922F933F934F935F9333
:100D20006F937F938F939F93AF93BF93CF93DF93F3
:100D3000EF93FF9330E020E0A1E0B0E07FE0622F8E
:100D4000CD01022E01C0880F0A94EAF7872780930D
:100D50000B018AE68A95F1F700C086B180958F7005
:100D600091F050E040E090E0E42FEC01042E02C04E
:100D7000D595C7950A94E2F7C0FD55C04F5F5F4F08
:100D80004430510589F72F5F3F4F24303105B9F6C4
:100D9000EFEF809101028E1341C0809177098F3F60
:100DA00029F0809177098F5F809377098091770987
:100DB0008230F9F4809100028E17D9F0E09300029E
:100DC000EF3FB9F080917C09811113C08E2F869579
:100DD0008695E37024E0829FC0011124815F9D4FBE
:100DE000E80FF92FF11D808180937B0981E08093CA
:100DF0007C09FF91EF91DF91CF91BF91AF919F91CE
:100E00008F917F916F915F914F913F912F910F90B3
:100E10000BBE0F900FBE0F901F901895E09301022C
:100E200010927709C3CFEE0FEE0FE60FB2CF1F92ED
:100E30000F920FB60F9211248F9381E0809378095F
:100E400084E0809376098F910F900FBE0F901F90D2
:100E500018951F920F920FB60F9211248F9381E075
:100E60008093780983E0809376098F910F900FBE6D
:100E70000F901F9018951F920F920FB60F9211248A
:100E80008F9381E08093790982E0809376098F9136
:100E90000F900FBE0F901F9018951F920F920FB6D4
:100EA0000F9211248F9381E08093790980937609C2
:100EB0008F910F900FBE0F901F901895DC01EEE4FC
:100EC000F9E090E02D91222329F0973219F0219337
:100ED0009F5FF8CFE92FF0E0E25BF64F108290932E
:100EE000C0091092C1091092C3091092C2090E9450
:100EF0009A0481E09091C009913108F480E08093D8
:100F0000CB090895CF93DF93CDB7DEB7AD970FB67A
:100F1000F894DEBF0FBECDBF789484B5826084BDE7
:100F200084B5816084BD85B5826085BD85B58160ED
:100F300085BD80916E00816080936E00109281006B
:100F40008091810082608093810080918100816026
:100F500080938100809180008160809380008091E7
:100F6000B10084608093B1008091B0008160809373
:100F7000B0008091910082608093910080919100F7
:100F800081608093910080919000816080939000B7
:100F90008091A10082608093A1008091A100816076
:100FA0008093A1008091A00081608093A000809137
:100FB00021018260809321018091210181608093D1
:100FC00021018091200181608093200180917A002D
:100FD000846080937A0080917A00826080937A00A6
:100FE00080917A00816080937A0080917A00806895
:100FF00080937A001092C1008FEF81B912B82FEF61
:1010000040E782E0215040408040E1F700C000000E
:10101000109883E00E94F803EFE1FEE43197F1F7C6
:1010200000C0000083E00E94F80387E592E001978A
:10103000F1F700C0000083E00E94F803E7ECF0E065
:101040003197F1F700C0000082E00E94F80387ECBE
:1010500090E00197F1F700C0000088E20E94870449
:101060008CE00E94870486E00E94870481E00E9451
:101070008704EFE3FFE13197F1F700C000008091B2
:101080000A018F6080930A0180910B018F60809329
:101090000B0187B1807F87B988B18F6088B982E002
:1010A0008093B00095E09093B1009BE99093B300DA
:1010B0008093700010927B0910927C091092C500F9
:1010C00087E68093C4001092C00088E98093C10035
:1010D00086E08093C200109295091092B60984B1FF
:1010E000806C84B985B18F7385B980EF8093690076
:1010F0008FE080936A0080E38DBB1092BE0910924E
:101100007909109278091092BF091092B70980E40A
:1011100080937C0010927B0087E880937A00809116
:101120007A00806480937A0080917A0086FDFCCFFB
:10113000809178009091790080910101886080937E
:10114000010182E88093A0008AE18093A1008FE3EF
:101150009CE99093A7008093A60080ED97E0909380
:10116000A9008093A80080910701886180930701FE
:1011700080910801877E80930801259A2D9881E04F
:10118000809380009AE090938100109289001092E1
:1011900088001092B809809101018062809301015A
:1011A000809102018F7D809302011092C8091092F4
:1011B000C5091092C4091092C7091092C6098091FE
:1011C0000101806480930101809102018F7B8093F3
:1011D00002016B9A81E880939000909391001092A5
:1011E0009900109298001092B9091092BA0984B12E
:1011F000876084B92398289A81E58CBD6FE081E0EF
:101200000E9466011CA61BA68BA59CA5883E934048
:1012100030F48BA59CA501969CA78BA7F5CF87E3FF
:101220000E945C016DE88AE20E94660167E08BE241
:101230000E94660160E08CE20E9466016FE38DE22D
:101240000E94660184E10E945C01982F937029F44A
:10125000682F636084E10E94660110927A09989A6F
:10126000A098789481E00E9487048FE39FE1019722
:10127000F1F700C0000080E80E9487048AEC92E049
:101280000E947B0480EC0E9487048BED92E00E9418
:101290007B040E94D0008CEE92E00E941E010E940E
:1012A000D00087E393E00E941E010E94D00088E6F0
:1012B00093E00E941E010E94D00010928209CC246B
:1012C000CA9433E0D32EE12CF12C80917909882344
:1012D00009F44BC01092790981E08093BF092F9ADD
:1012E0008091BF091092CB09813009F04CC080E891
:1012F0000E94870487EE93E00E947B0488EF93E0CE
:101300000E941E010E94D00080917A09813009F468
:1013100052C008F445C0823009F44BC180917C0969
:10132000882309F4BBC380917C0990919409882398
:1013300011F40C946E1280917B0910927B0910922B
:101340007C098A3209F04CC1109203021092020209
:10135000992309F438C11092940980EC0E94870403
:1013600080E395E00E947B0499C3809178098823EB
:1013700059F2109278098091BE09813029F682E0F5
:101380008093BE09AACF823009F0BECF80E80E94C8
:10139000870488E094E00E947B0489E194E0B0CF68
:1013A000CE0101960E94BC01882309F4B7CF81E0E9
:1013B00080937A09B3CF83E989A780E28AA715E0F1
:1013C0001DA79E01235D3F4FAE014F5F5F4F62E05F
:1013D000CE0189960E940802882309F4F1C08DA5E8
:1013E000853008F4EDC049813A812B818C81942F9E
:1013F0009327922798275D819513E2C04093D509E2
:101400003093D6092093D7098093D8098091BD09DC
:1014100081110AC00E944D038F3F09F099C087EDEA
:1014200094E00E941E01B9C0813009F04CC00E94B6
:101430004D038F3F09F03FC010E000E0C8010E945B
:10144000A5128F3F99F57090BB0925EDA22E29E0DA
:10145000B22E912C812CF50161915F01C801880D9C
:10146000991D0E94F705FFEF8F1A9F0A24E082164C
:10147000910489F7672DC80104960E94F7058091B1
:10148000BB098823D9F08AE394E00E941E011091E1
:10149000BC09812F90E00E94D600812F0E94640237
:1014A0000E94D0001092BD0982E082CF0B5F1F4FD7
:1014B0000233110519F68CE494E002C087E294E04F
:1014C0000E941E01EDCF823081F40E944D038F3FB8
:1014D00049F06FEF819FC00111240E94F7058BE650
:1014E00094E0EECF86E794E0EBCF8330D9F60E940C
:1014F0004D038F3FB9F3819FC001112404960E94D0
:10150000A512813011F51982CE0101960E94BA020E
:101510008823C1F089811091BC09180F181708F4AD
:101520001FEF812F0E946402882349F08AE894E02B
:101530000E941E01812F90E00E94D600B1CF86E963
:1015400094E0BECF8EEA94E0BBCF82EC94E0B8CFBB
:10155000819FC001112404960E94A512811104C02C
:10156000A09A87EE94E05DCF1982CE0101960E9489
:10157000BA028823D9F089818823A9F08150898310
:101580000E946402882361F0A09A8FEF94E00E9489
:101590001E01898190E00E94D6000E94D00084CF75
:1015A00086E994E03ECF86E195E03BCF8EEA94E079
:1015B00038CFCE0101960E94BC018111AFCEA09818
:1015C00010927A09ABCE81E080939409109293092E
:1015D0001092830980EC0E94870481E495E0C2CEDA
:1015E000992309F4D2C210920302109202028332AC
:1015F00009F07DC71092940980EC0E94870482E56F
:1016000095E00E947B0480E0E82FF0E0ED57F64F74
:101610009081992311F08F5FF7CF823058F080913D
:10162000830990ED980F9A3028F410918409105393
:101630001A3050F080E80E94870483E695E00E940B
:101640007B0484E795E0C6C080534AE0849F100D78
:10165000112485E899E00E943E03982E61E470E031
:1016600085E899E00E9427135C0100E0009721F0D3
:1016700001960E943E03082F193209F479C1D0F572
:10168000153109F4AAC028F51B3009F487C01431BC
:1016900009F4CCC01A3041F580EC0E9487048DEC2F
:1016A00095E00E947B048EED95E00E941E010E9451
:1016B000D00080ED97E09093A9008093A80080EC83
:1016C0000E94870481EF95E00E947B0482E096E00F
:1016D00081C0173109F4E5C008F4BDC01E3109F41A
:1016E00032C11F3109F4E8C080E80E94870483E119
:1016F00098E0A5CF1C3309F421C280F5133309F417
:1017000058C11B3309F4A3C1123371F7EFEFE90D90
:10171000EA3008F05CC1F0E0EE0FFF1FE15EFD4F24
:10172000008111810115110509F451C1C8010E9400
:10173000D804882309F481C1B801CE0101960E9422
:1017400032136CE077E0CE0101960E941C13CE01AB
:1017500001960E945E0787E197E03CC01E3309F4C2
:10176000CFC108F4B1C11A3509F4FBC11B3509F02A
:10177000BBCF85E899E00E941403882309F4BBC11C
:101780000E9434031092B70980E80E94870489EE12
:1017900097E00E947B048AEF97E01CC080EC0E94D7
:1017A000870486E895E00E947B0487E995E00E9423
:1017B0001E010E94D00080EA9FE09093A9008093D0
:1017C000A80080EC0E9487048AEA95E00E947B04CE
:1017D0008BEB95E00E941E0190C1892D0E9444016F
:1017E00080E80E94870484E196E00E947B0489ECF3
:1017F0000E9487048BE595E00E947B0489EC0E949F
:10180000870485E296E00E947B048091BA0990E00B
:101810000E94220488E296E00E947B048CE296E01B
:101820000E941E018091BA0990E08AC08091020155
:101830008F7B809302011092990010929800109271
:10184000B90980E80E9487048AE396E00E947B043D
:101850008BE496E0BFCF8091B909813019F089E51A
:1018600096E0B8CF8091BA098F5F0E94300189EC71
:101870000E9487048BE595E00E947B0489EC0E941E
:10188000870485E296E00E947B048091BA0990E08B
:101890000E94220488E296E00E947B048EE696E095
:1018A000BFCF8091B9098130D1F68091BA098150BA
:1018B00087FFDBCF80E0D9CFECE30E9FC00111247E
:1018C0009093C5098093C40990910201906290930E
:1018D000020181E08093C8091092C7091092C609DD
:1018E00080E80E94870486E796E00E947B0486E8F1
:1018F0000E948704A92CB12CC5010E94220483E414
:101900000E940F0489EC0E9487048BE595E00E94F9
:101910007B0489EC0E94870410E0C8010E94220425
:1019200087E896E00E947B048BE896E00E941E0107
:10193000C5010E94D60088E798E00E941E01C801F8
:101940000E94D600DAC0809102018F7D809302014F
:101950001092C8091092C5091092C40980E80E942B
:10196000870485E996E00E947B0486EA96E032CF00
:10197000892D0E94F00289EC0E9487048BE595E096
:101980000E947B0489EC0E9487048AE698E00E940A
:101990007B048091B80990E00E94220488E296E0DE
:1019A0000E947B0483EB96E00E941E018091B8099F
:1019B0003BCFEFEFE90DEA3050F4F0E0EE0FFF1F00
:1019C000E15EFD4FA080B180A114B10451F480E824
:1019D0000E9487048BEB96E00E947B048CEC96E0DF
:1019E000F9CE602FC5010E944605182F81110AC04B
:1019F00080E80E94870487EE96E00E947B0488EFCF
:101A000096E0E8CEB501CE0101960E94321368E857
:101A100072E0123011F065E972E0CE0101960E9489
:101A20001C13CE0101960E945E078FE992E01230EE
:101A300009F4D0CE86EB92E0CDCE80E80E948704F8
:101A40008CE297E00E947B048DE397E0C3CE80E8B0
:101A50000E94870489E597E00E947B0400EB10E078
:101A6000B12CC8010E94A51281508E3F08F4B39496
:101A7000035F1F4F0233F1E01F0799F78B2D90E0B2
:101A80000E94220483E697E00E947B048AE697E0A6
:101A90000E941E010E94D0000E9483038091B6091B
:101AA00090919509981709F493C3E82FF0E0EA564E
:101AB000F64F90819A3009F40CC190819D3009F461
:101AC00008C18F5F8F71ECCF85E899E00E94140305
:101AD000882389F081E08093BD091092BB091092A0
:101AE000BC0980E80E94870483E897E00E947B0499
:101AF00084E997E06FCE0E94B3040E94D000CECF5D
:101B0000C5010196AB2811F485E899E00E94140301
:101B1000882389F391E09093BD099093BB0990923B
:101B2000BC0980E80E94870488EA97E00E947B0451
:101B300089EB97E00E941E01892D76CE85E899E019
:101B40000E9414038823B9F282E08093BD0980E8E3
:101B50000E9487048CEC97E00E947B048DED97E057
:101B600039CE85E899E00E941403882321F20E946F
:101B700024031092B70980E80E9487048AEC92E05F
:101B80000E947B0484E098E025CE1092030210921C
:101B9000020290ED980F9A3068F5E0918209E430E6
:101BA00008F07CCF91E09E0F90938209F0E0E3581B
:101BB000F64F8083E92FF0E0E358F64F108280EC77
:101BC0000E94870489E298E00E947B0400E0109163
:101BD0008209011728F48AE20E940F040F5FF7CFF1
:101BE000143028F48FE50E940F041F5FF9CF8EE5B3
:101BF00095E0B8CB813419F5809182098430B1F435
:101C00008DE799E00E941403882381F00E94340339
:101C10001092B70980E80E94870489EE97E00E943D
:101C20007B048AEF97E00E941E0102C00E94B30469
:101C30000E94D0001092820910927D092FCF823429
:101C4000C1F480918209843089F78DE799E00E9480
:101C50001403882359F30E9424031092B70980E8E3
:101C60000E9487048AEC92E00E947B0484E098E062
:101C7000DACF833411F58091B8098F5F8B3008F08B
:101C80008AE00E94F00289EC0E9487048BE595E0CF
:101C90000E947B0489EC0E9487048AE698E00E94F7
:101CA0007B048091B80990E00E94220488E296E0CB
:101CB0000E947B0482E398E077CE843409F0EECE74
:101CC0008091B8098150990B8F3F9807D1F680E039
:101CD000D8CF20E0909195098091B6099817A1F18D
:101CE0002F3190F5909195098091B609981709F4D4
:101CF0004DC0E091B609F0E0EA56F64F8081909130
:101D0000B6099F5F9F719093B6098A3011F08D30AC
:101D1000A1F5309195099091B6093917A9F0E09194
:101D2000B609F0E0EA56F64F90818D3049F49A30CA
:101D300059F48091B6098F5F8F718093B60904C002
:101D40008A3011F49D30A9F3E1E0F0E0EC0FFD1FC3
:101D5000E20FF11D1082222309F43AC28E010F5FB7
:101D60001F4FF80181918F018823D1F090E00E94EC
:101D70001413F80131978083F4CF883011F08F3736
:101D800031F4222309F4A6CF2150A4CF80E0E1E072
:101D9000F0E0EC0FFD1FE20FF11D80832F5F9ACF63
:101DA00044E050E06AE378E0CE0101960E943913E6
:101DB000892BD9F4CE0105960E941403882381F063
:101DC0000E9434031092B70980E80E94870489EECC
:101DD00097E00E947B048AEF97E00E941E0102C0F8
:101DE0000E94B3040E94D000F3C147E050E067E3D3
:101DF00078E0CE0101960E943913892BA1F4CE011F
:101E000008960E941403882359F30E942403109219
:101E1000B70980E80E9487048AEC92E00E947B0464
:101E200084E098E0DACF44E050E062E378E0CE016D
:101E300001960E943913892B11F5CE0105960E9457
:101E40003E030E94F002109203021092020289ECFB
:101E50000E9487048AE698E00E947B048091B8097A
:101E600090E00E94220488E296E00E947B0483EBCB
:101E700096E00E941E018091B80990E0AEC04CE04F
:101E800050E06FE378E0CE0101960E943913892B70
:101E9000E9F480EC0E94870486E895E00E947B04C8
:101EA00087E995E00E941E010E94D00080EA9FE031
:101EB0009093A9008093A80080EC0E9487048AEA8E
:101EC00095E00E947B048BEB95E087CF4DE050E0DE
:101ED00069E273E0CE0101960E943913892BE9F47F
:101EE00080EC0E9487048DEC95E00E947B048EEDCF
:101EF00095E00E941E010E94D00080ED97E0909333
:101F0000A9008093A80080EC0E94870481EF95E0EF
:101F10000E947B0482E096E060CF46E050E06CE4F3
:101F200078E0CE0101960E943913892B09F058C040
:101F3000CE0107960E943E03A82E6CE270E0CE010F
:101F400007960E94271300E0009721F001960E9457
:101F50003E03082FFCE30F9FC00111249093C50995
:101F60008093C4098091020180628093020181E024
:101F70008093C8091092C7091092C60980E80E9490
:101F8000870486E796E00E947B0486E80E94870427
:101F9000B12CC5010E94220483E40E940F0489EC45
:101FA0000E9487048BE595E00E947B0489EC0E94E7
:101FB000870410E0C8010E94220487E896E00E948E
:101FC0007B048BE896E00E941E01C5010E94D600AA
:101FD00088E798E00E941E01C8010E94D60002CF47
:101FE0004AE050E063E578E0CE0101960E943913A3
:101FF000892BA9F4809102018F7B809302011092BA
:102000009900109298001092B90980E80E94870404
:102010008AE396E00E947B048BE496E0DECE49E002
:1020200050E06EE578E0CE0101960E943913892BCD
:10203000C9F51091BA09111101C015E06CE270E008
:10204000CE010A960E942713009721F001960E9464
:102050003E03182F812F0E94440180E80E948704CC
:1020600084E196E00E947B0489EC0E9487048BE562
:1020700095E00E947B0489EC0E94870485E296E04B
:102080000E947B048091BA0990E00E94220488E2B9
:1020900096E00E947B048CE296E00E941E018091F3
:1020A000BA09EBCE44E050E068E678E0CE01019654
:1020B0000E943913892BB9F58091B909813019F043
:1020C00089E596E08ACE8D818B32F9F48091BA0948
:1020D0008F5F0E94300189EC0E9487048BE595E0B8
:1020E0000E947B0489EC0E94870485E296E00E94AE
:1020F0007B048091BA0990E00E94220488E296E075
:102100000E947B048EE696E0C8CF8D3239F4809130
:10211000BA09815087FFDDCF80E0DBCFCE01059685
:102120000E943E03D6CF4CE050E06DE678E0CE0151
:1021300001960E943913892B11F56CE270E0CE01F3
:102140000D960E9427130097B9F0FC011192CF0160
:102150000E943E03682FCE010D960E944605811114
:1021600003C088EF96E039CE823019F48FE992E00F
:1021700034CE86EB92E031CE8AE798E02ECE4CE06A
:1021800050E060E978E0CE0101960E943913892B76
:1021900061F4CE010D960E94D804882319F087E1DE
:1021A00097E01BCE8DE397E018CE4CE050E06AED4F
:1021B00073E0CE0101960E943913892B09F091C07A
:1021C0008AE697E00E941E010E94D0000E948303CD
:1021D0008091CB09882371F08091C2099091C30945
:1021E00001968C32F1E09F0708F005C19093C30976
:1021F0008093C2092091C9093091CA092F5F3F4FCE
:102200003093CA092093C909809102029091030278
:1022100001969093030280930202203D374008F418
:1022200044C01092CA091092C909803E9E42E0F053
:102230000E9495008C0180EC0E94870481EF98E059
:102240000E947B049801A8E2B0E00E94F112A7016D
:1022500096010E94CF12822F220F990B0E94220416
:1022600084EF98E00E947B040E9495009C01A8E204
:10227000B0E00E94F112A70196010E94CF12809156
:10228000080183FDEEC022312CF4809108018860A2
:10229000809308018091080184FDEAC02B312CF065
:1022A000809108018061809308018091C80988238A
:1022B00071F08091C6099091C7090196803AFFE0BC
:1022C0009F0708F0DCC09093C7098093C60980E09F
:1022D00090E0892B11F40C9465090E9400000C9485
:1022E00065094DE050E06DE978E0CE0101960E946D
:1022F0003913892B89F4CE010E960E94140388238A
:1023000009F46ECD81E08093BD091092BB09109253
:10231000BC0984E997E061CD4BE050E06BEA78E0DE
:10232000CE0101960E943913892B19F5CE010C9626
:102330000E943E03182F6CE270E0CE010C960E94C2
:102340002713009799F001960E941403882309F43B
:1023500047CD81E08093BD098093BB091093BC09F0
:1023600089EB97E00E941E01812F87CDCE010C964C
:10237000EBCF47E050E067EB78E0CE0101960E949A
:102380003913892B69F4CE0108960E94140388231F
:1023900009F426CD82E08093BD098DED97E01DCD37
:1023A00048E050E06FEB78E0CE0101960E943913CF
:1023B000892BF1F4CE0109960E943E03182F6CE29E
:1023C00070E0CE0109960E942713009771F00196E4
:1023D0000E941403882309F403CD83E08093BD0990
:1023E0001093BC0988EC98E0BDCFCE010996F0CFE0
:1023F00087ED98E0F2CC1092C3091092C209809147
:10240000C1098F5F8093C1099091C009981730F579
:102410001092CB0980E80E9487048091BE09813028
:1024200029F489EE97E00E947B04E4CE8091BE09F6
:10243000823089F48091BF09813019F487EE93E0EE
:10244000F2CF8091BF09823019F488E094E0EBCF9D
:1024500088E692E0E8CF8AEC92E0E5CF0E949A0409
:10246000C9CE25310CF416CF80910801877F10CF9B
:1024700028310CF01ACF809108018F7E14CF109272
:10248000C7091092C6098091C4099091C5090097A7
:1024900029F001979093C5098093C4098091C409DC
:1024A0009091C509892B09F012CF809102018F7D8F
:1024B000809302011092C8091092C5091092C409B4
:1024C00080E80E94870489EF98E00E947B048AE0FC
:1024D00099E00E941E010E94D000F9CE80E099236D
:1024E00009F453CB109203021092020280E090EDA7
:1024F000980F9A3018F0813409F0D0CAE09193090E
:10250000EF3068F491E09E0F90939309F0E0ED575F
:10251000F64F8083E92FF0E0ED57F64F108280EC04
:102520000E94870484E298E00E947B0483E899E09B
:102530000E947B04109193091C5F103108F0AECA11
:1025400080E20E940F041F5FF8CFF999FECF92BD81
:1025500081BDF89A992780B50895262FF999FECF65
:102560001FBA92BD81BD20BD0FB6F894FA9AF99AB0
:102570000FBE0196089597FB072E16F4009407D01E
:1025800077FD09D00E94001307FC05D03EF490951A
:1025900081959F4F0895709561957F4F0895A1E2B1
:1025A0001A2EAA1BBB1BFD010DC0AA1FBB1FEE1FCD
:1025B000FF1FA217B307E407F50720F0A21BB30B18
:1025C000E40BF50B661F771F881F991F1A9469F794
:1025D00060957095809590959B01AC01BD01CF01F0
:1025E0000895A29FB001B39FC001A39F700D811DEC
:1025F0001124911DB29F700D811D1124911D08950C
:10260000AA1BBB1B51E107C0AA1FBB1FA617B70718
:1026100010F0A61BB70B881F991F5A95A9F7809534
:102620009095BC01CD0108959111089581568A516C
:1026300008F4805285580895FB01DC010D900020BC
:10264000E9F7119701900D920020E1F70895FC0140
:102650008191861721F08823D9F79927089531971A
:10266000CF010895FB01DC0101900D920020E1F7FC
:102670000895FB01DC014150504030F08D910190F4
:10268000801919F40020B9F7881B990B0895F89464
:02269000FFCF7A
:10269200FFFF0F27000204080E192C4E7CB4FF31F5
:1026A20032334134353642373839432A30234414E1
:1026B200091A091E0925092B09320939093E09425D
:1026C200094809FFFFFFFFFFFF207820004C495314
:1026D200544120564143494100434F4449474F200A
:1026E200494E434F52524543544F004552524F5266
:1026F2003A434F4449474F00212120494E545255F5
:10270200534F20212120202000414C41524D413A7B
:10271200494E545255534F002041435455414C4960
:102722005A41444F0020414752454741444F004FD0
:102732004B3A4D45524341444F5F41435455414CFE
:10274200495A41444F004F4B3A4D45524341444F41
:102752005F414752454741444F00414C41524D4130
:102762003A20444553414354495600543A2D2D438F
:10277200202020204C3A302F31302000436F6D61F1
:102782006E646F733A2041524D3A78787878202FF0
:102792002044495341524D3A78787878202F204C82
:1027A200555A3A302D3130202F20474152414A4567
:1027B2003A4142524952202F20474152414A453A1A
:1027C20043455252415200454E524F4C3A414455B4
:1027D2004C544F202F20454E524F4C3A48494A4FB5
:1027E2002C4E202F20424F52524152202F20414343
:1027F2004345534F533A4E00484F524E4F3A746539
:102802006D702C6D696E202F20534F4E49444F3A04
:102812004F4E5B2C302D31305D202F20534F4E49CF
:10282200444F3A4F4646202F20564F4C3A4E202FC7
:1028320020564F4C3A2B202F20564F4C3A2D202F0A
:10284200204D45524341444F3A4144442C6E6F6DF2
:102852002C63616E74202F204D45524341444F3A00
:1028620044454C2C6E6F6D202F204D455243414400
:102872004F3A4C49535400212120494E43454E447E
:10288200494F202121202000414C41524D413A49DB
:102892004E43454E44494F00212120494E54525542
:1028A20053494F4E2021212000414C41524D413A83
:1028B20041434345534F004F4B3A454E524F4C41D3
:1028C200444F5F4144554C544F004F4B3A454E5292
:1028D2004F4C41444F5F48494A4F2C004552524F9A
:1028E200523A454550524F4D5F4C4C454E415F4F19
:1028F2005F4455504C494341444F004F4B3A424F7D
:10290200525241444F004552524F523A5549445F48
:102912004E4F5F455849535445004F4B3A4143434C
:1029220045534F532C004552524F523A455343524E
:10293200494249525F434F4E5441444F520045521F
:10294200524F523A4C4545525F434F4E5441444FC9
:1029520052004552524F523A5549445F4E4F5F45DD
:10296200535F48494A4F0041434345534F3A444518
:102972004E454741444F0041434345534F3A434F2D
:102982004E43454449444F5F4144554C544F0041E6
:10299200434345534F3A434F4E43454449444F5FA7
:1029A20048494A4F2C0041434345534F3A44454E10
:1029B200454741444F5F53494E5F4355504F530083
:1029C200434D442043414E43454C41444F20202037
:1029D20000434D443A202020202020202020202087
:1029E2002000202020202020202020202020202005
:1029F200202000434D4420494E56414C49444F202B
:102A0200202020004552524F523A434D445F5445D4
:102A1200434C41444F00474152414A4520414252B2
:102A220049454E444F20004F4B3A474152414A4597
:102A32005F41425249454E444F0020202020202031
:102A42002020204142494552544F004F4B3A4741C2
:102A520052414A455F4142494552544F0047415213
:102A6200414A452043455252414E444F20004F4B6C
:102A72003A474152414A455F43455252414E444FC3
:102A82000020202020202020202043455252414473
:102A92004F004F4B3A474152414A455F43455252DC
:102AA20041444F00534F4E49444F3A204F4E20204D
:102AB2002020202000563A002F3130004F4B3A534D
:102AC2004F4E49444F5F4F4E2C00534F4E49444F97
:102AD2003A204F46462020202020004F4B3A534FA9
:102AE2004E49444F5F4F4646004552524F523A5369
:102AF2004F4E49444F5F4150414741444F004F4B75
:102B02003A564F4C2C00484F524E4F3A202020202C
:102B1200202020202020006D696E004F4B3A484F44
:102B2200524E4F2C00484F524E4F3A204F464620AD
:102B32002020202020004F4B3A484F524E4F5F4FEB
:102B42004646004F4B3A4C555A2C0050524F4420A7
:102B5200444553434F4E4F4349444F004552524F11
:102B6200523A50524F445543544F5F444553434F9A
:102B72004E4F4349444F004D45524341444F204C30
:102B82004C454E4F202020004552524F523A4D455F
:102B9200524341444F5F4C4C454E4F0020454C49F7
:102BA2004D494E41444F004F4B3A4D4552434144EB
:102BB2004F5F454C494D494E41444F004D455243AC
:102BC200204E4F204558495354452020004552522B
:102BD2004F523A4D45524341444F5F4E4F5F454E2F
:102BE200434F4E545241444F004D45524341444F8E
:102BF2003A2000206974656D20002D2D2D204C494E
:102C0200535441204445204D45524341444F202DC9
:102C12002D2D00454E524F4C204144554C544F20CF
:102C2200202020004F4B3A454E524F4C414E444FCC
:102C32005F4144554C544F00454E524F4C20484939
:102C42004A4F202020202020004F4B3A454E524F21
:102C52004C414E444F5F48494A4F2C00424F52521A
:102C62004152205441524A4554412020004F4B3A90
:102C7200424F5252414E444F00414C41524D413A13
:102C82002041524D4144412020004F4B3A41524D88
:102C9200414441004F4B3A44455341435449564104
:102CA200444100434D4420444553434F4E4F434912
:102CB200444F2000434D443A00436F6469676F3AC2
:102CC20020004C555A3A0044495341524D3A00476C
:102CD2004152414A453A414252495200484F524EAE
:102CE2004F3A00534F4E49444F3A4F464600534FD6
:102CF2004E49444F3A4F4E00564F4C3A004D4552C2
:102D02004341444F3A4144442C004552524F523AB7
:102D1200464F524D41544F5F4D45524341444F003F
:102D22004D45524341444F3A44454C2C00454E5286
:102D32004F4C3A4144554C544F2C00454E524F4C47
:102D42003A48494A4F2C00424F525241522C0041BC
:102D5200434345534F533A004F4B3A524543415236
:102D620047414E444F2C004552524F523A434F4D29
:102D7200414E444F5F444553434F4E4F4349444FA6
:102D820000543A004320202000484F524E4F3A2030
:102D92004C4953544F2020202000484F524E4F3A66
:102DA20046494E006C656368650070616E00687527
:102DB20065766F73006172726F7A00616365697420
:102DC2006500617A756361720063616665007361B3
:0E2DD2006C00706173746100616775610000D0
:00000001FF
