:020000040000FA
:100000000C9472000C9493000C9493000C94A10730
:100010000C948F070C94C5070C94B3070C949300B1
:100020000C9493000C9493000C9493000C94930004
:100030000C9493000C94FD060C9493000C94930084
:100040000C9493000C9493000C9493000C949300E4
:100050000C9493000C9493000C9493000C948306DE
:100060000C9493000C94CD060C9493000C94930084
:100070000C9493000C9493000C9493000C949300B4
:100080000C9493000C9493000C9493000C949300A4
:100090000C9493000C9493000C9493000C94930094
:1000A0000C9493000C9493000C9493000C94930084
:1000B0000C9493000C9493000C9493000C94930074
:1000C0000C9493000C9493000C9493000C94930064
:1000D0000C9493000C9493000C9493000C94930054
:1000E0000C94930011241FBECFEFD1E2DEBFCDBF31
:1000F00000E00CBF19E0A0E0B2E0E4E8F9E200E0C3
:100100000BBF02C007900D92A43CB107D9F72AE0BB
:10011000A4ECB9E001C01D92A235B207E1F70E943C
:10012000FA070C94C0140C94000081E480937C00C6
:1001300080917B00886080937B0080917A0080644E
:1001400080937A0080917A0086FDFCCF80917800C0
:100150009091790020E180E090E0DC0130917A001C
:10016000306430937A0030917A0036FDFCCF4091B4
:10017000780050917900840F951FA11DB11D215069
:1001800069F724E0B695A795979587952A95D1F7B5
:1001900008959091C00095FFFCCF8093C60008950C
:1001A0008DE00E94C9008AE00C94C9000F931F9350
:1001B000CF93DF9300D000D01F92CDB7DEB730E0F1
:1001C0000AE010E0009769F480E327960FB6F894F0
:1001D000DEBF0FBECDBFDF91CF911F910F910C9469
:1001E000C90021E0230FE1E0F0E0EC0FFD1FE30F79
:1001F000F11D37FDFA95B8010E943414805D8083AB
:10020000CB01322F009769F712166CF41FEF120F13
:10021000E1E0F0E0EC0FFD1FE10FF11D80810E9495
:10022000C900212FF1CF27960FB6F894DEBF0FBE7D
:10023000CDBFDF91CF911F910F910895CF93DF93A1
:10024000EC018991882319F00E94C900FACFDF914F
:10025000CF9108958EBD0DB407FEFDCF8EB50895E4
:100260008B3008F08AE08093330A9091320A913003
:1002700051F4E82FF0E0EC5FFD4F808190E0909327
:1002800099008093980008958B3008F08AE080935D
:10029000330AE82FF0E0EC5FFD4F808190E090930F
:1002A00099008093980080910201806480930201FC
:1002B00081E08093320A08952898880F80680E9410
:1002C0002A0180E00E942A01289A0895CF93C62F20
:1002D0002898880F0E942A018C2F0E942A01289AB0
:1002E000CF9108950F931F93CF93DF93162F082F6D
:1002F000EC01699189E00E9466018C2F801B8117B7
:10030000C0F3DF91CF911F910F9108950F931F9329
:10031000CF93DF931F921F92CDB7DEB760E088E0E6
:100320000E94660160E88AE00E94660180E6898397
:1003300084E08A8362E0CE0101960E94720166E049
:1003400083E392E00E94720164E08EE49AE00E94EE
:1003500072016FE784E00E9466016EE081E00E9416
:10036000660160E08DE00E94660109EB1BE084E01D
:100370000E945C01837129F401501109C1F780E0EA
:100380000CC088E00E945C0183FFF9CF86E00E94E8
:100390005C01982F9B7181E091F70F900F90DF9196
:1003A000CF911F910F9108951F93CF93DF93EC018D
:1003B000162F60E081E00E94660160E88AE00E94FA
:1003C0006601612FCE010E94720160E08DE00E9403
:1003D00066016FE784E00E9466016CE081E00E94A4
:1003E000660160E88DE00E946601C9EBDBE084E015
:1003F0000E945C01817341F42197C9F760E081E0BC
:100400000E94660180E017C060E081E00E94660102
:100410008AE00E945C01882371F089E00E945C01FF
:10042000C82F8CE00E945C018770843041F4CF704B
:1004300081E0CA3039F7DF91CF911F91089586E0AE
:100440000E945C01982F9B7181E0A9F3DBCFCF92D2
:10045000DF92EF92FF920F931F93CF93DF93EC0104
:10046000162F042FC52E790160E88AE00E946601EC
:10047000612FCE010E94720160E08DE00E94660152
:100480006FE784E00E9466016CE081E00E946601F3
:1004900060E88DE00E946601C9EBDBE084E00E9429
:1004A0005C01817361F42197C9F780E0DF91CF91FE
:1004B0001F910F91FF90EF90DF90CF90089586E00D
:1004C0000E945C018B7189F78AE00E945C0188239D
:1004D00099F0F7011081811708F4182FD02EC02F42
:1004E000DC2D8C2F8D19811728F489E00E945C0186
:1004F0008993F7CFF701108381E0D8CF0F931F9333
:10050000CF93DF93CDB7DEB765970FB6F894DEBF14
:100510000FBECDBF082F88E00E945C0183FF15C08D
:1005200080E38B8B14E01C8B80E18D8B9E012B5E16
:100530003F4FAE014F5F5F4F62E0CE0143960E9496
:100540002702811113C090E005C00E948601982FF8
:100550008111E6CF892F65960FB6F894DEBF0FBEE6
:10056000CDBFDF91CF911F910F9108958D8980317B
:1005700050F3098380EA898B1A8B62E0CE014196A1
:100580000E94D4018823F9F260E1CE0101960E9415
:10059000D40191E08111DECFD6CF0F931F93CF937B
:1005A000DF93CDB7DEB763970FB6F894DEBF0FBE0B
:1005B000CDBF8C0188E00E945C0183FF1EC080E3F8
:1005C000898B84E08A8B80E18B8B9E012D5E3F4F6F
:1005D000AE014F5F5F4F62E0CE0141960E9427025D
:1005E000811110C063960FB6F894DEBF0FBECDBF69
:1005F000DF91CF911F910F9108950E94860188236A
:1006000089F3DDCF8B89882369F38981F8018083A1
:1006100081E0E8CF8B3098F08AE08093310A9091A6
:100620008000906890938000E82FF0E0EC5FFD4F31
:10063000808190E090938900809388000895809352
:10064000310A8111ECCF809180008F7780938000F8
:100650002D9810928900109288000895FC018081E5
:10066000813351F48181823339F48281833321F4DF
:1006700081E09381943309F080E008951092370A65
:100680002E982F988DB3837F8DBB1092EE09109218
:10069000EF091092380A1092300A089581E0809391
:1006A000370A2E9A8DB38C608DBB1092EE09089597
:1006B000FC0180E02AE0919130ED390F3A3030F4BE
:1006C000829F900D112480ED890FF5CF0895CF9270
:1006D000DF92EF92FF920F931F93CF9310E000E011
:1006E000C0E0C8010E941E148F3F01F18EE4E82E85
:1006F0008AE0F82EC8018E549A406C01C6018E0D16
:100700009F1D0E941E14F70191917F0189130EC055
:10071000F2E5EF16FAE0FF0689F78C2FCF911F91D3
:100720000F91FF90EF90DF90CF900895CF5F0B5F18
:100730001F4FCA30B1F6CFEFF0CF5F926F927F922A
:100740008F929F92AF92BF92CF92DF92EF92FF92E1
:100750000F931F93CF93DF93CDB7DEB72C970FB6D0
:10076000F894DEBF0FBECDBFCE0101965C01CC2454
:10077000DD24C81AD90A00EB10E0512C3E019DE09F
:10078000690E711CC8010E941E1481508E3F18F51D
:1007900075014601E0EB8E0E911CC4018E0D9F1D6C
:1007A0000E941E14F70181937F01E615F705A9F752
:1007B000C8010C960E941E14F82EC5010E941E014D
:1007C00089E392E00E941E018F2D90E00E94D600E6
:1007D0000E94D0005394035F1F4FFDE0CF0ED11C49
:1007E000023381E0180771F6511006C08DE392E0E4
:1007F0000E941E010E94D0002C960FB6F894DEBF16
:100800000FBECDBFDF91CF911F910F91FF90EF9061
:10081000DF90CF90BF90AF909F908F907F906F9020
:100820005F900895CF93DF9360E088E00E946601B7
:1008300060E081E00E94660160E88AE00E94660153
:1008400060E589E00E94660160E089E00E9466013F
:1008500063E081E00E946601CFEF85E00E945C01C9
:1008600082FD02C0C150C9F760E081E00E946601CC
:1008700082E20E945C01D82F81E20E945C01C82FB5
:100880006FE784E00E94660160E88AE00E946601EA
:1008900060E589E00E94660160E089E00E946601EF
:1008A0006D2F89E00E9466016C2F89E00E9466012D
:1008B0006CE081E00E94660160E88DE00E946601C4
:1008C0008FE39FE10197F1F700C0000060E081E055
:1008D0000E94660160E08DE0DF91CF910C9466018B
:1008E00092B19F7092B992B140E1849F900111241E
:1008F000922B92B9129A85E08A95F1F7000012982E
:1009000087EC90E00197F1F700C000000895CF93C5
:10091000C82F109A82958F700E9470048C2F8F7050
:100920000E94700487EC90E00197F1F700C000008E
:10093000CF910895EF92FF920F931F93CF93DF9380
:1009400000D000D01F92CDB7DEB78C0197FF2DC02D
:100950008DE20E94870411950195110980E09AE0CB
:10096000E92EF12C21E0280FE1E0F0E0EC0FFD1F73
:10097000E80FF11D87FDFA95C801B7010E943414F4
:10098000805D80838B01822F672B61F71216F4F450
:100990001FEF120FE1E0F0E0EC0FFD1FE10FF11D82
:1009A00080810E948704212FF1CF892BB9F680E343
:1009B00027960FB6F894DEBF0FBECDBFDF91CF9163
:1009C0001F910F91FF90EF900C94870427960FB61C
:1009D000F894DEBF0FBECDBFDF91CF911F910F9175
:1009E000FF90EF900895CF93DF93EC0189918823D6
:1009F00019F00E948704FACFDF91CF910895CF9329
:100A0000C82F109882958F700E9470048C2F8F7061
:100A10000E94700487EC90E00197F1F700C000009D
:100A2000CF910895CF9380E80E94FF04C0E0E09149
:100A30003A0AEC0F8091390AE81758F4F0E0EC53C9
:100A4000F64F80810E948704CF5FC03181F7CF913C
:100A5000089580E2F7CF8091300A8F5F8093300A4B
:100A6000833058F480E80E94FF0489E492E00E94F9
:100A7000F3048BE592E00C941E0182E08093370A28
:100A800083E08093380A2F9A1092300A80E80E94FF
:100A9000FF0488E692E00E94F30489E792E0EBCF3E
:100AA0004F925F926F927F928F929F92AF92BF927E
:100AB000CF92DF92EF92FF920F931F93CF93DF932A
:100AC000CDB7DEB72C970FB6F894DEBF0FBECDBF03
:100AD0002C01CE0101966C01EE24FF24E81AF90ADC
:100AE00080EB682E712C5E019DE0A90EB11C860181
:100AF0004701E0EB8E0E911CC401800F911F0E94F4
:100B00001E14F80181938F01EA15FB05A9F74BE04C
:100B100050E0B201C6010E94B214892B61F4C301F6
:100B20000E941E1481508E3F20F460E0C3010E9499
:100B3000261481E00CC0FDE06F0E711C8DE0E80E04
:100B4000F11C92E3691691E0790689F680E02C9613
:100B50000FB6F894DEBF0FBECDBFDF91CF911F91CE
:100B60000F91FF90EF90DF90CF90BF90AF909F904C
:100B70008F907F906F905F904F9008953F924F922B
:100B80005F926F927F928F929F92AF92BF92CF921D
:100B9000DF92EF92FF920F931F93CF93DF93CDB726
:100BA000DEB72C970FB6F894DEBF0FBECDBF482E30
:100BB000392E562ECE0101965C01CC24DD24C81AB4
:100BC000D90A00EB10E03E019DE0690E711C750131
:100BD000460180EB880E911CC4018E0D9F1D0E9462
:100BE0001E14F70181937F01E615F705A9F74BE085
:100BF00050E0642D732DC5010E94B214892B09F0B9
:100C00003FC0045F1F4FC8010E941E14851521F0CC
:100C1000652DC8010E94261482E012C07C0160E0AC
:100C2000C7010E942614B3949FEFE91AF90AECE079
:100C3000BE12F5CF652DC8010C960E94261481E0E6
:100C40002C960FB6F894DEBF0FBECDBFDF91CF91CB
:100C50001F910F91FF90EF90DF90CF90BF90AF90DA
:100C60009F908F907F906F905F904F903F900895EE
:100C7000035F1F4F0233F1E01F0771F480E0E0CF04
:100C8000035F1F4FFDE0CF0ED11C023381E0180738
:100C900009F09DCF00EB10E0C8010E941E148150A6
:100CA0008E3F30F3E42CF32CD12CC12CBC2CF7015B
:100CB00061917F01C8018C0D9D1D662309F4AECFA3
:100CC0000E942614FFEFCF1ADF0A8BE0C816D1046A
:100CD00069F760E0C8010B960E942614ABCF1F9302
:100CE000CF93DF93EC01162F0E941E14811739F069
:100CF000612FCE01DF91CF911F910C942614DF91CB
:100D0000CF911F9108951F920F920FB60F92112449
:100D10002F933F938F939F93AF93BF9380914A0AF2
:100D200090914B0AA0914C0AB0914D0A3091490A1A
:100D300023E0230F2D3758F50196A11DB11D2093F7
:100D4000490A80934A0A90934B0AA0934C0AB093A5
:100D50004D0A8091450A9091460AA091470AB091A8
:100D6000480A0196A11DB11D8093450A9093460A39
:100D7000A093470AB093480ABF91AF919F918F917A
:100D80003F912F910F900FBE0F901F90189526E85E
:100D9000230F0296A11DB11DD2CF1F920F920FB645
:100DA0000F9211240BB60F922F938F939F93EF9373
:100DB000FF939091C6008091C00085FFFCCF909377
:100DC000C60080910E0A8F5F8F7120912F0A28171D
:100DD00041F0E0910E0AF0E0E15FF54F90838093DF
:100DE0000E0AFF91EF919F918F912F910F900BBE63
:100DF0000F900FBE0F901F9018951F920F920FB675
:100E00000F9211240BB60F922F933F934F935F9342
:100E10006F937F938F939F93AF93BF93CF93DF9302
:100E2000EF93FF9330E020E0A1E0B0E07FE0622F9D
:100E3000CD01022E01C0880F0A94EAF7872780931C
:100E40000B018AE68A95F1F700C086B180958F7014
:100E500091F050E040E090E0E42FEC01042E02C05D
:100E6000D595C7950A94E2F7C0FD55C04F5F5F4F17
:100E70004430510589F72F5F3F4F24303105B9F6D3
:100E8000EFEF809101028E1341C08091ED098F3FF9
:100E900029F08091ED098F5F8093ED098091ED0934
:100EA0008230F9F4809100028E17D9F0E0930002AD
:100EB000EF3FB9F08091F509811113C08E2F86950F
:100EC0008695E37024E0829FC0011124815F9D4FCD
:100ED000E80FF92FF11D80818093F40981E0809360
:100EE000F509FF91EF91DF91CF91BF91AF919F9164
:100EF0008F917F916F915F914F913F912F910F90C3
:100F00000BBE0F900FBE0F901F901895E09301023B
:100F10001092ED09C3CFEE0FEE0FE60FB2CF1F9286
:100F20000F920FB60F9211248F9381E08093EE09F8
:100F300084E08093EC098F910F900FBE0F901F906B
:100F400018951F920F920FB60F9211248F9381E084
:100F50008093EE0983E08093EC098F910F900FBE90
:100F60000F901F9018951F920F920FB60F92112499
:100F70008F9381E08093EF0982E08093EC098F9159
:100F80000F900FBE0F901F9018951F920F920FB6E3
:100F90000F9211248F9381E08093EF098093EC09E5
:100FA0008F910F900FBE0F901F901895DC01E4EC0D
:100FB000F9E090E02D91222329F0973219F0219346
:100FC0009F5FF8CFE92FF0E0EC53F64F108290933B
:100FD000390A10923A0A10923C0A10923B0A0E9477
:100FE000120581E09091390A913108F480E08093F4
:100FF000440A0895CF93DF93CDB7DEB7EB970FB6D2
:10100000F894DEBF0FBECDBF789484B5826084BDF6
:1010100084B5816084BD85B5826085BD85B58160FC
:1010200085BD80916E00816080936E00109281007A
:101030008091810082608093810080918100816035
:1010400080938100809180008160809380008091F6
:10105000B10084608093B1008091B0008160809382
:10106000B000809191008260809391008091910006
:1010700081608093910080919000816080939000C6
:101080008091A10082608093A1008091A100816085
:101090008093A1008091A00081608093A000809146
:1010A00021018260809321018091210181608093E0
:1010B00021018091200181608093200180917A003C
:1010C000846080937A0080917A00826080937A00B5
:1010D00080917A00816080937A0080917A008068A4
:1010E00080937A001092C1008FEF81B912B82FEF70
:1010F00040E782E0215040408040E1F700C000001E
:10110000109883E00E947004EFE1FEE43197F1F75C
:1011100000C0000083E00E94700487E592E0019720
:10112000F1F700C0000083E00E947004E7ECF0E0FB
:101130003197F1F700C0000082E00E94700487EC54
:1011400090E00197F1F700C0000088E20E94FF04E0
:101150008CE00E94FF0486E00E94FF0481E00E9470
:10116000FF04EFE3FFE13197F1F700C00000809149
:101170000A018F6080930A0180910B018F60809338
:101180000B0187B1807F87B988B18F6088B982E011
:101190008093B00095E09093B1009BE99093B300E9
:1011A000809370001092F4091092F5091092C50016
:1011B00087E68093C4001092C00088E98093C10044
:1011C00086E08093C20010920E0A10922F0A84B11A
:1011D000806C84B985B18F7385B980EF8093690085
:1011E0008FE080936A0080E38DBB1092370A1092E3
:1011F000EF091092EE091092380A1092300A80E43A
:1012000080937C0010927B0087E880937A00809125
:101210007A00806480937A0080917A0086FDFCCF0A
:10122000809178009091790080910101886080938D
:10123000010182E88093A0008AE18093A1008FE3FE
:101240009CE99093A7008093A60080ED97E090938F
:10125000A9008093A800809107018861809307010D
:1012600080910801877E80930801259A2D9881E05E
:10127000809380009AE090938100109289001092F0
:1012800088001092310A80910101806280930101EF
:10129000809102018F7D809302011092410A109289
:1012A0003E0A10923D0A1092400A10923F0A809125
:1012B0000101806480930101809102018F7B809302
:1012C00002016B9A81E880939000909391001092B4
:1012D0009900109298001092320A1092330A9D9A47
:1012E000A59AFFEF20E742E0F15020404040E1F7AF
:1012F00000C0000084B1876084B92398289A81E5F2
:101300008CBD6FE081E00E94660113E08FEF90E7F3
:10131000E2E081509040E040E1F700C0000081E051
:101320000E945C0184FF02C0115081F76DE88AE2DF
:101330000E94660167E08BE20E94660160E08CE239
:101340000E9466016FE38DE20E94660160E485E120
:101350000E9466016DE381E10E94660184E10E94C2
:101360005C01982F937029F4682F636084E10E94D8
:1013700066011092F309989AA098789481E00E94EF
:10138000FF048FE39FE10197F1F700C0000080E8C0
:101390000E94FF048AEC92E00E94F30480EC0E9419
:1013A000FF048BED92E00E94F3040E94D0008CEECB
:1013B00092E00E941E010E94D00087E393E00E9409
:1013C0001E010E94D00088E693E00E941E010E9448
:1013D000D0001092FB096E0190E3C90ED11C442489
:1013E0004A9443E0542E612C712C8091EF0988239C
:1013F00009F44BC01092EF0981E08093380A2F9ACC
:101400008091380A1092440A813009F04CC080E87B
:101410000E94FF0487EE93E00E94F30488EF93E0BC
:101420000E941E010E94D0008091F309813009F4CE
:1014300092C008F445C0823009F41CC28091F509BD
:10144000882309F4A4C48091F50990910D0A88239A
:1014500011F40C94E7138091F4091092F40910929E
:10146000F5098A3209F030C210920302109202028A
:10147000992309F41CC210920D0A80EC0E94FF040B
:1014800088EB95E00E94F30482C48091EE098823E2
:1014900059F21092EE098091370A813029F682E0E4
:1014A0008093370AAACF823009F0BECF80E80E942D
:1014B000FF0488E094E00E94F30489E194E0B0CF57
:1014C0008091F2098F5F853018F48093F209B6CFCE
:1014D0001092F20960E081E00E94660160E88AE013
:1014E0000E94660186E2898361E0CE0101960E9436
:1014F000720167E08DE00E9466016FE784E00E9460
:1015000066016CE081E00E94660167E88DE00E9460
:10151000660109EB1BE084E00E945C01817319F411
:1015200001501109C1F784E00E945C01082F8AE094
:101530000E945C01182F60E081E00E94660105FFB7
:101540007DCF112309F47ACF89E00E945C0181E00C
:101550008093F30973CF03E908AF80E289AF85E098
:101560008BAF9E01255C3F4FA60162E0CE01C8967D
:101570000E942702882309F497C18BAD853008F4B7
:1015800093C188A899A8AAA8BBA8182D19251A251F
:101590001B258CA9181388C180924E0A90924F0A7D
:1015A000A092500AB092510A09A780E78AA78BA699
:1015B0009CA6ADA6BEA61FA760E081E00E946601C2
:1015C00060E88AE00E9466017E01E9E2EE0EF11C0D
:1015D000F70161917F0189E00E946601EC14FD042E
:1015E000B9F763E081E00E9466010FEF85E00E9499
:1015F0005C0182FD02C00150C9F760E081E00E94F9
:10160000660182E20E945C01082F81E20E945C0177
:1016100093E9998390E79A838B829C82AD82BE8204
:101620001F830887898783E08AAF9E01265C3F4F2E
:10163000AE014B5C5F4F69E0CE0101960E9427022C
:101640008091360A811113C00E9467038F3F09F011
:10165000C4C08AE095E00E941E010E94D00080EC88
:101660000E94FF048AE195E00E94F30447C08130A4
:1016700009F061C00E9467038F3F09F049C010E084
:1016800000E0C8010E941E148F3FE1F59090340ADB
:101690003EE4A32E3AE0B32EF12CE12CF50161914A
:1016A0005F01C701800F911F0E946F06FFEFEF1AC5
:1016B000FF0A24E0E216F10489F7692DC8010496B7
:1016C0000E946F068091340A882339F18BE494E0FC
:1016D0000E941E018091350A90E00E94D6000E946F
:1016E000D00080EC0E94FF048DE594E00E94F3049A
:1016F0008091350A0E947E021092360A0E941204DE
:1017000082E026CF0B5F1F4F0233110509F0B9CFDE
:101710008EE694E00E941E0154C087E294E00E948D
:101720001E010E94D00080EC0E94FF048AE394E036
:101730000E94F304E1CF8230D1F40E9467038F3F0F
:1017400099F06FEF45E0849FC00111240E946F065D
:101750008DE894E00E941E010E94D00080EC0E945F
:10176000FF0488E994E0E4CF89EA94E0D3CF8330A2
:1017700019F60E9467038F3FB9F3E5E08E9FC00121
:10178000112404960E941E14813021F51982CE0185
:1017900001960E94CD028823D1F089811091350AEB
:1017A000180F181708F41FEF812F0E947E0288235C
:1017B00059F08DEB94E00E941E01812F90E00E9471
:1017C000D6000E94D00098CF89EC94E0A3CF81EEA0
:1017D00094E0A0CF85EF94E09DCFF5E08F9FC0010E
:1017E000112404960E941E1481110DC0A09A8BE250
:1017F00095E00E941E010E94D00080EC0E94FF0430
:1018000083E495E031CF1982CE0101960E94CD028A
:10181000882369F189818823F1F0815089830E94AE
:101820007E02882389F0A09A84E595E00E941E013B
:10183000898190E00E94D6000E94D00080EC0E9436
:10184000FF048BE695E010CF89EC94E00E941E0126
:101850000E94D00053CF8CE795E00E941E010E94A9
:10186000D00080EC0E94FF0486E995E0FDCE81EE79
:1018700094E0ECCF8091F0099091F1090196803DC0
:1018800027E0920728F49093F1098093F009D6CDD0
:101890001092F1091092F009A09880EC0E94FF04C8
:1018A00087EA95E00E94F3041092F309C7CD81E026
:1018B00080930D0A10920C0A1092FC0980EC0E9491
:1018C000FF0489EC95E0DECD992309F4D7C210928C
:1018D000030210920202833209F082C710920D0AAD
:1018E00080EC0E94FF0487EA95E00E94F30480E008
:1018F000E82FF0E0E450F64F9081992311F08F5FCC
:10190000F7CF823058F08091FC0990ED980F9A3013
:1019100028F41091FD0910531A3050F080E80E940D
:10192000FF048AED95E00E94F3048BEE95E0C6C0BB
:1019300080534AE0849F100D11248EEF99E00E949D
:101940005803082F61E470E08EEF99E00E94A01424
:101950007C01B12C009721F001960E945803B82E0B
:10196000193209F479C1D0F5153109F4AAC028F566
:101970001B3009F487C0143109F4CCC01A3041F58A
:1019800080EC0E94FF0484E496E00E94F30485E565
:1019900096E00E941E010E94D00080ED97E0909397
:1019A000A9008093A80080EC0E94FF0488E696E0DE
:1019B0000E94F30489E796E081C0173109F4E5C07D
:1019C00008F4BDC01E3109F432C11F3109F4E8C06A
:1019D00080E80E94FF048AE898E0A5CF1C3309F450
:1019E00026C280F5133309F458C11B3309F4A5C18D
:1019F000123371F701500A3008F05DC1E02FF0E0BA
:101A0000EE0FFF1FE15EFD4F0081118101151105F1
:101A100009F451C1C8010E945005882309F483C10B
:101A2000B801CE0101960E94AB1463E877E0CE01C5
:101A300001960E949514CE0101960E94D6078EE869
:101A400097E03CC01E3309F4D4C108F4B6C11A357E
:101A500009F400C21B3509F0BBCF8EEF99E00E945C
:101A60002E03882309F4C0C10E944E031092300A4D
:101A700080E80E94FF0480E698E00E94F30481E77A
:101A800098E01CC080EC0E94FF048DEF95E00E945E
:101A9000F3048EE096E00E941E010E94D00080EACE
:101AA0009FE09093A9008093A80080EC0E94FF041F
:101AB00081E296E00E94F30482E396E00E941E0118
:101AC00095C1802F0E94440180E80E94FF048BE8AA
:101AD00096E00E94F30489EC0E94FF0480EB95E0FD
:101AE0000E94F30489EC0E94FF048CE996E00E94B6
:101AF000F3048091330A90E00E949A048FE996E003
:101B00000E94F30483EA96E00E941E018091330A4A
:101B100090E08AC0809102018F7B80930201109235
:101B20009900109298001092320A80E80E94FF04F7
:101B300081EB96E00E94F30482EC96E0BFCF8091A7
:101B4000320A813019F080ED96E0B8CF8091330AE7
:101B50008F5F0E94300189EC0E94FF0480EB95E0CA
:101B60000E94F30489EC0E94FF048CE996E00E9435
:101B7000F3048091330A90E00E949A048FE996E082
:101B80000E94F30485EE96E0BFCF8091320A813047
:101B9000D1F68091330A815087FFDBCF80E0D9CF27
:101BA000ECE3BE9EC001112490933E0A80933D0A4F
:101BB0008091020180628093020181E08093410A5A
:101BC0001092400A10923F0A80E80E94FF048DEEB6
:101BD00096E00E94F30486E80E94FF0410E0C8012A
:101BE0000E949A0483E40E94870489EC0E94FF0407
:101BF00080EB95E00E94F30489EC0E94FF04EB2C3B
:101C0000F12CC7010E949A048EEF96E00E94F30423
:101C100082E097E00E941E01C8010E94D6008FEE6C
:101C200098E00E941E01C7010E94D600DFC080918B
:101C300002018F7D809302011092410A10923E0AA8
:101C400010923D0A80E80E94FF048CE097E00E9419
:101C5000F3048DE197E032CF802F0E940A0389ECD4
:101C60000E94FF0480EB95E00E94F30489EC0E943F
:101C7000FF0481EE98E00E94F3048091310A90E025
:101C80000E949A048FE996E00E94F3048AE297E0AA
:101C90000E941E018091310A3BCF01500A3058F456
:101CA000E02FF0E0EE0FFF1FE15EFD4F008111819C
:101CB0000115110551F480E80E94FF0482E397E0CA
:101CC0000E94F30483E497E0F9CE6B2DC8010E94D3
:101CD000BE05F82E81110AC080E80E94FF048EE53F
:101CE00097E00E94F3048FE697E0E8CEB801CE01BA
:101CF00001960E94AB14F2E068E872E0FF1611F062
:101D000065E972E0CE0101960E949514CE0101961C
:101D10000E94D60722E08FE992E0F21609F4CECEB7
:101D200086EB92E0CBCE80E80E94FF0483EA97E046
:101D30000E94F30484EB97E0C1CE80E80E94FF0488
:101D400080ED97E00E94F30480EBE82EF12C10E088
:101D5000C7010E941E1481508E3F08F41F5F4DE0A2
:101D6000E40EF11C82E3E81681E0F80689F7812F82
:101D700090E00E949A048AED97E00E94F30481EEBD
:101D800097E00E941E010E94D0000E949D03809156
:101D90002F0A90910E0A981709F493C3E82FF0E0E8
:101DA000E15FF54F90819A3009F40CC190819D302C
:101DB00009F408C18F5F8F71ECCF8EEF99E00E941C
:101DC0002E03882389F081E08093360A1092340A2A
:101DD0001092350A80E80E94FF048AEF97E00E9483
:101DE000F3048BE098E06ACE0E942B050E94D0009D
:101DF000CECFC7010196EF2811F48EEF99E00E9433
:101E00002E03882389F381E08093360A8093340A75
:101E10000093350A80E80E94FF048FE198E00E9459
:101E2000F30480E398E00E941E01802F71CE8EEFB4
:101E300099E00E942E038823B9F282E08093360A4B
:101E400080E80E94FF0483E498E00E94F30484E5A4
:101E500098E034CE8EEF99E00E942E03882321F281
:101E60000E943E031092300A80E80E94FF048AEC30
:101E700092E00E94F3048BE798E020CE10920302D8
:101E80001092020290ED980F9A3068F5E091FB09EC
:101E9000E43008F07CCF91E09E0F9093FB09F0E0D6
:101EA000EA50F64F8083E92FF0E0EA50F64F1082B7
:101EB00080EC0E94FF0480EA98E00E94F30400E0B6
:101EC0001091FB09011728F48AE20E9487040F5F32
:101ED000F7CF143028F48FE50E9487041F5FF9CFF5
:101EE00083EB95E0CFCA813419F58091FB098430EA
:101EF000B1F486EF99E00E942E03882381F00E94BE
:101F00004E031092300A80E80E94FF0480E698E0B9
:101F10000E94F30481E798E00E941E0102C00E9423
:101F20002B050E94D0001092FB091092F6092FCFCA
:101F30008234C1F48091FB09843089F786EF99E0FF
:101F40000E942E03882359F30E943E031092300A08
:101F500080E80E94FF048AEC92E00E94F3048BE781
:101F600098E0DACF833411F58091310A8F5F8B309E
:101F700008F08AE00E940A0389EC0E94FF0480EBCB
:101F800095E00E94F30489EC0E94FF0481EE98E042
:101F90000E94F3048091310A90E00E949A048FE934
:101FA00096E00E94F30489EA98E072CE843409F046
:101FB000EECE8091310A8150990B8F3F9807D1F670
:101FC00080E0D8CF90E020910E0A80912F0A281748
:101FD000A1F19F3190F520910E0A80912F0A2817C8
:101FE00009F44DC0E0912F0AF0E0E15FF54F8081E8
:101FF00020912F0A2F5F2F7120932F0A8A3011F022
:102000008D30A1F530910E0A20912F0A3217A9F0D8
:10201000E0912F0AF0E0E15FF54F20818D3049F427
:102020002A3059F480912F0A8F5F8F7180932F0A85
:1020300004C08A3011F42D30A9F3E1E0F0E0EC0F98
:10204000FD1FE90FF11D1082992309F43AC28E0198
:102050000F5F1F4FF80181918F018823D1F090E02D
:102060000E948D14F80131978083F4CF883011F0ED
:102070008F3731F4992309F4A6CF9150A4CF80E093
:10208000E1E0F0E0EC0FFD1FE90FF11D80839F5FA1
:102090009ACF44E050E061EB78E0CE0101960E94D7
:1020A000B214892BD9F4CE0105960E942E03882301
:1020B00081F00E944E031092300A80E80E94FF04D3
:1020C00080E698E00E94F30481E798E00E941E01F8
:1020D00002C00E942B050E94D000F3C147E050E0EF
:1020E0006EEA78E0CE0101960E94B214892BA1F429
:1020F000CE0108960E942E03882359F30E943E03C6
:102100001092300A80E80E94FF048AEC92E00E945C
:10211000F3048BE798E0DACF44E050E069EA78E036
:10212000CE0101960E94B214892B11F5CE010596BD
:102130000E9458030E940A031092030210920202A6
:1021400089EC0E94FF0481EE98E00E94F3048091E4
:10215000310A90E00E949A048FE996E00E94F3040D
:102160008AE297E00E941E018091310A90E0AEC0A1
:102170004CE050E066EB78E0CE0101960E94B2148C
:10218000892BE9F480EC0E94FF048DEF95E00E941A
:10219000F3048EE096E00E941E010E94D00080EAC7
:1021A0009FE09093A9008093A80080EC0E94FF0418
:1021B00081E296E00E94F30482E396E087CF4DE04F
:1021C00050E069E273E0CE0101960E94B214892BBF
:1021D000E9F480EC0E94FF0484E496E00E94F3049A
:1021E00085E596E00E941E010E94D00080ED97E0F8
:1021F0009093A9008093A80080EC0E94FF0488E6D9
:1022000096E00E94F30489E796E060CF46E050E054
:1022100063EC78E0CE0101960E94B214892B09F09C
:1022200058C0CE0107960E945803E82E6CE270E079
:10223000CE0107960E94A01400E0009721F00196BD
:102240000E945803082FFCE30F9FC00111249093B4
:102250003E0A80933D0A80910201806280930201D0
:1022600081E08093410A1092400A10923F0A80E870
:102270000E94FF048DEE96E00E94F30486E80E941F
:10228000FF04F12CC7010E949A0483E40E94870492
:1022900089EC0E94FF0480EB95E00E94F30489EC36
:1022A0000E94FF0410E0C8010E949A048EEF96E09D
:1022B0000E94F30482E097E00E941E01C7010E9481
:1022C000D6008FEE98E00E941E01C8010E94D60041
:1022D00002CF4AE050E06AEC78E0CE0101960E941D
:1022E000B214892BA9F4809102018F7B80930201A3
:1022F00010929900109298001092320A80E80E9481
:10230000FF0481EB96E00E94F30482EC96E0DECEBF
:1023100049E050E065ED78E0CE0101960E94B214EC
:10232000892BC9F51091330A111101C015E06CE237
:1023300070E0CE010A960E94A014009721F0019649
:102340000E945803182F812F0E94440180E80E94A8
:10235000FF048BE896E00E94F30489EC0E94FF04DE
:1023600080EB95E00E94F30489EC0E94FF048CE965
:1023700096E00E94F3048091330A90E00E949A0450
:102380008FE996E00E94F30483EA96E00E941E0122
:102390008091330AEBCE44E050E06FED78E0CE015F
:1023A00001960E94B214892BB9F58091320A8130CE
:1023B00019F080ED96E08ACE8D818B32F9F4809110
:1023C000330A8F5F0E94300189EC0E94FF0480EB8A
:1023D00095E00E94F30489EC0E94FF048CE996E0EA
:1023E0000E94F3048091330A90E00E949A048FE9DE
:1023F00096E00E94F30485EE96E0C8CF8D3239F462
:102400008091330A815087FFDDCF80E0DBCFCE01A2
:1024100005960E945803D6CF4CE050E064EE78E079
:10242000CE0101960E94B214892B11F56CE270E086
:10243000CE010D960E94A0140097B9F0FC011192F4
:10244000CF010E945803682FCE010D960E94BE0551
:10245000811103C08FE697E039CE823019F48FE9FD
:1024600092E034CE86EB92E031CE81EF98E02ECE32
:102470004CE050E067E079E0CE0101960E94B21492
:10248000892B61F4CE010D960E945005882319F026
:102490008EE897E01BCE84EB97E018CE4CE050E03E
:1024A0006AED73E0CE0101960E94B214892B09F007
:1024B00091C081EE97E00E941E010E94D0000E9410
:1024C0009D038091440A882371F080913B0A90918A
:1024D0003C0A01968C32F1E09F0708F005C1909309
:1024E0003C0A80933B0A2091420A3091430A2F5FB5
:1024F0003F4F3093430A2093420A80910202909109
:10250000030201969093030280930202203D37401C
:1025100008F444C01092430A1092420A803E9E4240
:10252000E0F00E9495008C0180EC0E94FF0488E698
:1025300099E00E94F3049801A8E2B0E00E946A14B6
:10254000A30192010E944814822F220F990B0E942E
:102550009A048BE699E00E94F3040E9495009C0186
:10256000A8E2B0E00E946A14A30192010E944814FC
:102570008091080183FDEEC022312CF48091080186
:102580008860809308018091080184FDEAC02B31A6
:102590002CF0809108018061809308018091410AAC
:1025A000882371F080913F0A9091400A0196803A09
:1025B000FFE09F0708F0DCC09093400A80933F0A39
:1025C00080E090E0892B11F40C94F5090E94000042
:1025D0000C94F5094DE050E064E179E0CE010196FC
:1025E0000E94B214892B89F4CE010E960E942E030C
:1025F000882309F46ECD81E08093360A1092340A64
:102600001092350A8BE098E061CD4BE050E062E239
:1026100079E0CE0101960E94B214892B19F5CE0102
:102620000C960E945803182F6CE270E0CE010C96B5
:102630000E94A014009799F001960E942E0388230F
:1026400009F447CD81E08093360A8093340A1093D1
:10265000350A80E398E00E941E01812F87CDCE01CC
:102660000C96EBCF47E050E06EE279E0CE010196A8
:102670000E94B214892B69F4CE0108960E942E03A1
:10268000882309F426CD82E08093360A84E598E019
:102690001DCD48E050E066E379E0CE0101960E944E
:1026A000B214892BF1F4CE0109960E945803182F19
:1026B0006CE270E0CE0109960E94A014009771F0C0
:1026C00001960E942E03882309F403CD83E08093B2
:1026D000360A1093350A8FE399E0BDCFCE010996F3
:1026E000F0CF8EE499E0F2CC10923C0A10923B0AB3
:1026F00080913A0A8F5F80933A0A9091390A98172D
:1027000030F51092440A80E80E94FF048091370A55
:10271000813029F480E698E00E94F304E4CE8091B1
:10272000370A823089F48091380A813019F487EEB3
:1027300093E0F2CF8091380A823019F488E094E077
:10274000EBCF88E692E0E8CF8AEC92E0E5CF0E94FA
:102750001205C9CE25310CF416CF80910801877F70
:1027600010CF28310CF01ACF809108018F7E14CF42
:102770001092400A10923F0A80913D0A90913E0AC1
:10278000009729F0019790933E0A80933D0A80912B
:102790003D0A90913E0A892B09F012CF80910201E7
:1027A0008F7D809302011092410A10923E0A10928E
:1027B0003D0A80E80E94FF0480E799E00E94F3044C
:1027C00081E899E00E941E010E94D000F9CE80E0CD
:1027D000992309F453CB109203021092020280E075
:1027E00090ED980F9A3018F0813409F0D0CAE0913A
:1027F0000C0AEF3068F491E09E0F90930C0AF0E021
:10280000E450F64F8083E92FF0E0E450F64F108259
:1028100080EC0E94FF048BE998E00E94F3048CEFA7
:1028200099E00E94F30410910C0A1C5F103108F02B
:10283000AECA80E20E9487041F5FF8CFF999FECFED
:1028400092BD81BDF89A992780B50895262FF999F0
:10285000FECF1FBA92BD81BD20BD0FB6F894FA9A83
:10286000F99A0FBE0196089597FB072E16F400946F
:1028700007D077FD09D00E94791407FC05D03EF4FB
:10288000909581959F4F0895709561957F4F08951C
:10289000A1E21A2EAA1BBB1BFD010DC0AA1FBB1F64
:1028A000EE1FFF1FA217B307E407F50720F0A21BD6
:1028B000B30BE40BF50B661F771F881F991F1A9443
:1028C00069F760957095809590959B01AC01BD016D
:1028D000CF010895A29FB001B39FC001A39F700DC7
:1028E000811D1124911DB29F700D811D1124911D18
:1028F0000895AA1BBB1B51E107C0AA1FBB1FA61747
:10290000B70710F0A61BB70B881F991F5A95A9F798
:1029100080959095BC01CD0108959111089581563F
:102920008A5108F4805285580895FB01DC010D900E
:102930000020E9F7119701900D920020E1F708952A
:10294000FC018191861721F08823D9F799270895F2
:102950003197CF010895FB01DC0101900D92002019
:10296000E1F70895FB01DC014150504030F08D91BA
:102970000190801919F40020B9F7881B990B08956C
:10298000F894FFCFFFFF0F27000204080E192C4E0A
:102990007CB4FF3132334134353642373839432A3B
:1029A0003023448B09910995099C09A209A909B012
:1029B00009B509B909BF09FFFFFFFFFFFF20782014
:1029C000004C4953544120564143494100434F4430
:1029D00049474F20494E434F52524543544F0045BB
:1029E00052524F523A434F4449474F002121204908
:1029F0004E545255534F20212120202000414C415C
:102A0000524D413A494E545255534F002041435480
:102A100055414C495A41444F002041475245474196
:102A2000444F004F4B3A4D45524341444F5F414361
:102A30005455414C495A41444F004F4B3A4D455231
:102A40004341444F5F414752454741444F00414C49
:102A500041524D413A204445534143544956005454
:102A60003A2D2D43202020204C3A302F31302000A9
:102A7000436F6D616E646F733A2041524D3A7878BE
:102A80007878202F2044495341524D3A787878780D
:102A9000202F204C555A3A302D3130202F204741DD
:102AA00052414A453A4142524952202F2047415211
:102AB000414A453A43455252415200454E524F4CCD
:102AC0003A4144554C544F202F20454E524F4C3ADA
:102AD00048494A4F2C4E202F20424F5252415220FB
:102AE0002F2041434345534F533A4E00484F524ED7
:102AF0004F3A74656D702C6D696E202F20534F4EC8
:102B000049444F3A4F4E5B2C302D31305D202F2001
:102B1000534F4E49444F3A4F4646202F20564F4C74
:102B20003A4E202F20564F4C3A2B202F20564F4CF8
:102B30003A2D202F204D45524341444F3A414444C1
:102B40002C6E6F6D2C63616E74202F204D455243A7
:102B500041444F3A44454C2C6E6F6D202F204D451B
:102B6000524341444F3A4C49535400212120494E8D
:102B700043454E44494F202121202000414C4152E1
:102B80004D413A494E43454E44494F002121204989
:102B90004E54525553494F4E2021212000414C4163
:102BA000524D413A41434345534F004F4B3A454EF6
:102BB000524F4C41444F5F4144554C544F00454E99
:102BC000524F4C41444F204144554C544F20004FEC
:102BD0004B3A454E524F4C41444F5F48494A4F2C67
:102BE00000454E524F4C41444F2048494A4F202007
:102BF00020004552524F523A454550524F4D5F4C7E
:102C00004C454E415F4F5F4455504C494341444F02
:102C1000004F4B3A424F525241444F005441524AA6
:102C200045544120424F52524144412000455252A6
:102C30004F523A5549445F4E4F5F455849535445AA
:102C4000004F4B3A41434345534F532C004552529A
:102C50004F523A45534352494249525F434F4E54B3
:102C600041444F52004552524F523A4C4545525FF3
:102C7000434F4E5441444F52004552524F523A55E1
:102C800049445F4E4F5F45535F48494A4F004143B7
:102C90004345534F3A44454E454741444F00414315
:102CA0004345534F2044454E454741444F20004142
:102CB000434345534F3A434F4E43454449444F5F86
:102CC0004144554C544F0041434345534F204144E8
:102CD000554C544F2020200041434345534F3A4325
:102CE0004F4E43454449444F5F48494A4F2C0041A9
:102CF000434345534F2048494A4F2020202020007D
:102D000041434345534F3A44454E454741444F5F45
:102D100053494E5F4355504F530053494E2043553E
:102D2000504F532020202020202000202020202031
:102D3000202020202020202020202000434D44203F
:102D400043414E43454C41444F20202000434D44D5
:102D50003A20202020202020202020202000434D29
:102D60004420494E56414C49444F202020200045E4
:102D700052524F523A434D445F5445434C41444FA5
:102D800000474152414A452041425249454E444F35
:102D900020004F4B3A474152414A455F4142524918
:102DA000454E444F0020202020202020202041425A
:102DB000494552544F004F4B3A474152414A455FB3
:102DC0004142494552544F00474152414A452043F0
:102DD000455252414E444F20004F4B3A47415241D9
:102DE0004A455F43455252414E444F002020202027
:102DF00020202020204345525241444F004F4B3A5F
:102E0000474152414A455F4345525241444F005366
:102E10004F4E49444F3A204F4E2020202020200082
:102E2000563A002F3130004F4B3A534F4E49444FE2
:102E30005F4F4E2C00534F4E49444F3A204F464669
:102E40002020202020004F4B3A534F4E49444F5FE3
:102E50004F4646004552524F523A534F4E49444F07
:102E60005F4150414741444F004F4B3A564F4C2C25
:102E700000484F524E4F3A20202020202020202072
:102E800020006D696E004F4B3A484F524E4F2C0058
:102E9000484F524E4F3A204F4646202020202020B7
:102EA000004F4B3A484F524E4F5F4F4646004F4BF4
:102EB0003A4C555A2C0050524F4420444553434FEE
:102EC0004E4F4349444F004552524F523A50524F91
:102ED000445543544F5F444553434F4E4F43494439
:102EE0004F004D45524341444F204C4C454E4F20DE
:102EF0002020004552524F523A4D45524341444FD3
:102F00005F4C4C454E4F0020454C494D494E414485
:102F10004F004F4B3A4D45524341444F5F454C495A
:102F20004D494E41444F004D455243204E4F2045A0
:102F300058495354452020004552524F523A4D456E
:102F4000524341444F5F4E4F5F454E434F4E5452A4
:102F500041444F004D45524341444F3A20002069BF
:102F600074656D20002D2D2D204C49535441204473
:102F700045204D45524341444F202D2D2D00454EB7
:102F8000524F4C204144554C544F20202020004F9C
:102F90004B3A454E524F4C414E444F5F4144554C85
:102FA000544F00454E524F4C2048494A4F20202054
:102FB000202020004F4B3A454E524F4C414E444F3B
:102FC0005F48494A4F2C00424F52524152205441CF
:102FD000524A4554412020004F4B3A424F525241F1
:102FE0004E444F00414C41524D413A2041524D41D7
:102FF00044412020004F4B3A41524D414441004F43
:103000004B3A444553414354495641444100434D92
:103010004420444553434F4E4F4349444F200043BF
:103020004D443A00436F6469676F3A20004C555A2B
:103030003A0044495341524D3A00474152414A45B2
:103040003A414252495200484F524E4F3A00534F74
:103050004E49444F3A4F464600534F4E49444F3A2B
:103060004F4E00564F4C3A004D45524341444F3A63
:103070004144442C004552524F523A464F524D4122
:10308000544F5F4D45524341444F004D45524341DB
:10309000444F3A44454C2C00454E524F4C3A414423
:1030A000554C544F2C00454E524F4C3A48494A4FCC
:1030B0002C00424F525241522C0041434345534F42
:1030C000533A004F4B3A524543415247414E444FC9
:1030D0002C004552524F523A434F4D414E444F5FA0
:1030E000444553434F4E4F4349444F00543A0043E5
:1030F00020202000484F524E4F3A204C4953544F05
:103100002020202000484F524E4F3A46494E006C36
:10311000656368650070616E00687565766F730041
:103120006172726F7A0061636569746500617A75B6
:1031300063617200636166650073616C0070617346
:08314000746100616775610014
:020000040003F7
:10E000000D9489F10D94B2F10D94B2F10D94B2F129
:10E010000D94B2F10D94B2F10D94B2F10D94B2F1F0
:10E020000D94B2F10D94B2F10D94B2F10D94B2F1E0
:10E030000D94B2F10D94B2F10D94B2F10D94B2F1D0
:10E040000D94B2F10D94B2F10D94B2F10D94B2F1C0
:10E050000D94B2F10D94B2F10D94B2F10D94B2F1B0
:10E060000D94B2F10D94B2F10D94B2F10D94B2F1A0
:10E070000D94B2F10D94B2F10D94B2F10D94B2F190
:10E080000D94B2F10D94B2F10D94B2F10D94B2F180
:10E090000D94B2F10D94B2F10D94B2F10D94B2F170
:10E0A0000D94B2F10D94B2F10D94B2F10D94B2F160
:10E0B0000D94B2F10D94B2F10D94B2F10D94B2F150
:10E0C0000D94B2F10D94B2F10D94B2F10D94B2F140
:10E0D0000D94B2F10D94B2F10D94B2F10D94B2F130
:10E0E0000D94B2F141546D656761323536300041AF
:10E0F000726475696E6F206578706C6F72657220DE
:10E1000073746B3530305632206279204D4C530099
:10E11000426F6F746C6F616465723E004875683F52
:10E1200000436F6D70696C6564206F6E203D200048
:10E130004350552054797065202020203D20005FF9
:10E140005F4156525F415243485F5F3D2000415658
:10E1500052204C696243205665723D20004743437C
:10E160002056657273696F6E203D20004350552024
:10E1700049442020202020203D20004C6F7720663D
:10E18000757365202020203D20004869676820665F
:10E190007573652020203D200045787420667573D6
:10E1A00065202020203D20004C6F636B2066757336
:10E1B000652020203D20004D617220203720323024
:10E1C000313300312E362E3800342E332E350056A2
:10E1D00023202020414444522020206F7020636F70
:10E1E00064652020202020696E73747275637469E1
:10E1F0006F6E2061646472202020496E74657272B3
:10E20000757074006E6F20766563746F7200726A49
:10E210006D702020006A6D70200057686174207056
:10E220006F72743A00506F7274206E6F7420737541
:10E2300070706F72746564004D7573742062652030
:10E2400061206C6574746572002000577269747483
:10E25000696E672045450052656164696E672045B7
:10E26000450045452065727220636E743D00504F35
:10E27000525400303D5A65726F2061646472003FF1
:10E280003D43505520737461747300403D454550C3
:10E29000524F4D207465737400423D426C696E6B41
:10E2A000204C454400453D44756D70204545505215
:10E2B0004F4D00463D44756D7020464C415348001B
:10E2C000483D48656C70004C3D4C69737420492F83
:10E2D0004F20506F72747300513D51756974005234
:10E2E0003D44756D702052414D00563D73686F7707
:10E2F00020696E7465727275707420566563746FF0
:10E30000727300593D506F727420626C696E6B00BD
:10E310002A0011241FBECFEFD1E2DEBFCDBF01E046
:10E320000CBF12E0A0E0B2E0EEE1FDEF03E00BBFB6
:10E3300002C007900D92A030B107D9F712E0A0E01B
:10E34000B2E001C01D92AE30B107E1F70F9460F367
:10E350000D948DFE01E20EBF0FEF0DBF11241FBE05
:10E360000D9460F30D9400F020E030E040ED57E0B4
:10E3700005C0FA013197F1F72F5F3F4F2817390792
:10E38000C0F308959C01260F311DC901A0E0B0E043
:10E390002F5F3F4FABBFFC018791882361F08093D3
:10E3A000C6008091C00086FFFCCF8091C0008064D1
:10E3B0008093C000EACF08958DE08093C6008091DD
:10E3C000C00086FFFCCF8091C00080648093C000B5
:10E3D0008AE08093C6008091C00086FFFCCF8091C8
:10E3E000C00080648093C00008950F94C2F10F9420
:10E3F000DCF10895FC019081992359F09093C600B7
:10E400008091C00086FFFCCF8091C0008064809323
:10E41000C0003196992379F70895282F982F929567
:10E420009F70892F805D8A3308F0895F8093C600D2
:10E430008091C00086FFFCCF8091C00080648093F3
:10E44000C000822F8F70982F905D9A3308F0995FEB
:10E450009093C6008091C00086FFFCCF8091C000E1
:10E4600080648093C00008959C01FB01853691056E
:10E470001CF46330710594F0C90164E670E00F94F8
:10E480002EFE605D7F4F6093C6008091C00086FFC6
:10E49000FCCF8091C00080648093C0002B30310598
:10E4A00014F43297B4F0C90164E670E00F942EFEC4
:10E4B0006AE070E00F942EFE605D7F4F6093C600AF
:10E4C0008091C00086FFFCCF8091C0008064809363
:10E4D000C000C9016AE070E00F942EFEC0968093E0
:10E4E000C6008091C00086FFFCCF8091C000806490
:10E4F0008093C00008951F93182F8EE692EE60E07F
:10E500000F94C2F11093C6008091C00086FFFCCF2B
:10E510008091C00080648093C0000F94DCF11F9153
:10E5200008952F923F924F925F926F927F928F92B7
:10E530009F92AF92BF92CF92DF92EF92FF920F9392
:10E540001F93DF93CF93CDB7DEB762970FB6F894E2
:10E55000DEBF0FBECDBF382E622ECA01DB015C01CB
:10E560006D01772420E2222E2E010894411C511CBB
:10E570008BC081E0A81680E0B80681E0C80680E084
:10E58000D80628F0C601AA27BB270F940DF2BB2797
:10E59000AD2D9C2D8B2D0F940DF28A2D0F940DF225
:10E5A0002092C6008091C00086FFFCCF8091C00001
:10E5B00080648093C0009DE29093C6008091C0006B
:10E5C00086FFFCCF8091C00080648093C0002092C1
:10E5D000C6008091C00086FFFCCF8091C00080649F
:10E5E0008093C00019828601750188249924A1E0D6
:10E5F0003A1651F03A1620F0B2E03B1661F409C029
:10E600000BBFF701779007C0C7010F9477FE782EF4
:10E6100002C0F7017080872D0F940DF22092C60082
:10E620008091C00086FFFCCF8091C0008064809301
:10E63000C000872D8052F401EF70F0708F3520F408
:10E64000E40DF51D708204C0E40DF51D8EE280839B
:10E650000894E11CF11C011D111D0894811C911CE2
:10E6600090E18916910409F0C2CF80E190E0A0E02A
:10E67000B0E0A80EB91ECA1EDB1E198AC2010F9493
:10E68000FAF10F94DCF16A94662009F072CF629679
:10E690000FB6F894DEBF0FBECDBFCF91DF911F91B3
:10E6A0000F91FF90EF90DF90CF90BF90AF909F9031
:10E6B0008F907F906F905F904F903F902F90089534
:10E6C0002F923F924F925F926F927F928F929F9282
:10E6D000AF92BF92CF92DF92EF92FF920F931F9370
:10E6E000DF93CF93CDB7DEB7CD53D1400FB6F894BB
:10E6F000DEBF0FBECDBF01E20EBF0FEF0DBF94B75F
:10E70000F894A89514BE80916000886180936000A1
:10E7100010926000789493FF05C0E0910002F091A0
:10E7200001021995279A2F9A8091C00082608093E8
:10E73000C00080E18093C40088E18093C1000000A4
:10E74000EE24FF24870144E0A42EB12CCC24DD2448
:10E7500024C0C5010197F1F70894E11CF11C011DCB
:10E76000111D21E2E2162EE4F20620E0020720E06D
:10E77000120718F031E0C32ED12CC801B70127ECE5
:10E780003BE140E050E00F9441FE611571058105C9
:10E79000910519F485B1805885B98091C00087FD35
:10E7A00003C0C114D104A9F2A6014F5F5F4FC25E3E
:10E7B000DE4F59834883CE51D140C25EDE4F8881FF
:10E7C0009981CE51D140019711F00D9410FEC05D9A
:10E7D000DE4F19821882C053D14060E0C15DDE4F28
:10E7E0001882CF52D14088249924C35DDE4F19820C
:10E7F0001882CD52D140C05EDE4F188219821A8233
:10E800001B82C052D140CE5CDE4F188219821A8220
:10E810001B82C253D140EE24FF2487010BBFF701B6
:10E8200007911691C45CDE4F19830883CC53D14005
:10E830000D940BFEC25EDE4F28813981CE51D1404E
:10E840002130310509F52091C600C25EDE4F1982E4
:10E850001882CE51D14022C02F5F3F4F4F4F5F4FA4
:10E86000213082E138078AE7480780E0580780F0C6
:10E87000C45CDE4FE881F981CC53D140EF5FFF4F9C
:10E8800019F0EE27FF27099420E030E040E050E047
:10E890008091C00087FFE0CF2091C600C35DDE4FAE
:10E8A00048815981CD52D1404F5F5F4FC35DDE4FEC
:10E8B00059834883CD52D140213209F063C64A3092
:10E8C000510508F05FC60894811C911C53E0851621
:10E8D000910409F059C600E010E018C081E280936D
:10E8E000C6008091C00086FFFCCF8091C00080648C
:10E8F0008093C0002F5F3F4F2931310579F70F9486
:10E90000DCF10F5F1F4F0530110519F020E030E0FA
:10E91000E5CF10920A0210920B0210920C02109294
:10E920000D02109206021092070210920802109235
:10E930000902109202021092030210920402109235
:10E9400005028FEE90EE60E00F94F5F180E191EE1C
:10E9500060E00F94C2F18091C00087FFFCCF9091DE
:10E96000C600903608F09F759032B8F09093C600BC
:10E970008091C00086FFFCCF8091C00080648093AE
:10E98000C000A0E2A093C6008091C00086FFFCCF2B
:10E990008091C00080648093C000983409F4D7C18E
:10E9A0009934B8F4923409F459C1933458F490333B
:10E9B00019F1903308F4E3C59F33A1F1903409F0C5
:10E9C000DEC5BDC0953409F470C1963409F0D7C5D1
:10E9D00098C1923509F42BC2933538F49C3409F46C
:10E9E000F5C1913509F0CBC518C2963509F445C279
:10E9F000993509F0C4C567C483E792EE62E00F94CD
:10EA0000F5F110920602109207021092080210927D
:10EA1000090210920A0210920B0210920C0210923C
:10EA20000D0213C18FE792EE62E00F94F5F18FEEC5
:10EA300090EE60E00F94F5F181E291EE60E00F94CA
:10EA4000C2F187EB91EE60E00F94F5F180E391EE77
:10EA500060E00F94C2F184EE90EE60E00F94F5F167
:10EA60008FE391EE60E00F94C2F186E090E061E008
:10EA700070E00F9434F20F94DCF18DE591EE60E0DC
:10EA80000F94C2F189EC91EE60E00F94F5F18EE401
:10EA900091EE60E00F94C2F183EC91EE60E00F9490
:10EAA000F5F18CE691EE60E00F94C2F18EE10F94E7
:10EAB0000DF288E90F940DF281E00F940DF20F949E
:10EAC000DCF18BE791EE60E00F94C2F119E0E0E039
:10EAD000F0E010935700E4918E2F0F940DF20F94F5
:10EAE000DCF18AE891EE60E00F94C2F1E3E0F0E03F
:10EAF00010935700E4918E2F0F940DF20F94DCF1D8
:10EB000089E991EE60E00F94C2F1E2E0F0E0109349
:10EB10005700E4918E2F0F940DF20F94DCF188EAE8
:10EB200091EE60E00F94C2F1E1E0F0E01093570045
:10EB30001491812F0F940DF20F94DCF107CF8BE825
:10EB400092EE62E00F94F5F18BE492EE60E00F94A8
:10EB5000F5F10F94DCF100E010E019C0C8016F2D51
:10EB60000F947FFEFF2031F489E492EE60E00F9471
:10EB7000C2F10BC0F092C6008091C00086FFFCCFAE
:10EB80008091C00080648093C0000F5F1F4FC80158
:10EB900081519F41A0E0B0E0ABBFFC01F790BAE229
:10EBA000FB1621F0E2E000301E07C1F60F94DCF105
:10EBB0000F94DCF187E592EE60E00F94F5F10F948D
:10EBC000DCF1CC24DD2400E010E01EC0C8010F946D
:10EBD00077FEF82E882331F489E492EE60E00F94FA
:10EBE000C2F10BC08093C6008091C00086FFFCCFAD
:10EBF0008091C00080648093C000FE1419F00894D6
:10EC0000C11CD11C0F5F1F4FC80181519F41A0E063
:10EC1000B0E0ABBFFC01E790FAE2EF1621F022E092
:10EC20000030120799F60F94DCF10F94DCF182E6C4
:10EC300092EE60E00F94C2F1C60161E070E00F94C3
:10EC400034F20F94DCF10F94DCF110920202109276
:10EC50000302109204021092050278CE89E992EE26
:10EC600062E00F94F5F1279A2F9A16C02F9880E052
:10EC700090E0E0EDF7E03197F1F7019684369105E9
:10EC8000C1F72F9A80E090E0E0EDF7E03197F1F7DF
:10EC9000019684369105C1F78091C00087FFE6CFC9
:10ECA0008091C00087FFFCCF64C485EA92EE62E0E9
:10ECB0000F94F5F140910202509103026091040219
:10ECC0007091050281E020E10F9491F2809102029F
:10ECD00090910302A0910402B091050280509F4FD1
:10ECE000AF4FBF4F8093020290930302A0930402A0
:10ECF000B093050280509041A040B04008F426CE69
:10ED0000A4CF83EB92EE62E00F94F5F140910602FE
:10ED100050910702609108027091090280E020E1A1
:10ED20000F9491F28091060290910702A09108023F
:10ED3000B091090280509F4FAF4FBF4F80930602A2
:10ED400090930702A0930802B0930902FFCD80ECD4
:10ED500092EE62E00F94F5F183E792EE60E00F949B
:10ED6000F5F18FE792EE60E00F94F5F18BE892EE0B
:10ED700060E00F94F5F189E992EE60E00F94F5F10F
:10ED800085EA92EE60E00F94F5F183EB92EE60E09D
:10ED90000F94F5F180EC92EE60E00F94F5F187ECC2
:10EDA00092EE60E00F94F5F188ED92EE60E00F9442
:10EDB000F5F18FED92EE60E00F94F5F18AEE92EEB0
:10EDC00060E00F94F5F183E093EEBDCD87EC92EE19
:10EDD00062E00F94F5F181E40F947BF282E40F94EA
:10EDE0007BF283E40F947BF284E40F947BF285E45E
:10EDF0000F947BF286E40F947BF287E40F947BF20E
:10EE000088E40F947BF28AE40F947BF28BE40F94F6
:10EE10007BF28CE40F947BF299CD88ED92EE62E068
:10EE20000F94F5F1772473948824992409C48FED05
:10EE300092EE62E00F94F5F140910A0250910B02BC
:10EE400060910C0270910D0282E020E10F9491F22A
:10EE500080910A0290910B02A0910C02B0910D02D8
:10EE600080509F4FAF4FBF4F80930A0290930B0289
:10EE7000A0930C02B0930D0269CD8AEE92EE62E08F
:10EE80000F94F5F184EE90EE60E00F94F5F18FECC5
:10EE900091EE60E00F94F5F1662477244301CC5D98
:10EEA000DE4F19821882C452D140D401C301B695F5
:10EEB000A79597958795CA5DDE4F88839983AA8326
:10EEC000BB83C652D140CC5DDE4FA881B981C4520C
:10EED000D1401196CC5DDE4FB983A883C452D14096
:10EEE000CD0162E070E00F9434F2B0E2B093C6005E
:10EEF0008091C00086FFFCCF8091C0008064809329
:10EF0000C000EDE2E093C6008091C00086FFFCCF18
:10EF10008091C00080648093C000F0E2F093C6004E
:10EF20008091C00086FFFCCF8091C00080648093F8
:10EF3000C000CA5DDE4FE880F9800A811B81C6529D
:10EF4000D140BB27A12F902F8F2D0F940DF2CA5DBA
:10EF5000DE4F8881C652D1400F940DF2B0E2FB2EF5
:10EF6000F092C6008091C00086FFFCCF8091C00067
:10EF700080648093C0000DE30093C6008091C000C0
:10EF800086FFFCCF8091C00080648093C00010E2B7
:10EF90001093C6008091C00086FFFCCF8091C00016
:10EFA00080648093C0008BBEF3012791C65DDE4F65
:10EFB0002883CA52D140A22EBB24CC24DD2408943D
:10EFC000611C711C811C911C8BBEF3018791282E42
:10EFD0003324442455240894611C711C811C911C09
:10EFE0008BBEF3013791C55DDE4F3883CB52D140E4
:10EFF0000894611C711C811C911C8BBEF30147910C
:10F00000C45DDE4F4883CC52D140ADEFEA2EAFEF66
:10F01000FA2EAFEF0A2FAFEF1A2F6E0C7F1C801E57
:10F02000911E142D032DF22CEE24EA0CFB1C0C1D5A
:10F030001D1D0F940DF220E22093C6008091C000A8
:10F0400086FFFCCF8091C00080648093C000C65DC5
:10F05000DE4F8881CA52D1400F940DF230E23093D6
:10F06000C6008091C00086FFFCCF8091C000806404
:10F070008093C000C45DDE4F8881CC52D1400F9494
:10F080000DF240E24093C6008091C00086FFFCCFA5
:10F090008091C00080648093C000C55DDE4F888190
:10F0A000CB52D1400F940DF250E25093C6008091A4
:10F0B000C00086FFFCCF8091C00080648093C000B8
:10F0C0008FEFE8168FEFF80680E0080780E018075A
:10F0D00031F484E092EE60E00F94C2F1DFC0D80119
:10F0E000C7018070907CA070B0708050904CA040A0
:10F0F000B040D1F52FEF3FE340E050E0E222F322B1
:10F1000004231523CA5DDE4FA880B980CA80DB8046
:10F11000C652D140AE0CBF1CC01ED11EAA0CBB1CD7
:10F12000CC1CDD1C8EE092EE60E00F94C2F1BB2798
:10F13000A12F902F8F2D0F940DF28E2D0F940DF285
:10F1400030E23093C6008091C00086FFFCCF8091F2
:10F15000C00080648093C0004EE34093C60080915D
:10F16000C00086FFFCCF87C08EE09EEFA0E0B0E03D
:10F17000E822F9220A231B239CE0E91694E9F90608
:10F1800090E0090790E0190709F088C0C45DDE4FE0
:10F19000A881CC52D140EA2EFF2400E010E0102FCD
:10F1A0000F2DFE2CEE24C55DDE4FB881CB52D14031
:10F1B000EB0EF11C011D111DD601C501817090706F
:10F1C000A070B070DC0199278827E80EF91E0A1F8D
:10F1D0001B1F20EF30E040E050E0A222B322C42207
:10F1E000D52241E1AA0CBB1CCC1CDD1C4A95D1F7F1
:10F1F000EA0CFB1C0C1D1D1D81E090E0A0E0B0E0BE
:10F20000282239224A225B2235E1220C331C441C7D
:10F21000551C3A95D1F7E20CF31C041D151D57013E
:10F220006801AA0CBB1CCC1CDD1C85E192EE60E0E1
:10F230000F94C2F1C801AA27BB270F940DF2BB2778
:10F24000A12F902F8F2D0F940DF28E2D0F940DF274
:10F2500090E29093C6008091C00086FFFCCF809121
:10F26000C00080648093C000AEE3A093C60080918C
:10F27000C00086FFFCCF8091C00080648093C000F6
:10F28000C601AA27BB270F940DF2BB27AD2D9C2DDD
:10F290008B2D0F940DF28A2D0F940DF20F94DCF14B
:10F2A000CC5DDE4FE881F981C452D140F99709F471
:10F2B0004DCBF4E0EF2EF12C012D112D6E0C7F1CA7
:10F2C000801E911EF2CD83E093EE62E00F94F5F183
:10F2D0008AE192EE60E00F94C2F18091C00087FF56
:10F2E000FCCF1091C6001F751093C6008091C0001E
:10F2F00086FFFCCF8091C00080648093C0000F9493
:10F30000DCF1812F81548A3108F036C1163409F4BA
:10F3100095C0173490F4133409F44EC0143430F40B
:10F320001134F1F0123409F01DC130C0143409F465
:10F3300059C0153409F016C16BC01A3409F4C4C0A1
:10F340001B3438F4173409F48FC0183409F00AC19B
:10F35000A1C01B3409F4D2C01C3409F003C1E8C0B9
:10F360008FEF81B90DC082B1809582B980E090E0C5
:10F37000E0EDF7E03197F1F70196883C9105C1F790
:10F380008091C00087FFEFCF12B8EFC08FEF84B934
:10F390000DC085B1809585B980E090E0E0EDF7E0A3
:10F3A0003197F1F70196883C9105C1F78091C00033
:10F3B00087FFEFCF15B8D9C08FEF87B90DC088B1DF
:10F3C000809588B980E090E0E0EDF7E03197F1F7C3
:10F3D0000196883C9105C1F78091C00087FFEFCF6F
:10F3E00018B8C3C08FEF8AB90DC08BB180958BB9A7
:10F3F00080E090E0E0EDF7E03197F1F70196883C8E
:10F400009105C1F78091C00087FFEFCF1BB8ADC059
:10F410008FEF8DB90DC08EB180958EB980E090E0F0
:10F42000E0EDF7E03197F1F70196883C9105C1F7DF
:10F430008091C00087FFEFCF1EB897C08FEF80BBD1
:10F440000DC081B3809581BB80E090E0E0EDF7E0F6
:10F450003197F1F70196883C9105C1F78091C00082
:10F4600087FFEFCF11BA81C08FEF83BB0DC084B38C
:10F47000809584BB80E090E0E0EDF7E03197F1F714
:10F480000196883C9105C1F78091C00087FFEFCFBE
:10F4900014BA6BC08FEF809301010FC080910201FD
:10F4A00080958093020180E090E0E0EDF7E03197F5
:10F4B000F1F70196883C9105C1F78091C00087FF64
:10F4C000EDCF1092020151C08FEF809304010FC065
:10F4D0008091050180958093050180E090E0E0ED4A
:10F4E000F7E03197F1F70196883C9105C1F78091DB
:10F4F000C00087FFEDCF1092050137C08FEF8093DA
:10F5000007010FC08091080180958093080180E079
:10F5100090E0E0EDF7E03197F1F70196883C910536
:10F52000C1F78091C00087FFEDCF109208011DC088
:10F530008FEF80930A010FC080910B01809580931B
:10F540000B0180E090E0E0EDF7E03197F1F70196F4
:10F55000883C9105C1F78091C00087FFEDCF1092E4
:10F560000B0103C085E292EEEEC98091C00087FFD7
:10F57000FCCF8091C600EAC988E392EEE4C98CE131
:10F5800091EEE1C988249924933011F1943028F444
:10F59000913089F09230B8F408C0953061F195301F
:10F5A000F0F0963009F048C043C02B3109F042C951
:10F5B00091E06BE13FC96227C15DDE4F2883CF52E6
:10F5C000D14092E037C9B22FA0E0622793E032C960
:10F5D000822F90E0A82BB92B622794E02BC92E3004
:10F5E00009F039C3622795E0C05DDE4F19821882A9
:10F5F000C053D1401FC9E1E0F0E0EC0FFD1FC05D3A
:10F60000DE4F08811981C053D140E00FF11F2083E4
:10F610000F5F1F4FC05DDE4F19830883C053D14079
:10F6200062270A171B0709F005C9D80196E002C92D
:10F63000261709F010C303C0973009F0FBC87724E0
:10F640009981933109F412C19431C8F4963009F4C8
:10F65000D8C0973050F4923009F406C1933009F4C1
:10F660006DC0913009F059C253C0913109F477C08F
:10F67000923108F0BBC0903109F04FC2F5C098310B
:10F6800009F487C0993150F4953109F4EFC09531F0
:10F6900008F4C6C1963109F040C2C2C19A3109F4DA
:10F6A0006CC09A3108F491C09B3109F45BC09D3164
:10F6B00009F033C29D81903359F48F81882311F46E
:10F6C0009EE11CC0813011F091E018C098E916C08D
:10F6D000892F807591F0903539F4E0E0F0E089E011
:10F6E0008093570094910AC0983539F4E3E0F0E034
:10F6F00089E080935700949101C090E01A821B82A8
:10F700008D818C831D829E831F8227E030E009C299
:10F710001A8288E08B8381E48C8386E58D8382E581
:10F720008E8389E48F8383E5888780E589878FE5E9
:10F730008A8782E38B872BE030E0F3C18A818139AD
:10F7400041F0823941F0803911F48FE005C080E04A
:10F7500003C082E001C08AE01A828B8344C0772410
:10F76000739482C08D81882311F48EE12CC0813086
:10F7700011F081E028C088E926C01A82E1E0F0E0BB
:10F7800089E08093570084918B831C8224E030E0D1
:10F79000C8C18B81803589F48C81883039F4E2E0EE
:10F7A000F0E089E08093570084910DC0E0E0F0E044
:10F7B00089E080935700849106C0E3E0F0E089E09F
:10F7C0008093570084911A82DFCF8D81836C99E0FA
:10F7D000E1E0F0E0082E90935700E89507B600FCB2
:10F7E000FDCF1A821B8223E030E09BC180EC8A832C
:10F7F000CE5CDE4F188219821A821B82C253D1401E
:10F800008EC18A8190E0A0E0B0E0582F44273327D2
:10F8100022278B8190E0A0E0B0E0DC0199278827C7
:10F82000282B392B4A2B5B2B8D8190E0A0E0B0E098
:10F83000282B392B4A2B5B2B8C8190E0A0E0B0E089
:10F84000BA2FA92F982F8827282B392B4A2B5B2BCF
:10F85000220F331F441F551FC05EDE4F288339839C
:10F860004A835B83C052D1401A8259C13A81C95C34
:10F87000DE4F3883C753D140CA5CDE4F1882C6536F
:10F88000D1408B81C82EDD24CA5CDE4F488159816E
:10F89000C653D140C42AD52A933109F082C0CE5C28
:10F8A000DE4F88819981AA81BB81C253D1408050AB
:10F8B000904CA340B04030F583E0CE5CDE4FE88052
:10F8C000F9800A811B81C253D140F70100935B008C
:10F8D00080935700E89507B600FCFDCFCE5CDE4F65
:10F8E000088119812A813B81C253D14000501F4FAA
:10F8F0002F4F3F4FCE5CDE4F088319832A833B8313
:10F90000C253D140C05EDE4F488159816A817B81FC
:10F91000C052D140DE011B9631E08C9111962C91A2
:10F9200011971296C75CDE4F2883C953D140C85C3B
:10F93000DE4F1882C853D14090E0C85CDE4FE881AA
:10F94000F981C853D1408E2B9F2B0C01FA01609393
:10F950005B0030935700E89511244E5F5F4F6F4F67
:10F960007F4F0EEFE02E0FEFF02ECE0CDF1CC114F8
:10F97000D10499F685E0C05EDE4F088119812A81A5
:10F980003B81C052D140F80120935B008093570027
:10F99000E89507B600FCFDCF81E180935700E8951C
:10F9A00035C0C05EDE4F88819981AA81BB81C0527B
:10F9B000D140B695A795979587957C018601ABE0D8
:10F9C000AA2EB12CAC0EBD1E0BC0D5016D915D01F0
:10F9D000C7010F947FFE0894E11CF11C01501040F8
:10F9E0000115110591F7A60160E070E0440F551F65
:10F9F000661F771FC05EDE4FE880F9800A811B8199
:10FA0000C052D1404E0D5F1D601F711F1A82C05E33
:10FA1000DE4F488359836A837B83C052D1407FC0C5
:10FA2000FA80C55CDE4FF882CB53D140C65CDE4F16
:10FA30001882CA53D1408B81C82EDD24C65CDE4FAC
:10FA400008811981CA53D140C02AD12A1A828981DA
:10FA5000BE016D5F7F4F843121F59601C05EDE4FA0
:10FA6000E880F9800A811B81C052D1400BBFF701A9
:10FA700087919691DB018C9311969C936E5F7F4FDB
:10FA8000D801C7010296A11DB11DC05EDE4F88835B
:10FA90009983AA83BB83C052D14022503040F1F6F3
:10FAA00036C0C05EDE4F288139814A815B81C052F9
:10FAB000D1400894C108D108760100E010E0089414
:10FAC000C11CD11C0894E11CF11C011D111DE20E8A
:10FAD000F31E041F151F21BDBB27A52F942F832FB5
:10FAE00082BD2F5F3F4F4F4F5F4FF89A80B5DB01CC
:10FAF0008D93BD012E153F054007510761F7C05E8C
:10FB0000DE4F288339834A835B83C052D1409601FC
:10FB10002D5F3F4FFB01108204C080EC8A8322E0FE
:10FB200030E08BE18093C6008091C00086FFFCCF5F
:10FB30008091C00080648093C000C15DDE4FF88179
:10FB4000CF52D140F093C6008091C00086FFFCCF19
:10FB50008091C00080648093C000432F3093C60022
:10FB60008091C00086FFFCCF8091C00080648093AC
:10FB7000C000922F2093C6008091C00086FFFCCF6A
:10FB80008091C00080648093C0008EE08093C600A6
:10FB90008091C00086FFFCCF8091C000806480937C
:10FBA000C00065E1C15DDE4FE880CF52D1406E25D7
:10FBB00069276427FE01319610C090819093C6009A
:10FBC0008091C00086FFFCCF31968091C000806498
:10FBD0008093C0006927215030402115310569F715
:10FBE0006093C6008091C00086FFFCCF8091C0006A
:10FBF00080648093C00085B1805885B9772081F4F6
:10FC0000C15DDE4F0881CF52D1400F5FC15DDE4F35
:10FC10000883CF52D14090E0A0E0B0E00D941AF4F8
:10FC200027982F9880E090E020ED37E0F901319798
:10FC3000F1F7019684369105C9F700008091C00064
:10FC40008D7F8093C00081E180935700E895EE2777
:10FC5000FF270994FFCF90E00D941AF497FB092E2B
:10FC600007260AD077FD04D02ED006D000201AF443
:10FC7000709561957F4F0895F6F7909581959F4F08
:10FC80000895A1E21A2EAA1BBB1BFD010DC0AA1FDD
:10FC9000BB1FEE1FFF1FA217B307E407F50720F0F5
:10FCA000A21BB30BE40BF50B661F771F881F991F70
:10FCB0001A9469F760957095809590959B01AC01B9
:10FCC000BD01CF010895AA1BBB1B51E107C0AA1FAC
:10FCD000BB1FA617B70710F0A61BB70B881F991FED
:10FCE0005A95A9F780959095BC01CD010895F99991
:10FCF000FECF92BD81BDF89A992780B50895262F31
:10FD0000F999FECF1FBA92BD81BD20BD0FB6F89400
:0EFD1000FA9AF99A0FBE01960895F894FFCF63
:00000001FF
