:100000000C9472000C9493000C9493000C9441088F
:100010000C942F080C9465080C9453080C949300CE
:100020000C9493000C9493000C9493000C94930004
:100030000C9493000C949D070C9493000C949300E3
:100040000C9493000C9493000C9493000C949300E4
:100050000C9493000C9493000C9493000C9423073D
:100060000C9493000C946D070C9493000C949300E3
:100070000C9493000C9493000C9493000C949300B4
:100080000C9493000C9493000C9493000C949300A4
:100090000C9493000C9493000C9493000C94930094
:1000A0000C9493000C9493000C9493000C94930084
:1000B0000C9493000C9493000C9493000C94930074
:1000C0000C9493000C9493000C9493000C94930064
:1000D0000C9493000C9493000C9493000C94930054
:1000E0000C94930011241FBECFEFD1E2DEBFCDBF31
:1000F00000E00CBF19E0A0E0B2E0E6EDFBE200E0BA
:100100000BBF02C007900D92A03EB107D9F72AE0BD
:10011000A0EEB9E001C01D92A537B207E1F70E9439
:100120009A080C94E9150C94000081E480937C00FB
:1001300080917B00886080937B0080917A0080644E
:1001400080937A0080917A0086FDFCCF80917800C0
:100150009091790020E180E090E0DC0130917A001C
:10016000306430937A0030917A0036FDFCCF4091B4
:10017000780050917900840F951FA11DB11D215069
:1001800069F724E0B695A795979587952A95D1F7B5
:1001900008959091C00095FFFCCF8093C60008950C
:1001A0008DE00E94C9008AE00C94C9000F931F9350
:1001B000CF93DF9300D000D01F92CDB7DEB730E0F1
:1001C0000AE010E0009769F480E327960FB6F894F0
:1001D000DEBF0FBECDBFDF91CF911F910F910C9469
:1001E000C90021E0230FE1E0F0E0EC0FFD1FE30F79
:1001F000F11D37FDFA95B8010E945D15805D808381
:10020000CB01322F009769F712166CF41FEF120F13
:10021000E1E0F0E0EC0FFD1FE10FF11D80810E9495
:10022000C900212FF1CF27960FB6F894DEBF0FBE7D
:10023000CDBFDF91CF911F910F910895CF93DF93A1
:10024000EC018991882319F00E94C900FACFDF914F
:10025000CF9108958EBD0DB407FEFDCF8EB50895E4
:100260008B3008F08AE08093560A9091550A9130BD
:1002700051F4E82FF0E0E45FFD4F808190E090932F
:1002800099008093980008958B3008F08AE080935D
:10029000560AE82FF0E0E45FFD4F808190E09093F4
:1002A00099008093980080910201806480930201FC
:1002B00081E08093550A08952898880F80680E94ED
:1002C0002A0180E00E942A01289A0895CF93C62F20
:1002D0002898880F0E942A018C2F0E942A01289AB0
:1002E000CF910895CF92DF92EF92FF920F931F93D9
:1002F000CF93DF93F82EC92EE62E8A0160E081E0CD
:100300000E94660164E085E00E94660160E88AE080
:100310000E946601DF2CCF2DDC2D699189E00E94BF
:1003200066018C2F8D198E15C0F363E081E00E9469
:100330006601C8E8D3E185E00E945C0182FD02C04D
:100340002197C9F760E081E00E94660182E20E9485
:100350005C01F801808381E20E945C01F8018183E5
:10036000DF91CF911F910F91FF90EF90DF90CF9091
:1003700008950F931F93CF93DF93162F082FEC014F
:10038000699189E00E9466018C2F801B8117C0F360
:10039000DF91CF911F910F9108950F931F93CF93EA
:1003A000DF931F921F92CDB7DEB760E088E00E9416
:1003B000660160E88AE00E94660180E6898384E045
:1003C0008A8362E0CE0101960E94B90166E08BE368
:1003D00092E00E94B90164E081E79AE00E94B901CD
:1003E0006FE784E00E9466016EE081E00E94660192
:1003F00060E08DE00E94660109EB1BE084E00E9452
:100400005C01837129F401501109C1F780E00CC02F
:1004100088E00E945C0183FFF9CF86E00E945C01C6
:10042000982F9B7181E091F70F900F90DF91CF9102
:100430001F910F9108951F93CF93DF93EC01162F17
:1004400060E081E00E94660160E88AE00E94660147
:10045000612FCE010E94B90160E08DE00E9466012B
:100460006FE784E00E9466016CE081E00E94660113
:1004700060E88DE00E946601C9EBDBE084E00E9449
:100480005C01817341F42197C9F760E081E00E942B
:10049000660180E017C060E081E00E9466018AE0AA
:1004A0000E945C01882371F089E00E945C01C82FE2
:1004B0008CE00E945C018770843041F4CF7081E051
:1004C000CA3039F7DF91CF911F91089586E00E94DD
:1004D0005C01982F9B7181E0A9F3DBCFCF92DF9273
:1004E000EF92FF920F931F93CF93DF93EC01162FA0
:1004F000042FC52E790160E88AE00E946601612F11
:10050000CE010E94B90160E08DE00E9466016FE7B4
:1005100084E00E9466016CE081E00E94660160E870
:100520008DE00E946601C9EBDBE084E00E945C0183
:10053000817361F42197C9F780E0DF91CF911F911A
:100540000F91FF90EF90DF90CF90089586E00E948A
:100550005C018B7189F78AE00E945C01882399F025
:10056000F7011081811708F4182FD02EC02FDC2D31
:100570008C2F8D19811728F489E00E945C018993E2
:10058000F7CFF701108381E0D8CFEF92FF920F935E
:100590001F93CF93DF93CDB7DEB7AB970FB6F89429
:1005A000DEBF0FBECDBF182F88E00E945C0183FF25
:1005B00025C08091040290910502A0910602B0919D
:1005C00007028FA398A7A9A7BAA7AE01475D5F4FFF
:1005D00062E0CE0187960E94720180E18BA79E01A6
:1005E000255D3F4FAE014D5E5F4F64E0CE018796C3
:1005F0000E946E02811115C090E005C00E94CD01DD
:10060000982F8111D6CF892FAB960FB6F894DEBF05
:100610000FBECDBFDF91CF911F910F91FF90EF9053
:1006200008958BA5803140F31B8B80910802909137
:100630000902A0910A02B0910B028BA39CA3ADA367
:10064000BEA38E010D5D1F4FAE014B5D5F4F62E09B
:10065000C8010E94720164E0C8010E941B02882345
:1006600059F2FE017396DE0111967D0181918D9301
:10067000E017F107D9F7AE014F5E5F4F60E1C701A8
:100680000E94720162E1C7010E941B0291E0811188
:10069000BACFB2CF8F929F92AF92BF92EF92FF925A
:1006A0000F931F93CF93DF93CDB7DEB765970FB648
:1006B000F894DEBF0FBECDBF7C0113E08090040232
:1006C00090900502A0900602B090070200E160E061
:1006D00088E00E94660188E00E945C0183FD08C0FA
:1006E0000E94CD01811104C0115089F780E021C022
:1006F000898A9A8AAB8ABC8AAE014D5E5F4F62E0FE
:10070000CE0141960E9472010D8B9E012B5E3F4FE0
:10071000AE014F5F5F4F64E0CE0141960E946E02D2
:10072000882311F38D898031F8F28981F701808364
:1007300081E065960FB6F894DEBF0FBECDBFDF91A6
:10074000CF911F910F91FF90EF90BF90AF909F902E
:100750008F9008958B3098F08AE08093540A90919E
:100760008000906890938000E82FF0E0E45FFD4FF8
:10077000808190E090938900809388000895809311
:10078000540A8111ECCF809180008F778093800094
:100790002D9810928900109288000895FC018081A4
:1007A000813351F48181823339F48281833321F49E
:1007B00081E09381943309F080E0089510925A0A01
:1007C0002E982F988DB3837F8DBB10920A0A1092BA
:1007D0000B0A10925B0A1092530A089581E08093ED
:1007E0005A0A2E9A8DB38C608DBB10920A0A089516
:1007F000FC0180E02AE0919130ED390F3A3030F47D
:10080000829F900D112480ED890FF5CF0895CF922E
:10081000DF92EF92FF920F931F93CF9310E000E0CF
:10082000C0E0C8010E9447158F3F01F181E7E82E23
:100830008AE0F82EC80181579A406C01C6018E0DDE
:100840009F1D0E944715F70191917F0189130EC0EA
:10085000F5E7EF16FAE0FF0689F78C2FCF911F918D
:100860000F91FF90EF90DF90CF900895CF5F0B5FD7
:100870001F4FCA30B1F6CFEFF0CF5F926F927F92E9
:100880008F929F92AF92BF92CF92DF92EF92FF92A0
:100890000F931F93CF93DF93CDB7DEB72C970FB68F
:1008A000F894DEBF0FBECDBFCE0101965C01CC2413
:1008B000DD24C81AD90A00EB10E0512C3E019DE05E
:1008C000690E711CC8010E94471581508E3F18F5B2
:1008D00075014601E0EB8E0E911CC4018E0D9F1D2B
:1008E0000E944715F70181937F01E615F705A9F7E7
:1008F000C8010C960E944715F82EC5010E941E01E2
:1009000081E492E00E941E018F2D90E00E94D600AB
:100910000E94D0005394035F1F4FFDE0CF0ED11C07
:10092000023381E0180771F6511006C085E492E0A9
:100930000E941E010E94D0002C960FB6F894DEBFD4
:100940000FBECDBFDF91CF911F910F91FF90EF9020
:10095000DF90CF90BF90AF909F908F907F906F90DF
:100960005F900895CF93DF9360E088E00E94660176
:1009700060E081E00E94660160E88AE00E94660112
:1009800060E589E00E94660160E089E00E946601FE
:1009900063E081E00E946601CFEF85E00E945C0188
:1009A00082FD02C0C150C9F760E081E00E9466018B
:1009B00082E20E945C01D82F81E20E945C01C82F74
:1009C0006FE784E00E94660160E88AE00E946601A9
:1009D00060E589E00E94660160E089E00E946601AE
:1009E0006D2F89E00E9466016C2F89E00E946601EC
:1009F0006CE081E00E94660160E88DE00E94660183
:100A00008FE39FE10197F1F700C0000060E081E013
:100A10000E94660160E08DE0DF91CF910C94660149
:100A200092B19F7092B992B140E1849F90011124DC
:100A3000922B92B9129A85E08A95F1F700001298EC
:100A400087EC90E00197F1F700C000000895CF9384
:100A5000C82F109A82958F700E9410058C2F8F706E
:100A60000E94100587EC90E00197F1F700C00000AC
:100A7000CF910895EF92FF920F931F93CF93DF933F
:100A800000D000D01F92CDB7DEB78C0197FF2DC0EC
:100A90008DE20E94270511950195110980E09AE0E9
:100AA000E92EF12C21E0280FE1E0F0E0EC0FFD1F32
:100AB000E80FF11D87FDFA95C801B7010E945D1589
:100AC000805D80838B01822F672B61F71216F4F40F
:100AD0001FEF120FE1E0F0E0EC0FFD1FE10FF11D41
:100AE00080810E942705212FF1CF892BB9F680E361
:100AF00027960FB6F894DEBF0FBECDBFDF91CF9122
:100B00001F910F91FF90EF900C94270527960FB639
:100B1000F894DEBF0FBECDBFDF91CF911F910F9133
:100B2000FF90EF900895CF93DF93EC018991882394
:100B300019F00E942705FACFDF91CF910895CF9346
:100B4000C82F109882958F700E9410058C2F8F707F
:100B50000E94100587EC90E00197F1F700C00000BB
:100B6000CF910895CF9380E80E949F05C0E0E09167
:100B70005D0AEC0F80915C0AE81758F4F0E0E0524F
:100B8000F64F80810E942705CF5FC03181F7CF915A
:100B9000089580E2F7CF8091530A8F5F8093530AC4
:100BA000833058F480E80E949F0581E592E00E941E
:100BB000930583E692E00C941E0182E080935A0A2A
:100BC00083E080935B0A2F9A1092530A80E80E9478
:100BD0009F0580E792E00E94930581E892E0EBCFC9
:100BE0004F925F926F927F928F929F92AF92BF923D
:100BF000CF92DF92EF92FF920F931F93CF93DF93E9
:100C0000CDB7DEB72C970FB6F894DEBF0FBECDBFC1
:100C10002C01CE0101966C01EE24FF24E81AF90A9A
:100C200080EB682E712C5E019DE0A90EB11C86013F
:100C30004701E0EB8E0E911CC401800F911F0E94B2
:100C40004715F80181938F01EA15FB05A9F74BE0E1
:100C500050E0B201C6010E94DB15892B61F4C3018B
:100C60000E94471581508E3F20F460E0C3010E942E
:100C70004F1581E00CC0FDE06F0E711C8DE0E80E99
:100C8000F11C92E3691691E0790689F680E02C96D2
:100C90000FB6F894DEBF0FBECDBFDF91CF911F918D
:100CA0000F91FF90EF90DF90CF90BF90AF909F900B
:100CB0008F907F906F905F904F9008953F924F92EA
:100CC0005F926F927F928F929F92AF92BF92CF92DC
:100CD000DF92EF92FF920F931F93CF93DF93CDB7E5
:100CE000DEB72C970FB6F894DEBF0FBECDBF482EEF
:100CF000392E562ECE0101965C01CC24DD24C81A73
:100D0000D90A00EB10E03E019DE0690E711C7501EF
:100D1000460180EB880E911CC4018E0D9F1D0E9420
:100D20004715F70181937F01E615F705A9F74BE019
:100D300050E0642D732DC5010E94DB15892B09F04D
:100D40003FC0045F1F4FC8010E944715851521F061
:100D5000652DC8010E944F1582E012C07C0160E041
:100D6000C7010E944F15B3949FEFE91AF90AECE00E
:100D7000BE12F5CF652DC8010C960E944F1581E07B
:100D80002C960FB6F894DEBF0FBECDBFDF91CF918A
:100D90001F910F91FF90EF90DF90CF90BF90AF9099
:100DA0009F908F907F906F905F904F903F900895AD
:100DB000035F1F4F0233F1E01F0771F480E0E0CFC3
:100DC000035F1F4FFDE0CF0ED11C023381E01807F7
:100DD00009F09DCF00EB10E0C8010E94471581503B
:100DE0008E3F30F3E42CF32CD12CC12CBC2CF7011A
:100DF00061917F01C8018C0D9D1D662309F4AECF62
:100E00000E944F15FFEFCF1ADF0A8BE0C816D104FE
:100E100069F760E0C8010B960E944F15ABCF1F9396
:100E2000CF93DF93EC01162F0E944715811739F0FD
:100E3000612FCE01DF91CF911F910C944F15DF915F
:100E4000CF911F9108951F920F920FB60F92112408
:100E50002F933F938F939F93AF93BF9380916D0A8E
:100E600090916E0AA0916F0AB091700A30916C0A4D
:100E700023E0230F2D3758F50196A11DB11D2093B6
:100E80006C0A80936D0A90936E0AA0936F0AB093D8
:100E9000700A8091680A9091690AA0916A0AB091DB
:100EA0006B0A0196A11DB11D8093680A9093690A8F
:100EB000A0936A0AB0936B0ABF91AF919F918F91F3
:100EC0003F912F910F900FBE0F901F90189526E81D
:100ED000230F0296A11DB11DD2CF1F920F920FB604
:100EE0000F9211240BB60F922F938F939F93EF9332
:100EF000FF939091C6008091C00085FFFCCF909336
:100F0000C6008091310A8F5F8F712091520A281795
:100F100041F0E091310AF0E0EE5CF54F9083809370
:100F2000310AFF91EF919F918F912F910F900BBEFE
:100F30000F900FBE0F901F9018951F920F920FB633
:100F40000F9211240BB60F922F933F934F935F9301
:100F50006F937F938F939F93AF93BF93CF93DF93C1
:100F6000EF93FF9330E020E0A1E0B0E07FE0622F5C
:100F7000CD01022E01C0880F0A94EAF787278093DB
:100F80000B018AE68A95F1F700C086B180958F70D3
:100F900091F050E040E090E0E42FEC01042E02C01C
:100FA000D595C7950A94E2F7C0FD55C04F5F5F4FD6
:100FB0004430510589F72F5F3F4F24303105B9F692
:100FC000EFEF809101028E1341C08091090A8F3F9B
:100FD00029F08091090A8F5F8093090A8091090A9C
:100FE0008230F9F4809100028E17D9F0E09300026C
:100FF000EF3FB9F08091180A811113C08E2F8695AA
:101000008695E37024E0829FC0011124895E9D4F84
:10101000E80FF92FF11D80818093170A81E08093FA
:10102000180AFF91EF91DF91CF91BF91AF919F91FE
:101030008F917F916F915F914F913F912F910F9081
:101040000BBE0F900FBE0F901F901895E0930102FA
:101050001092090AC3CFEE0FEE0FE60FB2CF1F9228
:101060000F920FB60F9211248F9381E080930A0A9A
:1010700084E08093080A8F910F900FBE0F901F900D
:1010800018951F920F920FB60F9211248F9381E043
:1010900080930A0A83E08093080A8F910F900FBE15
:1010A0000F901F9018951F920F920FB60F92112458
:1010B0008F9381E080930B0A82E08093080A8F91DE
:1010C0000F900FBE0F901F9018951F920F920FB6A2
:1010D0000F9211248F9381E080930B0A8093080A6A
:1010E0008F910F900FBE0F901F901895DC01E0EECE
:1010F000F9E090E02D91222329F0973219F0219305
:101100009F5FF8CFE92FF0E0E052F64F1082909306
:101110005C0A10925D0A10925F0A10925E0A0E94A9
:10112000B20581E090915C0A913108F480E08093EF
:10113000670A0895CF93DF93CDB7DEB7EB970FB66D
:10114000F894DEBF0FBECDBF789484B5826084BDB5
:1011500084B5816084BD85B5826085BD85B58160BB
:1011600085BD80916E00816080936E001092810039
:1011700080918100826080938100809181008160F4
:1011800080938100809180008160809380008091B5
:10119000B10084608093B1008091B0008160809341
:1011A000B0008091910082608093910080919100C5
:1011B0008160809391008091900081608093900085
:1011C0008091A10082608093A1008091A100816044
:1011D0008093A1008091A00081608093A000809105
:1011E000210182608093210180912101816080939F
:1011F00021018091200181608093200180917A00FB
:10120000846080937A0080917A00826080937A0073
:1012100080917A00816080937A0080917A00806862
:1012200080937A001092C1008FEF81B912B82FEF2E
:1012300040E782E0215040408040E1F700C00000DC
:10124000109883E00E941005EFE1FEE43197F1F77A
:1012500000C0000083E00E94100587E592E001973E
:10126000F1F700C0000083E00E941005E7ECF0E019
:101270003197F1F700C0000082E00E94100587EC72
:1012800090E00197F1F700C0000088E20E949F05FE
:101290008CE00E949F0586E00E949F0581E00E94ED
:1012A0009F05EFE3FFE13197F1F700C00000809167
:1012B0000A018F6080930A0180910B018F608093F7
:1012C0000B0187B1807F87B988B18F6088B982E0D0
:1012D0008093B00095E09093B1009BE99093B300A8
:1012E000809370001092170A1092180A1092C5008D
:1012F00087E68093C4001092C00088E98093C10003
:1013000086E08093C2001092310A1092520A84B192
:10131000806C84B985B18F7385B980EF8093690043
:101320008FE080936A0080E38DBB10925A0A10927E
:101330000B0A10920A0A10925B0A1092530A80E478
:1013400080937C0010927B0087E880937A008091E4
:101350007A00806480937A0080917A0086FDFCCFC9
:10136000809178009091790080910101886080934C
:10137000010182E88093A0008AE18093A1008FE3BD
:101380009CE99093A7008093A60080ED97E090934E
:10139000A9008093A80080910701886180930701CC
:1013A00080910801877E80930801259A2D9881E01D
:1013B000809380009AE090938100109289001092AF
:1013C00088001092540A809101018062809301018B
:1013D000809102018F7D809302011092640A109225
:1013E000610A1092600A1092630A1092620A809158
:1013F0000101806480930101809102018F7B8093C1
:1014000002016B9A81E88093900090939100109272
:101410009900109298001092550A1092560A9D9ABF
:10142000A59AFFEF20E742E0F15020404040E1F76D
:1014300000C0000084B1876084B92398289A81E5B0
:101440008CBD6FE081E00E94660113E08FEF90E7B2
:10145000E2E081509040E040E1F700C0000081E010
:101460000E945C0184FF02C0115081F76DE88AE29E
:101470000E94660167E08BE20E94660160E08CE2F8
:101480000E9466016FE38DE20E94660160E485E1DF
:101490000E9466016DE381E10E94660184E10E9481
:1014A0005C01982F937029F4682F636084E10E9497
:1014B00066011092160A989AA098789481E00E948A
:1014C0009F058FE39FE10197F1F700C0000080E8DE
:1014D0000E949F0582ED92E00E94930580EC0E949D
:1014E0009F0583EE92E00E9493050E94D00084EF56
:1014F00092E00E941E010E94D0008FE393E00E94C0
:101500001E010E94D00080E793E00E941E010E940D
:10151000D00010921E0A6E0190E3C90ED11C442423
:101520004A9443E0542E612C712C80910B0A88233D
:1015300009F44BC010920B0A81E080935B0A2F9A4A
:1015400080915B0A1092670A813009F04CC080E8F4
:101550000E949F058FEE93E00E94930580E094E047
:101560000E941E010E94D0008091160A813009F469
:101570009DC008F445C0823009F4AEC28091180ABB
:10158000882309F42DC58091180A9091300A882388
:1015900011F40C9410158091170A1092170A1092EA
:1015A000180A8A3209F0B9C210920302109202029C
:1015B000992309F4A5C21092300A80EC0E949F057D
:1015C00083ED95E00E9493050BC580910A0A88235C
:1015D00059F210920A0A80915A0A813029F682E063
:1015E00080935A0AAACF823009F0BECF80E80E94C9
:1015F0009F0580E194E00E94930581E294E0B0CFE2
:101600008091140A9091150A009729F00197909300
:10161000150A8093140A8091130A8F5F853018F49D
:101620008093130AABCF1092130A60E081E00E940E
:10163000660160E88AE00E94660186E2898361E0D3
:10164000CE0101960E94B90167E08DE00E9466011B
:101650006FE784E00E9466016CE081E00E94660111
:1016600067E88DE00E94660109EB1BE084E00E94C0
:101670005C01817319F401501109C1F784E00E94E3
:101680005C01082F8AE00E945C01182F60E081E075
:101690000E94660105FF72CF112309F46FCF89E024
:1016A0000E945C0181E08093160A68CF03E908AFCD
:1016B00080E289AF85E08BAF9E01255C3F4FA6019C
:1016C00062E0CE01C8960E946E02882309F40DC123
:1016D0008BAD853008F409C188A899A8AAA8BBA831
:1016E000182D19251A251B258CA91813FEC08092C8
:1016F000710A9092720AA092730AB092740A09A7B2
:1017000080E78AA78BA69CA6ADA6BEA61FA760E011
:1017100081E00E94660160E88AE00E9466017E0125
:10172000E9E2EE0EF11CF70161917F0189E00E9470
:101730006601EC14FD04B9F763E081E00E946601E4
:101740000FEF85E00E945C0182FD02C00150C9F7E5
:1017500060E081E00E94660182E20E945C01082F45
:1017600081E20E945C0193E9998390E79A838B82DE
:101770009C82AD82BE821F830887898783E08AAFFF
:101780009E01265C3F4FAE014B5C5F4F69E0CE018E
:1017900001960E946E0260E088E00E9466018091DE
:1017A000100A81117BC08091590A882309F41FC156
:1017B000813009F0B8C00E9407048F3F09F09EC035
:1017C00010E000E0C8010E9447158F3F09F090C06B
:1017D0009090570A31E7A32E3AE0B32EF12CE12C7A
:1017E000F50161915F01C701800F911F0E940F07F2
:1017F000FFEFEF1AFF0A24E0E216F10489F7692DE2
:10180000C80104960E940F078091570A882309F4A3
:101810007CC083E594E00E941E018091580A90E00C
:101820000E94D6000E94D00080E80E949F0585E6B5
:1018300094E00E94930580E80E949F0586E794E06B
:101840000E9493058091580A90E00E943A05809189
:10185000580A0E94C5021092590A8091710A809319
:101860000C0A8091720A80930D0A8091730A80930A
:101870000E0A8091740A80930F0A81E08093100A07
:101880008CE390E09093150A8093140A109203025F
:10189000109202020E94B20482E005CF8091140AE5
:1018A0009091150A892B09F47ECF9091710A80914D
:1018B0000C0A981378CF9091720A80910D0A9813B0
:1018C00072CF9091730A80910E0A98136CCF909109
:1018D000740A80910F0A981366CF8CE390E090937E
:1018E000150A8093140A0E94B2041092160A46CE7A
:1018F0000B5F1F4F0233110509F064CF84E894E0B9
:101900000E941E010E94D000A6CF8FE294E00E94A8
:101910001E010E94D00080E80E949F0582E494E0AE
:101920000E94930598CF8230D1F40E9407048F3F24
:1019300099F06FEF45E0849FC00111240E940F07CA
:1019400083EA94E00E941E010E94D00080E80E9479
:101950009F058EEA94E0E4CF8FEB94E0D1CF833003
:1019600009F079CF0E9407048F3FB1F3E5E08E9F25
:10197000C001112404960E9447158130A9F51982EF
:10198000CE0101960E944A03882359F18981009172
:10199000580A080F081708F40FEF802F0E94C5029D
:1019A0008823E1F083ED94E00E941E0110E0C8015D
:1019B0000E94D6000E94D00080E80E949F0585E624
:1019C00094E00E94930580E80E949F058FED94E0CB
:1019D0000E949305C8010E943A053DCF8AEE94E02B
:1019E0008FCF82E095E08CCF86E195E089CF0E9491
:1019F00007048F3F71F48BE295E00E941E010E9464
:101A0000D00080E80E949F058BE395E00E9493053B
:101A100024CFF5E08F9FC001112404960E94471542
:101A200081110DC0A09A8CE495E00E941E010E94D5
:101A3000D00080E80E949F0584E695E0E7CF1982F8
:101A4000CE0101960E944A038823D1F1898188231F
:101A500059F1815089830E94C5028823F1F0A09A30
:101A600085E795E00E941E01898190E00E94D600E2
:101A70000E94D00080E80E949F0585E694E00E94C5
:101A8000930580E80E949F058CE895E00E949305ED
:101A9000898190E00E943A05E0CE8AEE94E00E94AF
:101AA0001E010E94D000D9CE87E995E00E941E0158
:101AB0000E94D00080E80E949F0581EB95E0A6CFB0
:101AC00082E095E00E941E010E94D00080E80E9402
:101AD0009F0582EC95E09ACF8091110A9091120AAD
:101AE0000196803D27E0920728F49093120A809394
:101AF000110A44CD1092120A1092110AA098F5CE44
:101B000081E08093300A10922F0A10921F0A80EC15
:101B10000E949F0584EE95E055CD992309F4D7C224
:101B20001092030210920202833209F082C71092CF
:101B3000300A80EC0E949F0585E694E00E949305A0
:101B400080E0E82FF0E0E15EF54F9081992311F0FD
:101B50008F5FF7CF823058F080911F0A90ED980F79
:101B60009A3028F41091200A10531A3050F080E86F
:101B70000E949F0585EF95E00E94930586E096E020
:101B8000C6C080534AE0849F100D112481E29AE080
:101B90000E94F803082F61E470E081E29AE00E945D
:101BA000C9157C01B12C009721F001960E94F80321
:101BB000B82E193209F479C1D0F5153109F4AAC04B
:101BC00028F51B3009F487C0143109F4CCC01A3051
:101BD00041F580EC0E949F058FE596E00E949305F9
:101BE00080E796E00E941E010E94D00080ED97E001
:101BF0009093A9008093A80080EC0E949F0583E841
:101C000096E00E94930584E996E081C0173109F4BB
:101C1000E5C008F4BDC01E3109F432C11F3109F41A
:101C2000E8C080E80E949F0585EA98E0A5CF1C33B4
:101C300009F426C280F5133309F458C11B3309F4A3
:101C4000A5C1123371F701500A3008F05DC1E02FD1
:101C5000F0E0EE0FFF1FE95DFD4F008111810115DE
:101C6000110509F451C1C8010E94F005882309F447
:101C700083C1B801CE0101960E94D4156EE977E0C8
:101C8000CE0101960E94BE15CE0101960E947608F3
:101C900089EA97E03CC01E3309F4D4C108F4B6C108
:101CA0001A3509F400C21B3509F0BBCF81E29AE076
:101CB0000E94CE03882309F4C0C10E94EE03109253
:101CC000530A80E80E949F058BE798E00E949305E5
:101CD0008CE898E01CC080EC0E949F0588E196E0AB
:101CE0000E94930589E296E00E941E010E94D000A6
:101CF00080EA9FE09093A9008093A80080EC0E9466
:101D00009F058CE396E00E9493058DE496E00E9487
:101D10001E0195C1802F0E94440180E80E949F050A
:101D200086EA96E00E94930589EC0E949F058EE664
:101D300094E00E94930589EC0E949F0587EB96E052
:101D40000E9493058091560A90E00E943A058AEB22
:101D500096E00E9493058EEB96E00E941E01809112
:101D6000560A90E08AC0809102018F7B8093020125
:101D700010929900109298001092550A80E80E94E3
:101D80009F058CEC96E00E9493058DED96E0BFCF09
:101D90008091550A813019F08BEE96E0B8CF809192
:101DA000560A8F5F0E94300189EC0E949F058EE6E3
:101DB00094E00E94930589EC0E949F0587EB96E0D2
:101DC0000E9493058091560A90E00E943A058AEBA2
:101DD00096E00E94930580E097E0BFCF8091550A7E
:101DE0008130D1F68091560A815087FFDBCF80E0A9
:101DF000D9CFECE3BE9EC00111249093610A809379
:101E0000600A8091020180628093020181E08093E8
:101E1000640A1092630A1092620A80E80E949F0589
:101E200088E097E00E94930586E80E949F0510E0F5
:101E3000C8010E943A0583E40E94270589EC0E94AC
:101E40009F058EE694E00E94930589EC0E949F0511
:101E5000EB2CF12CC7010E943A0589E197E00E9422
:101E600093058DE197E00E941E01C8010E94D600F3
:101E70008AE099E00E941E01C7010E94D600DFC0DF
:101E8000809102018F7D809302011092640A10926A
:101E9000610A1092600A80E80E949F0587E297E03D
:101EA0000E94930588E397E032CF802F0E94AA0317
:101EB00089EC0E949F058EE694E00E94930589ECD0
:101EC0000E949F058CEF98E00E9493058091540A30
:101ED00090E00E943A058AEB96E00E94930585E423
:101EE00097E00E941E018091540A3BCF01500A30B6
:101EF00058F4E02FF0E0EE0FFF1FE95DFD4F008189
:101F000011810115110551F480E80E949F058DE4AF
:101F100097E00E9493058EE597E0F9CE6B2DC801FE
:101F20000E945E06F82E81110AC080E80E949F057B
:101F300089E797E00E9493058AE897E0E8CEB80128
:101F4000CE0101960E94D415F2E060E972E0FF161E
:101F500011F06DE972E0CE0101960E94BE15CE012E
:101F600001960E94760822E087EA92E0F21609F4D0
:101F7000CECE8EEB92E0CBCE80E80E949F058EEB1A
:101F800097E00E9493058FEC97E0C1CE80E80E9415
:101F90009F058BEE97E00E94930580EBE82EF12CD5
:101FA00010E0C7010E94471581508E3F08F41F5F63
:101FB0004DE0E40EF11C82E3E81681E0F80689F7B3
:101FC000812F90E00E943A0585EF97E00E949305EB
:101FD0008CEF97E00E941E010E94D0000E943D04F9
:101FE0008091520A9091310A981709F493C3E82F0F
:101FF000F0E0EE5CF54F90819A3009F40CC19081CD
:102000009D3009F408C18F5F8F71ECCF81E29AE0B7
:102010000E94CE03882389F081E08093590A1092B0
:10202000570A1092580A80E80E949F0585E198E0BF
:102030000E94930586E298E06ACE0E94CB050E943A
:10204000D000CECFC7010196EF2811F481E29AE0CB
:102050000E94CE03882389F381E08093590A8093FC
:10206000570A0093580A80E80E949F058AE398E087
:102070000E9493058BE498E00E941E01802F71CE90
:1020800081E29AE00E94CE038823B9F282E0809335
:10209000590A80E80E949F058EE598E00E9493050A
:1020A0008FE698E034CE81E29AE00E94CE03882346
:1020B00021F20E94DE031092530A80E80E949F05DD
:1020C00082ED92E00E94930586E998E020CE10927E
:1020D00003021092020290ED980F9A3068F5E09199
:1020E0001E0AE43008F07CCF91E09E0F90931E0A08
:1020F000F0E0E75EF54F8083E92FF0E0E75EF54F13
:10210000108280EC0E949F058BEB98E00E94930563
:1021100000E010911E0A011728F48AE20E942705A8
:102120000F5FF7CF143028F48FE50E9427051F5F5B
:10213000F9CF81E794E046CA813419F580911E0AEF
:102140008430B1F489E19AE00E94CE03882381F0C3
:102150000E94EE031092530A80E80E949F058BE7CD
:1021600098E00E9493058CE898E00E941E0102C04E
:102170000E94CB050E94D00010921E0A1092190AEC
:102180002FCF8234C1F480911E0A843089F789E10F
:102190009AE00E94CE03882359F30E94DE03109236
:1021A000530A80E80E949F0582ED92E00E94930509
:1021B00086E998E0DACF833411F58091540A8F5F75
:1021C0008B3008F08AE00E94AA0389EC0E949F05E8
:1021D0008EE694E00E94930589EC0E949F058CEFA7
:1021E00098E00E9493058091540A90E00E943A057D
:1021F0008AEB96E00E94930584EC98E072CE8434DA
:1022000009F0EECE8091540A8150990B8F3F9807C8
:10221000D1F680E0D8CF90E02091310A8091520A27
:102220002817A1F19F3190F52091310A8091520A2F
:10223000281709F44DC0E091520AF0E0EE5CF54F2A
:1022400080812091520A2F5F2F712093520A8A3089
:1022500011F08D30A1F53091310A2091520A3217D8
:10226000A9F0E091520AF0E0EE5CF54F20818D304C
:1022700049F42A3059F48091520A8F5F8F7180930C
:10228000520A04C08A3011F42D30A9F3E1E0F0E0E5
:10229000EC0FFD1FE90FF11D1082992309F43AC2DA
:1022A0008E010F5F1F4FF80181918F018823D1F0BC
:1022B00090E00E94B615F80131978083F4CF883002
:1022C00011F08F3731F4992309F4A6CF9150A4CFA0
:1022D00080E0E1E0F0E0EC0FFD1FE90FF11D8083ED
:1022E0009F5F9ACF44E050E06CEC78E0CE0101961D
:1022F0000E94DB15892BD9F4CE0105960E94CE03EE
:10230000882381F00E94EE031092530A80E80E9415
:102310009F058BE798E00E9493058CE898E00E9467
:102320001E0102C00E94CB050E94D000F3C147E00D
:1023300050E069EC78E0CE0101960E94DB15892B14
:10234000A1F4CE0108960E94CE03882359F30E947F
:10235000DE031092530A80E80E949F0582ED92E00E
:102360000E94930586E998E0DACF44E050E064ECFF
:1023700078E0CE0101960E94DB15892B11F5CE0184
:1023800005960E94F8030E94AA031092030210927D
:10239000020289EC0E949F058CEF98E00E94930551
:1023A0008091540A90E00E943A058AEB96E00E94E0
:1023B000930585E497E00E941E018091540A90E005
:1023C000AEC04CE050E061ED78E0CE0101960E9495
:1023D000DB15892BE9F480EC0E949F0588E196E0EB
:1023E0000E94930589E296E00E941E010E94D0009F
:1023F00080EA9FE09093A9008093A80080EC0E945F
:102400009F058CE396E00E9493058DE496E087CFCC
:102410004DE050E061E373E0CE0101960E94DB15D0
:10242000892BE9F480EC0E949F058FE596E00E94DD
:10243000930580E796E00E941E010E94D00080ED87
:1024400097E09093A9008093A80080EC0E949F05DC
:1024500083E896E00E94930584E996E060CF46E029
:1024600050E06EED78E0CE0101960E94DB15892BDD
:1024700009F058C0CE0107960E94F803E82E6CE2DE
:1024800070E0CE0107960E94C91500E0009721F088
:1024900001960E94F803082FFCE30F9FC00111244E
:1024A0009093610A8093600A809102018062809318
:1024B000020181E08093640A1092630A1092620A1A
:1024C00080E80E949F0588E097E00E94930586E8D7
:1024D0000E949F05F12CC7010E943A0583E40E94E7
:1024E000270589EC0E949F058EE694E00E949305E3
:1024F00089EC0E949F0510E0C8010E943A0589E11D
:1025000097E00E9493058DE197E00E941E01C701AC
:102510000E94D6008AE099E00E941E01C8010E9434
:10252000D60002CF4AE050E065EE78E0CE01019699
:102530000E94DB15892BA9F4809102018F7B809387
:10254000020110929900109298001092550A80E8AA
:102550000E949F058CEC96E00E9493058DED96E01D
:10256000DECE49E050E060EF78E0CE0101960E94B7
:10257000DB15892BC9F51091560A111101C015E020
:102580006CE270E0CE010A960E94C915009721F016
:1025900001960E94F803182F812F0E94440180E8C1
:1025A0000E949F0586EA96E00E94930589EC0E94AE
:1025B0009F058EE694E00E94930589EC0E949F059A
:1025C00087EB96E00E9493058091560A90E00E9466
:1025D0003A058AEB96E00E9493058EEB96E00E9406
:1025E0001E018091560AEBCE44E050E06AEF78E09D
:1025F000CE0101960E94DB15892BB9F58091550A11
:10260000813019F08BEE96E08ACE8D818B32F9F411
:102610008091560A8F5F0E94300189EC0E949F05CD
:102620008EE694E00E94930589EC0E949F0587EB5B
:1026300096E00E9493058091560A90E00E943A0528
:102640008AEB96E00E94930580E097E0C8CF8D3238
:1026500039F48091560A815087FFDDCF80E0DBCFCF
:10266000CE0105960E94F803D6CF4CE050E06FEF04
:1026700078E0CE0101960E94DB15892B11F56CE202
:1026800070E0CE010D960E94C9150097B9F0FC01CB
:102690001192CF010E94F803682FCE010D960E947F
:1026A0005E06811103C08AE897E039CE823019F4C2
:1026B00087EA92E034CE8EEB92E031CE8CE099E066
:1026C0002ECE4CE050E062E279E0CE0101960E940D
:1026D000DB15892B61F4CE010D960E94F00588234D
:1026E00019F089EA97E01BCE8FEC97E018CE4CE00A
:1026F00050E062EE73E0CE0101960E94DB15892B5B
:1027000009F091C08CEF97E00E941E010E94D0005A
:102710000E943D048091670A882371F080915E0ACF
:1027200090915F0A01968C32F1E09F0708F005C195
:1027300090935F0A80935E0A2091650A3091660A41
:102740002F5F3F4F3093660A2093650A8091020203
:102750009091030201969093030280930202203D20
:10276000374008F444C01092660A1092650A803E11
:102770009E42E0F00E9495008C0180EC0E949F0533
:1027800083E899E00E9493059801A8E2B0E00E94D6
:102790009315A30192010E947115822F220F990BAC
:1027A0000E943A0586E899E00E9493050E949500F0
:1027B0009C01A8E2B0E00E949315A30192010E943F
:1027C00071158091080183FDEEC022312CF48091B7
:1027D00008018860809308018091080184FDEAC0A7
:1027E0002B312CF080910801806180930801809149
:1027F000640A882371F08091620A9091630A0196BD
:10280000803AFFE09F0708F0DCC09093630A809352
:10281000620A80E090E0892B11F40C94950A0E94E2
:1028200000000C94950A4DE050E06FE279E0CE0193
:1028300001960E94DB15892B89F4CE010E960E9429
:10284000CE03882309F46ECD81E08093590A10925B
:10285000570A1092580A86E298E061CD4BE050E0AA
:102860006DE379E0CE0101960E94DB15892B19F505
:10287000CE010C960E94F803182F6CE270E0CE0196
:102880000C960E94C915009799F001960E94CE03FC
:10289000882309F447CD81E08093590A8093570A31
:1028A0001093580A8BE498E00E941E01812F87CD77
:1028B000CE010C96EBCF47E050E069E479E0CE0121
:1028C00001960E94DB15892B69F4CE0108960E94BF
:1028D000CE03882309F426CD82E08093590A8FE63F
:1028E00098E01DCD48E050E061E579E0CE01019629
:1028F0000E94DB15892BF1F4CE0109960E94F803A2
:10290000182F6CE270E0CE0109960E94C91500975D
:1029100071F001960E94CE03882309F403CD83E071
:102920008093590A1093580A8AE599E0BDCFCE01E9
:102930000996F0CF89E699E0F2CC10925F0A1092E6
:102940005E0A80915D0A8F5F80935D0A90915C0AB8
:10295000981730F51092670A80E80E949F058091D1
:102960005A0A813029F48BE798E00E949305E4CE5F
:1029700080915A0A823089F480915B0A813019F47F
:102980008FEE93E0F2CF80915B0A823019F480E100
:1029900094E0EBCF80E792E0E8CF82ED92E0E5CFE4
:1029A0000E94B205C9CE25310CF416CF80910801E2
:1029B000877F10CF28310CF01ACF809108018F7ECD
:1029C00014CF1092630A1092620A8091600A90916B
:1029D000610A009729F001979093610A8093600A39
:1029E0008091600A9091610A892B09F012CF809141
:1029F00002018F7D809302011092640A1092610A95
:102A00001092600A80E80E949F058BE899E00E947E
:102A100093058CE999E00E941E010E94D000F9CE36
:102A200080E0992309F453CB109203021092020222
:102A300080E090ED980F9A3018F0813409F0D0CAF8
:102A4000E0912F0AEF3068F491E09E0F90932F0AE7
:102A5000F0E0E15EF54F8083E92FF0E0E15EF54FB5
:102A6000108280EC0E949F0586EB98E00E949305FF
:102A70008FE19AE00E94930510912F0A1C5F10319C
:102A800008F0AECA80E20E9427051F5FF8CFF999CF
:102A9000FECF92BD81BDF89A992780B50895262F63
:102AA000F999FECF1FBA92BD81BD20BD0FB6F89433
:102AB000FA9AF99A0FBE0196089597FB072E16F41D
:102AC000009407D077FD09D00E94A21507FC05D01D
:102AD0003EF4909581959F4F0895709561957F4F35
:102AE0000895A1E21A2EAA1BBB1BFD010DC0AA1F4F
:102AF000BB1FEE1FFF1FA217B307E407F50720F067
:102B0000A21BB30BE40BF50B661F771F881F991FE1
:102B10001A9469F760957095809590959B01AC012A
:102B2000BD01CF010895A29FB001B39FC001A39F33
:102B3000700D811D1124911DB29F700D811D1124F6
:102B4000911D0895AA1BBB1B51E107C0AA1FBB1F03
:102B5000A617B70710F0A61BB70B881F991F5A9529
:102B6000A9F780959095BC01CD0108959111089524
:102B700081568A5108F4805285580895FB01DC0182
:102B80000D900020E9F7119701900D920020E1F7D8
:102B90000895FC018191861721F08823D9F79927A0
:102BA00008953197CF010895FB01DC0101900D924A
:102BB0000020E1F70895FB01DC014150504030F066
:102BC0008D910190801919F40020B9F7881B990B99
:062BD0000895F894FFCF08
:102BD600FFFF0F2730040000A004000000020408D5
:102BE6000E192C4E7CB4FF31323341343536423720
:102BF6003839432A302344A609AC09B009B709BDC0
:102C060009C409CB09D009D409DA09FFFFFFFFFF80
:102C1600FF207820004C49535441205641434941F6
:102C260000434F4449474F20494E434F5252454374
:102C3600544F004552524F523A434F4449474F0072
:102C4600212120494E545255534F20212120202026
:102C560000414C41524D413A494E545255534F0052
:102C66002041435455414C495A41444F0020414765
:102C760052454741444F004F4B3A4D45524341441C
:102C86004F5F41435455414C495A41444F004F4BC5
:102C96003A4D45524341444F5F41475245474144AF
:102CA6004F00414C41524D413A2044455341435413
:102CB600495600543A2D2D43202020204C3A302FDF
:102CC60031302000436F6D616E646F733A2041525C
:102CD6004D3A78787878202F2044495341524D3A1E
:102CE60078787878202F204C555A3A302D3130207C
:102CF6002F20474152414A453A4142524952202FDC
:102D060020474152414A453A4345525241520045B5
:102D16004E524F4C3A4144554C544F202F20454E6D
:102D2600524F4C3A48494A4F2C4E202F20424F5280
:102D3600524152202F2041434345534F533A4E00B0
:102D4600484F524E4F3A74656D702C6D696E202F48
:102D560020534F4E49444F3A4F4E5B2C302D313065
:102D66005D202F20534F4E49444F3A4F4646202F61
:102D760020564F4C3A4E202F20564F4C3A2B202FA0
:102D860020564F4C3A2D202F204D45524341444F5B
:102D96003A4144442C6E6F6D2C63616E74202F2073
:102DA6004D45524341444F3A44454C2C6E6F6D207D
:102DB6002F204D45524341444F3A4C49535400212C
:102DC6002120494E43454E44494F202121202000D1
:102DD600414C41524D413A494E43454E44494F00BC
:102DE600212120494E54525553494F4E202121202E
:102DF60000414C41524D413A41434345534F004FE8
:102E06004B3A454E524F4C41444F5F4144554C540A
:102E16004F00454E524F4C41444F204144554C546F
:102E26004F20004F4B3A454E524F4C41444F5F485E
:102E3600494A4F2C0020202020202020202020201E
:102E4600202020202000454E524F4C2048494A4F12
:102E560020433A004552524F523A454550524F4D43
:102E66005F4C4C454E415F4F5F4455504C49434182
:102E7600444F004F4B3A424F525241444F00544147
:102E8600524A45544120424F525241444120004546
:102E960052524F523A5549445F4E4F5F4558495337
:102EA6005445004F4B3A41434345534F532C005230
:102EB60045434152474120433A004552524F523A08
:102EC60045534352494249525F434F4E5441444F42
:102ED60052004552524F523A4C4545525F434F4E6F
:102EE6005441444F52004552524F523A5549445F5D
:102EF6004E4F5F45535F48494A4F00414343455350
:102F06004F3A44454E454741444F0041434345539C
:102F16004F2044454E454741444F200041434345D9
:102F2600534F3A434F4E43454449444F5F414455FE
:102F36004C544F0041434345534F204144554C5454
:102F46004F2020200041434345534F3A434F4E43C1
:102F5600454449444F5F48494A4F2C0048494A4F27
:102F6600204F4B20433A0041434345534F3A444593
:102F76004E454741444F5F53494E5F4355504F536B
:102F86000053494E204355504F53202020202020E7
:102F960020004552524F52204C4543545552412031
:102FA600202000434D442043414E43454C41444F6D
:102FB60020202000434D443A20202020202020209D
:102FC6002020202000434D4420494E56414C494480
:102FD6004F20202020004552524F523A434D445F25
:102FE6005445434C41444F00474152414A452041D4
:102FF600425249454E444F20004F4B3A47415241B9
:103006004A455F41425249454E444F002020202008
:1030160020202020204142494552544F004F4B3A30
:10302600474152414A455F4142494552544F004744
:103036004152414A452043455252414E444F200099
:103046004F4B3A474152414A455F43455252414EE2
:10305600444F00202020202020202020434552528B
:1030660041444F004F4B3A474152414A455F434521
:10307600525241444F00534F4E49444F3A204F4E0F
:1030860020202020202000563A002F3130004F4BC0
:103096003A534F4E49444F5F4F4E2C00534F4E49C3
:1030A600444F3A204F46462020202020004F4B3ADE
:1030B600534F4E49444F5F4F4646004552524F527A
:1030C6003A534F4E49444F5F4150414741444F00A8
:1030D6004F4B3A564F4C2C00484F524E4F3A2020F9
:1030E6002020202020202020006D696E004F4B3AC2
:1030F600484F524E4F2C00484F524E4F3A204F46A3
:1031060046202020202020004F4B3A484F524E4F59
:103116005F4F4646004F4B3A4C555A2C0050524F83
:103126004420444553434F4E4F4349444F00455274
:10313600524F523A50524F445543544F5F444553B1
:10314600434F4E4F4349444F004D45524341444F30
:10315600204C4C454E4F202020004552524F523AAB
:103166004D45524341444F5F4C4C454E4F00204520
:103176004C494D494E41444F004F4B3A4D45524301
:1031860041444F5F454C494D494E41444F004D45E2
:103196005243204E4F204558495354452020004560
:1031A60052524F523A4D45524341444F5F4E4F5F44
:1031B600454E434F4E545241444F004D45524341B4
:1031C600444F3A2000206974656D20002D2D2D2076
:1031D6004C49535441204445204D45524341444FA8
:1031E600202D2D2D00454E524F4C204144554C5418
:1031F6004F20202020004F4B3A454E524F4C414E17
:10320600444F5F4144554C544F00454E524F4C205D
:1032160048494A4F202020202020004F4B3A454E57
:10322600524F4C414E444F5F48494A4F2C00424F43
:1032360052524152205441524A4554412020004F97
:103246004B3A424F5252414E444F00414C41524D2F
:10325600413A2041524D4144412020004F4B3A41D2
:10326600524D414441004F4B3A4445534143544922
:103276005641444100434D4420444553434F4E4F2D
:103286004349444F2000434D443A00436F64696705
:103296006F3A20004C555A3A0044495341524D3A30
:1032A60000474152414A453A414252495200484F2D
:1032B600524E4F3A00534F4E49444F3A4F464600FE
:1032C600534F4E49444F3A4F4E00564F4C3A004DDD
:1032D60045524341444F3A4144442C004552524FD3
:1032E600523A464F524D41544F5F4D455243414429
:1032F6004F004D45524341444F3A44454C2C0045FE
:103306004E524F4C3A4144554C544F2C00454E5268
:103316004F4C3A48494A4F2C00424F525241522C88
:103326000041434345534F533A004F4B3A524543AE
:10333600415247414E444F2C004552524F523A4358
:103346004F4D414E444F5F444553434F4E4F4349C3
:10335600444F00543A004320202000484F524E4F1D
:103366003A204C4953544F2020202000484F524EBB
:103376004F3A46494E006C656368650070616E00A1
:10338600687565766F73006172726F7A0061636546
:1033960069746500617A75636172006361666500D0
:1033A60073616C0070617374610061677561000020
:00000001FF
