:020000040000FA
:100000000C9472000C9493000C9493000C941703BE
:100010000C9405030C943B030C9429030C9493005B
:100020000C9493000C9493000C9493000C94930004
:100030000C9493000C9488020C9493000C949300FD
:100040000C9493000C9493000C9493000C949300E4
:100050000C9493000C9493000C9493000C940E0257
:100060000C9493000C9458020C9493000C949300FD
:100070000C9493000C9493000C9493000C949300B4
:100080000C9493000C9493000C9493000C949300A4
:100090000C9493000C9493000C9493000C94930094
:1000A0000C9493000C9493000C9493000C94930084
:1000B0000C9493000C9493000C9493000C94930074
:1000C0000C9493000C9493000C9493000C94930064
:1000D0000C9493000C9493000C9493000C94930054
:1000E0000C94930011241FBECFEFD1E2DEBFCDBF31
:1000F00000E00CBF15E0A0E0B2E0E2EDF3E100E0CB
:100100000BBF02C007900D92A637B107D9F725E0C3
:10011000A6E7B5E001C01D92A73BB207E1F70E9438
:100120004C030C94E7090C9400009091C00095FFDB
:10013000FCCF8093C60008958DE00E9495008AE070
:100140000C9495000F931F93CF93DF9300D000D0B2
:100150001F92CDB7DEB730E00AE010E0009769F4F7
:1001600080E327960FB6F894DEBF0FBECDBFDF91B8
:10017000CF911F910F910C94950021E0230FE1E0A6
:10018000F0E0EC0FFD1FE30FF11D37FDFA95B8010C
:100190000E948109805D8083CB01322F009769F72F
:1001A00012166CF41FEF120FE1E0F0E0EC0FFD1FF0
:1001B000E10FF11D80810E949500212FF1CF27963C
:1001C0000FB6F894DEBF0FBECDBFDF91CF911F9168
:1001D0000F910895CF93DF93EC018991882319F053
:1001E0000E949500FACFDF91CF91089528E080E03A
:1001F00090E0DC0130917A00306430937A003091E5
:100200007A0036FDFCCF4091780050917900840F40
:10021000951FA11DB11D215069F723E0B695A79543
:10022000979587952A95D1F7089594B3907F94BBBD
:10023000813041F028F0823039F0833039F0089570
:10024000A09A0895A19A0895A29A0895A39A08954C
:100250008B3008F08AE08093A50590E0880F991F05
:1002600090938900809388000895FC0180818133F8
:1002700051F48181823339F48281833321F481E026
:100280009381943309F080E00895109277052E98B9
:100290002F988DB3837F8DBB1092780510927905CE
:1002A00010927A05089581E0809377052E9A8DB398
:1002B0008C608DBB109278050895FC0180E02AE0E7
:1002C000919130ED390F3A3030F4829F900D112426
:1002D00080ED890FF5CF089592B19F7092B992B1D8
:1002E00040E1849F90011124922B92B9129A85E0EB
:1002F0008A95F1F70000129887EC90E00197F1F7EA
:1003000000C000000895CF93C82F109A82958F7077
:100310000E946C018C2F8F700E946C0187EC90E022
:100320000197F1F700C00000CF910895EF92FF927E
:100330000F931F93CF93DF9300D000D01F92CDB7C0
:10034000DEB78C0197FF2DC08DE20E9483011195CD
:100350000195110980E09AE0E92EF12C21E0280FA7
:10036000E1E0F0E0EC0FFD1FE80FF11D87FDFA95CD
:10037000C801B7010E948109805D80838B01822FB3
:10038000672B61F71216F4F41FEF120FE1E0F0E0B3
:10039000EC0FFD1FE10FF11D80810E948301212FD1
:1003A000F1CF892BB9F680E327960FB6F894DEBF1C
:1003B0000FBECDBFDF91CF911F910F91FF90EF90B6
:1003C0000C94830127960FB6F894DEBF0FBECDBF05
:1003D000DF91CF911F910F91FF90EF900895CF93F0
:1003E000DF93EC018991882319F00E948301FACFF1
:1003F000DF91CF910895CF93C82F109882958F7079
:100400000E946C018C2F8F700E946C0187EC90E031
:100410000197F1F700C00000CF9108951F920F924D
:100420000FB60F9211242F933F938F939F93AF9307
:10043000BF938091B3059091B405A091B505B0919B
:10044000B6053091B20523E0230F2D3758F50196FC
:10045000A11DB11D2093B2058093B3059093B405FF
:10046000A093B505B093B6058091AE059091AF0508
:10047000A091B005B091B1050196A11DB11D809369
:10048000AE059093AF05A093B005B093B105BF91B1
:10049000AF919F918F913F912F910F900FBE0F9031
:1004A0001F90189526E8230F0296A11DB11DD2CFEB
:1004B0001F920F920FB60F9211240BB60F922F932B
:1004C0008F939F93EF93FF939091C6008091C0000C
:1004D00085FFFCCF9093C6008091A4058F5F8F713C
:1004E0002091A305281741F0E091A405F0E0ED5715
:1004F000FA4F90838093A405FF91EF919F918F9184
:100500002F910F900BBE0F900FBE0F901F9018955C
:100510001F920F920FB60F9211240BB60F922F93CA
:100520003F934F935F936F937F938F939F93AF937B
:10053000BF93CF93DF93EF93FF9350E040E0E1E070
:10054000F0E0AFE0942F9F01042E01C0220F0A9427
:10055000EAF72A2720930B018AE18A95F1F700C078
:1005600026B120952F7091F070E060E030E0862F8A
:10057000E901062E02C0D595C7950A94E2F7C0FDA1
:1005800040C06F5F7F4F6430710589F74F5F5F4FE9
:1005900044305105B9F68FEF909100029817E1F0C1
:1005A0008F3FC1F090917C05911114C0282F2695A2
:1005B0002695E4E02E9F900111242D5F3D4F982F4A
:1005C0009370290F311DF901908190937B0591E083
:1005D00090937C0580930002FF91EF91DF91CF9182
:1005E000BF91AF919F918F917F916F915F914F914B
:1005F0003F912F910F900BBE0F900FBE0F901F9049
:100600001895880F880F890FC7CF1F920F920FB6CA
:100610000F9211248F9381E08093780584E080937A
:1006200076058F910F900FBE0F901F9018951F9217
:100630000F920FB60F9211248F9381E0809378056B
:1006400083E0809376058F910F900FBE0F901F90DF
:1006500018951F920F920FB60F9211248F9381E07D
:100660008093790582E0809376058F910F900FBE7D
:100670000F901F9018951F920F920FB60F92112492
:100680008F9381E080937905809376058F910F9009
:100690000FBE0F901F901895CF93DF93CDB7DEB7A5
:1006A000AF970FB6F894DEBF0FBECDBF789484B578
:1006B000826084BD84B5816084BD85B5826085BD5E
:1006C00085B5816085BD80916E00816080936E00EC
:1006D00010928100809181008260809381008091DE
:1006E000810081608093810080918000816080938F
:1006F00080008091B10084608093B1008091B0004F
:1007000081608093B000809191008260809391001D
:100710008091910081608093910080919000816030
:10072000809390008091A10082608093A1008091CD
:10073000A10081608093A1008091A00081608093DE
:10074000A00080912101826080932101809121018C
:10075000816080932101809120018160809320013C
:1007600080917A00846080937A0080917A00826020
:1007700080937A0080917A00816080937A008091E2
:100780007A00806880937A001092C1008FEF81B95F
:1007900012B82FEF40E782E0215040408040E1F75F
:1007A00000C00000109883E00E946C01EFE1FEE4BD
:1007B0003197F1F700C0000083E00E946C0187E5EB
:1007C00092E00197F1F700C0000083E00E946C0105
:1007D000E7ECF0E03197F1F700C0000082E00E9402
:1007E0006C0187EC90E00197F1F700C0000088E20F
:1007F0000E94FB018CE00E94FB0186E00E94FB014D
:1008000081E00E94FB01EFE3FFE13197F1F700C0C7
:10081000000080910A018F6080930A0180910B0192
:100820008F6080930B0187B1807F87B988B18F601B
:1008300088B982E08093B00095E09093B1009BE985
:100840009093B3008093700010927B0510927C050A
:100850001092C50087E68093C4001092C00088E91A
:100860008093C10086E08093C2001092A40510928C
:10087000A30584B1806C84B985B18F7385B980EF8D
:10088000809369008FE080936A0080E38DBB1092B3
:100890007705109279051092780510927A0583B346
:1008A0008F6083BB84B3807F84BB81E480937C00B2
:1008B00088E080937B0087E880937A0080917A00BB
:1008C000806480937A0080917A0086FDFCCF8091CD
:1008D0007800909179008FE39FE10197F1F700C0D4
:1008E00000008091070188618093070180910801D1
:1008F000877E80930801259A21E8209380009AE062
:100900009093810010928900109288001092A505A2
:100910006D9A75981092AB051092A8051092A705D4
:100920001092AA051092A90580910101806480931C
:100930000101809102018F7B809302016B9A2093C9
:1009400090009093910010929900109298007894E2
:1009500081E00E94FB01EFE3FFE13197F1F700C076
:10096000000080E80E94FB0183E192E00E94EF0119
:1009700080EC0E94FB0184E292E00E94EF010E9461
:100980009C0083E392E00E94EA000E949C0089E7B9
:1009900092E00E94EA000E949C00109282058E0163
:1009A0000F5F1F4F7E01F1E2EF0EF11CCE018D961D
:1009B0009EA78DA744244A9463E0562E612C712C87
:1009C00080917905882309F454C01092790581E05B
:1009D00080937A052F9A80917A05813009F059C069
:1009E00080E80E94FB018DED92E00E94EF018EEE07
:1009F00092E00E94EA000E949C0080917C0588237E
:100A000009F462C080917C05882309F44FC080916D
:100A10007B0510927B0510927C05109202021092C9
:100A2000010290ED980F9A3008F092C0E091820593
:100A3000E43008F049C091E09E0F90938205F0E009
:100A4000E358FA4F8083E92FF0E0E358FA4F108221
:100A500080EC0E94FB018DE193E00E94EF01C12C2C
:100A6000D0908205CD1420F58AE20E948301C394C0
:100A7000F7CF80917805882309F4BFCF10927805CD
:100A800080917705813009F0B8CF82E080937705B7
:100A90009FCF823009F0B1CF80E80E94FB018EEF3A
:100AA00092E00E94EF018FE093E0A3CF80E0B5CF0A
:100AB00093E09D1528F08FE50E948301D394F8CF31
:100AC00089E394E00E94EF018091A3059091A40531
:100AD000981709F43FC3E82FF0E0ED57FA4F9081E3
:100AE0009A3009F0B0C0D80120E09091A40580911F
:100AF000A3059817D9F02F31C9F09091A4058091E2
:100B0000A305981709F4A6C08091A30590E08D571E
:100B10009A4FFC0190818091A3058F5F8F71809324
:100B2000A3059A3019F09D3009F095C0F801E20F45
:100B3000F11D10826801F60181916F01882309F48B
:100B40008DC090E00E94C609F60131978083F3CFF3
:100B5000813441F5809182058430D1F48DE795E0B0
:100B60000E9435018823A1F00E94530180E80E9471
:100B7000FB0186E293E00E94EF0187E393E00E948D
:100B8000EA000E949C001092820510927D059CCF85
:100B900080E80E94FB0181E493E00E94EF0183E57D
:100BA00093E0EDCF8234B1F480918205843081F7F7
:100BB0008DE795E00E943501882351F30E9445019D
:100BC00080E80E94FB0183E192E00E94EF0180E651
:100BD00093E0D5CF833459F58091A5058F5F8B3095
:100BE00008F08AE00E94280189EC0E94FB0186E35C
:100BF00094E00E94EF0189EC0E94FB018FE693E0F4
:100C00000E94EF018091A50590E00E9496018FE27D
:100C100092E00E94EF0182E793E00E94EA00809157
:100C2000A50590E00E94A2000E949C004DCF843454
:100C300009F04ACF8091A5058150990B8F3F980705
:100C400089F680E0CFCF90819D3009F44CCF8F5F43
:100C50008F713CCF90E02F5F9D9347CF43E050E0F2
:100C600067E773E0C8010E94D909892B71F40E94DB
:100C7000530180E80E94FB0186E293E00E94EF01AD
:100C800087E393E00E94EA004AC047E050E06BE748
:100C900073E0C8010E94D909892BA9F4CE010896F6
:100CA0000E943501882361F00E94450180E80E947E
:100CB000FB0183E192E00E94EF0180E693E0E2CF46
:100CC00083E593E0DFCF44E050E062E773E0C801E2
:100CD0000E94D909892B31F5CE0105960E945D014C
:100CE0000E942801109202021092010289EC0E94D7
:100CF000FB018FE693E00E94EF018091A50590E053
:100D00000E9496018FE292E00E94EF0183E893E057
:100D10000E94EA008091A50590E00E94A2000E9436
:100D20009C0018C24CE050E06BE873E0C8010E94E0
:100D3000D909892B89F580EC0E94FB0188E993E0B1
:100D40000E94EF0189EA93E00E94EA000E949C0061
:100D5000C12C52E0D52E8091A60590E001968370BB
:100D600099278093A6050E9415018FE19EE40197C3
:100D7000F1F700C0000091E0C91AD10861F784B30F
:100D8000807F84BB80EC0E94FB018CEB93E00E948F
:100D9000EF018DEC93E076CF4DE050E06BE672E032
:100DA000C8010E94D909892B89F580EC0E94FB01BA
:100DB0008FED93E00E94EF0180EF93E00E94EA0044
:100DC0000E949C00C12C42E0D42E8091A60590E0A8
:100DD0000396837099278093A6050E941501EFE181
:100DE000FEE43197F1F700C00000F1E0CF1AD1081E
:100DF00061F784B3807F84BB80EC0E94FB0183E0B9
:100E000094E00E94EF0184E194E03CCF46E050E0A2
:100E100066E274E0C8010E94D909892BB9F5CE01B8
:100E200007960E945D01C82E6CE270E0CE01079625
:100E30000E94CE09D12C009721F001960E945D01FD
:100E4000D82E2CE3D29EC00111249093A805809344
:100E5000A705759A81E08093AB051092AA051092C0
:100E6000A90580E80E94FB018DE294E00E94EF0159
:100E70008EE394E00E94EA008C2D90E00E94A20094
:100E800085E894E00E94EA008D2D46CF4AE050E0CC
:100E900068E474E0C8010E94D909892BF1F4CE01FD
:100EA0000B960E945D01D82E809102018064809390
:100EB00002018D2D44E64D1508F484E6EFEF8E9F78
:100EC000C001112464E670E00E946D0970939900DE
:100ED0006093980083E594E0D5CF4AE050E061E666
:100EE00074E0C8010E94D909892B61F48091020144
:100EF0008F7B8093020110929900109298008CE6EB
:100F000094E0C0CE4CE050E06AE774E0C8010E9473
:100F1000D909892B09F083C06CE270E0CE010D96EF
:100F20000E94CE09009709F477C0FC011192CF010D
:100F30000E945D018FA7AA24BB24AE18BF083AE027
:100F4000332E67014501F0EB8F0E911CC4018C0D0F
:100F50009D1D0E945709F60181936F018DA59EA5E5
:100F60008E179F0799F74BE050E0BE01635F7F4FFC
:100F7000C7010E94D909892B09F44BC03A949DE01E
:100F8000A90EB11C3110DDCF20EBC22ED12CC60131
:100F90000E945709382E811133C058014601801A2A
:100FA000910AF5016485C4018A0D9B1D22242394B6
:100FB000230C662379F00E945F09FFEFAF1ABF0A86
:100FC000322C2BE02212EDCF60E0C6010B960E947E
:100FD0005F090EC05601A30CB11C60E0C5010E9460
:100FE0005F0933944FEFA41AB40A8CE03812F5CF9E
:100FF0006FA5C6010C960E945F0987E894E042CE77
:101000009DE0C90ED11CE2E3CE16E1E0DE0609F058
:10101000BECF85E595E036CE8BE994E033CE4CE04B
:1010200050E061EB74E0C8010E94D909892BE9F511
:10103000222433242E183F0890EBC92ED12C5701BF
:101040004101E0EB8E0E911CC4018A0D9B1D0E9494
:101050005709F50181935F018DA59EA58E179F0706
:1010600099F74BE050E0BE01635F7F4FC7010E94DC
:10107000D909892B61F4C6010E945709882321F000
:1010800060E0C6010E945F098AED94E0FBCD9DE01F
:10109000C90ED11CEDE02E0E311CF2E3CF16F1E0AB
:1010A000DF0669F68EEB94E0EDCD4CE050E060EDAC
:1010B00072E0C8010E94D909892B09F0BFC08FEEE8
:1010C00094E00E94EA000E949C00222433242E18FF
:1010D0003F0880EBC82ED12C1FA6C6010E945709DD
:1010E000882339F15701410120EB820E911CC40184
:1010F0008A0D9B1D0E945709F50181935F018DA503
:101100009EA58E179F0799F7C6010C960E94570956
:10111000B82EC7010E94EA0088E095E00E94EA002C
:101120008B2D90E00E94A2000E949C009FA59F5FD3
:101130009FA7EDE0CE0ED11CFDE02F0E311C22E367
:10114000C21621E0D20649F64FA58CE095E0442373
:1011500009F498CD2091AC053091AD052F5F3F4F3C
:101160003093AD052093AC0580910102909102026D
:1011700001969093020280930102203D374008F4CB
:1011800044C01092AD051092AC05803E9E42E0F046
:101190000E94F6006C0180EC0E94FB0182E395E066
:1011A0000E94EF019601A8E2B0E00E94B709A301F6
:1011B00092010E949509822F220F990B0E9496019D
:1011C00085E395E00E94EF010E94F6009C01A8E2F1
:1011D000B0E00E94B709A30192010E949509809195
:1011E000080183FD2EC022312CF480910801886013
:1011F000809308018091080184FD29C02B312CF0D7
:10120000809108018061809308018091AB0588235B
:1012100069F08091A9059091AA050196803A2FE086
:101220009207D8F49093AA058093A90580E090E0F6
:10123000892B09F4C5CB0E940000C2CB88E195E060
:1012400021CD2531BCF280910801877FD1CF283193
:10125000E4F6809108018F7ED6CF1092AA051092F5
:10126000A9058091A7059091A805009729F00197FD
:101270009093A8058093A7058091A7059091A80554
:10128000892BA1F675981092AB051092A8051092C3
:10129000A70580E80E94FB018AE395E00E94EF0128
:1012A0008BE495E00E94EA000E949C00BFCFF99970
:1012B000FECF92BD81BDF89A992780B50895262F5B
:1012C000F999FECF1FBA92BD81BD20BD0FB6F8942B
:1012D000FA9AF99A0FBE01960895AA1BBB1B51E119
:1012E00007C0AA1FBB1FA617B70710F0A61BB70B96
:1012F000881F991F5A95A9F780959095BC01CD013B
:10130000089597FB072E16F4009407D077FD09D0B7
:101310000E946D0907FC05D03EF4909581959F4F82
:101320000895709561957F4F0895A1E21A2EAA1B2A
:10133000BB1BFD010DC0AA1FBB1FEE1FFF1FA21785
:10134000B307E407F50720F0A21BB30BE40BF50B82
:10135000661F771F881F991F1A9469F7609570950B
:10136000809590959B01AC01BD01CF010895A29F8E
:10137000B001B39FC001A39F700D811D1124911D69
:10138000B29F700D811D1124911D08959111089532
:1013900081568A5108F4805285580895FC01819144
:1013A000861721F08823D9F7992708953197CF011F
:1013B0000895FB01DC014150504030F08D910190C7
:1013C000801919F40020B9F7881B990B0895F89437
:1013D000FFCFFF0F273132334134353642373839AA
:1013E000432A302344414C41524D413A2044455315
:1013F000414354495600543A2D2D432020204C3A65
:10140000302F313000436F6D616E646F733A20414D
:10141000524D202F2044495341524D3A78787878E4
:10142000202F204C555A3A302D3130202F20474163
:1014300052414A453A4142524952202F2047415297
:10144000414A453A43455252415200484F524E4F4D
:101450003A74656D702C6D696E202F20534F4E4984
:10146000444F3A4F4E2C766F6C202F20534F4E49ED
:10147000444F3A4F4646202F204D45524341444F5A
:101480003A4144442C6E6F6D2C63616E74202F20A2
:101490004D45524341444F3A44454C2C6E6F6D20AC
:1014A0002F204D45524341444F3A4C49535400215B
:1014B0002120494E43454E44494F20212120200000
:1014C000414C41524D413A494E43454E44494F00EB
:1014D000212120494E54525553494F4E202121205D
:1014E00000414C41524D413A41434345534F004323
:1014F0006F6469676F3A2000414C41524D413A2078
:1015000041524D4144412020004F4B3A41524D4100
:10151000444100434F4449474F20494E434F5252A4
:101520004543544F004552524F523A434F44494766
:101530004F004F4B3A44455341435449564144416F
:10154000004C3A004C555A3A0041524D0044495320
:1015500041524D3A004F4B3A4C555A2C004741529C
:10156000414A453A414252495200474152414A4557
:101570002041425249454E444F20004F4B3A47418B
:1015800052414A455F41425249454E444F0047410E
:1015900052414A45204142494552544F2020004F74
:1015A0004B3A474152414A455F4142494552544FA7
:1015B00000474152414A452043455252414E444F13
:1015C00020004F4B3A474152414A455F43455252F2
:1015D000414E444F00474152414A452043455252F3
:1015E00041444F2020004F4B3A474152414A455F0A
:1015F0004345525241444F00484F524E4F3A0048E3
:101600004F524E4F3A204F4E2020202020202000C5
:101610004F4B3A484F524E4F2C00534F4E49444F78
:101620003A4F4E2C004F4B3A534F4E49444F5F4F69
:101630004E2C00534F4E49444F3A4F4646004F4BB5
:101640003A534F4E49444F5F4F4646004D45524333
:1016500041444F3A4144442C004F4B3A4D4552438C
:1016600041444F5F414752454741444F0045525224
:101670004F523A464F524D41544F5F4D45524341B0
:10168000444F004D45524341444F3A44454C2C0091
:101690004552524F523A4D45524341444F5F4E4F8F
:1016A0005F454E434F4E545241444F004F4B3A4DCD
:1016B00045524341444F5F454C494D494E41444F8B
:1016C000002D2D2D204C49535441204445204D459B
:1016D000524341444F202D2D2D00207820004C49AD
:1016E000535441205641434941004552524F523ACA
:1016F000434F4D414E444F5F444553434F4E4F433C
:1017000049444F00543A004320202000484F524E95
:101710004F3A204C4953544F2020202000484F522C
:101720004E4F3A46494E004552524F523A4D45525D
:101730004341444F5F4C4C454E4F5F4F5F445550C3
:081740004C494341444F0000F5
:020000040003F7
:10E000000D9489F10D94B2F10D94B2F10D94B2F129
:10E010000D94B2F10D94B2F10D94B2F10D94B2F1F0
:10E020000D94B2F10D94B2F10D94B2F10D94B2F1E0
:10E030000D94B2F10D94B2F10D94B2F10D94B2F1D0
:10E040000D94B2F10D94B2F10D94B2F10D94B2F1C0
:10E050000D94B2F10D94B2F10D94B2F10D94B2F1B0
:10E060000D94B2F10D94B2F10D94B2F10D94B2F1A0
:10E070000D94B2F10D94B2F10D94B2F10D94B2F190
:10E080000D94B2F10D94B2F10D94B2F10D94B2F180
:10E090000D94B2F10D94B2F10D94B2F10D94B2F170
:10E0A0000D94B2F10D94B2F10D94B2F10D94B2F160
:10E0B0000D94B2F10D94B2F10D94B2F10D94B2F150
:10E0C0000D94B2F10D94B2F10D94B2F10D94B2F140
:10E0D0000D94B2F10D94B2F10D94B2F10D94B2F130
:10E0E0000D94B2F141546D656761323536300041AF
:10E0F000726475696E6F206578706C6F72657220DE
:10E1000073746B3530305632206279204D4C530099
:10E11000426F6F746C6F616465723E004875683F52
:10E1200000436F6D70696C6564206F6E203D200048
:10E130004350552054797065202020203D20005FF9
:10E140005F4156525F415243485F5F3D2000415658
:10E1500052204C696243205665723D20004743437C
:10E160002056657273696F6E203D20004350552024
:10E1700049442020202020203D20004C6F7720663D
:10E18000757365202020203D20004869676820665F
:10E190007573652020203D200045787420667573D6
:10E1A00065202020203D20004C6F636B2066757336
:10E1B000652020203D20004D617220203720323024
:10E1C000313300312E362E3800342E332E350056A2
:10E1D00023202020414444522020206F7020636F70
:10E1E00064652020202020696E73747275637469E1
:10E1F0006F6E2061646472202020496E74657272B3
:10E20000757074006E6F20766563746F7200726A49
:10E210006D702020006A6D70200057686174207056
:10E220006F72743A00506F7274206E6F7420737541
:10E2300070706F72746564004D7573742062652030
:10E2400061206C6574746572002000577269747483
:10E25000696E672045450052656164696E672045B7
:10E26000450045452065727220636E743D00504F35
:10E27000525400303D5A65726F2061646472003FF1
:10E280003D43505520737461747300403D454550C3
:10E29000524F4D207465737400423D426C696E6B41
:10E2A000204C454400453D44756D70204545505215
:10E2B0004F4D00463D44756D7020464C415348001B
:10E2C000483D48656C70004C3D4C69737420492F83
:10E2D0004F20506F72747300513D51756974005234
:10E2E0003D44756D702052414D00563D73686F7707
:10E2F00020696E7465727275707420566563746FF0
:10E30000727300593D506F727420626C696E6B00BD
:10E310002A0011241FBECFEFD1E2DEBFCDBF01E046
:10E320000CBF12E0A0E0B2E0EEE1FDEF03E00BBFB6
:10E3300002C007900D92A030B107D9F712E0A0E01B
:10E34000B2E001C01D92AE30B107E1F70F9460F367
:10E350000D948DFE01E20EBF0FEF0DBF11241FBE05
:10E360000D9460F30D9400F020E030E040ED57E0B4
:10E3700005C0FA013197F1F72F5F3F4F2817390792
:10E38000C0F308959C01260F311DC901A0E0B0E043
:10E390002F5F3F4FABBFFC018791882361F08093D3
:10E3A000C6008091C00086FFFCCF8091C0008064D1
:10E3B0008093C000EACF08958DE08093C6008091DD
:10E3C000C00086FFFCCF8091C00080648093C000B5
:10E3D0008AE08093C6008091C00086FFFCCF8091C8
:10E3E000C00080648093C00008950F94C2F10F9420
:10E3F000DCF10895FC019081992359F09093C600B7
:10E400008091C00086FFFCCF8091C0008064809323
:10E41000C0003196992379F70895282F982F929567
:10E420009F70892F805D8A3308F0895F8093C600D2
:10E430008091C00086FFFCCF8091C00080648093F3
:10E44000C000822F8F70982F905D9A3308F0995FEB
:10E450009093C6008091C00086FFFCCF8091C000E1
:10E4600080648093C00008959C01FB01853691056E
:10E470001CF46330710594F0C90164E670E00F94F8
:10E480002EFE605D7F4F6093C6008091C00086FFC6
:10E49000FCCF8091C00080648093C0002B30310598
:10E4A00014F43297B4F0C90164E670E00F942EFEC4
:10E4B0006AE070E00F942EFE605D7F4F6093C600AF
:10E4C0008091C00086FFFCCF8091C0008064809363
:10E4D000C000C9016AE070E00F942EFEC0968093E0
:10E4E000C6008091C00086FFFCCF8091C000806490
:10E4F0008093C00008951F93182F8EE692EE60E07F
:10E500000F94C2F11093C6008091C00086FFFCCF2B
:10E510008091C00080648093C0000F94DCF11F9153
:10E5200008952F923F924F925F926F927F928F92B7
:10E530009F92AF92BF92CF92DF92EF92FF920F9392
:10E540001F93DF93CF93CDB7DEB762970FB6F894E2
:10E55000DEBF0FBECDBF382E622ECA01DB015C01CB
:10E560006D01772420E2222E2E010894411C511CBB
:10E570008BC081E0A81680E0B80681E0C80680E084
:10E58000D80628F0C601AA27BB270F940DF2BB2797
:10E59000AD2D9C2D8B2D0F940DF28A2D0F940DF225
:10E5A0002092C6008091C00086FFFCCF8091C00001
:10E5B00080648093C0009DE29093C6008091C0006B
:10E5C00086FFFCCF8091C00080648093C0002092C1
:10E5D000C6008091C00086FFFCCF8091C00080649F
:10E5E0008093C00019828601750188249924A1E0D6
:10E5F0003A1651F03A1620F0B2E03B1661F409C029
:10E600000BBFF701779007C0C7010F9477FE782EF4
:10E6100002C0F7017080872D0F940DF22092C60082
:10E620008091C00086FFFCCF8091C0008064809301
:10E63000C000872D8052F401EF70F0708F3520F408
:10E64000E40DF51D708204C0E40DF51D8EE280839B
:10E650000894E11CF11C011D111D0894811C911CE2
:10E6600090E18916910409F0C2CF80E190E0A0E02A
:10E67000B0E0A80EB91ECA1EDB1E198AC2010F9493
:10E68000FAF10F94DCF16A94662009F072CF629679
:10E690000FB6F894DEBF0FBECDBFCF91DF911F91B3
:10E6A0000F91FF90EF90DF90CF90BF90AF909F9031
:10E6B0008F907F906F905F904F903F902F90089534
:10E6C0002F923F924F925F926F927F928F929F9282
:10E6D000AF92BF92CF92DF92EF92FF920F931F9370
:10E6E000DF93CF93CDB7DEB7CD53D1400FB6F894BB
:10E6F000DEBF0FBECDBF01E20EBF0FEF0DBF94B75F
:10E70000F894A89514BE80916000886180936000A1
:10E7100010926000789493FF05C0E0910002F091A0
:10E7200001021995279A2F9A8091C00082608093E8
:10E73000C00080E18093C40088E18093C1000000A4
:10E74000EE24FF24870144E0A42EB12CCC24DD2448
:10E7500024C0C5010197F1F70894E11CF11C011DCB
:10E76000111D21E2E2162EE4F20620E0020720E06D
:10E77000120718F031E0C32ED12CC801B70127ECE5
:10E780003BE140E050E00F9441FE611571058105C9
:10E79000910519F485B1805885B98091C00087FD35
:10E7A00003C0C114D104A9F2A6014F5F5F4FC25E3E
:10E7B000DE4F59834883CE51D140C25EDE4F8881FF
:10E7C0009981CE51D140019711F00D9410FEC05D9A
:10E7D000DE4F19821882C053D14060E0C15DDE4F28
:10E7E0001882CF52D14088249924C35DDE4F19820C
:10E7F0001882CD52D140C05EDE4F188219821A8233
:10E800001B82C052D140CE5CDE4F188219821A8220
:10E810001B82C253D140EE24FF2487010BBFF701B6
:10E8200007911691C45CDE4F19830883CC53D14005
:10E830000D940BFEC25EDE4F28813981CE51D1404E
:10E840002130310509F52091C600C25EDE4F1982E4
:10E850001882CE51D14022C02F5F3F4F4F4F5F4FA4
:10E86000213082E138078AE7480780E0580780F0C6
:10E87000C45CDE4FE881F981CC53D140EF5FFF4F9C
:10E8800019F0EE27FF27099420E030E040E050E047
:10E890008091C00087FFE0CF2091C600C35DDE4FAE
:10E8A00048815981CD52D1404F5F5F4FC35DDE4FEC
:10E8B00059834883CD52D140213209F063C64A3092
:10E8C000510508F05FC60894811C911C53E0851621
:10E8D000910409F059C600E010E018C081E280936D
:10E8E000C6008091C00086FFFCCF8091C00080648C
:10E8F0008093C0002F5F3F4F2931310579F70F9486
:10E90000DCF10F5F1F4F0530110519F020E030E0FA
:10E91000E5CF10920A0210920B0210920C02109294
:10E920000D02109206021092070210920802109235
:10E930000902109202021092030210920402109235
:10E9400005028FEE90EE60E00F94F5F180E191EE1C
:10E9500060E00F94C2F18091C00087FFFCCF9091DE
:10E96000C600903608F09F759032B8F09093C600BC
:10E970008091C00086FFFCCF8091C00080648093AE
:10E98000C000A0E2A093C6008091C00086FFFCCF2B
:10E990008091C00080648093C000983409F4D7C18E
:10E9A0009934B8F4923409F459C1933458F490333B
:10E9B00019F1903308F4E3C59F33A1F1903409F0C5
:10E9C000DEC5BDC0953409F470C1963409F0D7C5D1
:10E9D00098C1923509F42BC2933538F49C3409F46C
:10E9E000F5C1913509F0CBC518C2963509F445C279
:10E9F000993509F0C4C567C483E792EE62E00F94CD
:10EA0000F5F110920602109207021092080210927D
:10EA1000090210920A0210920B0210920C0210923C
:10EA20000D0213C18FE792EE62E00F94F5F18FEEC5
:10EA300090EE60E00F94F5F181E291EE60E00F94CA
:10EA4000C2F187EB91EE60E00F94F5F180E391EE77
:10EA500060E00F94C2F184EE90EE60E00F94F5F167
:10EA60008FE391EE60E00F94C2F186E090E061E008
:10EA700070E00F9434F20F94DCF18DE591EE60E0DC
:10EA80000F94C2F189EC91EE60E00F94F5F18EE401
:10EA900091EE60E00F94C2F183EC91EE60E00F9490
:10EAA000F5F18CE691EE60E00F94C2F18EE10F94E7
:10EAB0000DF288E90F940DF281E00F940DF20F949E
:10EAC000DCF18BE791EE60E00F94C2F119E0E0E039
:10EAD000F0E010935700E4918E2F0F940DF20F94F5
:10EAE000DCF18AE891EE60E00F94C2F1E3E0F0E03F
:10EAF00010935700E4918E2F0F940DF20F94DCF1D8
:10EB000089E991EE60E00F94C2F1E2E0F0E0109349
:10EB10005700E4918E2F0F940DF20F94DCF188EAE8
:10EB200091EE60E00F94C2F1E1E0F0E01093570045
:10EB30001491812F0F940DF20F94DCF107CF8BE825
:10EB400092EE62E00F94F5F18BE492EE60E00F94A8
:10EB5000F5F10F94DCF100E010E019C0C8016F2D51
:10EB60000F947FFEFF2031F489E492EE60E00F9471
:10EB7000C2F10BC0F092C6008091C00086FFFCCFAE
:10EB80008091C00080648093C0000F5F1F4FC80158
:10EB900081519F41A0E0B0E0ABBFFC01F790BAE229
:10EBA000FB1621F0E2E000301E07C1F60F94DCF105
:10EBB0000F94DCF187E592EE60E00F94F5F10F948D
:10EBC000DCF1CC24DD2400E010E01EC0C8010F946D
:10EBD00077FEF82E882331F489E492EE60E00F94FA
:10EBE000C2F10BC08093C6008091C00086FFFCCFAD
:10EBF0008091C00080648093C000FE1419F00894D6
:10EC0000C11CD11C0F5F1F4FC80181519F41A0E063
:10EC1000B0E0ABBFFC01E790FAE2EF1621F022E092
:10EC20000030120799F60F94DCF10F94DCF182E6C4
:10EC300092EE60E00F94C2F1C60161E070E00F94C3
:10EC400034F20F94DCF10F94DCF110920202109276
:10EC50000302109204021092050278CE89E992EE26
:10EC600062E00F94F5F1279A2F9A16C02F9880E052
:10EC700090E0E0EDF7E03197F1F7019684369105E9
:10EC8000C1F72F9A80E090E0E0EDF7E03197F1F7DF
:10EC9000019684369105C1F78091C00087FFE6CFC9
:10ECA0008091C00087FFFCCF64C485EA92EE62E0E9
:10ECB0000F94F5F140910202509103026091040219
:10ECC0007091050281E020E10F9491F2809102029F
:10ECD00090910302A0910402B091050280509F4FD1
:10ECE000AF4FBF4F8093020290930302A0930402A0
:10ECF000B093050280509041A040B04008F426CE69
:10ED0000A4CF83EB92EE62E00F94F5F140910602FE
:10ED100050910702609108027091090280E020E1A1
:10ED20000F9491F28091060290910702A09108023F
:10ED3000B091090280509F4FAF4FBF4F80930602A2
:10ED400090930702A0930802B0930902FFCD80ECD4
:10ED500092EE62E00F94F5F183E792EE60E00F949B
:10ED6000F5F18FE792EE60E00F94F5F18BE892EE0B
:10ED700060E00F94F5F189E992EE60E00F94F5F10F
:10ED800085EA92EE60E00F94F5F183EB92EE60E09D
:10ED90000F94F5F180EC92EE60E00F94F5F187ECC2
:10EDA00092EE60E00F94F5F188ED92EE60E00F9442
:10EDB000F5F18FED92EE60E00F94F5F18AEE92EEB0
:10EDC00060E00F94F5F183E093EEBDCD87EC92EE19
:10EDD00062E00F94F5F181E40F947BF282E40F94EA
:10EDE0007BF283E40F947BF284E40F947BF285E45E
:10EDF0000F947BF286E40F947BF287E40F947BF20E
:10EE000088E40F947BF28AE40F947BF28BE40F94F6
:10EE10007BF28CE40F947BF299CD88ED92EE62E068
:10EE20000F94F5F1772473948824992409C48FED05
:10EE300092EE62E00F94F5F140910A0250910B02BC
:10EE400060910C0270910D0282E020E10F9491F22A
:10EE500080910A0290910B02A0910C02B0910D02D8
:10EE600080509F4FAF4FBF4F80930A0290930B0289
:10EE7000A0930C02B0930D0269CD8AEE92EE62E08F
:10EE80000F94F5F184EE90EE60E00F94F5F18FECC5
:10EE900091EE60E00F94F5F1662477244301CC5D98
:10EEA000DE4F19821882C452D140D401C301B695F5
:10EEB000A79597958795CA5DDE4F88839983AA8326
:10EEC000BB83C652D140CC5DDE4FA881B981C4520C
:10EED000D1401196CC5DDE4FB983A883C452D14096
:10EEE000CD0162E070E00F9434F2B0E2B093C6005E
:10EEF0008091C00086FFFCCF8091C0008064809329
:10EF0000C000EDE2E093C6008091C00086FFFCCF18
:10EF10008091C00080648093C000F0E2F093C6004E
:10EF20008091C00086FFFCCF8091C00080648093F8
:10EF3000C000CA5DDE4FE880F9800A811B81C6529D
:10EF4000D140BB27A12F902F8F2D0F940DF2CA5DBA
:10EF5000DE4F8881C652D1400F940DF2B0E2FB2EF5
:10EF6000F092C6008091C00086FFFCCF8091C00067
:10EF700080648093C0000DE30093C6008091C000C0
:10EF800086FFFCCF8091C00080648093C00010E2B7
:10EF90001093C6008091C00086FFFCCF8091C00016
:10EFA00080648093C0008BBEF3012791C65DDE4F65
:10EFB0002883CA52D140A22EBB24CC24DD2408943D
:10EFC000611C711C811C911C8BBEF3018791282E42
:10EFD0003324442455240894611C711C811C911C09
:10EFE0008BBEF3013791C55DDE4F3883CB52D140E4
:10EFF0000894611C711C811C911C8BBEF30147910C
:10F00000C45DDE4F4883CC52D140ADEFEA2EAFEF66
:10F01000FA2EAFEF0A2FAFEF1A2F6E0C7F1C801E57
:10F02000911E142D032DF22CEE24EA0CFB1C0C1D5A
:10F030001D1D0F940DF220E22093C6008091C000A8
:10F0400086FFFCCF8091C00080648093C000C65DC5
:10F05000DE4F8881CA52D1400F940DF230E23093D6
:10F06000C6008091C00086FFFCCF8091C000806404
:10F070008093C000C45DDE4F8881CC52D1400F9494
:10F080000DF240E24093C6008091C00086FFFCCFA5
:10F090008091C00080648093C000C55DDE4F888190
:10F0A000CB52D1400F940DF250E25093C6008091A4
:10F0B000C00086FFFCCF8091C00080648093C000B8
:10F0C0008FEFE8168FEFF80680E0080780E018075A
:10F0D00031F484E092EE60E00F94C2F1DFC0D80119
:10F0E000C7018070907CA070B0708050904CA040A0
:10F0F000B040D1F52FEF3FE340E050E0E222F322B1
:10F1000004231523CA5DDE4FA880B980CA80DB8046
:10F11000C652D140AE0CBF1CC01ED11EAA0CBB1CD7
:10F12000CC1CDD1C8EE092EE60E00F94C2F1BB2798
:10F13000A12F902F8F2D0F940DF28E2D0F940DF285
:10F1400030E23093C6008091C00086FFFCCF8091F2
:10F15000C00080648093C0004EE34093C60080915D
:10F16000C00086FFFCCF87C08EE09EEFA0E0B0E03D
:10F17000E822F9220A231B239CE0E91694E9F90608
:10F1800090E0090790E0190709F088C0C45DDE4FE0
:10F19000A881CC52D140EA2EFF2400E010E0102FCD
:10F1A0000F2DFE2CEE24C55DDE4FB881CB52D14031
:10F1B000EB0EF11C011D111DD601C501817090706F
:10F1C000A070B070DC0199278827E80EF91E0A1F8D
:10F1D0001B1F20EF30E040E050E0A222B322C42207
:10F1E000D52241E1AA0CBB1CCC1CDD1C4A95D1F7F1
:10F1F000EA0CFB1C0C1D1D1D81E090E0A0E0B0E0BE
:10F20000282239224A225B2235E1220C331C441C7D
:10F21000551C3A95D1F7E20CF31C041D151D57013E
:10F220006801AA0CBB1CCC1CDD1C85E192EE60E0E1
:10F230000F94C2F1C801AA27BB270F940DF2BB2778
:10F24000A12F902F8F2D0F940DF28E2D0F940DF274
:10F2500090E29093C6008091C00086FFFCCF809121
:10F26000C00080648093C000AEE3A093C60080918C
:10F27000C00086FFFCCF8091C00080648093C000F6
:10F28000C601AA27BB270F940DF2BB27AD2D9C2DDD
:10F290008B2D0F940DF28A2D0F940DF20F94DCF14B
:10F2A000CC5DDE4FE881F981C452D140F99709F471
:10F2B0004DCBF4E0EF2EF12C012D112D6E0C7F1CA7
:10F2C000801E911EF2CD83E093EE62E00F94F5F183
:10F2D0008AE192EE60E00F94C2F18091C00087FF56
:10F2E000FCCF1091C6001F751093C6008091C0001E
:10F2F00086FFFCCF8091C00080648093C0000F9493
:10F30000DCF1812F81548A3108F036C1163409F4BA
:10F3100095C0173490F4133409F44EC0143430F40B
:10F320001134F1F0123409F01DC130C0143409F465
:10F3300059C0153409F016C16BC01A3409F4C4C0A1
:10F340001B3438F4173409F48FC0183409F00AC19B
:10F35000A1C01B3409F4D2C01C3409F003C1E8C0B9
:10F360008FEF81B90DC082B1809582B980E090E0C5
:10F37000E0EDF7E03197F1F70196883C9105C1F790
:10F380008091C00087FFEFCF12B8EFC08FEF84B934
:10F390000DC085B1809585B980E090E0E0EDF7E0A3
:10F3A0003197F1F70196883C9105C1F78091C00033
:10F3B00087FFEFCF15B8D9C08FEF87B90DC088B1DF
:10F3C000809588B980E090E0E0EDF7E03197F1F7C3
:10F3D0000196883C9105C1F78091C00087FFEFCF6F
:10F3E00018B8C3C08FEF8AB90DC08BB180958BB9A7
:10F3F00080E090E0E0EDF7E03197F1F70196883C8E
:10F400009105C1F78091C00087FFEFCF1BB8ADC059
:10F410008FEF8DB90DC08EB180958EB980E090E0F0
:10F42000E0EDF7E03197F1F70196883C9105C1F7DF
:10F430008091C00087FFEFCF1EB897C08FEF80BBD1
:10F440000DC081B3809581BB80E090E0E0EDF7E0F6
:10F450003197F1F70196883C9105C1F78091C00082
:10F4600087FFEFCF11BA81C08FEF83BB0DC084B38C
:10F47000809584BB80E090E0E0EDF7E03197F1F714
:10F480000196883C9105C1F78091C00087FFEFCFBE
:10F4900014BA6BC08FEF809301010FC080910201FD
:10F4A00080958093020180E090E0E0EDF7E03197F5
:10F4B000F1F70196883C9105C1F78091C00087FF64
:10F4C000EDCF1092020151C08FEF809304010FC065
:10F4D0008091050180958093050180E090E0E0ED4A
:10F4E000F7E03197F1F70196883C9105C1F78091DB
:10F4F000C00087FFEDCF1092050137C08FEF8093DA
:10F5000007010FC08091080180958093080180E079
:10F5100090E0E0EDF7E03197F1F70196883C910536
:10F52000C1F78091C00087FFEDCF109208011DC088
:10F530008FEF80930A010FC080910B01809580931B
:10F540000B0180E090E0E0EDF7E03197F1F70196F4
:10F55000883C9105C1F78091C00087FFEDCF1092E4
:10F560000B0103C085E292EEEEC98091C00087FFD7
:10F57000FCCF8091C600EAC988E392EEE4C98CE131
:10F5800091EEE1C988249924933011F1943028F444
:10F59000913089F09230B8F408C0953061F195301F
:10F5A000F0F0963009F048C043C02B3109F042C951
:10F5B00091E06BE13FC96227C15DDE4F2883CF52E6
:10F5C000D14092E037C9B22FA0E0622793E032C960
:10F5D000822F90E0A82BB92B622794E02BC92E3004
:10F5E00009F039C3622795E0C05DDE4F19821882A9
:10F5F000C053D1401FC9E1E0F0E0EC0FFD1FC05D3A
:10F60000DE4F08811981C053D140E00FF11F2083E4
:10F610000F5F1F4FC05DDE4F19830883C053D14079
:10F6200062270A171B0709F005C9D80196E002C92D
:10F63000261709F010C303C0973009F0FBC87724E0
:10F640009981933109F412C19431C8F4963009F4C8
:10F65000D8C0973050F4923009F406C1933009F4C1
:10F660006DC0913009F059C253C0913109F477C08F
:10F67000923108F0BBC0903109F04FC2F5C098310B
:10F6800009F487C0993150F4953109F4EFC09531F0
:10F6900008F4C6C1963109F040C2C2C19A3109F4DA
:10F6A0006CC09A3108F491C09B3109F45BC09D3164
:10F6B00009F033C29D81903359F48F81882311F46E
:10F6C0009EE11CC0813011F091E018C098E916C08D
:10F6D000892F807591F0903539F4E0E0F0E089E011
:10F6E0008093570094910AC0983539F4E3E0F0E034
:10F6F00089E080935700949101C090E01A821B82A8
:10F700008D818C831D829E831F8227E030E009C299
:10F710001A8288E08B8381E48C8386E58D8382E581
:10F720008E8389E48F8383E5888780E589878FE5E9
:10F730008A8782E38B872BE030E0F3C18A818139AD
:10F7400041F0823941F0803911F48FE005C080E04A
:10F7500003C082E001C08AE01A828B8344C0772410
:10F76000739482C08D81882311F48EE12CC0813086
:10F7700011F081E028C088E926C01A82E1E0F0E0BB
:10F7800089E08093570084918B831C8224E030E0D1
:10F79000C8C18B81803589F48C81883039F4E2E0EE
:10F7A000F0E089E08093570084910DC0E0E0F0E044
:10F7B00089E080935700849106C0E3E0F0E089E09F
:10F7C0008093570084911A82DFCF8D81836C99E0FA
:10F7D000E1E0F0E0082E90935700E89507B600FCB2
:10F7E000FDCF1A821B8223E030E09BC180EC8A832C
:10F7F000CE5CDE4F188219821A821B82C253D1401E
:10F800008EC18A8190E0A0E0B0E0582F44273327D2
:10F8100022278B8190E0A0E0B0E0DC0199278827C7
:10F82000282B392B4A2B5B2B8D8190E0A0E0B0E098
:10F83000282B392B4A2B5B2B8C8190E0A0E0B0E089
:10F84000BA2FA92F982F8827282B392B4A2B5B2BCF
:10F85000220F331F441F551FC05EDE4F288339839C
:10F860004A835B83C052D1401A8259C13A81C95C34
:10F87000DE4F3883C753D140CA5CDE4F1882C6536F
:10F88000D1408B81C82EDD24CA5CDE4F488159816E
:10F89000C653D140C42AD52A933109F082C0CE5C28
:10F8A000DE4F88819981AA81BB81C253D1408050AB
:10F8B000904CA340B04030F583E0CE5CDE4FE88052
:10F8C000F9800A811B81C253D140F70100935B008C
:10F8D00080935700E89507B600FCFDCFCE5CDE4F65
:10F8E000088119812A813B81C253D14000501F4FAA
:10F8F0002F4F3F4FCE5CDE4F088319832A833B8313
:10F90000C253D140C05EDE4F488159816A817B81FC
:10F91000C052D140DE011B9631E08C9111962C91A2
:10F9200011971296C75CDE4F2883C953D140C85C3B
:10F93000DE4F1882C853D14090E0C85CDE4FE881AA
:10F94000F981C853D1408E2B9F2B0C01FA01609393
:10F950005B0030935700E89511244E5F5F4F6F4F67
:10F960007F4F0EEFE02E0FEFF02ECE0CDF1CC114F8
:10F97000D10499F685E0C05EDE4F088119812A81A5
:10F980003B81C052D140F80120935B008093570027
:10F99000E89507B600FCFDCF81E180935700E8951C
:10F9A00035C0C05EDE4F88819981AA81BB81C0527B
:10F9B000D140B695A795979587957C018601ABE0D8
:10F9C000AA2EB12CAC0EBD1E0BC0D5016D915D01F0
:10F9D000C7010F947FFE0894E11CF11C01501040F8
:10F9E0000115110591F7A60160E070E0440F551F65
:10F9F000661F771FC05EDE4FE880F9800A811B8199
:10FA0000C052D1404E0D5F1D601F711F1A82C05E33
:10FA1000DE4F488359836A837B83C052D1407FC0C5
:10FA2000FA80C55CDE4FF882CB53D140C65CDE4F16
:10FA30001882CA53D1408B81C82EDD24C65CDE4FAC
:10FA400008811981CA53D140C02AD12A1A828981DA
:10FA5000BE016D5F7F4F843121F59601C05EDE4FA0
:10FA6000E880F9800A811B81C052D1400BBFF701A9
:10FA700087919691DB018C9311969C936E5F7F4FDB
:10FA8000D801C7010296A11DB11DC05EDE4F88835B
:10FA90009983AA83BB83C052D14022503040F1F6F3
:10FAA00036C0C05EDE4F288139814A815B81C052F9
:10FAB000D1400894C108D108760100E010E0089414
:10FAC000C11CD11C0894E11CF11C011D111DE20E8A
:10FAD000F31E041F151F21BDBB27A52F942F832FB5
:10FAE00082BD2F5F3F4F4F4F5F4FF89A80B5DB01CC
:10FAF0008D93BD012E153F054007510761F7C05E8C
:10FB0000DE4F288339834A835B83C052D1409601FC
:10FB10002D5F3F4FFB01108204C080EC8A8322E0FE
:10FB200030E08BE18093C6008091C00086FFFCCF5F
:10FB30008091C00080648093C000C15DDE4FF88179
:10FB4000CF52D140F093C6008091C00086FFFCCF19
:10FB50008091C00080648093C000432F3093C60022
:10FB60008091C00086FFFCCF8091C00080648093AC
:10FB7000C000922F2093C6008091C00086FFFCCF6A
:10FB80008091C00080648093C0008EE08093C600A6
:10FB90008091C00086FFFCCF8091C000806480937C
:10FBA000C00065E1C15DDE4FE880CF52D1406E25D7
:10FBB00069276427FE01319610C090819093C6009A
:10FBC0008091C00086FFFCCF31968091C000806498
:10FBD0008093C0006927215030402115310569F715
:10FBE0006093C6008091C00086FFFCCF8091C0006A
:10FBF00080648093C00085B1805885B9772081F4F6
:10FC0000C15DDE4F0881CF52D1400F5FC15DDE4F35
:10FC10000883CF52D14090E0A0E0B0E00D941AF4F8
:10FC200027982F9880E090E020ED37E0F901319798
:10FC3000F1F7019684369105C9F700008091C00064
:10FC40008D7F8093C00081E180935700E895EE2777
:10FC5000FF270994FFCF90E00D941AF497FB092E2B
:10FC600007260AD077FD04D02ED006D000201AF443
:10FC7000709561957F4F0895F6F7909581959F4F08
:10FC80000895A1E21A2EAA1BBB1BFD010DC0AA1FDD
:10FC9000BB1FEE1FFF1FA217B307E407F50720F0F5
:10FCA000A21BB30BE40BF50B661F771F881F991F70
:10FCB0001A9469F760957095809590959B01AC01B9
:10FCC000BD01CF010895AA1BBB1B51E107C0AA1FAC
:10FCD000BB1FA617B70710F0A61BB70B881F991FED
:10FCE0005A95A9F780959095BC01CD010895F99991
:10FCF000FECF92BD81BDF89A992780B50895262F31
:10FD0000F999FECF1FBA92BD81BD20BD0FB6F89400
:0EFD1000FA9AF99A0FBE01960895F894FFCF63
:00000001FF
