:020000040000FA
:100000000C9472000C9493000C9493000C942907A8
:100010000C9417070C944D070C943B070C94930019
:100020000C9493000C9493000C9493000C94930004
:100030000C9493000C9485060C9493000C949300FC
:100040000C9493000C9493000C9493000C949300E4
:100050000C9493000C9493000C9493000C940B0656
:100060000C9493000C9455060C9493000C949300FC
:100070000C9493000C9493000C9493000C949300B4
:100080000C9493000C9493000C9493000C949300A4
:100090000C9493000C9493000C9493000C94930094
:1000A0000C9493000C9493000C9493000C94930084
:1000B0000C9493000C9493000C9493000C94930074
:1000C0000C9493000C9493000C9493000C94930064
:1000D0000C9493000C9493000C9493000C94930054
:1000E0000C94930011241FBECFEFD1E2DEBFCDBF31
:1000F00000E00CBF19E0A0E0B2E0ECECF6E200E0BA
:100100000BBF02C007900D92AA35B107D9F729E0BD
:10011000AAE5B9E001C01D92A63EB207E1F70E9430
:1001200082070C9464130C94000081E480937C009B
:1001300080917B00886080937B0080917A0080644E
:1001400080937A0080917A0086FDFCCF80917800C0
:100150009091790020E180E090E0DC0130917A001C
:10016000306430937A0030917A0036FDFCCF4091B4
:10017000780050917900840F951FA11DB11D215069
:1001800069F724E0B695A795979587952A95D1F7B5
:1001900008959091C00095FFFCCF8093C60008950C
:1001A0008DE00E94C9008AE00C94C9000F931F9350
:1001B000CF93DF9300D000D01F92CDB7DEB730E0F1
:1001C0000AE010E0009769F480E327960FB6F894F0
:1001D000DEBF0FBECDBFDF91CF911F910F910C9469
:1001E000C90021E0230FE1E0F0E0EC0FFD1FE30F79
:1001F000F11D37FDFA95B8010E94D812805D808309
:10020000CB01322F009769F712166CF41FEF120F13
:10021000E1E0F0E0EC0FFD1FE10FF11D80810E9495
:10022000C900212FF1CF27960FB6F894DEBF0FBE7D
:10023000CDBFDF91CF911F910F910895CF93DF93A1
:10024000EC018991882319F00E94C900FACFDF914F
:10025000CF9108958EBD0DB407FEFDCF8EB50895E4
:100260008B3008F08AE08093C7099091C6099130DD
:1002700051F4E82FF0E0EC5FFD4F808190E0909327
:1002800099008093980008958B3008F08AE080935D
:10029000C709E82FF0E0EC5FFD4F808190E090937C
:1002A00099008093980080910201806480930201FC
:1002B00081E08093C60908952898880F81600E9484
:1002C0002A0180E00E942A01289A0895CF93C62F20
:1002D0002898880F0E942A018C2F0E942A01289AB0
:1002E000CF9108950F931F93CF93DF93162F082F6D
:1002F000EC01699189E00E9466018C2F801B8117B7
:10030000C0F3DF91CF911F910F910895CF93DF93A9
:1003100060E088E00E94660160E88AE00E94660171
:1003200066E083E392E00E94720164E082EE99E06D
:100330000E9472016EE081E00E94660160E08DE043
:100340000E946601C9EBDBE084E00E945C018371DE
:1003500021F42197C9F780E00CC088E00E945C017D
:1003600083FFF9CF86E00E945C01982F9B7181E0AA
:1003700091F7DF91CF910895EF92FF920F931F9322
:10038000CF93DF931F92CDB7DEB77C0160E88AE0A0
:100390000E94660186E2898361E0CE0101960E9497
:1003A000720167E08DE00E94660160E884E00E94CF
:1003B00066016CE081E00E94660167E88DE00E94C2
:1003C000660109EB1BE084E00E945C01817329F463
:1003D00001501109C1F780E013C086E00E945C0162
:1003E0008B71C9F78AE00E945C01182F882329F0DD
:1003F00089E00E945C01F701808381E0112359F3B9
:100400000F90DF91CF911F910F91FF90EF90089582
:10041000CF92DF92EF92FF920F931F93CF93DF93D0
:10042000EC01162F7A01690160E88AE00E946601FA
:10043000612FCE010E94720160E08DE00E94660192
:1004400060E884E00E9466016CE081E00E94660141
:1004500060E88DE00E946601C9EBDBE084E00E9469
:100460005C01817361F42197C9F780E0DF91CF913E
:100470001F910F91FF90EF90DF90CF90089586E04D
:100480000E945C018B7189F78AE00E945C018823DD
:10049000C9F0E114F104B1F0C114D10499F0F601EE
:1004A0001081811708F4182F0E2DCE2DDF2D8C2FE3
:1004B000801B811728F489E00E945C018993F7CFA3
:1004C000F601108381E0D2CFEF92FF920F931F933A
:1004D000CF93DF93CDB7DEB7A5970FB6F894DEBF05
:1004E0000FBECDBFE82E0E948601982F8823A1F170
:1004F00080E38BA384E0F82EFCA280E18DA38E0123
:100500000D5D1F4F9E012B5D3F4FAE014D5E5F4F56
:1005100062E0C8010E940802982F8823E9F08DA1AB
:100520008031C8F0EB8A80EA8983FA82FE017396F3
:10053000DE01139681918D93E017F107D9F730E032
:1005400020E050E040E062E1CE0101960E94080206
:1005500091E0811101C090E0892FA5960FB6F89423
:10056000DEBF0FBECDBFDF91CF911F910F91FF90E6
:10057000EF9008950F931F93CF93DF93CDB7DEB71E
:1005800063970FB6F894DEBF0FBECDBF8C010E94FB
:1005900086018823D1F080E3898B84E08A8B80E117
:1005A0008B8B9E012D5E3F4FAE014F5F5F4F62E030
:1005B000CE0141960E940802882339F08B89882356
:1005C00021F08981F801808381E063960FB6F89469
:1005D000DEBF0FBECDBFDF91CF911F910F91089568
:1005E0008B3098F08AE08093C509909180009068E4
:1005F00090938000E82FF0E0EC5FFD4F808190E069
:10060000909389008093880008958093C509811193
:10061000ECCF809180008F77809380002D9810928E
:100620008900109288000895FC018081813351F483
:100630008181823339F48281833321F481E0938193
:10064000943309F080E008951092CB092E982F98EA
:100650008DB3837F8DBB109284091092850910920F
:10066000CC091092C409089581E08093CB092E9A99
:100670008DB38C608DBB109284090895FC0180E0DD
:100680002AE0919130ED390F3A3030F4829F900D8D
:10069000112480ED890FF5CF0895CF92DF92EF926C
:1006A000FF920F931F93CF9310E000E0C0E0C801CA
:1006B0000E94C2128F3F01F182EEE82E89E0F82EEF
:1006C000C801825E99406C01C6018E0D9F1D0E947B
:1006D000C212F70191917F0189130EC0F6EEEF1659
:1006E000F9E0FF0689F78C2FCF911F910F91FF90B2
:1006F000EF90DF90CF900895CF5F0B5F1F4FCA3010
:10070000B1F6CFEFF0CF5F926F927F928F929F9270
:10071000AF92BF92CF92DF92EF92FF920F931F930F
:10072000CF93DF93CDB7DEB72C970FB6F894DEBF2B
:100730000FBECDBFCE0101965C01CC24DD24C81ACA
:10074000D90A00EB10E0512C3E019DE0690E711CAE
:10075000C8010E94C21281508E3F18F575014601F2
:10076000E0EB8E0E911CC4018E0D9F1D0E94C212E3
:10077000F70181937F01E615F705A9F7C8010C96EB
:100780000E94C212F82EC5010E941E0189E392E068
:100790000E941E018F2D90E00E94D6000E94D00082
:1007A0005394035F1F4FFDE0CF0ED11C023381E055
:1007B000180771F6511006C08DE392E00E941E01E9
:1007C0000E94D0002C960FB6F894DEBF0FBECDBFAE
:1007D000DF91CF911F910F91FF90EF90DF90CF901D
:1007E000BF90AF909F908F907F906F905F90089593
:1007F00092B19F7092B992B140E1849F900111240F
:10080000922B92B9129A85E08A95F1F7000012981E
:1008100087EC90E00197F1F700C000000895CF93B6
:10082000C82F109A82958F700E94F8038C2F8F70BA
:100830000E94F80387EC90E00197F1F700C00000F8
:10084000CF910895EF92FF920F931F93CF93DF9371
:1008500000D000D01F92CDB7DEB78C0197FF2DC01E
:100860008DE20E940F0411950195110980E09AE034
:10087000E92EF12C21E0280FE1E0F0E0EC0FFD1F64
:10088000E80FF11D87FDFA95C801B7010E94D81243
:10089000805D80838B01822F672B61F71216F4F441
:1008A0001FEF120FE1E0F0E0EC0FFD1FE10FF11D73
:1008B00080810E940F04212FF1CF892BB9F680E3AC
:1008C00027960FB6F894DEBF0FBECDBFDF91CF9154
:1008D0001F910F91FF90EF900C940F0427960FB685
:1008E000F894DEBF0FBECDBFDF91CF911F910F9166
:1008F000FF90EF900895CF93DF93EC0189918823C7
:1009000019F00E940F04FACFDF91CF910895CF9391
:10091000C82F109882958F700E94F8038C2F8F70CB
:100920000E94F80387EC90E00197F1F700C0000007
:10093000CF910895CF9380E80E948704C0E0E091B2
:10094000CE09EC0F8091CD09E81758F4F0E0E65A93
:10095000F64F80810E940F04CF5FC03181F7CF91A5
:10096000089580E2F7CF8091C4098F5F8093C40916
:10097000833058F480E80E94870489E492E00E9462
:100980007B048BE592E00C941E0182E08093CB09FE
:1009900083E08093CC092F9A1092C40980E80E94CA
:1009A000870488E692E00E947B0489E792E0EBCF1F
:1009B0004F925F926F927F928F929F92AF92BF926F
:1009C000CF92DF92EF92FF920F931F93CF93DF931B
:1009D000CDB7DEB72C970FB6F894DEBF0FBECDBFF4
:1009E0002C01CE0101966C01EE24FF24E81AF90ACD
:1009F00080EB682E712C5E019DE0A90EB11C860172
:100A00004701E0EB8E0E911CC401800F911F0E94E4
:100A1000C212F80181938F01EA15FB05A9F74BE09B
:100A200050E0B201C6010E945613892B61F4C30144
:100A30000E94C21281508E3F20F460E0C3010E94E8
:100A4000CA1281E00CC0FDE06F0E711C8DE0E80E53
:100A5000F11C92E3691691E0790689F680E02C9604
:100A60000FB6F894DEBF0FBECDBFDF91CF911F91BF
:100A70000F91FF90EF90DF90CF90BF90AF909F903D
:100A80008F907F906F905F904F9008953F924F921C
:100A90005F926F927F928F929F92AF92BF92CF920E
:100AA000DF92EF92FF920F931F93CF93DF93CDB717
:100AB000DEB72C970FB6F894DEBF0FBECDBF482E21
:100AC000392E562ECE0101965C01CC24DD24C81AA5
:100AD000D90A00EB10E03E019DE0690E711C750122
:100AE000460180EB880E911CC4018E0D9F1D0E9453
:100AF000C212F70181937F01E615F705A9F74BE0D4
:100B000050E0642D732DC5010E945613892B09F006
:100B10003FC0045F1F4FC8010E94C212851521F01B
:100B2000652DC8010E94CA1282E012C07C0160E0FB
:100B3000C7010E94CA12B3949FEFE91AF90AECE0C8
:100B4000BE12F5CF652DC8010C960E94CA1281E035
:100B50002C960FB6F894DEBF0FBECDBFDF91CF91BC
:100B60001F910F91FF90EF90DF90CF90BF90AF90CB
:100B70009F908F907F906F905F904F903F900895DF
:100B8000035F1F4F0233F1E01F0771F480E0E0CFF5
:100B9000035F1F4FFDE0CF0ED11C023381E0180729
:100BA00009F09DCF00EB10E0C8010E94C2128150F5
:100BB0008E3F30F3E42CF32CD12CC12CBC2CF7014C
:100BC00061917F01C8018C0D9D1D662309F4AECF94
:100BD0000E94CA12FFEFCF1ADF0A8BE0C816D104B9
:100BE00069F760E0C8010B960E94CA12ABCF1F9351
:100BF000CF93DF93EC01162F0E94C212811739F0B8
:100C0000612FCE01DF91CF911F910C94CA12DF9119
:100C1000CF911F9108951F920F920FB60F9211243A
:100C20002F933F938F939F93AF93BF938091DE0950
:100C30009091DF09A091E009B091E1093091DD09BF
:100C400023E0230F2D3758F50196A11DB11D2093E8
:100C5000DD098093DE099093DF09A093E009B0934A
:100C6000E1098091D9099091DA09A091DB09B0914D
:100C7000DC090196A11DB11D8093D9099093DA0971
:100C8000A093DB09B093DC09BF91AF919F918F9145
:100C90003F912F910F900FBE0F901F90189526E84F
:100CA000230F0296A11DB11DD2CF1F920F920FB636
:100CB0000F9211240BB60F922F938F939F93EF9364
:100CC000FF939091C6008091C00085FFFCCF909368
:100CD000C6008091A2098F5F8F712091C3092817E8
:100CE00041F0E091A209F0E0ED55F64F908380933A
:100CF000A209FF91EF919F918F912F910F900BBEC1
:100D00000F900FBE0F901F9018951F920F920FB665
:100D10000F9211240BB60F922F933F934F935F9333
:100D20006F937F938F939F93AF93BF93CF93DF93F3
:100D3000EF93FF9330E020E0A1E0B0E07FE0622F8E
:100D4000CD01022E01C0880F0A94EAF7872780930D
:100D50000B018AE68A95F1F700C086B180958F7005
:100D600091F050E040E090E0E42FEC01042E02C04E
:100D7000D595C7950A94E2F7C0FD55C04F5F5F4F08
:100D80004430510589F72F5F3F4F24303105B9F6C4
:100D9000EFEF809101028E1341C0809183098F3F54
:100DA00029F0809183098F5F809383098091830963
:100DB0008230F9F4809100028E17D9F0E09300029E
:100DC000EF3FB9F080918909811113C08E2F86956C
:100DD0008695E37024E0829FC0011124815F9D4FBE
:100DE000E80FF92FF11D80818093880981E08093BD
:100DF0008909FF91EF91DF91CF91BF91AF919F91C1
:100E00008F917F916F915F914F913F912F910F90B3
:100E10000BBE0F900FBE0F901F901895E09301022C
:100E200010928309C3CFEE0FEE0FE60FB2CF1F92E1
:100E30000F920FB60F9211248F9381E08093840953
:100E400084E0809382098F910F900FBE0F901F90C6
:100E500018951F920F920FB60F9211248F9381E075
:100E60008093840983E0809382098F910F900FBE55
:100E70000F901F9018951F920F920FB60F9211248A
:100E80008F9381E08093850982E0809382098F911E
:100E90000F900FBE0F901F9018951F920F920FB6D4
:100EA0000F9211248F9381E08093850980938209AA
:100EB0008F910F900FBE0F901F901895DC01EAE5FF
:100EC000F9E090E02D91222329F0973219F0219337
:100ED0009F5FF8CFE92FF0E0E65AF64F108290932B
:100EE000CD091092CE091092D0091092CF090E941C
:100EF0009A0481E09091CD09913108F480E08093CB
:100F0000D8090895CF93DF93CDB7DEB7AD970FB66D
:100F1000F894DEBF0FBECDBF789484B5826084BDE7
:100F200084B5816084BD85B5826085BD85B58160ED
:100F300085BD80916E00816080936E00109281006B
:100F40008091810082608093810080918100816026
:100F500080938100809180008160809380008091E7
:100F6000B10084608093B1008091B0008160809373
:100F7000B0008091910082608093910080919100F7
:100F800081608093910080919000816080939000B7
:100F90008091A10082608093A1008091A100816076
:100FA0008093A1008091A00081608093A000809137
:100FB00021018260809321018091210181608093D1
:100FC00021018091200181608093200180917A002D
:100FD000846080937A0080917A00826080937A00A6
:100FE00080917A00816080937A0080917A00806895
:100FF00080937A001092C1008FEF81B912B82FEF61
:1010000040E782E0215040408040E1F700C000000E
:10101000109883E00E94F803EFE1FEE43197F1F7C6
:1010200000C0000083E00E94F80387E592E001978A
:10103000F1F700C0000083E00E94F803E7ECF0E065
:101040003197F1F700C0000082E00E94F80387ECBE
:1010500090E00197F1F700C0000088E20E94870449
:101060008CE00E94870486E00E94870481E00E9451
:101070008704EFE3FFE13197F1F700C000008091B2
:101080000A018F6080930A0180910B018F60809329
:101090000B0187B1807F87B988B18F6088B982E002
:1010A0008093B00095E09093B1009BE99093B300DA
:1010B0008093700010928809109289091092C500DF
:1010C00087E68093C4001092C00088E98093C10035
:1010D00086E08093C2001092A2091092C30984B1E5
:1010E000806C84B985B18F7385B980EF8093690076
:1010F0008FE080936A0080E38DBB1092CB09109241
:101100008509109284091092CC091092C40980E4D8
:1011100080937C0010927B0087E880937A00809116
:101120007A00806480937A0080917A0086FDFCCFFB
:10113000809178009091790080910101886080937E
:10114000010182E88093A0008AE18093A1008FE3EF
:101150009CE99093A7008093A60080ED97E0909380
:10116000A9008093A80080910701886180930701FE
:1011700080910801877E80930801259A2D9881E04F
:10118000809380009AE090938100109289001092E1
:1011900088001092C509809101018062809301014D
:1011A000809102018F7D809302011092D5091092E7
:1011B000D2091092D1091092D4091092D3098091CA
:1011C0000101806480930101809102018F7B8093F3
:1011D00002016B9A81E880939000909391001092A5
:1011E0009900109298001092C6091092C70984B114
:1011F000876084B92398289A81E58CBD6FE081E0EF
:101200000E9466011CA61BA68BA59CA5883E934048
:1012100030F48BA59CA501969CA78BA7F5CF87E3FF
:101220000E945C01182F8AEC92E00E941E01812F1F
:1012300090E00E94D6000E94D0006DE88AE20E94F1
:10124000660167E08BE20E94660160E08CE20E942A
:1012500066016FE38DE20E94660184E10E945C01F9
:10126000982F937029F4682F636084E10E946601CF
:1012700010928709989AA098789481E00E94870438
:101280008FE39FE10197F1F700C0000080E80E9422
:10129000870487ED92E00E947B0480EC0E94870423
:1012A00088EE92E00E947B040E94D00089EF92E0D9
:1012B0000E941E010E94D00084E493E00E941E015F
:1012C0000E94D00085E793E00E941E010E94D0009A
:1012D00010928F09CC24CA9433E0D32EE12CF12C48
:1012E00080918509882309F44BC01092850981E01B
:1012F0008093CC092F9A8091CC091092D809813023
:1013000009F04CC080E80E94870484EF93E00E94BB
:101310007B0485E094E00E941E010E94D000809131
:101320008709813009F45CC008F445C0823009F4B3
:1013300055C180918909882309F4CDC38091890919
:101340009091A109882311F40C948B128091880943
:1013500010928809109289098A3209F05EC11092B0
:10136000030210920202992309F44AC11092A109C2
:1013700080EC0E9487048DE395E00E947B04ABC360
:1013800080918409882359F2109284098091CB09B5
:10139000813029F682E08093CB09AACF823009F010
:1013A000BECF80E80E94870485E194E00E947B0420
:1013B00086E294E0B0CF809186098F5F853018F483
:1013C00080938609B6CF10928609CE0101960E94BD
:1013D000BC01882309F4ADCF81E080938709A9CFB0
:1013E00083E989A780E28AA715E01DA79E01235DF6
:1013F0003F4FAE014F5F5F4F62E0CE0189960E9482
:101400000802882309F4F9C08DA5853008F4F5C0D9
:1014100049813A812B818C81942F93279227982799
:101420005D819513EAC04093E2093093E30920936C
:10143000E4098093E5098091CA0981110AC00E94DC
:101440004D038F3F09F099C084EE94E00E941E0185
:10145000B9C0813009F04CC00E944D038F3F09F0A4
:101460003FC010E000E0C8010E94C2128F3F99F512
:101470007090C80922EEA22E29E0B22E912C812C68
:10148000F50161915F01C801880D991D0E94F70562
:10149000FFEF8F1A9F0A24E08216910489F7672DC7
:1014A000C80104960E94F7058091C8098823D9F0E5
:1014B00087E494E00E941E011091C909812F90E0F9
:1014C0000E94D600812F0E9464020E94D0001092D8
:1014D000CA0982E082CF0B5F1F4F0233110519F654
:1014E00089E594E002C084E394E00E941E01EDCF00
:1014F000823081F40E944D038F3F49F06FEF819F4E
:10150000C00111240E94F70588E794E0EECF83E83C
:1015100094E0EBCF8330D9F60E944D038F3FB9F3AF
:10152000819FC001112404960E94C212813011F5DE
:101530001982CE0101960E94BA028823C1F08981E6
:101540001091C909180F181708F41FEF812F0E9476
:101550006402882349F087E994E00E941E01812FEC
:1015600090E00E94D600B1CF83EA94E0BECF8BEB2F
:1015700094E0BBCF8FEC94E0B8CF819FC0011124E1
:1015800004960E94C212811104C0A09A84EF94E0D4
:101590005DCF1982CE0101960E94BA028823D9F04C
:1015A00089818823A9F0815089830E94640288235D
:1015B00061F0A09A8CE095E00E941E01898190E084
:1015C0000E94D6000E94D00084CF83EA94E03ECFF0
:1015D00083E295E03BCF8BEB94E038CF8091860996
:1015E0008F5F853008F4ECCE10928609CE0101960B
:1015F0000E94BC0181119DCEA0981092870999CEBE
:1016000081E08093A1091092A0091092900980ECCA
:101610000E9487048EE495E0B0CE992309F4D2C2EB
:101620001092030210920202833209F07DC71092D9
:10163000A10980EC0E9487048FE595E00E947B045D
:1016400080E0E82FF0E0E057F64F9081992311F009
:101650008F5FF7CF823058F08091900990ED980F0E
:101660009A3028F41091910910531A3050F080E804
:101670000E94870480E795E00E947B0481E895E062
:10168000C6C080534AE0849F100D112482E999E07E
:101690000E943E03982E61E470E082E999E00E9486
:1016A00044135C0100E0009721F001960E943E0384
:1016B000082F193209F479C1D0F5153109F4AAC0FF
:1016C00028F51B3009F487C0143109F4CCC01A3056
:1016D00041F580EC0E9487048AED95E00E947B042E
:1016E0008BEE95E00E941E010E94D00080ED97E0F5
:1016F0009093A9008093A80080EC0E9487048EEF4D
:1017000095E00E947B048FE096E081C0173109F4D8
:10171000E5C008F4BDC01E3109F432C11F3109F41F
:10172000E8C080E80E94870480E298E0A5CF1C33DF
:1017300009F421C280F5133309F458C11B3309F4AD
:10174000A3C1123371F7EFEFE90DEA3008F05CC185
:10175000F0E0EE0FFF1FE15EFD4F008111810115EA
:10176000110509F451C1C8010E94D804882309F465
:1017700081C1B801CE0101960E944F1369E177E063
:10178000CE0101960E943913CE0101960E945E0798
:1017900084E297E03CC01E3309F4CFC108F4B1C124
:1017A0001A3509F4FBC11B3509F0BBCF82E999E07A
:1017B0000E941403882309F4BBC10E9434031092D1
:1017C000C40980E80E94870486EF97E00E947B04AA
:1017D00087E098E01CC080EC0E94870483E995E0D4
:1017E0000E947B0484EA95E00E941E010E94D000C2
:1017F00080EA9FE09093A9008093A80080EC0E946B
:10180000870487EB95E00E947B0488EC95E00E94BA
:101810001E0190C1892D0E94440180E80E94870426
:1018200081E296E00E947B0489EC0E94870488E6AE
:1018300095E00E947B0489EC0E94870482E396E095
:101840000E947B048091C70990E00E94220485E3F6
:1018500096E00E947B0489E396E00E941E0180913D
:10186000C70990E08AC0809102018F7B80930201BA
:1018700010929900109298001092C60980E80E9478
:10188000870487E496E00E947B0488E596E0BFCF5A
:101890008091C609813019F086E696E0B8CF809134
:1018A000C7098F5F0E94300189EC0E94870488E697
:1018B00095E00E947B0489EC0E94870482E396E015
:1018C0000E947B048091C70990E00E94220485E376
:1018D00096E00E947B048BE796E0BFCF8091C6091B
:1018E0008130D1F68091C709815087FFDBCF80E03E
:1018F000D9CFECE30E9FC00111249093D2098093BD
:10190000D1099091020190629093020181E080934D
:10191000D5091092D4091092D30980E80E94870457
:1019200083E896E00E947B0486E80E948704A92C45
:10193000B12CC5010E94220483E40E940F0489ECAB
:101940000E94870488E695E00E947B0489EC0E944F
:10195000870410E0C8010E94220484E996E00E94F6
:101960007B0488E996E00E941E01C5010E94D60012
:1019700085E898E00E941E01C8010E94D600DAC0E6
:10198000809102018F7D809302011092D5091092FF
:10199000D2091092D10980E80E94870482EA96E079
:1019A0000E947B0483EB96E032CF892D0E94F002E7
:1019B00089EC0E94870488E695E00E947B0489EC0C
:1019C0000E94870487E798E00E947B048091C50904
:1019D00090E00E94220485E396E00E947B0480EC64
:1019E00096E00E941E018091C5093BCFEFEFE90D03
:1019F000EA3050F4F0E0EE0FFF1FE15EFD4FA080F3
:101A0000B180A114B10451F480E80E94870488ECED
:101A100096E00E947B0489ED96E0F9CE602FC50127
:101A20000E944605182F81110AC080E80E94870491
:101A300084EF96E00E947B0485E097E0E8CEB50154
:101A4000CE0101960E944F1368E872E0123011F047
:101A500065E972E0CE0101960E943913CE0101962C
:101A60000E945E078FE992E0123009F4D0CE86EB37
:101A700092E0CDCE80E80E94870489E397E00E943F
:101A80007B048AE497E0C3CE80E80E94870486E660
:101A900097E00E947B0400EB10E0B12CC8010E948B
:101AA000C21281508E3F08F4B394035F1F4F02337C
:101AB000F1E01F0799F78B2D90E00E94220480E748
:101AC00097E00E947B0487E797E00E941E010E9436
:101AD000D0000E9483038091C3099091A2099817B6
:101AE00009F493C3E82FF0E0ED55F64F90819A305A
:101AF00009F40CC190819D3009F408C18F5F8F718A
:101B0000ECCF82E999E00E941403882389F081E0F8
:101B10008093CA091092C8091092C90980E80E94EE
:101B2000870480E997E00E947B0481EA97E06FCE0A
:101B30000E94B3040E94D000CECFC5010196AB280D
:101B400011F482E999E00E941403882389F391E05B
:101B50009093CA099093C8099092C90980E80E949D
:101B6000870485EB97E00E947B0486EC97E00E9457
:101B70001E01892D76CE82E999E00E941403882304
:101B8000B9F282E08093CA0980E80E94870489ED57
:101B900097E00E947B048AEE97E039CE82E999E0D3
:101BA0000E941403882321F20E9424031092C40986
:101BB00080E80E94870487ED92E00E947B0481E127
:101BC00098E025CE109203021092020290ED980F39
:101BD0009A3068F5E0918F09E43008F07CCF91E00D
:101BE0009E0F90938F09F0E0E657F64F8083E92F20
:101BF000F0E0E657F64F108280EC0E94870486E3FF
:101C000098E00E947B0400E010918F09011728F4EE
:101C10008AE20E940F040F5FF7CF143028F48FE59B
:101C20000E940F041F5FF9CF8BE695E0A6CB8134AD
:101C300019F580918F098430B1F48AE899E00E9407
:101C40001403882381F00E9434031092C40980E8B1
:101C50000E94870486EF97E00E947B0487E098E06B
:101C60000E941E0102C00E94B3040E94D000109284
:101C70008F0910928A092FCF8234C1F480918F0985
:101C8000843089F78AE899E00E941403882359F385
:101C90000E9424031092C40980E80E94870487ED03
:101CA00092E00E947B0481E198E0DACF833411F561
:101CB0008091C5098F5F8B3008F08AE00E94F002A6
:101CC00089EC0E94870488E695E00E947B0489ECF9
:101CD0000E94870487E798E00E947B048091C509F1
:101CE00090E00E94220485E396E00E947B048FE34B
:101CF00098E077CE843409F0EECE8091C50981500A
:101D0000990B8F3F9807D1F680E0D8CF20E09091D3
:101D1000A2098091C3099817A1F12F3190F59091F4
:101D2000A2098091C309981709F44DC0E091C30935
:101D3000F0E0ED55F64F80819091C3099F5F9F7150
:101D40009093C3098A3011F08D30A1F53091A2092A
:101D50009091C3093917A9F0E091C309F0E0ED555E
:101D6000F64F90818D3049F49A3059F48091C3092F
:101D70008F5F8F718093C30904C08A3011F49D3046
:101D8000A9F3E1E0F0E0EC0FFD1FE20FF11D10827E
:101D9000222309F43AC28E010F5F1F4FF80181918F
:101DA0008F018823D1F090E00E943113F801319720
:101DB0008083F4CF883011F08F3731F4222309F477
:101DC000A6CF2150A4CF80E0E1E0F0E0EC0FFD1FB2
:101DD000E20FF11D80832F5F9ACF44E050E067E46B
:101DE00078E0CE0101960E945613892BD9F4CE01DA
:101DF00005960E941403882381F00E9434031092F8
:101E0000C40980E80E94870486EF97E00E947B0463
:101E100087E098E00E941E0102C00E94B3040E9465
:101E2000D000F3C147E050E064E478E0CE010196D1
:101E30000E945613892BA1F4CE0108960E94140328
:101E4000882359F30E9424031092C40980E80E9459
:101E5000870487ED92E00E947B0481E198E0DACF6D
:101E600044E050E06FE378E0CE0101960E94561303
:101E7000892B11F5CE0105960E943E030E94F002C7
:101E8000109203021092020289EC0E94870487E7F5
:101E900098E00E947B048091C50990E00E94220492
:101EA00085E396E00E947B0480EC96E00E941E0190
:101EB0008091C50990E0AEC04CE050E06CE478E061
:101EC000CE0101960E945613892BE9F480EC0E9402
:101ED000870483E995E00E947B0484EA95E00E94F0
:101EE0001E010E94D00080EA9FE09093A900809399
:101EF000A80080EC0E94870487EB95E00E947B0499
:101F000088EC95E087CF4DE050E066E373E0CE01CA
:101F100001960E945613892BE9F480EC0E948704F5
:101F20008AED95E00E947B048BEE95E00E941E01F5
:101F30000E94D00080ED97E09093A9008093A800C4
:101F400080EC0E9487048EEF95E00E947B048FE076
:101F500096E060CF46E050E069E578E0CE0101967A
:101F60000E945613892B09F058C0CE0107960E9493
:101F70003E03A82E6CE270E0CE0107960E94441347
:101F800000E0009721F001960E943E03082FFCE339
:101F90000F9FC00111249093D2098093D1098091A1
:101FA000020180628093020181E08093D509109242
:101FB000D4091092D30980E80E94870483E896E050
:101FC0000E947B0486E80E948704B12CC5010E9410
:101FD000220483E40E940F0489EC0E94870488E6AF
:101FE00095E00E947B0489EC0E94870410E0C80100
:101FF0000E94220484E996E00E947B0488E996E02E
:102000000E941E01C5010E94D60085E898E00E944A
:102010001E01C8010E94D60002CF4AE050E060E6EF
:1020200078E0CE0101960E945613892BA9F4809185
:1020300002018F7B80930201109299001092980008
:102040001092C60980E80E94870487E496E00E9407
:102050007B0488E596E0DECE49E050E06BE678E070
:10206000CE0101960E945613892BC9F51091C7091C
:10207000111101C015E06CE270E0CE010A960E94D9
:102080004413009721F001960E943E03182F812FE0
:102090000E94440180E80E94870481E296E00E9449
:1020A0007B0489EC0E94870488E695E00E947B040B
:1020B00089EC0E94870482E396E00E947B04809171
:1020C000C70990E00E94220485E396E00E947B0409
:1020D00089E396E00E941E018091C709EBCE44E09F
:1020E00050E065E778E0CE0101960E945613892BF7
:1020F000B9F58091C609813019F086E696E08ACE5E
:102100008D818B32F9F48091C7098F5F0E94300175
:1021100089EC0E94870488E695E00E947B0489ECA4
:102120000E94870482E396E00E947B048091C709A5
:1021300090E00E94220485E396E00E947B048BE7F6
:1021400096E0C8CF8D3239F48091C709815087FF5E
:10215000DDCF80E0DBCFCE0105960E943E03D6CFD7
:102160004CE050E06AE778E0CE0101960E945613F9
:10217000892B11F56CE270E0CE010D960E9444139C
:102180000097B9F0FC011192CF010E943E03682F25
:10219000CE010D960E944605811103C085E097E0AF
:1021A00039CE823019F48FE992E034CE86EB92E09A
:1021B00031CE87E898E02ECE4CE050E06DE978E033
:1021C000CE0101960E945613892B61F4CE010D9623
:1021D0000E94D804882319F084E297E01BCE8AE499
:1021E00097E018CE4CE050E067EE73E0CE01019628
:1021F0000E945613892B09F091C087E797E00E944F
:102200001E010E94D0000E9483038091D809882378
:1022100071F08091CF099091D00901968C32F1E054
:102220009F0708F005C19093D0098093CF092091B2
:10223000D6093091D7092F5F3F4F3093D7092093AC
:10224000D6098091020290910302019690930302B5
:1022500080930202203D374008F444C01092D70911
:102260001092D609803E9E42E0F00E9495008C01BB
:1022700080EC0E9487048EEF98E00E947B04980116
:10228000A8E2B0E00E940E13A70196010E94EC1292
:10229000822F220F990B0E94220481E099E00E9474
:1022A0007B040E9495009C01A8E2B0E00E940E13FE
:1022B000A70196010E94EC128091080183FDEEC0F7
:1022C00022312CF48091080188608093080180916C
:1022D000080184FDEAC02B312CF080910801806157
:1022E000809308018091D509882371F08091D309EA
:1022F0009091D4090196803AFFE09F0708F0DCC076
:102300009093D4098093D30980E090E0892B11F455
:102310000C9470090E9400000C9470094DE050E08C
:102320006AEA78E0CE0101960E945613892B89F45F
:10233000CE010E960E941403882309F46ECD81E02D
:102340008093CA091092C8091092C90981EA97E0DE
:1023500061CD4BE050E068EB78E0CE0101960E9441
:102360005613892B19F5CE010C960E943E03182FA7
:102370006CE270E0CE010C960E944413009799F035
:1023800001960E941403882309F447CD81E08093CD
:10239000CA098093C8091093C90986EC97E00E9486
:1023A0001E01812F87CDCE010C96EBCF47E050E088
:1023B00064EC78E0CE0101960E945613892B69F4F3
:1023C000CE0108960E941403882309F426CD82E0EA
:1023D0008093CA098AEE97E01DCD48E050E06CEC8E
:1023E00078E0CE0101960E945613892BF1F4CE01BC
:1023F00009960E943E03182F6CE270E0CE01099608
:102400000E944413009771F001960E9414038823E0
:1024100009F403CD83E08093CA091093C90985EDBF
:1024200098E0BDCFCE010996F0CF84EE98E0F2CCD3
:102430001092D0091092CF098091CE098F5F8093BE
:10244000CE099091CD09981730F51092D80980E8FF
:102450000E9487048091CB09813029F486EF97E0B0
:102460000E947B04E4CE8091CB09823089F4809174
:10247000CC09813019F484EF93E0F2CF8091CC093C
:10248000823019F485E194E0EBCF88E692E0E8CF62
:1024900087ED92E0E5CF0E949A04C9CE25310CF475
:1024A00016CF80910801877F10CF28310CF01ACF0A
:1024B000809108018F7E14CF1092D4091092D30915
:1024C0008091D1099091D209009729F001979093BA
:1024D000D2098093D1098091D1099091D209892B99
:1024E00009F012CF809102018F7D8093020110923A
:1024F000D5091092D2091092D10980E80E94870470
:1025000086E099E00E947B0487E199E00E941E0129
:102510000E94D000F9CE80E0992309F453CB1092A9
:1025200003021092020280E090ED980F9A3018F0AA
:10253000813409F0D0CAE091A009EF3068F491E04D
:102540009E0F9093A009F0E0E057F64F8083E92FAB
:10255000F0E0E057F64F108280EC0E94870481E3A0
:1025600098E00E947B0480E999E00E947B0410912E
:10257000A0091C5F103108F0AECA80E20E940F046F
:102580001F5FF8CFF999FECF92BD81BDF89A9927C8
:1025900080B50895262FF999FECF1FBA92BD81BD4F
:1025A00020BD0FB6F894FA9AF99A0FBE01960895D5
:1025B00097FB072E16F4009407D077FD09D00E94F0
:1025C0001D1307FC05D03EF4909581959F4F08950B
:1025D000709561957F4F0895A1E21A2EAA1BBB1B2F
:1025E000FD010DC0AA1FBB1FEE1FFF1FA217B307DF
:1025F000E407F50720F0A21BB30BE40BF50B661FF5
:10260000771F881F991F1A9469F7609570958095B8
:1026100090959B01AC01BD01CF010895A29FB0012F
:10262000B39FC001A39F700D811D1124911DB29F06
:10263000700D811D1124911D0895AA1BBB1B51E132
:1026400007C0AA1FBB1FA617B70710F0A61BB70B22
:10265000881F991F5A95A9F780959095BC01CD01C7
:1026600008959111089581568A5108F48052855831
:102670000895FB01DC010D900020E9F7119701900E
:102680000D920020E1F70895FC018191861721F059
:102690008823D9F7992708953197CF010895FB0131
:1026A000DC0101900D920020E1F70895FB01DC01AF
:1026B0004150504030F08D910190801919F4002064
:1026C000B9F7881B990B0895F894FFCFFFFF0F27E8
:1026D000000204080E192C4E7CB4FF313233413411
:1026E000353642373839432A302344210927092B0C
:1026F00009320938093F0946094B094F095509FFB5
:10270000FFFFFFFFFF207820004C49535441205623
:102710004143494100434F4449474F20494E434FAD
:1027200052524543544F004552524F523A434F4440
:1027300049474F00212120494E545255534F2021E3
:102740002120202000414C41524D413A494E5452E3
:1027500055534F002041435455414C495A41444F31
:102760000020414752454741444F004F4B3A4D45A9
:10277000524341444F5F41435455414C495A4144AF
:102780004F004F4B3A4D45524341444F5F414752F2
:10279000454741444F005243353232205645523A64
:1027A000307800414C41524D413A20444553414319
:1027B00054495600543A2D2D43202020204C3A30C5
:1027C0002F31302000436F6D616E646F733A20418A
:1027D000524D3A78787878202F2044495341524D11
:1027E0003A78787878202F204C555A3A302D31306D
:1027F000202F20474152414A453A414252495220F6
:102800002F20474152414A453A43455252415200D6
:10281000454E524F4C3A4144554C544F202F204581
:102820004E524F4C3A48494A4F2C4E202F20424F8F
:1028300052524152202F2041434345534F533A4E69
:1028400000484F524E4F3A74656D702C6D696E2082
:102850002F20534F4E49444F3A4F4E5B2C302D3171
:10286000305D202F20534F4E49444F3A4F4646206B
:102870002F20564F4C3A4E202F20564F4C3A2B20AB
:102880002F20564F4C3A2D202F204D455243414486
:102890004F3A4144442C6E6F6D2C63616E74202F4F
:1028A000204D45524341444F3A44454C2C6E6F6D88
:1028B000202F204D45524341444F3A4C4953540038
:1028C000212120494E43454E44494F2021212020BB
:1028D00000414C41524D413A494E43454E44494FC7
:1028E00000212120494E54525553494F4E20212159
:1028F0002000414C41524D413A41434345534F0022
:102900004F4B3A454E524F4C41444F5F4144554C1A
:10291000544F004F4B3A454E524F4C41444F5F4845
:10292000494A4F2C004552524F523A454550524F5A
:102930004D5F4C4C454E415F4F5F4455504C4943B1
:1029400041444F004F4B3A424F525241444F004591
:1029500052524F523A5549445F4E4F5F4558495382
:102960005445004F4B3A41434345534F532C004588
:1029700052524F523A45534352494249525F434F94
:102980004E5441444F52004552524F523A4C4545E5
:10299000525F434F4E5441444F52004552524F52A2
:1029A0003A5549445F4E4F5F45535F48494A4F008F
:1029B00041434345534F3A44454E454741444F00F8
:1029C00041434345534F3A434F4E43454449444F97
:1029D0005F4144554C544F0041434345534F3A43A4
:1029E0004F4E43454449444F5F48494A4F2C0041AC
:1029F000434345534F3A44454E454741444F5F5347
:102A0000494E5F4355504F5300434D442043414E80
:102A100043454C41444F20202000434D443A202060
:102A200020202020202020202020002020202020C6
:102A3000202020202020202020202000434D442042
:102A4000494E56414C49444F2020202000455252C7
:102A50004F523A434D445F5445434C41444F004725
:102A60004152414A452041425249454E444F20007F
:102A70004F4B3A474152414A455F41425249454EC8
:102A8000444F002020202020202020204142494582
:102A900052544F004F4B3A474152414A455F4142E1
:102AA000494552544F00474152414A4520434552FF
:102AB00052414E444F20004F4B3A474152414A4504
:102AC0005F43455252414E444F0020202020202099
:102AD0002020204345525241444F004F4B3A47413A
:102AE00052414A455F4345525241444F00534F4E75
:102AF00049444F3A204F4E20202020202000563AB3
:102B0000002F3130004F4B3A534F4E49444F5F4FE7
:102B10004E2C00534F4E49444F3A204F46462020FA
:102B2000202020004F4B3A534F4E49444F5F4F46B1
:102B300046004552524F523A534F4E49444F5F411F
:102B400050414741444F004F4B3A564F4C2C0048A0
:102B50004F524E4F3A2020202020202020202000BD
:102B60006D696E004F4B3A484F524E4F2C00484F04
:102B7000524E4F3A204F4646202020202020004F22
:102B80004B3A484F524E4F5F4F4646004F4B3A4CE0
:102B9000555A2C0050524F4420444553434F4E4FFA
:102BA0004349444F004552524F523A50524F4455B8
:102BB00043544F5F444553434F4E4F4349444F00A6
:102BC0004D45524341444F204C4C454E4F20202010
:102BD000004552524F523A4D45524341444F5F4C8B
:102BE0004C454E4F0020454C494D494E41444F0005
:102BF0004F4B3A4D45524341444F5F454C494D4937
:102C00004E41444F004D455243204E4F20455849B8
:102C10005354452020004552524F523A4D4552439D
:102C200041444F5F4E4F5F454E434F4E54524144D7
:102C30004F004D45524341444F3A2000206974658E
:102C40006D20002D2D2D204C49535441204445200A
:102C50004D45524341444F202D2D2D00454E524F9E
:102C60004C204144554C544F20202020004F4B3ADB
:102C7000454E524F4C414E444F5F4144554C544F8A
:102C800000454E524F4C2048494A4F2020202020DA
:102C900020004F4B3A454E524F4C414E444F5F48F7
:102CA000494A4F2C00424F52524152205441524AFD
:102CB0004554412020004F4B3A424F5252414E441E
:102CC0004F00414C41524D413A2041524D41444107
:102CD0002020004F4B3A41524D414441004F4B3A66
:102CE000444553414354495641444100434D4420D7
:102CF000444553434F4E4F4349444F2000434D44B6
:102D00003A00436F6469676F3A20004C555A3A00A5
:102D100044495341524D3A00474152414A453A4194
:102D20004252495200484F524E4F3A00534F4E497B
:102D3000444F3A4F464600534F4E49444F3A4F4E48
:102D400000564F4C3A004D45524341444F3A41449E
:102D5000442C004552524F523A464F524D41544F27
:102D60005F4D45524341444F004D45524341444F0E
:102D70003A44454C2C00454E524F4C3A4144554C38
:102D8000544F2C00454E524F4C3A48494A4F2C0064
:102D9000424F525241522C0041434345534F533A04
:102DA000004F4B3A524543415247414E444F2C004D
:102DB0004552524F523A434F4D414E444F5F444566
:102DC00053434F4E4F4349444F00543A0043202051
:102DD0002000484F524E4F3A204C4953544F202028
:102DE000202000484F524E4F3A46494E006C6563D2
:102DF00068650070616E00687565766F730061725A
:102E0000726F7A0061636569746500617A756361E8
:102E10007200636166650073616C00706173746158
:062E20000061677561000E
:020000040003F7
:10E000000D9489F10D94B2F10D94B2F10D94B2F129
:10E010000D94B2F10D94B2F10D94B2F10D94B2F1F0
:10E020000D94B2F10D94B2F10D94B2F10D94B2F1E0
:10E030000D94B2F10D94B2F10D94B2F10D94B2F1D0
:10E040000D94B2F10D94B2F10D94B2F10D94B2F1C0
:10E050000D94B2F10D94B2F10D94B2F10D94B2F1B0
:10E060000D94B2F10D94B2F10D94B2F10D94B2F1A0
:10E070000D94B2F10D94B2F10D94B2F10D94B2F190
:10E080000D94B2F10D94B2F10D94B2F10D94B2F180
:10E090000D94B2F10D94B2F10D94B2F10D94B2F170
:10E0A0000D94B2F10D94B2F10D94B2F10D94B2F160
:10E0B0000D94B2F10D94B2F10D94B2F10D94B2F150
:10E0C0000D94B2F10D94B2F10D94B2F10D94B2F140
:10E0D0000D94B2F10D94B2F10D94B2F10D94B2F130
:10E0E0000D94B2F141546D656761323536300041AF
:10E0F000726475696E6F206578706C6F72657220DE
:10E1000073746B3530305632206279204D4C530099
:10E11000426F6F746C6F616465723E004875683F52
:10E1200000436F6D70696C6564206F6E203D200048
:10E130004350552054797065202020203D20005FF9
:10E140005F4156525F415243485F5F3D2000415658
:10E1500052204C696243205665723D20004743437C
:10E160002056657273696F6E203D20004350552024
:10E1700049442020202020203D20004C6F7720663D
:10E18000757365202020203D20004869676820665F
:10E190007573652020203D200045787420667573D6
:10E1A00065202020203D20004C6F636B2066757336
:10E1B000652020203D20004D617220203720323024
:10E1C000313300312E362E3800342E332E350056A2
:10E1D00023202020414444522020206F7020636F70
:10E1E00064652020202020696E73747275637469E1
:10E1F0006F6E2061646472202020496E74657272B3
:10E20000757074006E6F20766563746F7200726A49
:10E210006D702020006A6D70200057686174207056
:10E220006F72743A00506F7274206E6F7420737541
:10E2300070706F72746564004D7573742062652030
:10E2400061206C6574746572002000577269747483
:10E25000696E672045450052656164696E672045B7
:10E26000450045452065727220636E743D00504F35
:10E27000525400303D5A65726F2061646472003FF1
:10E280003D43505520737461747300403D454550C3
:10E29000524F4D207465737400423D426C696E6B41
:10E2A000204C454400453D44756D70204545505215
:10E2B0004F4D00463D44756D7020464C415348001B
:10E2C000483D48656C70004C3D4C69737420492F83
:10E2D0004F20506F72747300513D51756974005234
:10E2E0003D44756D702052414D00563D73686F7707
:10E2F00020696E7465727275707420566563746FF0
:10E30000727300593D506F727420626C696E6B00BD
:10E310002A0011241FBECFEFD1E2DEBFCDBF01E046
:10E320000CBF12E0A0E0B2E0EEE1FDEF03E00BBFB6
:10E3300002C007900D92A030B107D9F712E0A0E01B
:10E34000B2E001C01D92AE30B107E1F70F9460F367
:10E350000D948DFE01E20EBF0FEF0DBF11241FBE05
:10E360000D9460F30D9400F020E030E040ED57E0B4
:10E3700005C0FA013197F1F72F5F3F4F2817390792
:10E38000C0F308959C01260F311DC901A0E0B0E043
:10E390002F5F3F4FABBFFC018791882361F08093D3
:10E3A000C6008091C00086FFFCCF8091C0008064D1
:10E3B0008093C000EACF08958DE08093C6008091DD
:10E3C000C00086FFFCCF8091C00080648093C000B5
:10E3D0008AE08093C6008091C00086FFFCCF8091C8
:10E3E000C00080648093C00008950F94C2F10F9420
:10E3F000DCF10895FC019081992359F09093C600B7
:10E400008091C00086FFFCCF8091C0008064809323
:10E41000C0003196992379F70895282F982F929567
:10E420009F70892F805D8A3308F0895F8093C600D2
:10E430008091C00086FFFCCF8091C00080648093F3
:10E44000C000822F8F70982F905D9A3308F0995FEB
:10E450009093C6008091C00086FFFCCF8091C000E1
:10E4600080648093C00008959C01FB01853691056E
:10E470001CF46330710594F0C90164E670E00F94F8
:10E480002EFE605D7F4F6093C6008091C00086FFC6
:10E49000FCCF8091C00080648093C0002B30310598
:10E4A00014F43297B4F0C90164E670E00F942EFEC4
:10E4B0006AE070E00F942EFE605D7F4F6093C600AF
:10E4C0008091C00086FFFCCF8091C0008064809363
:10E4D000C000C9016AE070E00F942EFEC0968093E0
:10E4E000C6008091C00086FFFCCF8091C000806490
:10E4F0008093C00008951F93182F8EE692EE60E07F
:10E500000F94C2F11093C6008091C00086FFFCCF2B
:10E510008091C00080648093C0000F94DCF11F9153
:10E5200008952F923F924F925F926F927F928F92B7
:10E530009F92AF92BF92CF92DF92EF92FF920F9392
:10E540001F93DF93CF93CDB7DEB762970FB6F894E2
:10E55000DEBF0FBECDBF382E622ECA01DB015C01CB
:10E560006D01772420E2222E2E010894411C511CBB
:10E570008BC081E0A81680E0B80681E0C80680E084
:10E58000D80628F0C601AA27BB270F940DF2BB2797
:10E59000AD2D9C2D8B2D0F940DF28A2D0F940DF225
:10E5A0002092C6008091C00086FFFCCF8091C00001
:10E5B00080648093C0009DE29093C6008091C0006B
:10E5C00086FFFCCF8091C00080648093C0002092C1
:10E5D000C6008091C00086FFFCCF8091C00080649F
:10E5E0008093C00019828601750188249924A1E0D6
:10E5F0003A1651F03A1620F0B2E03B1661F409C029
:10E600000BBFF701779007C0C7010F9477FE782EF4
:10E6100002C0F7017080872D0F940DF22092C60082
:10E620008091C00086FFFCCF8091C0008064809301
:10E63000C000872D8052F401EF70F0708F3520F408
:10E64000E40DF51D708204C0E40DF51D8EE280839B
:10E650000894E11CF11C011D111D0894811C911CE2
:10E6600090E18916910409F0C2CF80E190E0A0E02A
:10E67000B0E0A80EB91ECA1EDB1E198AC2010F9493
:10E68000FAF10F94DCF16A94662009F072CF629679
:10E690000FB6F894DEBF0FBECDBFCF91DF911F91B3
:10E6A0000F91FF90EF90DF90CF90BF90AF909F9031
:10E6B0008F907F906F905F904F903F902F90089534
:10E6C0002F923F924F925F926F927F928F929F9282
:10E6D000AF92BF92CF92DF92EF92FF920F931F9370
:10E6E000DF93CF93CDB7DEB7CD53D1400FB6F894BB
:10E6F000DEBF0FBECDBF01E20EBF0FEF0DBF94B75F
:10E70000F894A89514BE80916000886180936000A1
:10E7100010926000789493FF05C0E0910002F091A0
:10E7200001021995279A2F9A8091C00082608093E8
:10E73000C00080E18093C40088E18093C1000000A4
:10E74000EE24FF24870144E0A42EB12CCC24DD2448
:10E7500024C0C5010197F1F70894E11CF11C011DCB
:10E76000111D21E2E2162EE4F20620E0020720E06D
:10E77000120718F031E0C32ED12CC801B70127ECE5
:10E780003BE140E050E00F9441FE611571058105C9
:10E79000910519F485B1805885B98091C00087FD35
:10E7A00003C0C114D104A9F2A6014F5F5F4FC25E3E
:10E7B000DE4F59834883CE51D140C25EDE4F8881FF
:10E7C0009981CE51D140019711F00D9410FEC05D9A
:10E7D000DE4F19821882C053D14060E0C15DDE4F28
:10E7E0001882CF52D14088249924C35DDE4F19820C
:10E7F0001882CD52D140C05EDE4F188219821A8233
:10E800001B82C052D140CE5CDE4F188219821A8220
:10E810001B82C253D140EE24FF2487010BBFF701B6
:10E8200007911691C45CDE4F19830883CC53D14005
:10E830000D940BFEC25EDE4F28813981CE51D1404E
:10E840002130310509F52091C600C25EDE4F1982E4
:10E850001882CE51D14022C02F5F3F4F4F4F5F4FA4
:10E86000213082E138078AE7480780E0580780F0C6
:10E87000C45CDE4FE881F981CC53D140EF5FFF4F9C
:10E8800019F0EE27FF27099420E030E040E050E047
:10E890008091C00087FFE0CF2091C600C35DDE4FAE
:10E8A00048815981CD52D1404F5F5F4FC35DDE4FEC
:10E8B00059834883CD52D140213209F063C64A3092
:10E8C000510508F05FC60894811C911C53E0851621
:10E8D000910409F059C600E010E018C081E280936D
:10E8E000C6008091C00086FFFCCF8091C00080648C
:10E8F0008093C0002F5F3F4F2931310579F70F9486
:10E90000DCF10F5F1F4F0530110519F020E030E0FA
:10E91000E5CF10920A0210920B0210920C02109294
:10E920000D02109206021092070210920802109235
:10E930000902109202021092030210920402109235
:10E9400005028FEE90EE60E00F94F5F180E191EE1C
:10E9500060E00F94C2F18091C00087FFFCCF9091DE
:10E96000C600903608F09F759032B8F09093C600BC
:10E970008091C00086FFFCCF8091C00080648093AE
:10E98000C000A0E2A093C6008091C00086FFFCCF2B
:10E990008091C00080648093C000983409F4D7C18E
:10E9A0009934B8F4923409F459C1933458F490333B
:10E9B00019F1903308F4E3C59F33A1F1903409F0C5
:10E9C000DEC5BDC0953409F470C1963409F0D7C5D1
:10E9D00098C1923509F42BC2933538F49C3409F46C
:10E9E000F5C1913509F0CBC518C2963509F445C279
:10E9F000993509F0C4C567C483E792EE62E00F94CD
:10EA0000F5F110920602109207021092080210927D
:10EA1000090210920A0210920B0210920C0210923C
:10EA20000D0213C18FE792EE62E00F94F5F18FEEC5
:10EA300090EE60E00F94F5F181E291EE60E00F94CA
:10EA4000C2F187EB91EE60E00F94F5F180E391EE77
:10EA500060E00F94C2F184EE90EE60E00F94F5F167
:10EA60008FE391EE60E00F94C2F186E090E061E008
:10EA700070E00F9434F20F94DCF18DE591EE60E0DC
:10EA80000F94C2F189EC91EE60E00F94F5F18EE401
:10EA900091EE60E00F94C2F183EC91EE60E00F9490
:10EAA000F5F18CE691EE60E00F94C2F18EE10F94E7
:10EAB0000DF288E90F940DF281E00F940DF20F949E
:10EAC000DCF18BE791EE60E00F94C2F119E0E0E039
:10EAD000F0E010935700E4918E2F0F940DF20F94F5
:10EAE000DCF18AE891EE60E00F94C2F1E3E0F0E03F
:10EAF00010935700E4918E2F0F940DF20F94DCF1D8
:10EB000089E991EE60E00F94C2F1E2E0F0E0109349
:10EB10005700E4918E2F0F940DF20F94DCF188EAE8
:10EB200091EE60E00F94C2F1E1E0F0E01093570045
:10EB30001491812F0F940DF20F94DCF107CF8BE825
:10EB400092EE62E00F94F5F18BE492EE60E00F94A8
:10EB5000F5F10F94DCF100E010E019C0C8016F2D51
:10EB60000F947FFEFF2031F489E492EE60E00F9471
:10EB7000C2F10BC0F092C6008091C00086FFFCCFAE
:10EB80008091C00080648093C0000F5F1F4FC80158
:10EB900081519F41A0E0B0E0ABBFFC01F790BAE229
:10EBA000FB1621F0E2E000301E07C1F60F94DCF105
:10EBB0000F94DCF187E592EE60E00F94F5F10F948D
:10EBC000DCF1CC24DD2400E010E01EC0C8010F946D
:10EBD00077FEF82E882331F489E492EE60E00F94FA
:10EBE000C2F10BC08093C6008091C00086FFFCCFAD
:10EBF0008091C00080648093C000FE1419F00894D6
:10EC0000C11CD11C0F5F1F4FC80181519F41A0E063
:10EC1000B0E0ABBFFC01E790FAE2EF1621F022E092
:10EC20000030120799F60F94DCF10F94DCF182E6C4
:10EC300092EE60E00F94C2F1C60161E070E00F94C3
:10EC400034F20F94DCF10F94DCF110920202109276
:10EC50000302109204021092050278CE89E992EE26
:10EC600062E00F94F5F1279A2F9A16C02F9880E052
:10EC700090E0E0EDF7E03197F1F7019684369105E9
:10EC8000C1F72F9A80E090E0E0EDF7E03197F1F7DF
:10EC9000019684369105C1F78091C00087FFE6CFC9
:10ECA0008091C00087FFFCCF64C485EA92EE62E0E9
:10ECB0000F94F5F140910202509103026091040219
:10ECC0007091050281E020E10F9491F2809102029F
:10ECD00090910302A0910402B091050280509F4FD1
:10ECE000AF4FBF4F8093020290930302A0930402A0
:10ECF000B093050280509041A040B04008F426CE69
:10ED0000A4CF83EB92EE62E00F94F5F140910602FE
:10ED100050910702609108027091090280E020E1A1
:10ED20000F9491F28091060290910702A09108023F
:10ED3000B091090280509F4FAF4FBF4F80930602A2
:10ED400090930702A0930802B0930902FFCD80ECD4
:10ED500092EE62E00F94F5F183E792EE60E00F949B
:10ED6000F5F18FE792EE60E00F94F5F18BE892EE0B
:10ED700060E00F94F5F189E992EE60E00F94F5F10F
:10ED800085EA92EE60E00F94F5F183EB92EE60E09D
:10ED90000F94F5F180EC92EE60E00F94F5F187ECC2
:10EDA00092EE60E00F94F5F188ED92EE60E00F9442
:10EDB000F5F18FED92EE60E00F94F5F18AEE92EEB0
:10EDC00060E00F94F5F183E093EEBDCD87EC92EE19
:10EDD00062E00F94F5F181E40F947BF282E40F94EA
:10EDE0007BF283E40F947BF284E40F947BF285E45E
:10EDF0000F947BF286E40F947BF287E40F947BF20E
:10EE000088E40F947BF28AE40F947BF28BE40F94F6
:10EE10007BF28CE40F947BF299CD88ED92EE62E068
:10EE20000F94F5F1772473948824992409C48FED05
:10EE300092EE62E00F94F5F140910A0250910B02BC
:10EE400060910C0270910D0282E020E10F9491F22A
:10EE500080910A0290910B02A0910C02B0910D02D8
:10EE600080509F4FAF4FBF4F80930A0290930B0289
:10EE7000A0930C02B0930D0269CD8AEE92EE62E08F
:10EE80000F94F5F184EE90EE60E00F94F5F18FECC5
:10EE900091EE60E00F94F5F1662477244301CC5D98
:10EEA000DE4F19821882C452D140D401C301B695F5
:10EEB000A79597958795CA5DDE4F88839983AA8326
:10EEC000BB83C652D140CC5DDE4FA881B981C4520C
:10EED000D1401196CC5DDE4FB983A883C452D14096
:10EEE000CD0162E070E00F9434F2B0E2B093C6005E
:10EEF0008091C00086FFFCCF8091C0008064809329
:10EF0000C000EDE2E093C6008091C00086FFFCCF18
:10EF10008091C00080648093C000F0E2F093C6004E
:10EF20008091C00086FFFCCF8091C00080648093F8
:10EF3000C000CA5DDE4FE880F9800A811B81C6529D
:10EF4000D140BB27A12F902F8F2D0F940DF2CA5DBA
:10EF5000DE4F8881C652D1400F940DF2B0E2FB2EF5
:10EF6000F092C6008091C00086FFFCCF8091C00067
:10EF700080648093C0000DE30093C6008091C000C0
:10EF800086FFFCCF8091C00080648093C00010E2B7
:10EF90001093C6008091C00086FFFCCF8091C00016
:10EFA00080648093C0008BBEF3012791C65DDE4F65
:10EFB0002883CA52D140A22EBB24CC24DD2408943D
:10EFC000611C711C811C911C8BBEF3018791282E42
:10EFD0003324442455240894611C711C811C911C09
:10EFE0008BBEF3013791C55DDE4F3883CB52D140E4
:10EFF0000894611C711C811C911C8BBEF30147910C
:10F00000C45DDE4F4883CC52D140ADEFEA2EAFEF66
:10F01000FA2EAFEF0A2FAFEF1A2F6E0C7F1C801E57
:10F02000911E142D032DF22CEE24EA0CFB1C0C1D5A
:10F030001D1D0F940DF220E22093C6008091C000A8
:10F0400086FFFCCF8091C00080648093C000C65DC5
:10F05000DE4F8881CA52D1400F940DF230E23093D6
:10F06000C6008091C00086FFFCCF8091C000806404
:10F070008093C000C45DDE4F8881CC52D1400F9494
:10F080000DF240E24093C6008091C00086FFFCCFA5
:10F090008091C00080648093C000C55DDE4F888190
:10F0A000CB52D1400F940DF250E25093C6008091A4
:10F0B000C00086FFFCCF8091C00080648093C000B8
:10F0C0008FEFE8168FEFF80680E0080780E018075A
:10F0D00031F484E092EE60E00F94C2F1DFC0D80119
:10F0E000C7018070907CA070B0708050904CA040A0
:10F0F000B040D1F52FEF3FE340E050E0E222F322B1
:10F1000004231523CA5DDE4FA880B980CA80DB8046
:10F11000C652D140AE0CBF1CC01ED11EAA0CBB1CD7
:10F12000CC1CDD1C8EE092EE60E00F94C2F1BB2798
:10F13000A12F902F8F2D0F940DF28E2D0F940DF285
:10F1400030E23093C6008091C00086FFFCCF8091F2
:10F15000C00080648093C0004EE34093C60080915D
:10F16000C00086FFFCCF87C08EE09EEFA0E0B0E03D
:10F17000E822F9220A231B239CE0E91694E9F90608
:10F1800090E0090790E0190709F088C0C45DDE4FE0
:10F19000A881CC52D140EA2EFF2400E010E0102FCD
:10F1A0000F2DFE2CEE24C55DDE4FB881CB52D14031
:10F1B000EB0EF11C011D111DD601C501817090706F
:10F1C000A070B070DC0199278827E80EF91E0A1F8D
:10F1D0001B1F20EF30E040E050E0A222B322C42207
:10F1E000D52241E1AA0CBB1CCC1CDD1C4A95D1F7F1
:10F1F000EA0CFB1C0C1D1D1D81E090E0A0E0B0E0BE
:10F20000282239224A225B2235E1220C331C441C7D
:10F21000551C3A95D1F7E20CF31C041D151D57013E
:10F220006801AA0CBB1CCC1CDD1C85E192EE60E0E1
:10F230000F94C2F1C801AA27BB270F940DF2BB2778
:10F24000A12F902F8F2D0F940DF28E2D0F940DF274
:10F2500090E29093C6008091C00086FFFCCF809121
:10F26000C00080648093C000AEE3A093C60080918C
:10F27000C00086FFFCCF8091C00080648093C000F6
:10F28000C601AA27BB270F940DF2BB27AD2D9C2DDD
:10F290008B2D0F940DF28A2D0F940DF20F94DCF14B
:10F2A000CC5DDE4FE881F981C452D140F99709F471
:10F2B0004DCBF4E0EF2EF12C012D112D6E0C7F1CA7
:10F2C000801E911EF2CD83E093EE62E00F94F5F183
:10F2D0008AE192EE60E00F94C2F18091C00087FF56
:10F2E000FCCF1091C6001F751093C6008091C0001E
:10F2F00086FFFCCF8091C00080648093C0000F9493
:10F30000DCF1812F81548A3108F036C1163409F4BA
:10F3100095C0173490F4133409F44EC0143430F40B
:10F320001134F1F0123409F01DC130C0143409F465
:10F3300059C0153409F016C16BC01A3409F4C4C0A1
:10F340001B3438F4173409F48FC0183409F00AC19B
:10F35000A1C01B3409F4D2C01C3409F003C1E8C0B9
:10F360008FEF81B90DC082B1809582B980E090E0C5
:10F37000E0EDF7E03197F1F70196883C9105C1F790
:10F380008091C00087FFEFCF12B8EFC08FEF84B934
:10F390000DC085B1809585B980E090E0E0EDF7E0A3
:10F3A0003197F1F70196883C9105C1F78091C00033
:10F3B00087FFEFCF15B8D9C08FEF87B90DC088B1DF
:10F3C000809588B980E090E0E0EDF7E03197F1F7C3
:10F3D0000196883C9105C1F78091C00087FFEFCF6F
:10F3E00018B8C3C08FEF8AB90DC08BB180958BB9A7
:10F3F00080E090E0E0EDF7E03197F1F70196883C8E
:10F400009105C1F78091C00087FFEFCF1BB8ADC059
:10F410008FEF8DB90DC08EB180958EB980E090E0F0
:10F42000E0EDF7E03197F1F70196883C9105C1F7DF
:10F430008091C00087FFEFCF1EB897C08FEF80BBD1
:10F440000DC081B3809581BB80E090E0E0EDF7E0F6
:10F450003197F1F70196883C9105C1F78091C00082
:10F4600087FFEFCF11BA81C08FEF83BB0DC084B38C
:10F47000809584BB80E090E0E0EDF7E03197F1F714
:10F480000196883C9105C1F78091C00087FFEFCFBE
:10F4900014BA6BC08FEF809301010FC080910201FD
:10F4A00080958093020180E090E0E0EDF7E03197F5
:10F4B000F1F70196883C9105C1F78091C00087FF64
:10F4C000EDCF1092020151C08FEF809304010FC065
:10F4D0008091050180958093050180E090E0E0ED4A
:10F4E000F7E03197F1F70196883C9105C1F78091DB
:10F4F000C00087FFEDCF1092050137C08FEF8093DA
:10F5000007010FC08091080180958093080180E079
:10F5100090E0E0EDF7E03197F1F70196883C910536
:10F52000C1F78091C00087FFEDCF109208011DC088
:10F530008FEF80930A010FC080910B01809580931B
:10F540000B0180E090E0E0EDF7E03197F1F70196F4
:10F55000883C9105C1F78091C00087FFEDCF1092E4
:10F560000B0103C085E292EEEEC98091C00087FFD7
:10F57000FCCF8091C600EAC988E392EEE4C98CE131
:10F5800091EEE1C988249924933011F1943028F444
:10F59000913089F09230B8F408C0953061F195301F
:10F5A000F0F0963009F048C043C02B3109F042C951
:10F5B00091E06BE13FC96227C15DDE4F2883CF52E6
:10F5C000D14092E037C9B22FA0E0622793E032C960
:10F5D000822F90E0A82BB92B622794E02BC92E3004
:10F5E00009F039C3622795E0C05DDE4F19821882A9
:10F5F000C053D1401FC9E1E0F0E0EC0FFD1FC05D3A
:10F60000DE4F08811981C053D140E00FF11F2083E4
:10F610000F5F1F4FC05DDE4F19830883C053D14079
:10F6200062270A171B0709F005C9D80196E002C92D
:10F63000261709F010C303C0973009F0FBC87724E0
:10F640009981933109F412C19431C8F4963009F4C8
:10F65000D8C0973050F4923009F406C1933009F4C1
:10F660006DC0913009F059C253C0913109F477C08F
:10F67000923108F0BBC0903109F04FC2F5C098310B
:10F6800009F487C0993150F4953109F4EFC09531F0
:10F6900008F4C6C1963109F040C2C2C19A3109F4DA
:10F6A0006CC09A3108F491C09B3109F45BC09D3164
:10F6B00009F033C29D81903359F48F81882311F46E
:10F6C0009EE11CC0813011F091E018C098E916C08D
:10F6D000892F807591F0903539F4E0E0F0E089E011
:10F6E0008093570094910AC0983539F4E3E0F0E034
:10F6F00089E080935700949101C090E01A821B82A8
:10F700008D818C831D829E831F8227E030E009C299
:10F710001A8288E08B8381E48C8386E58D8382E581
:10F720008E8389E48F8383E5888780E589878FE5E9
:10F730008A8782E38B872BE030E0F3C18A818139AD
:10F7400041F0823941F0803911F48FE005C080E04A
:10F7500003C082E001C08AE01A828B8344C0772410
:10F76000739482C08D81882311F48EE12CC0813086
:10F7700011F081E028C088E926C01A82E1E0F0E0BB
:10F7800089E08093570084918B831C8224E030E0D1
:10F79000C8C18B81803589F48C81883039F4E2E0EE
:10F7A000F0E089E08093570084910DC0E0E0F0E044
:10F7B00089E080935700849106C0E3E0F0E089E09F
:10F7C0008093570084911A82DFCF8D81836C99E0FA
:10F7D000E1E0F0E0082E90935700E89507B600FCB2
:10F7E000FDCF1A821B8223E030E09BC180EC8A832C
:10F7F000CE5CDE4F188219821A821B82C253D1401E
:10F800008EC18A8190E0A0E0B0E0582F44273327D2
:10F8100022278B8190E0A0E0B0E0DC0199278827C7
:10F82000282B392B4A2B5B2B8D8190E0A0E0B0E098
:10F83000282B392B4A2B5B2B8C8190E0A0E0B0E089
:10F84000BA2FA92F982F8827282B392B4A2B5B2BCF
:10F85000220F331F441F551FC05EDE4F288339839C
:10F860004A835B83C052D1401A8259C13A81C95C34
:10F87000DE4F3883C753D140CA5CDE4F1882C6536F
:10F88000D1408B81C82EDD24CA5CDE4F488159816E
:10F89000C653D140C42AD52A933109F082C0CE5C28
:10F8A000DE4F88819981AA81BB81C253D1408050AB
:10F8B000904CA340B04030F583E0CE5CDE4FE88052
:10F8C000F9800A811B81C253D140F70100935B008C
:10F8D00080935700E89507B600FCFDCFCE5CDE4F65
:10F8E000088119812A813B81C253D14000501F4FAA
:10F8F0002F4F3F4FCE5CDE4F088319832A833B8313
:10F90000C253D140C05EDE4F488159816A817B81FC
:10F91000C052D140DE011B9631E08C9111962C91A2
:10F9200011971296C75CDE4F2883C953D140C85C3B
:10F93000DE4F1882C853D14090E0C85CDE4FE881AA
:10F94000F981C853D1408E2B9F2B0C01FA01609393
:10F950005B0030935700E89511244E5F5F4F6F4F67
:10F960007F4F0EEFE02E0FEFF02ECE0CDF1CC114F8
:10F97000D10499F685E0C05EDE4F088119812A81A5
:10F980003B81C052D140F80120935B008093570027
:10F99000E89507B600FCFDCF81E180935700E8951C
:10F9A00035C0C05EDE4F88819981AA81BB81C0527B
:10F9B000D140B695A795979587957C018601ABE0D8
:10F9C000AA2EB12CAC0EBD1E0BC0D5016D915D01F0
:10F9D000C7010F947FFE0894E11CF11C01501040F8
:10F9E0000115110591F7A60160E070E0440F551F65
:10F9F000661F771FC05EDE4FE880F9800A811B8199
:10FA0000C052D1404E0D5F1D601F711F1A82C05E33
:10FA1000DE4F488359836A837B83C052D1407FC0C5
:10FA2000FA80C55CDE4FF882CB53D140C65CDE4F16
:10FA30001882CA53D1408B81C82EDD24C65CDE4FAC
:10FA400008811981CA53D140C02AD12A1A828981DA
:10FA5000BE016D5F7F4F843121F59601C05EDE4FA0
:10FA6000E880F9800A811B81C052D1400BBFF701A9
:10FA700087919691DB018C9311969C936E5F7F4FDB
:10FA8000D801C7010296A11DB11DC05EDE4F88835B
:10FA90009983AA83BB83C052D14022503040F1F6F3
:10FAA00036C0C05EDE4F288139814A815B81C052F9
:10FAB000D1400894C108D108760100E010E0089414
:10FAC000C11CD11C0894E11CF11C011D111DE20E8A
:10FAD000F31E041F151F21BDBB27A52F942F832FB5
:10FAE00082BD2F5F3F4F4F4F5F4FF89A80B5DB01CC
:10FAF0008D93BD012E153F054007510761F7C05E8C
:10FB0000DE4F288339834A835B83C052D1409601FC
:10FB10002D5F3F4FFB01108204C080EC8A8322E0FE
:10FB200030E08BE18093C6008091C00086FFFCCF5F
:10FB30008091C00080648093C000C15DDE4FF88179
:10FB4000CF52D140F093C6008091C00086FFFCCF19
:10FB50008091C00080648093C000432F3093C60022
:10FB60008091C00086FFFCCF8091C00080648093AC
:10FB7000C000922F2093C6008091C00086FFFCCF6A
:10FB80008091C00080648093C0008EE08093C600A6
:10FB90008091C00086FFFCCF8091C000806480937C
:10FBA000C00065E1C15DDE4FE880CF52D1406E25D7
:10FBB00069276427FE01319610C090819093C6009A
:10FBC0008091C00086FFFCCF31968091C000806498
:10FBD0008093C0006927215030402115310569F715
:10FBE0006093C6008091C00086FFFCCF8091C0006A
:10FBF00080648093C00085B1805885B9772081F4F6
:10FC0000C15DDE4F0881CF52D1400F5FC15DDE4F35
:10FC10000883CF52D14090E0A0E0B0E00D941AF4F8
:10FC200027982F9880E090E020ED37E0F901319798
:10FC3000F1F7019684369105C9F700008091C00064
:10FC40008D7F8093C00081E180935700E895EE2777
:10FC5000FF270994FFCF90E00D941AF497FB092E2B
:10FC600007260AD077FD04D02ED006D000201AF443
:10FC7000709561957F4F0895F6F7909581959F4F08
:10FC80000895A1E21A2EAA1BBB1BFD010DC0AA1FDD
:10FC9000BB1FEE1FFF1FA217B307E407F50720F0F5
:10FCA000A21BB30BE40BF50B661F771F881F991F70
:10FCB0001A9469F760957095809590959B01AC01B9
:10FCC000BD01CF010895AA1BBB1B51E107C0AA1FAC
:10FCD000BB1FA617B70710F0A61BB70B881F991FED
:10FCE0005A95A9F780959095BC01CD010895F99991
:10FCF000FECF92BD81BDF89A992780B50895262F31
:10FD0000F999FECF1FBA92BD81BD20BD0FB6F89400
:0EFD1000FA9AF99A0FBE01960895F894FFCF63
:00000001FF
