:100000000C9472000C9493000C9493000C941703BE
:100010000C9405030C943B030C9429030C9493005B
:100020000C9493000C9493000C9493000C94930004
:100030000C9493000C9488020C9493000C949300FD
:100040000C9493000C9493000C9493000C949300E4
:100050000C9493000C9493000C9493000C940E0257
:100060000C9493000C9458020C9493000C949300FD
:100070000C9493000C9493000C9493000C949300B4
:100080000C9493000C9493000C9493000C949300A4
:100090000C9493000C9493000C9493000C94930094
:1000A0000C9493000C9493000C9493000C94930084
:1000B0000C9493000C9493000C9493000C94930074
:1000C0000C9493000C9493000C9493000C94930064
:1000D0000C9493000C9493000C9493000C94930054
:1000E0000C94930011241FBECFEFD1E2DEBFCDBF31
:1000F00000E00CBF15E0A0E0B2E0E2EDF3E100E0CB
:100100000BBF02C007900D92A637B107D9F725E0C3
:10011000A6E7B5E001C01D92A73BB207E1F70E9438
:100120004C030C94E7090C9400009091C00095FFDB
:10013000FCCF8093C60008958DE00E9495008AE070
:100140000C9495000F931F93CF93DF9300D000D0B2
:100150001F92CDB7DEB730E00AE010E0009769F4F7
:1001600080E327960FB6F894DEBF0FBECDBFDF91B8
:10017000CF911F910F910C94950021E0230FE1E0A6
:10018000F0E0EC0FFD1FE30FF11D37FDFA95B8010C
:100190000E948109805D8083CB01322F009769F72F
:1001A00012166CF41FEF120FE1E0F0E0EC0FFD1FF0
:1001B000E10FF11D80810E949500212FF1CF27963C
:1001C0000FB6F894DEBF0FBECDBFDF91CF911F9168
:1001D0000F910895CF93DF93EC018991882319F053
:1001E0000E949500FACFDF91CF91089528E080E03A
:1001F00090E0DC0130917A00306430937A003091E5
:100200007A0036FDFCCF4091780050917900840F40
:10021000951FA11DB11D215069F723E0B695A79543
:10022000979587952A95D1F7089594B3907F94BBBD
:10023000813041F028F0823039F0833039F0089570
:10024000A09A0895A19A0895A29A0895A39A08954C
:100250008B3008F08AE08093A50590E0880F991F05
:1002600090938900809388000895FC0180818133F8
:1002700051F48181823339F48281833321F481E026
:100280009381943309F080E00895109277052E98B9
:100290002F988DB3837F8DBB1092780510927905CE
:1002A00010927A05089581E0809377052E9A8DB398
:1002B0008C608DBB109278050895FC0180E02AE0E7
:1002C000919130ED390F3A3030F4829F900D112426
:1002D00080ED890FF5CF089592B19F7092B992B1D8
:1002E00040E1849F90011124922B92B9129A85E0EB
:1002F0008A95F1F70000129887EC90E00197F1F7EA
:1003000000C000000895CF93C82F109A82958F7077
:100310000E946C018C2F8F700E946C0187EC90E022
:100320000197F1F700C00000CF910895EF92FF927E
:100330000F931F93CF93DF9300D000D01F92CDB7C0
:10034000DEB78C0197FF2DC08DE20E9483011195CD
:100350000195110980E09AE0E92EF12C21E0280FA7
:10036000E1E0F0E0EC0FFD1FE80FF11D87FDFA95CD
:10037000C801B7010E948109805D80838B01822FB3
:10038000672B61F71216F4F41FEF120FE1E0F0E0B3
:10039000EC0FFD1FE10FF11D80810E948301212FD1
:1003A000F1CF892BB9F680E327960FB6F894DEBF1C
:1003B0000FBECDBFDF91CF911F910F91FF90EF90B6
:1003C0000C94830127960FB6F894DEBF0FBECDBF05
:1003D000DF91CF911F910F91FF90EF900895CF93F0
:1003E000DF93EC018991882319F00E948301FACFF1
:1003F000DF91CF910895CF93C82F109882958F7079
:100400000E946C018C2F8F700E946C0187EC90E031
:100410000197F1F700C00000CF9108951F920F924D
:100420000FB60F9211242F933F938F939F93AF9307
:10043000BF938091B3059091B405A091B505B0919B
:10044000B6053091B20523E0230F2D3758F50196FC
:10045000A11DB11D2093B2058093B3059093B405FF
:10046000A093B505B093B6058091AE059091AF0508
:10047000A091B005B091B1050196A11DB11D809369
:10048000AE059093AF05A093B005B093B105BF91B1
:10049000AF919F918F913F912F910F900FBE0F9031
:1004A0001F90189526E8230F0296A11DB11DD2CFEB
:1004B0001F920F920FB60F9211240BB60F922F932B
:1004C0008F939F93EF93FF939091C6008091C0000C
:1004D00085FFFCCF9093C6008091A4058F5F8F713C
:1004E0002091A305281741F0E091A405F0E0ED5715
:1004F000FA4F90838093A405FF91EF919F918F9184
:100500002F910F900BBE0F900FBE0F901F9018955C
:100510001F920F920FB60F9211240BB60F922F93CA
:100520003F934F935F936F937F938F939F93AF937B
:10053000BF93CF93DF93EF93FF9350E040E0E1E070
:10054000F0E0AFE0942F9F01042E01C0220F0A9427
:10055000EAF72A2720930B018AE18A95F1F700C078
:1005600026B120952F7091F070E060E030E0862F8A
:10057000E901062E02C0D595C7950A94E2F7C0FDA1
:1005800040C06F5F7F4F6430710589F74F5F5F4FE9
:1005900044305105B9F68FEF909100029817E1F0C1
:1005A0008F3FC1F090917C05911114C0282F2695A2
:1005B0002695E4E02E9F900111242D5F3D4F982F4A
:1005C0009370290F311DF901908190937B0591E083
:1005D00090937C0580930002FF91EF91DF91CF9182
:1005E000BF91AF919F918F917F916F915F914F914B
:1005F0003F912F910F900BBE0F900FBE0F901F9049
:100600001895880F880F890FC7CF1F920F920FB6CA
:100610000F9211248F9381E08093780584E080937A
:1006200076058F910F900FBE0F901F9018951F9217
:100630000F920FB60F9211248F9381E0809378056B
:1006400083E0809376058F910F900FBE0F901F90DF
:1006500018951F920F920FB60F9211248F9381E07D
:100660008093790582E0809376058F910F900FBE7D
:100670000F901F9018951F920F920FB60F92112492
:100680008F9381E080937905809376058F910F9009
:100690000FBE0F901F901895CF93DF93CDB7DEB7A5
:1006A000AF970FB6F894DEBF0FBECDBF789484B578
:1006B000826084BD84B5816084BD85B5826085BD5E
:1006C00085B5816085BD80916E00816080936E00EC
:1006D00010928100809181008260809381008091DE
:1006E000810081608093810080918000816080938F
:1006F00080008091B10084608093B1008091B0004F
:1007000081608093B000809191008260809391001D
:100710008091910081608093910080919000816030
:10072000809390008091A10082608093A1008091CD
:10073000A10081608093A1008091A00081608093DE
:10074000A00080912101826080932101809121018C
:10075000816080932101809120018160809320013C
:1007600080917A00846080937A0080917A00826020
:1007700080937A0080917A00816080937A008091E2
:100780007A00806880937A001092C1008FEF81B95F
:1007900012B82FEF40E782E0215040408040E1F75F
:1007A00000C00000109883E00E946C01EFE1FEE4BD
:1007B0003197F1F700C0000083E00E946C0187E5EB
:1007C00092E00197F1F700C0000083E00E946C0105
:1007D000E7ECF0E03197F1F700C0000082E00E9402
:1007E0006C0187EC90E00197F1F700C0000088E20F
:1007F0000E94FB018CE00E94FB0186E00E94FB014D
:1008000081E00E94FB01EFE3FFE13197F1F700C0C7
:10081000000080910A018F6080930A0180910B0192
:100820008F6080930B0187B1807F87B988B18F601B
:1008300088B982E08093B00095E09093B1009BE985
:100840009093B3008093700010927B0510927C050A
:100850001092C50087E68093C4001092C00088E91A
:100860008093C10086E08093C2001092A40510928C
:10087000A30584B1806C84B985B18F7385B980EF8D
:10088000809369008FE080936A0080E38DBB1092B3
:100890007705109279051092780510927A0583B346
:1008A0008F6083BB84B3807F84BB81E480937C00B2
:1008B00088E080937B0087E880937A0080917A00BB
:1008C000806480937A0080917A0086FDFCCF8091CD
:1008D0007800909179008FE39FE10197F1F700C0D4
:1008E00000008091070188618093070180910801D1
:1008F000877E80930801259A21E8209380009AE062
:100900009093810010928900109288001092A505A2
:100910006D9A75981092AB051092A8051092A705D4
:100920001092AA051092A90580910101806480931C
:100930000101809102018F7B809302016B9A2093C9
:1009400090009093910010929900109298007894E2
:1009500081E00E94FB01EFE3FFE13197F1F700C076
:10096000000080E80E94FB0183E192E00E94EF0119
:1009700080EC0E94FB0184E292E00E94EF010E9461
:100980009C0083E392E00E94EA000E949C0089E7B9
:1009900092E00E94EA000E949C00109282058E0163
:1009A0000F5F1F4F7E01F1E2EF0EF11CCE018D961D
:1009B0009EA78DA744244A9463E0562E612C712C87
:1009C00080917905882309F454C01092790581E05B
:1009D00080937A052F9A80917A05813009F059C069
:1009E00080E80E94FB018DED92E00E94EF018EEE07
:1009F00092E00E94EA000E949C0080917C0588237E
:100A000009F462C080917C05882309F44FC080916D
:100A10007B0510927B0510927C05109202021092C9
:100A2000010290ED980F9A3008F092C0E091820593
:100A3000E43008F049C091E09E0F90938205F0E009
:100A4000E358FA4F8083E92FF0E0E358FA4F108221
:100A500080EC0E94FB018DE193E00E94EF01C12C2C
:100A6000D0908205CD1420F58AE20E948301C394C0
:100A7000F7CF80917805882309F4BFCF10927805CD
:100A800080917705813009F0B8CF82E080937705B7
:100A90009FCF823009F0B1CF80E80E94FB018EEF3A
:100AA00092E00E94EF018FE093E0A3CF80E0B5CF0A
:100AB00093E09D1528F08FE50E948301D394F8CF31
:100AC00089E394E00E94EF018091A3059091A40531
:100AD000981709F43FC3E82FF0E0ED57FA4F9081E3
:100AE0009A3009F0B0C0D80120E09091A40580911F
:100AF000A3059817D9F02F31C9F09091A4058091E2
:100B0000A305981709F4A6C08091A30590E08D571E
:100B10009A4FFC0190818091A3058F5F8F71809324
:100B2000A3059A3019F09D3009F095C0F801E20F45
:100B3000F11D10826801F60181916F01882309F48B
:100B40008DC090E00E94C609F60131978083F3CFF3
:100B5000813441F5809182058430D1F48DE795E0B0
:100B60000E9435018823A1F00E94530180E80E9471
:100B7000FB0186E293E00E94EF0187E393E00E948D
:100B8000EA000E949C001092820510927D059CCF85
:100B900080E80E94FB0181E493E00E94EF0183E57D
:100BA00093E0EDCF8234B1F480918205843081F7F7
:100BB0008DE795E00E943501882351F30E9445019D
:100BC00080E80E94FB0183E192E00E94EF0180E651
:100BD00093E0D5CF833459F58091A5058F5F8B3095
:100BE00008F08AE00E94280189EC0E94FB0186E35C
:100BF00094E00E94EF0189EC0E94FB018FE693E0F4
:100C00000E94EF018091A50590E00E9496018FE27D
:100C100092E00E94EF0182E793E00E94EA00809157
:100C2000A50590E00E94A2000E949C004DCF843454
:100C300009F04ACF8091A5058150990B8F3F980705
:100C400089F680E0CFCF90819D3009F44CCF8F5F43
:100C50008F713CCF90E02F5F9D9347CF43E050E0F2
:100C600067E773E0C8010E94D909892B71F40E94DB
:100C7000530180E80E94FB0186E293E00E94EF01AD
:100C800087E393E00E94EA004AC047E050E06BE748
:100C900073E0C8010E94D909892BA9F4CE010896F6
:100CA0000E943501882361F00E94450180E80E947E
:100CB000FB0183E192E00E94EF0180E693E0E2CF46
:100CC00083E593E0DFCF44E050E062E773E0C801E2
:100CD0000E94D909892B31F5CE0105960E945D014C
:100CE0000E942801109202021092010289EC0E94D7
:100CF000FB018FE693E00E94EF018091A50590E053
:100D00000E9496018FE292E00E94EF0183E893E057
:100D10000E94EA008091A50590E00E94A2000E9436
:100D20009C0018C24CE050E06BE873E0C8010E94E0
:100D3000D909892B89F580EC0E94FB0188E993E0B1
:100D40000E94EF0189EA93E00E94EA000E949C0061
:100D5000C12C52E0D52E8091A60590E001968370BB
:100D600099278093A6050E9415018FE19EE40197C3
:100D7000F1F700C0000091E0C91AD10861F784B30F
:100D8000807F84BB80EC0E94FB018CEB93E00E948F
:100D9000EF018DEC93E076CF4DE050E06BE672E032
:100DA000C8010E94D909892B89F580EC0E94FB01BA
:100DB0008FED93E00E94EF0180EF93E00E94EA0044
:100DC0000E949C00C12C42E0D42E8091A60590E0A8
:100DD0000396837099278093A6050E941501EFE181
:100DE000FEE43197F1F700C00000F1E0CF1AD1081E
:100DF00061F784B3807F84BB80EC0E94FB0183E0B9
:100E000094E00E94EF0184E194E03CCF46E050E0A2
:100E100066E274E0C8010E94D909892BB9F5CE01B8
:100E200007960E945D01C82E6CE270E0CE01079625
:100E30000E94CE09D12C009721F001960E945D01FD
:100E4000D82E2CE3D29EC00111249093A805809344
:100E5000A705759A81E08093AB051092AA051092C0
:100E6000A90580E80E94FB018DE294E00E94EF0159
:100E70008EE394E00E94EA008C2D90E00E94A20094
:100E800085E894E00E94EA008D2D46CF4AE050E0CC
:100E900068E474E0C8010E94D909892BF1F4CE01FD
:100EA0000B960E945D01D82E809102018064809390
:100EB00002018D2D44E64D1508F484E6EFEF8E9F78
:100EC000C001112464E670E00E946D0970939900DE
:100ED0006093980083E594E0D5CF4AE050E061E666
:100EE00074E0C8010E94D909892B61F48091020144
:100EF0008F7B8093020110929900109298008CE6EB
:100F000094E0C0CE4CE050E06AE774E0C8010E9473
:100F1000D909892B09F083C06CE270E0CE010D96EF
:100F20000E94CE09009709F477C0FC011192CF010D
:100F30000E945D018FA7AA24BB24AE18BF083AE027
:100F4000332E67014501F0EB8F0E911CC4018C0D0F
:100F50009D1D0E945709F60181936F018DA59EA5E5
:100F60008E179F0799F74BE050E0BE01635F7F4FFC
:100F7000C7010E94D909892B09F44BC03A949DE01E
:100F8000A90EB11C3110DDCF20EBC22ED12CC60131
:100F90000E945709382E811133C058014601801A2A
:100FA000910AF5016485C4018A0D9B1D22242394B6
:100FB000230C662379F00E945F09FFEFAF1ABF0A86
:100FC000322C2BE02212EDCF60E0C6010B960E947E
:100FD0005F090EC05601A30CB11C60E0C5010E9460
:100FE0005F0933944FEFA41AB40A8CE03812F5CF9E
:100FF0006FA5C6010C960E945F0987E894E042CE77
:101000009DE0C90ED11CE2E3CE16E1E0DE0609F058
:10101000BECF85E595E036CE8BE994E033CE4CE04B
:1010200050E061EB74E0C8010E94D909892BE9F511
:10103000222433242E183F0890EBC92ED12C5701BF
:101040004101E0EB8E0E911CC4018A0D9B1D0E9494
:101050005709F50181935F018DA59EA58E179F0706
:1010600099F74BE050E0BE01635F7F4FC7010E94DC
:10107000D909892B61F4C6010E945709882321F000
:1010800060E0C6010E945F098AED94E0FBCD9DE01F
:10109000C90ED11CEDE02E0E311CF2E3CF16F1E0AB
:1010A000DF0669F68EEB94E0EDCD4CE050E060EDAC
:1010B00072E0C8010E94D909892B09F0BFC08FEEE8
:1010C00094E00E94EA000E949C00222433242E18FF
:1010D0003F0880EBC82ED12C1FA6C6010E945709DD
:1010E000882339F15701410120EB820E911CC40184
:1010F0008A0D9B1D0E945709F50181935F018DA503
:101100009EA58E179F0799F7C6010C960E94570956
:10111000B82EC7010E94EA0088E095E00E94EA002C
:101120008B2D90E00E94A2000E949C009FA59F5FD3
:101130009FA7EDE0CE0ED11CFDE02F0E311C22E367
:10114000C21621E0D20649F64FA58CE095E0442373
:1011500009F498CD2091AC053091AD052F5F3F4F3C
:101160003093AD052093AC0580910102909102026D
:1011700001969093020280930102203D374008F4CB
:1011800044C01092AD051092AC05803E9E42E0F046
:101190000E94F6006C0180EC0E94FB0182E395E066
:1011A0000E94EF019601A8E2B0E00E94B709A301F6
:1011B00092010E949509822F220F990B0E9496019D
:1011C00085E395E00E94EF010E94F6009C01A8E2F1
:1011D000B0E00E94B709A30192010E949509809195
:1011E000080183FD2EC022312CF480910801886013
:1011F000809308018091080184FD29C02B312CF0D7
:10120000809108018061809308018091AB0588235B
:1012100069F08091A9059091AA050196803A2FE086
:101220009207D8F49093AA058093A90580E090E0F6
:10123000892B09F4C5CB0E940000C2CB88E195E060
:1012400021CD2531BCF280910801877FD1CF283193
:10125000E4F6809108018F7ED6CF1092AA051092F5
:10126000A9058091A7059091A805009729F00197FD
:101270009093A8058093A7058091A7059091A80554
:10128000892BA1F675981092AB051092A8051092C3
:10129000A70580E80E94FB018AE395E00E94EF0128
:1012A0008BE495E00E94EA000E949C00BFCFF99970
:1012B000FECF92BD81BDF89A992780B50895262F5B
:1012C000F999FECF1FBA92BD81BD20BD0FB6F8942B
:1012D000FA9AF99A0FBE01960895AA1BBB1B51E119
:1012E00007C0AA1FBB1FA617B70710F0A61BB70B96
:1012F000881F991F5A95A9F780959095BC01CD013B
:10130000089597FB072E16F4009407D077FD09D0B7
:101310000E946D0907FC05D03EF4909581959F4F82
:101320000895709561957F4F0895A1E21A2EAA1B2A
:10133000BB1BFD010DC0AA1FBB1FEE1FFF1FA21785
:10134000B307E407F50720F0A21BB30BE40BF50B82
:10135000661F771F881F991F1A9469F7609570950B
:10136000809590959B01AC01BD01CF010895A29F8E
:10137000B001B39FC001A39F700D811D1124911D69
:10138000B29F700D811D1124911D08959111089532
:1013900081568A5108F4805285580895FC01819144
:1013A000861721F08823D9F7992708953197CF011F
:1013B0000895FB01DC014150504030F08D910190C7
:1013C000801919F40020B9F7881B990B0895F89437
:0213D000FFCF4D
:1013D200FF0F273132334134353642373839432A09
:1013E200302344414C41524D413A204445534143FC
:1013F20054495600543A2D2D432020204C3A302F88
:10140200313000436F6D616E646F733A2041524D0B
:10141200202F2044495341524D3A78787878202F32
:10142200204C555A3A302D3130202F20474152411D
:101432004A453A4142524952202F20474152414A9D
:10144200453A43455252415200484F524E4F3A7428
:10145200656D702C6D696E202F20534F4E49444F9D
:101462003A4F4E2C766F6C202F20534F4E49444FEB
:101472003A4F4646202F204D45524341444F3A4170
:1014820044442C6E6F6D2C63616E74202F204D4589
:10149200524341444F3A44454C2C6E6F6D202F20ED
:1014A2004D45524341444F3A4C4953540021212067
:1014B200494E43454E44494F202121202000414CB2
:1014C20041524D413A494E43454E44494F00212134
:1014D20020494E54525553494F4E2021212000415C
:1014E2004C41524D413A41434345534F00436F648F
:1014F20069676F3A2000414C41524D413A204152B6
:101502004D4144412020004F4B3A41524D4144410C
:1015120000434F4449474F20494E434F525245439F
:10152200544F004552524F523A434F4449474F009D
:101532004F4B3A4445534143544956414441004C70
:101542003A004C555A3A0041524D004449534152D7
:101552004D3A004F4B3A4C555A2C00474152414AA2
:10156200453A414252495200474152414A4520417F
:10157200425249454E444F20004F4B3A4741524157
:101582004A455F41425249454E444F00474152410C
:101592004A45204142494552544F2020004F4B3A80
:1015A200474152414A455F4142494552544F0047E3
:1015B2004152414A452043455252414E444F200038
:1015C2004F4B3A474152414A455F43455252414E81
:1015D200444F00474152414A4520434552524144FB
:1015E2004F2020004F4B3A474152414A455F434505
:1015F200525241444F00484F524E4F3A00484F52C8
:101602004E4F3A204F4E20202020202020004F4BCA
:101612003A484F524E4F2C00534F4E49444F3A4F87
:101622004E2C004F4B3A534F4E49444F5F4F4E2C76
:1016320000534F4E49444F3A4F4646004F4B3A53A0
:101642004F4E49444F5F4F4646004D455243414439
:101652004F3A4144442C004F4B3A4D45524341448A
:101662004F5F414752454741444F004552524F5206
:101672003A464F524D41544F5F4D45524341444FBC
:10168200004D45524341444F3A44454C2C0045528B
:10169200524F523A4D45524341444F5F4E4F5F4580
:1016A2004E434F4E545241444F004F4B3A4D4552D8
:1016B2004341444F5F454C494D494E41444F002DF3
:1016C2002D2D204C49535441204445204D45524331
:1016D20041444F202D2D2D00207820004C49535499
:1016E20041205641434941004552524F523A434FDD
:1016F2004D414E444F5F444553434F4E4F4349443F
:101702004F00543A004320202000484F524E4F3A97
:10171200204C4953544F2020202000484F524E4F16
:101722003A46494E004552524F523A4D4552434174
:10173200444F5F4C4C454E4F5F4F5F4455504C49B0
:061742004341444F00008A
:00000001FF
