:100000000C9472000C9493000C9493000C943F0792
:100010000C942D070C9463070C9451070C949300D7
:100020000C9493000C9493000C9493000C94930004
:100030000C9493000C949B060C9493000C949300E6
:100040000C9493000C9493000C9493000C949300E4
:100050000C9493000C9493000C9493000C94210640
:100060000C9493000C946B060C9493000C949300E6
:100070000C9493000C9493000C9493000C949300B4
:100080000C9493000C9493000C9493000C949300A4
:100090000C9493000C9493000C9493000C94930094
:1000A0000C9493000C9493000C9493000C94930084
:1000B0000C9493000C9493000C9493000C94930074
:1000C0000C9493000C9493000C9493000C94930064
:1000D0000C9493000C9493000C9493000C94930054
:1000E0000C94930011241FBECFEFD1E2DEBFCDBF31
:1000F00000E00CBF19E0A0E0B2E0E4E1F8E200E0CB
:100100000BBF02C007900D92A43CB107D9F72AE0BB
:10011000A4ECB9E001C01D92A235B207E1F70E943C
:1001200098070C9408140C94000081E480937C00E0
:1001300080917B00886080937B0080917A0080644E
:1001400080937A0080917A0086FDFCCF80917800C0
:100150009091790020E180E090E0DC0130917A001C
:10016000306430937A0030917A0036FDFCCF4091B4
:10017000780050917900840F951FA11DB11D215069
:1001800069F724E0B695A795979587952A95D1F7B5
:1001900008959091C00095FFFCCF8093C60008950C
:1001A0008DE00E94C9008AE00C94C9000F931F9350
:1001B000CF93DF9300D000D01F92CDB7DEB730E0F1
:1001C0000AE010E0009769F480E327960FB6F894F0
:1001D000DEBF0FBECDBFDF91CF911F910F910C9469
:1001E000C90021E0230FE1E0F0E0EC0FFD1FE30F79
:1001F000F11D37FDFA95B8010E947C13805D808364
:10020000CB01322F009769F712166CF41FEF120F13
:10021000E1E0F0E0EC0FFD1FE10FF11D80810E9495
:10022000C900212FF1CF27960FB6F894DEBF0FBE7D
:10023000CDBFDF91CF911F910F910895CF93DF93A1
:10024000EC018991882319F00E94C900FACFDF914F
:10025000CF9108958EBD0DB407FEFDCF8EB50895E4
:100260008B3008F08AE08093330A9091320A913003
:1002700051F4E82FF0E0EC5FFD4F808190E0909327
:1002800099008093980008958B3008F08AE080935D
:10029000330AE82FF0E0EC5FFD4F808190E090930F
:1002A00099008093980080910201806480930201FC
:1002B00081E08093320A08952898880F80680E9410
:1002C0002A0180E00E942A01289A0895CF93C62F20
:1002D0002898880F0E942A018C2F0E942A01289AB0
:1002E000CF9108950F931F93CF93DF93162F082F6D
:1002F000EC01699189E00E9466018C2F801B8117B7
:10030000C0F3DF91CF911F910F910895CF93DF93A9
:1003100060E088E00E94660160E88AE00E94660171
:1003200066E083E392E00E94720164E08EE49AE06A
:100330000E9472016FE784E00E9466016EE081E036
:100340000E94660160E08DE00E946601C9EBDBE07F
:1003500084E00E945C01837121F42197C9F780E059
:100360000CC088E00E945C0183FFF9CF86E00E9408
:100370005C01982F9B7181E091F7DF91CF910895F7
:10038000CF92DF92EF92FF920F931F93CF93DF9361
:10039000EC01162F7A01690160E88AE00E9466018B
:1003A000612FCE010E94720160E08DE00E94660123
:1003B0006FE784E00E9466016CE081E00E946601C4
:1003C00060E88DE00E946601C9EBDBE084E00E94FA
:1003D0005C01817361F42197C9F780E0DF91CF91CF
:1003E0001F910F91FF90EF90DF90CF90089586E0DE
:1003F0000E945C018B7189F78AE00E945C0188236E
:10040000C9F0E114F104B1F0C114D10499F0F6017E
:100410001081811708F4182F0E2DCE2DDF2D8C2F73
:10042000801B811728F489E00E945C018993F7CF33
:10043000F601108381E0D2CFEF92FF920F931F93CA
:10044000CF93DF93CDB7DEB7A5970FB6F894DEBF95
:100450000FBECDBFE82E0E948601982F8823A1F100
:1004600080E38BA384E0F82EFCA280E18DA38E01B3
:100470000D5D1F4F9E012B5D3F4FAE014D5E5F4FE7
:1004800062E0C8010E94C001982F8823E9F08DA185
:100490008031C8F0EB8A80EA8983FA82FE01739684
:1004A000DE01139681918D93E017F107D9F730E0C3
:1004B00020E050E040E062E1CE0101960E94C001E0
:1004C00091E0811101C090E0892FA5960FB6F894B4
:1004D000DEBF0FBECDBFDF91CF911F910F91FF9077
:1004E000EF9008950F931F93CF93DF93CDB7DEB7AF
:1004F00063970FB6F894DEBF0FBECDBF8C010E948C
:1005000086018823D1F080E3898B84E08A8B80E1A7
:100510008B8B9E012D5E3F4FAE014F5F5F4F62E0C0
:10052000CE0141960E94C001882339F08B8988232F
:1005300021F08981F801808381E063960FB6F894F9
:10054000DEBF0FBECDBFDF91CF911F910F910895F8
:100550008B3098F08AE08093310A90918000906807
:1005600090938000E82FF0E0EC5FFD4F808190E0F9
:10057000909389008093880008958093310A8111B7
:10058000ECCF809180008F77809380002D9810921F
:100590008900109288000895FC018081813351F414
:1005A0008181823339F48281833321F481E0938124
:1005B000943309F080E008951092370A2E982F980E
:1005C0008DB3837F8DBB1092EE091092EF091092CC
:1005D000380A1092300A089581E08093370A2E9AE3
:1005E0008DB38C608DBB1092EE090895FC0180E004
:1005F0002AE0919130ED390F3A3030F4829F900D1E
:10060000112480ED890FF5CF0895CF92DF92EF92FC
:10061000FF920F931F93CF9310E000E0C0E0C8015A
:100620000E9466138F3F01F18EE4E82E8AE0F82ED7
:10063000C8018E549A406C01C6018E0D9F1D0E9408
:100640006613F70191917F0189130EC0F2E5EF1651
:10065000FAE0FF0689F78C2FCF911F910F91FF9041
:10066000EF90DF90CF900895CF5F0B5F1F4FCA30A0
:10067000B1F6CFEFF0CF5F926F927F928F929F9201
:10068000AF92BF92CF92DF92EF92FF920F931F93A0
:10069000CF93DF93CDB7DEB72C970FB6F894DEBFBC
:1006A0000FBECDBFCE0101965C01CC24DD24C81A5B
:1006B000D90A00EB10E0512C3E019DE0690E711C3F
:1006C000C8010E94661381508E3F18F575014601DE
:1006D000E0EB8E0E911CC4018E0D9F1D0E946613CF
:1006E000F70181937F01E615F705A9F7C8010C967C
:1006F0000E946613F82EC5010E941E0189E392E054
:100700000E941E018F2D90E00E94D6000E94D00012
:100710005394035F1F4FFDE0CF0ED11C023381E0E5
:10072000180771F6511006C08DE392E00E941E0179
:100730000E94D0002C960FB6F894DEBF0FBECDBF3E
:10074000DF91CF911F910F91FF90EF90DF90CF90AD
:10075000BF90AF909F908F907F906F905F90089523
:10076000CF93DF9360E088E00E94660160E081E063
:100770000E94660160E88AE00E94660160E589E007
:100780000E94660160E089E00E94660163E081E00A
:100790000E946601CFEF85E00E945C0182FD02C0ED
:1007A000C150C9F760E081E00E94660182E20E94C8
:1007B0005C01D82F81E20E945C01C82F6FE784E0C2
:1007C0000E94660160E88AE00E94660160E589E0B7
:1007D0000E94660160E089E00E9466016D2F89E059
:1007E0000E9466016C2F89E00E9466016CE081E046
:1007F0000E94660160E88DE00E9466018FE39FE140
:100800000197F1F700C0000060E081E00E946601FE
:1008100060E08DE0DF91CF910C94660192B19F7002
:1008200092B992B140E1849F90011124922B92B928
:10083000129A85E08A95F1F70000129887EC90E013
:100840000197F1F700C000000895CF93C82F109AC8
:1008500082958F700E940E048C2F8F700E940E0460
:1008600087EC90E00197F1F700C00000CF91089568
:10087000EF92FF920F931F93CF93DF9300D000D09E
:100880001F92CDB7DEB78C0197FF2DC08DE20E947D
:10089000250411950195110980E09AE0E92EF12CCB
:1008A00021E0280FE1E0F0E0EC0FFD1FE80FF11D63
:1008B00087FDFA95C801B7010E947C13805D808393
:1008C0008B01822F672B61F71216F4F41FEF120FC2
:1008D000E1E0F0E0EC0FFD1FE10FF11D80810E94CF
:1008E0002504212FF1CF892BB9F680E327960FB687
:1008F000F894DEBF0FBECDBFDF91CF911F910F9156
:10090000FF90EF900C94250427960FB6F894DEBF65
:100910000FBECDBFDF91CF911F910F91FF90EF9050
:100920000895CF93DF93EC018991882319F00E94F9
:100930002504FACFDF91CF910895CF93C82F109857
:1009400082958F700E940E048C2F8F700E940E046F
:1009500087EC90E00197F1F700C00000CF91089577
:10096000CF9380E80E949D04C0E0E0913A0AEC0F2A
:100970008091390AE81758F4F0E0EC53F64F808183
:100980000E942504CF5FC03181F7CF91089580E2A6
:10099000F7CF8091300A8F5F8093300A833058F40C
:1009A00080E80E949D0489E492E00E9491048BE516
:1009B00092E00C941E0182E08093370A83E08093DA
:1009C000380A2F9A1092300A80E80E949D0488E627
:1009D00092E00E94910489E792E0EBCF4F925F9200
:1009E0006F927F928F929F92AF92BF92CF92DF923F
:1009F000EF92FF920F931F93CF93DF93CDB7DEB7A4
:100A00002C970FB6F894DEBF0FBECDBF2C01CE01E0
:100A100001966C01EE24FF24E81AF90A80EB682E97
:100A2000712C5E019DE0A90EB11C86014701E0EB2F
:100A30008E0E911CC401800F911F0E946613F80155
:100A400081938F01EA15FB05A9F74BE050E0B20155
:100A5000C6010E94FA13892B61F4C3010E94661338
:100A600081508E3F20F460E0C3010E946E1381E04C
:100A70000CC0FDE06F0E711C8DE0E80EF11C92E3DE
:100A8000691691E0790689F680E02C960FB6F89405
:100A9000DEBF0FBECDBFDF91CF911F910F91FF90B1
:100AA000EF90DF90CF90BF90AF909F908F907F900E
:100AB0006F905F904F9008953F924F925F926F9228
:100AC0007F928F929F92AF92BF92CF92DF92EF92DE
:100AD000FF920F931F93CF93DF93CDB7DEB72C9781
:100AE0000FB6F894DEBF0FBECDBF482E392E562E5E
:100AF000CE0101965C01CC24DD24C81AD90A00EB92
:100B000010E03E019DE0690E711C7501460180EB0D
:100B1000880E911CC4018E0D9F1D0E946613F70163
:100B200081937F01E615F705A9F74BE050E0642DAE
:100B3000732DC5010E94FA13892B09F03FC0045F91
:100B40001F4FC8010E946613851521F0652DC8014D
:100B50000E946E1382E012C07C0160E0C7010E9417
:100B60006E13B3949FEFE91AF90AECE0BE12F5CFC9
:100B7000652DC8010C960E946E1381E02C960FB66D
:100B8000F894DEBF0FBECDBFDF91CF911F910F91C3
:100B9000FF90EF90DF90CF90BF90AF909F908F909D
:100BA0007F906F905F904F903F900895035F1F4F2D
:100BB0000233F1E01F0771F480E0E0CF035F1F4FC5
:100BC000FDE0CF0ED11C023381E0180709F09DCF64
:100BD00000EB10E0C8010E94661381508E3F30F395
:100BE000E42CF32CD12CC12CBC2CF70161917F019A
:100BF000C8018C0D9D1D662309F4AECF0E946E13B3
:100C0000FFEFCF1ADF0A8BE0C816D10469F760E066
:100C1000C8010B960E946E13ABCF1F93CF93DF9347
:100C2000EC01162F0E946613811739F0612FCE0157
:100C3000DF91CF911F910C946E13DF91CF911F9193
:100C400008951F920F920FB60F9211242F933F9386
:100C50008F939F93AF93BF9380914A0A90914B0AD1
:100C6000A0914C0AB0914D0A3091490A23E0230F1C
:100C70002D3758F50196A11DB11D2093490A809387
:100C80004A0A90934B0AA0934C0AB0934D0A809164
:100C9000450A9091460AA091470AB091480A0196E8
:100CA000A11DB11D8093450A9093460AA093470A5F
:100CB000B093480ABF91AF919F918F913F912F912F
:100CC0000F900FBE0F901F90189526E8230F0296E5
:100CD000A11DB11DD2CF1F920F920FB60F921124FA
:100CE0000BB60F922F938F939F93EF93FF93909157
:100CF000C6008091C00085FFFCCF9093C600809114
:100D00000E0A8F5F8F7120912F0A281741F0E09112
:100D10000E0AF0E0E15FF54F908380930E0AFF9199
:100D2000EF919F918F912F910F900BBE0F900FBE5F
:100D30000F901F9018951F920F920FB60F921124CB
:100D40000BB60F922F933F934F935F936F937F93C5
:100D50008F939F93AF93BF93CF93DF93EF93FF93C3
:100D600030E020E0A1E0B0E07FE0622FCD01022E74
:100D700001C0880F0A94EAF7872780930B018AE65F
:100D80008A95F1F700C086B180958F7091F050E0A0
:100D900040E090E0E42FEC01042E02C0D595C79509
:100DA0000A94E2F7C0FD55C04F5F5F4F44305105D4
:100DB00089F72F5F3F4F24303105B9F6EFEF80916F
:100DC00001028E1341C08091ED098F3F29F080917F
:100DD000ED098F5F8093ED098091ED098230F9F480
:100DE000809100028E17D9F0E0930002EF3FB9F036
:100DF0008091F509811113C08E2F86958695E37039
:100E000024E0829FC0011124815F9D4FE80FF92FDC
:100E1000F11D80818093F40981E08093F509FF91B1
:100E2000EF91DF91CF91BF91AF919F918F917F9182
:100E30006F915F914F913F912F910F900BBE0F904B
:100E40000FBE0F901F901895E09301021092ED09CC
:100E5000C3CFEE0FEE0FE60FB2CF1F920F920FB679
:100E60000F9211248F9381E08093EE0984E08093A8
:100E7000EC098F910F900FBE0F901F9018951F9245
:100E80000F920FB60F9211248F9381E08093EE0999
:100E900083E08093EC098F910F900FBE0F901F900D
:100EA00018951F920F920FB60F9211248F9381E025
:100EB0008093EF0982E08093EC098F910F900FBE31
:100EC0000F901F9018951F920F920FB60F9211243A
:100ED0008F9381E08093EF098093EC098F910F90BD
:100EE0000FBE0F901F901895DC01E4ECF9E090E044
:100EF0002D91222329F0973219F021939F5FF8CF8B
:100F0000E92FF0E0EC53F64F10829093390A1092DB
:100F10003A0A10923C0A10923B0A0E94B00481E007
:100F20009091390A913108F480E08093440A089541
:100F3000CF93DF93CDB7DEB7AB970FB6F894DEBF94
:100F40000FBECDBF789484B5826084BD84B58160C6
:100F500084BD85B5826085BD85B5816085BD809184
:100F60006E00816080936E001092810080918100FC
:100F700082608093810080918100816080938100F4
:100F8000809180008160809380008091B1008460B6
:100F90008093B1008091B00081608093B000809117
:100FA0009100826080939100809191008160809394
:100FB0009100809190008160809390008091A100C9
:100FC00082608093A1008091A10081608093A10044
:100FD0008091A00081608093A000809121018260B7
:100FE0008093210180912101816080932101809172
:100FF000200181608093200180917A008460809339
:101000007A0080917A00826080937A0080917A00E1
:10101000816080937A0080917A00806880937A0062
:101020001092C1008FEF81B912B82FEF40E782E034
:10103000215040408040E1F700C00000109883E05C
:101040000E940E04EFE1FEE43197F1F700C00000CA
:1010500083E00E940E0487E592E00197F1F700C05B
:10106000000083E00E940E04E7ECF0E03197F1F716
:1010700000C0000082E00E940E0487EC90E001971F
:10108000F1F700C0000088E20E949D048CE00E94FD
:101090009D0486E00E949D0481E00E949D04EFE390
:1010A000FFE13197F1F700C0000080910A018F60E5
:1010B00080930A0180910B018F6080930B0187B1AF
:1010C000807F87B988B18F6088B982E08093B00053
:1010D00095E09093B1009BE99093B30080937000EA
:1010E0001092F4091092F5091092C50087E68093DA
:1010F000C4001092C00088E98093C10086E080930C
:10110000C20010920E0A10922F0A84B1806C84B92A
:1011100085B18F7385B980EF809369008FE08093EC
:101120006A0080E38DBB1092370A1092EF0910928B
:10113000EE091092380A1092300A80E480937C0005
:1011400010927B0087E880937A0080917A00806417
:1011500080937A0080917A0086FDFCCF80917800A0
:10116000909179008091010188608093010182E86B
:101170008093A0008AE18093A1008FE39CE9909383
:10118000A7008093A60080ED97E09093A90080933C
:10119000A800809107018861809307018091080170
:1011A000877E80930801259A2D9881E080938000A6
:1011B0009AE090938100109289001092880010921A
:1011C000310A8091010180628093010180910201C6
:1011D0008F7D809302011092410A10923E0A109274
:1011E0003D0A1092400A10923F0A809101018064EA
:1011F00080930101809102018F7B809302016B9AA1
:1012000081E8809390009093910010929900109241
:1012100098001092320A1092330A9D9AA59AFFEF15
:1012200020E742E0F15020404040E1F700C00000DC
:1012300084B1876084B92398289A81E58CBD6FE0DA
:1012400081E00E94660113E08FEF90E7E2E08150B9
:101250009040E040E1F700C0000081E00E945C01A6
:1012600084FF02C0115081F76DE88AE20E94660196
:1012700067E08BE20E94660160E08CE20E946601FA
:101280006FE38DE20E94660160E485E10E946601E1
:101290006DE381E10E94660184E10E945C01982F68
:1012A000937029F4682F636084E10E9466011092B4
:1012B000F309989AA098789481E00E949D048FE3A6
:1012C0009FE10197F1F700C0000080E80E949D04B3
:1012D0008AEC92E00E94910480EC0E949D048BEDC8
:1012E00092E00E9491040E94D0008CEE92E00E9455
:1012F0001E010E94D00087E393E00E941E010E941D
:10130000D00088E693E00E941E010E94D000109257
:10131000FB09CC24CA9433E0D32EE12CF12C80912C
:10132000EF09882309F44BC01092EF0981E0809304
:10133000380A2F9A8091380A1092440A813009F0B5
:101340004CC080E80E949D0487EE93E00E949104C7
:1013500088EF93E00E941E010E94D0008091F30963
:10136000813009F492C008F445C0823009F4CFC13D
:101370008091F509882309F452C48091F509909170
:101380000D0A882311F40C942F138091F409109204
:10139000F4091092F5098A3209F0E3C110920302B0
:1013A00010920202992309F4CFC110920D0A80EC29
:1013B0000E949D0488EB95E00E94910430C48091C6
:1013C000EE09882359F21092EE098091370A813094
:1013D00029F682E08093370AAACF823009F0BECF87
:1013E00080E80E949D0488E094E00E94910489E1D5
:1013F00094E0B0CF8091F2098F5F853018F480932C
:10140000F209B6CF1092F20960E081E00E94660115
:1014100060E88AE00E94660186E2898361E0CE018D
:1014200001960E94720167E08DE00E9466016FE7FD
:1014300084E00E9466016CE081E00E94660167E83A
:101440008DE00E94660109EB1BE084E00E945C01D4
:10145000817319F401501109C1F784E00E945C0105
:10146000082F8AE00E945C01182F60E081E00E9452
:10147000660105FF7DCF112309F47ACF89E00E9430
:101480005C0181E08093F30973CF83E989A780E24F
:101490008AA715E01BA79E01255D3F4FAE014F5F58
:1014A0005F4F62E0CE0189960E94C001882309F453
:1014B00048C18BA5853008F444C149813A812B810C
:1014C0008C81942F9327922798275D81951339C19A
:1014D00040934E0A30934F0A2093500A8093510A4A
:1014E0008091360A811113C00E9405038F3F09F0D5
:1014F000C2C08AE095E00E941E010E94D00080ECEC
:101500000E949D048AE195E00E94910447C08130C9
:1015100009F061C00E9405038F3F09F049C010E047
:1015200000E0C8010E9466138F3FE1F57090340A15
:101530002EE4A22E2AE0B22E912C812CF50161918D
:101540005F01C801880D991D0E940D06FFEF8F1ADB
:101550009F0A24E08216910489F7672DC80104963A
:101560000E940D068091340A882339F18BE494E0BF
:101570000E941E018091350A90E00E94D6000E94D0
:10158000D00080EC0E949D048DE594E00E949104BF
:101590008091350A0E941C021092360A0E94B00304
:1015A00082E070CF0B5F1F4F0233110509F0B9CFF6
:1015B0008EE694E00E941E0152C087E294E00E94F1
:1015C0001E010E94D00080EC0E949D048AE394E0FA
:1015D0000E949104E1CF8230C9F40E9405038F3F3D
:1015E00091F06FEF819FC00111240E940D068DE8DC
:1015F00094E00E941E010E94D00080EC0E949D0495
:1016000088E994E0E5CF89EA94E0D4CF833021F6ED
:101610000E9405038F3FB9F3819FC00111240496F6
:101620000E946613813021F51982CE0101960E9435
:1016300072028823D1F089811091350A180F18178A
:1016400008F41FEF812F0E941C02882359F08DEBB4
:1016500094E00E941E01812F90E00E94D6000E941B
:10166000D0009ACF89EC94E0A5CF81EE94E0A2CF90
:1016700085EF94E09FCF819FC001112404960E94C2
:10168000661381110DC0A09A8BE295E00E941E01A5
:101690000E94D00080EC0E949D0483E495E034CF4A
:1016A0001982CE0101960E947202882369F1898114
:1016B0008823F1F0815089830E941C02882389F0DD
:1016C000A09A84E595E00E941E01898190E00E9425
:1016D000D6000E94D00080EC0E949D048BE695E02D
:1016E00013CF89EC94E00E941E010E94D00056CFD7
:1016F0008CE795E00E941E010E94D00080EC0E94C1
:101700009D0486E995E000CF81EE94E0ECCF8091D6
:10171000F0099091F1090196803D47E0940728F483
:101720009093F1098093F00923CE1092F109109261
:10173000F009A09880EC0E949D0487EA95E00E9441
:1017400091041092F30914CE81E080930D0A109257
:101750000C0A1092FC0980EC0E949D0489EC95E033
:101760002BCE992309F4D2C21092030210920202E6
:10177000833209F07DC710920D0A80EC0E949D040F
:1017800087EA95E00E94910480E0E82FF0E0E450C1
:10179000F64F9081992311F08F5FF7CF823058F088
:1017A0008091FC0990ED980F9A3028F41091FD0972
:1017B00010531A3050F080E80E949D048AED95E0A5
:1017C0000E9491048BEE95E0C6C080539AE0899FF9
:1017D000100D11248EEF99E00E94F602982E61E41C
:1017E00070E08EEF99E00E94E8135C0100E0009742
:1017F00021F001960E94F602082F193209F479C1EE
:10180000D0F5153109F4AAC028F51B3009F487C0BA
:10181000143109F4CCC01A3041F580EC0E949D04CB
:1018200084E496E00E94910485E596E00E941E0102
:101830000E94D00080ED97E09093A9008093A800CB
:1018400080EC0E949D0488E696E00E94910489E75E
:1018500096E081C0173109F4E5C008F4BDC01E311F
:1018600009F432C11F3109F4E8C080E80E949D04E8
:101870008AE898E0A5CF1C3309F421C280F5133320
:1018800009F458C11B3309F4A3C1123371F7EFEF08
:10189000E90DEA3008F05CC1F0E0EE0FFF1FE15EF9
:1018A000FD4F008111810115110509F451C1C801D5
:1018B0000E94EE04882309F481C1B801CE0101968B
:1018C0000E94F31363E877E0CE0101960E94DD13D6
:1018D000CE0101960E9474078EE897E03CC01E334B
:1018E00009F4CFC108F4B1C11A3509F4FBC11B35A5
:1018F00009F0BBCF8EEF99E00E94CC02882309F457
:10190000BBC10E94EC021092300A80E80E949D0444
:1019100080E698E00E94910481E798E01CC080EC8A
:101920000E949D048DEF95E00E9491048EE096E068
:101930000E941E010E94D00080EA9FE09093A900BF
:101940008093A80080EC0E949D0481E296E00E94B2
:10195000910482E396E00E941E0190C1892D0E94AD
:10196000440180E80E949D048BE896E00E94910467
:1019700089EC0E949D0480EB95E00E94910489EC23
:101980000E949D048CE996E00E9491048091330AA4
:1019900090E00E9438048FE996E00E94910483EA67
:1019A00096E00E941E018091330A90E08AC08091E7
:1019B00002018F7B8093020110929900109298008F
:1019C0001092320A80E80E949D0481EB96E00E940A
:1019D000910482EC96E0BFCF8091320A813019F0F9
:1019E00080ED96E0B8CF8091330A8F5F0E9430017E
:1019F00089EC0E949D0480EB95E00E94910489ECA3
:101A00000E949D048CE996E00E9491048091330A23
:101A100090E00E9438048FE996E00E94910485EEE0
:101A200096E0BFCF8091320A8130D1F68091330A9F
:101A3000815087FFDBCF80E0D9CFECE30E9FC00160
:101A4000112490933E0A80933D0A90910201906286
:101A50009093020181E08093410A1092400A109213
:101A60003F0A80E80E949D048DEE96E00E9491045A
:101A700086E80E949D04A92CB12CC5010E9438045F
:101A800083E40E94250489EC0E949D0480EB95E08C
:101A90000E94910489EC0E949D0410E0C8010E94FC
:101AA00038048EEF96E00E94910482E097E00E9455
:101AB0001E01C5010E94D6008FEE98E00E941E0113
:101AC000C8010E94D600DAC0809102018F7D809308
:101AD00002011092410A10923E0A10923D0A80E8DB
:101AE0000E949D048CE097E00E9491048DE197E0B4
:101AF00032CF892D0E94A80289EC0E949D0480EBC0
:101B000095E00E94910489EC0E949D0481EE98E08A
:101B10000E9491048091310A90E00E9438048FE97C
:101B200096E00E9491048AE297E00E941E01809153
:101B3000310A3BCFEFEFE90DEA3050F4F0E0EE0F61
:101B4000FF1FE15EFD4FA080B180A114B10451F4EC
:101B500080E80E949D0482E397E00E94910483E460
:101B600097E0F9CE602FC5010E945C05182F811106
:101B70000AC080E80E949D048EE597E00E949104CF
:101B80008FE697E0E8CEB501CE0101960E94F313EF
:101B900068E872E0123011F065E972E0CE0101965A
:101BA0000E94DD13CE0101960E9474078FE992E036
:101BB000123009F4D0CE86EB92E0CDCE80E80E94C0
:101BC0009D0483EA97E00E94910484EB97E0C3CEE2
:101BD00080E80E949D0480ED97E00E94910400EB54
:101BE00010E0B12CC8010E94661381508E3F08F4AA
:101BF000B394035F1F4F0233F1E01F0799F78B2D5A
:101C000090E00E9438048AED97E00E94910481EEF2
:101C100097E00E941E010E94D0000E943B03809129
:101C20002F0A90910E0A981709F493C3E82FF0E059
:101C3000E15FF54F90819A3009F40CC190819D309D
:101C400009F408C18F5F8F71ECCF8EEF99E00E948D
:101C5000CC02882389F081E08093360A1092340AFE
:101C60001092350A80E80E949D048AEF97E00E9456
:101C700091048BE098E06FCE0E94C9040E94D000CE
:101C8000CECFC5010196AB2811F48EEF99E00E94EA
:101C9000CC02882389F391E09093360A9093340A1A
:101CA0009092350A80E80E949D048FE198E00E949E
:101CB000910480E398E00E941E01892D76CE8EEF7C
:101CC00099E00E94CC028823B9F282E08093360A20
:101CD00080E80E949D0483E498E00E94910484E5DA
:101CE00098E039CE8EEF99E00E94CC02882321F251
:101CF0000E94DC021092300A80E80E949D048AEC67
:101D000092E00E9491048BE798E025CE10920302A6
:101D10001092020290ED980F9A3068F5E091FB095D
:101D2000E43008F07CCF91E09E0F9093FB09F0E047
:101D3000EA50F64F8083E92FF0E0EA50F64F108228
:101D400080EC0E949D0480EA98E00E94910400E0EB
:101D50001091FB09011728F48AE20E9425040F5F05
:101D6000F7CF143028F48FE50E9425041F5FF9CFC8
:101D700083EB95E021CB813419F58091FB09843008
:101D8000B1F486EF99E00E94CC02882381F00E9492
:101D9000EC021092300A80E80E949D0480E698E0F0
:101DA0000E94910481E798E00E941E0102C00E94F7
:101DB000C9040E94D0001092FB091092F6092FCF9F
:101DC0008234C1F48091FB09843089F786EF99E071
:101DD0000E94CC02882359F30E94DC021092300A40
:101DE00080E80E949D048AEC92E00E9491048BE7B7
:101DF00098E0DACF833411F58091310A8F5F8B3010
:101E000008F08AE00E94A80289EC0E949D0480EB01
:101E100095E00E94910489EC0E949D0481EE98E077
:101E20000E9491048091310A90E00E9438048FE969
:101E300096E00E94910489EA98E077CE843409F014
:101E4000EECE8091310A8150990B8F3F9807D1F6E1
:101E500080E0D8CF20E090910E0A80912F0A981749
:101E6000A1F12F3190F590910E0A80912F0A9817C9
:101E700009F44DC0E0912F0AF0E0E15FF54F808159
:101E800090912F0A9F5F9F7190932F0A8A3011F0D3
:101E90008D30A1F530910E0A90912F0A3917A9F0D3
:101EA000E0912F0AF0E0E15FF54F90818D3049F429
:101EB0009A3059F480912F0A8F5F8F7180932F0A87
:101EC00004C08A3011F49D30A9F3E1E0F0E0EC0F9A
:101ED000FD1FE20FF11D1082222309F43AC28E0188
:101EE0000F5F1F4FF80181918F018823D1F090E09F
:101EF0000E94D513F80131978083F4CF883011F018
:101F00008F3731F4222309F4A6CF2150A4CF80E0EB
:101F1000E1E0F0E0EC0FFD1FE20FF11D80832F5F89
:101F20009ACF44E050E061EB78E0CE0101960E9448
:101F3000FA13892BD9F4CE0105960E94CC0288238E
:101F400081F00E94EC021092300A80E80E949D0409
:101F500080E698E00E94910481E798E00E941E01CB
:101F600002C00E94C9040E94D000F3C147E050E0C3
:101F70006EEA78E0CE0101960E94FA13892BA1F453
:101F8000CE0108960E94CC02882359F30E94DC02FD
:101F90001092300A80E80E949D048AEC92E00E9430
:101FA00091048BE798E0DACF44E050E069EA78E00A
:101FB000CE0101960E94FA13892B11F5CE010596E8
:101FC0000E94F6020E94A8021092030210920202DE
:101FD00089EC0E949D0481EE98E00E94910480911A
:101FE000310A90E00E9438048FE996E00E94910443
:101FF0008AE297E00E941E018091310A90E0AEC013
:102000004CE050E066EB78E0CE0101960E94FA13B6
:10201000892BE9F480EC0E949D048DEF95E00E94ED
:1020200091048EE096E00E941E010E94D00080EA9A
:102030009FE09093A9008093A80080EC0E949D04EB
:1020400081E296E00E94910482E396E087CF4DE022
:1020500050E069E273E0CE0101960E94FA13892BE9
:10206000E9F480EC0E949D0484E496E00E949104CF
:1020700085E596E00E941E010E94D00080ED97E069
:102080009093A9008093A80080EC0E949D0488E6AC
:1020900096E00E94910489E796E060CF46E050E028
:1020A00063EC78E0CE0101960E94FA13892B09F0C7
:1020B00058C0CE0107960E94F602A82E6CE270E08E
:1020C000CE0107960E94E81300E0009721F00196E8
:1020D0000E94F602082FFCE30F9FC0011124909389
:1020E0003E0A80933D0A8091020180628093020142
:1020F00081E08093410A1092400A10923F0A80E8E2
:102100000E949D048DEE96E00E94910486E80E9454
:102110009D04B12CC5010E94380483E40E9425046B
:1021200089EC0E949D0480EB95E00E94910489EC6B
:102130000E949D0410E0C8010E9438048EEF96E0D2
:102140000E94910482E097E00E941E01C5010E9456
:10215000D6008FEE98E00E941E01C8010E94D600B2
:1021600002CF4AE050E06AEC78E0CE0101960E948E
:10217000FA13892BA9F4809102018F7B80930201CD
:1021800010929900109298001092320A80E80E94F2
:102190009D0481EB96E00E94910482EC96E0DECEF5
:1021A00049E050E065ED78E0CE0101960E94FA1317
:1021B000892BC9F51091330A111101C015E06CE2A9
:1021C00070E0CE010A960E94E813009721F0019674
:1021D0000E94F602182F812F0E94440180E80E947D
:1021E0009D048BE896E00E94910489EC0E949D0476
:1021F00080EB95E00E94910489EC0E949D048CE99B
:1022000096E00E9491048091330A90E00E94380485
:102210008FE996E00E94910483EA96E00E941E01F5
:102220008091330AEBCE44E050E06FED78E0CE01D0
:1022300001960E94FA13892BB9F58091320A8130F8
:1022400019F080ED96E08ACE8D818B32F9F4809181
:10225000330A8F5F0E94300189EC0E949D0480EB5D
:1022600095E00E94910489EC0E949D048CE996E01F
:102270000E9491048091330A90E00E9438048FE913
:1022800096E00E94910485EE96E0C8CF8D3239F435
:102290008091330A815087FFDDCF80E0DBCFCE0114
:1022A00005960E94F602D6CF4CE050E064EE78E04E
:1022B000CE0101960E94FA13892B11F56CE270E0B1
:1022C000CE010D960E94E8130097B9F0FC0111921F
:1022D000CF010E94F602682FCE010D960E945C0588
:1022E000811103C08FE697E039CE823019F48FE96F
:1022F00092E034CE86EB92E031CE81EF98E02ECEA4
:102300004CE050E067E079E0CE0101960E94FA13BC
:10231000892B61F4CE010D960E94EE04882319F0FA
:102320008EE897E01BCE84EB97E018CE4CE050E0AF
:102330006AED73E0CE0101960E94FA13892B09F031
:1023400091C081EE97E00E941E010E94D0000E9481
:102350003B038091440A882371F080913B0A90915D
:102360003C0A01968C32F1E09F0708F005C190937A
:102370003C0A80933B0A2091420A3091430A2F5F26
:102380003F4F3093430A2093420A8091020290917A
:10239000030201969093030280930202203D37408E
:1023A00008F444C01092430A1092420A803E9E42B2
:1023B000E0F00E9495008C0180EC0E949D0488E66C
:1023C00099E00E9491049801A8E2B0E00E94B21343
:1023D000A70196010E949013822F220F990B0E9451
:1023E00038048BE699E00E9491040E9495009C01BC
:1023F000A8E2B0E00E94B213A70196010E949013D8
:102400008091080183FDEEC022312CF480910801F7
:102410008860809308018091080184FDEAC02B3117
:102420002CF0809108018061809308018091410A1D
:10243000882371F080913F0A9091400A0196803A7A
:10244000FFE09F0708F0DCC09093400A80933F0AAA
:1024500080E090E0892B11F40C948F090E94000019
:102460000C948F094DE050E064E179E0CE010196D3
:102470000E94FA13892B89F4CE010E960E94CC0299
:10248000882309F46ECD81E08093360A1092340AD5
:102490001092350A8BE098E061CD4BE050E062E2AB
:1024A00079E0CE0101960E94FA13892B19F5CE012D
:1024B0000C960E94F602182F6CE270E0CE010C968A
:1024C0000E94E813009799F001960E94CC0288239D
:1024D00009F447CD81E08093360A8093340A109343
:1024E000350A80E398E00E941E01812F87CDCE013E
:1024F0000C96EBCF47E050E06EE279E0CE0101961A
:102500000E94FA13892B69F4CE0108960E94CC022E
:10251000882309F426CD82E08093360A84E598E08A
:102520001DCD48E050E066E379E0CE0101960E94BF
:10253000FA13892BF1F4CE0109960E94F602182FA6
:102540006CE270E0CE0109960E94E813009771F0EA
:1025500001960E94CC02882309F403CD83E0809386
:10256000360A1093350A8FE399E0BDCFCE01099664
:10257000F0CF8EE499E0F2CC10923C0A10923B0A24
:1025800080913A0A8F5F80933A0A9091390A98179E
:1025900030F51092440A80E80E949D048091370A29
:1025A000813029F480E698E00E949104E4CE809185
:1025B000370A823089F48091380A813019F487EE25
:1025C00093E0F2CF8091380A823019F488E094E0E9
:1025D000EBCF88E692E0E8CF8AEC92E0E5CF0E946C
:1025E000B004C9CE25310CF416CF80910801877F45
:1025F00010CF28310CF01ACF809108018F7E14CFB4
:102600001092400A10923F0A80913D0A90913E0A32
:10261000009729F0019790933E0A80933D0A80919C
:102620003D0A90913E0A892B09F012CF8091020158
:102630008F7D809302011092410A10923E0A1092FF
:102640003D0A80E80E949D0480E799E00E94910481
:1026500081E899E00E941E010E94D000F9CE80E03E
:10266000992309F453CB109203021092020280E0E6
:1026700090ED980F9A3018F0813409F0D0CAE091AB
:102680000C0AEF3068F491E09E0F90930C0AF0E092
:10269000E450F64F8083E92FF0E0E450F64F1082CB
:1026A00080EC0E949D048BE998E00E9491048CEFDD
:1026B00099E00E94910410910C0A1C5F103108F0FF
:1026C000AECA80E20E9425041F5FF8CFF999FECFC1
:1026D00092BD81BDF89A992780B50895262FF99962
:1026E000FECF1FBA92BD81BD20BD0FB6F894FA9AF5
:1026F000F99A0FBE0196089597FB072E16F40094E1
:1027000007D077FD09D00E94C11307FC05D03EF425
:10271000909581959F4F0895709561957F4F08958D
:10272000A1E21A2EAA1BBB1BFD010DC0AA1FBB1FD5
:10273000EE1FFF1FA217B307E407F50720F0A21B47
:10274000B30BE40BF50B661F771F881F991F1A94B4
:1027500069F760957095809590959B01AC01BD01DE
:10276000CF010895A29FB001B39FC001A39F700D38
:10277000811D1124911DB29F700D811D1124911D89
:102780000895AA1BBB1B51E107C0AA1FBB1FA617B8
:10279000B70710F0A61BB70B881F991F5A95A9F70A
:1027A00080959095BC01CD010895911108958156B1
:1027B0008A5108F4805285580895FB01DC010D9080
:1027C0000020E9F7119701900D920020E1F708959C
:1027D000FC018191861721F08823D9F79927089564
:1027E0003197CF010895FB01DC0101900D9200208B
:1027F000E1F70895FB01DC014150504030F08D912C
:102800000190801919F40020B9F7881B990B0895DD
:04281000F894FFCF6A
:10281400FFFF0F27000204080E192C4E7CB4FF3171
:1028240032334134353642373839432A3023448BE6
:1028340009910995099C09A209A909B009B509B921
:1028440009BF09FFFFFFFFFFFF207820004C495319
:10285400544120564143494100434F4449474F2086
:10286400494E434F52524543544F004552524F52E2
:102874003A434F4449474F00212120494E54525571
:10288400534F20212120202000414C41524D413AF8
:10289400494E545255534F002041435455414C49DD
:1028A4005A41444F0020414752454741444F004F4D
:1028B4004B3A4D45524341444F5F41435455414C7B
:1028C400495A41444F004F4B3A4D45524341444FBE
:1028D4005F414752454741444F00414C41524D41AD
:1028E4003A20444553414354495600543A2D2D430C
:1028F400202020204C3A302F31302000436F6D616E
:102904006E646F733A2041524D3A78787878202F6C
:102914002044495341524D3A78787878202F204CFE
:10292400555A3A302D3130202F20474152414A45E3
:102934003A4142524952202F20474152414A453A96
:1029440043455252415200454E524F4C3A41445530
:102954004C544F202F20454E524F4C3A48494A4F31
:102964002C4E202F20424F52524152202F204143BF
:102974004345534F533A4E00484F524E4F3A7465B5
:102984006D702C6D696E202F20534F4E49444F3A81
:102994004F4E5B2C302D31305D202F20534F4E494C
:1029A400444F3A4F4646202F20564F4C3A4E202F44
:1029B40020564F4C3A2B202F20564F4C3A2D202F87
:1029C400204D45524341444F3A4144442C6E6F6D6F
:1029D4002C63616E74202F204D45524341444F3A7D
:1029E40044454C2C6E6F6D202F204D45524341447D
:1029F4004F3A4C49535400212120494E43454E44FB
:102A0400494F202121202000414C41524D413A4957
:102A14004E43454E44494F00212120494E545255BE
:102A240053494F4E2021212000414C41524D413AFF
:102A340041434345534F004F4B3A454E524F4C414F
:102A4400444F5F4144554C544F00454E524F4C4106
:102A5400444F204144554C544F20004F4B3A454E6F
:102A6400524F4C41444F5F48494A4F2C00454E5207
:102A74004F4C41444F2048494A4F202020004552A2
:102A8400524F523A454550524F4D5F4C4C454E4182
:102A94005F4F5F4455504C494341444F004F4B3ABC
:102AA400424F525241444F005441524A45544120EE
:102AB400424F525241444120004552524F523A55DE
:102AC40049445F4E4F5F455849535445004F4B3A74
:102AD40041434345534F532C004552524F523A45BC
:102AE400534352494249525F434F4E5441444F521B
:102AF400004552524F523A4C4545525F434F4E5453
:102B040041444F52004552524F523A5549445F4E48
:102B14004F5F45535F48494A4F0041434345534F34
:102B24003A44454E454741444F0041434345534F82
:102B34002044454E454741444F20004143434553BB
:102B44004F3A434F4E43454449444F5F4144554CEB
:102B5400544F0041434345534F204144554C544F37
:102B64002020200041434345534F3A434F4E4345B1
:102B74004449444F5F48494A4F2C0041434345531D
:102B84004F2048494A4F20202020200041434345FC
:102B9400534F3A44454E454741444F5F53494E5F76
:102BA4004355504F530053494E204355504F5320E3
:102BB4002020202020200020202020202020202031
:102BC4002020202020202000434D442043414E4318
:102BD400454C41444F20202000434D443A202020BE
:102BE40020202020202020202000434D4420494E36
:102BF40056414C49444F20202020004552524F5208
:102C04003A434D445F5445434C41444F004741527D
:102C1400414A452041425249454E444F20004F4BC2
:102C24003A474152414A455F41425249454E444F19
:102C340000202020202020202020414249455254B9
:102C44004F004F4B3A474152414A455F4142494543
:102C540052544F00474152414A4520434552524144
:102C64004E444F20004F4B3A474152414A455F433F
:102C7400455252414E444F00202020202020202045
:102C8400204345525241444F004F4B3A4741524131
:102C94004A455F4345525241444F00534F4E4944C5
:102CA4004F3A204F4E20202020202000563A002F5B
:102CB4003130004F4B3A534F4E49444F5F4F4E2CE7
:102CC40000534F4E49444F3A204F4646202020207F
:102CD40020004F4B3A534F4E49444F5F4F464600F6
:102CE4004552524F523A534F4E49444F5F4150411F
:102CF4004741444F004F4B3A564F4C2C00484F52DB
:102D04004E4F3A20202020202020202020006D69D2
:102D14006E004F4B3A484F524E4F2C00484F524E84
:102D24004F3A204F4646202020202020004F4B3A87
:102D3400484F524E4F5F4F4646004F4B3A4C555A00
:102D44002C0050524F4420444553434F4E4F434967
:102D5400444F004552524F523A50524F44554354F7
:102D64004F5F444553434F4E4F4349444F004D45F5
:102D7400524341444F204C4C454E4F2020200045A7
:102D840052524F523A4D45524341444F5F4C4C4589
:102D94004E4F0020454C494D494E41444F004F4B46
:102DA4003A4D45524341444F5F454C494D494E418C
:102DB400444F004D455243204E4F204558495354EB
:102DC400452020004552524F523A4D45524341440A
:102DD4004F5F4E4F5F454E434F4E545241444F0058
:102DE4004D45524341444F3A2000206974656D209B
:102DF400002D2D2D204C49535441204445204D4550
:102E0400524341444F202D2D2D00454E524F4C200E
:102E14004144554C544F20202020004F4B3A454EFE
:102E2400524F4C414E444F5F4144554C544F004522
:102E34004E524F4C2048494A4F2020202020200049
:102E44004F4B3A454E524F4C414E444F5F48494ACE
:102E54004F2C00424F52524152205441524A455441
:102E6400412020004F4B3A424F5252414E444F00B2
:102E7400414C41524D413A2041524D414441202060
:102E8400004F4B3A41524D414441004F4B3A444567
:102E940053414354495641444100434D4420444521
:102EA40053434F4E4F4349444F2000434D443A004F
:102EB400436F6469676F3A20004C555A3A0044499D
:102EC4005341524D3A00474152414A453A414252D8
:102ED400495200484F524E4F3A00534F4E49444FC7
:102EE4003A4F464600534F4E49444F3A4F4E0056D0
:102EF4004F4C3A004D45524341444F3A4144442CCF
:102F0400004552524F523A464F524D41544F5F4D35
:102F140045524341444F004D45524341444F3A4486
:102F2400454C2C00454E524F4C3A4144554C544F5D
:102F34002C00454E524F4C3A48494A4F2C00424FC0
:102F4400525241522C0041434345534F533A004F90
:102F54004B3A524543415247414E444F2C0045524F
:102F6400524F523A434F4D414E444F5F44455343B1
:102F74004F4E4F4349444F00543A00432020200011
:102F8400484F524E4F3A204C4953544F2020202052
:102F940000484F524E4F3A46494E006C656368658F
:102FA4000070616E00687565766F73006172726F90
:102FB4007A0061636569746500617A7563617200A2
:102FC400636166650073616C0070617374610061B4
:042FD40067756100BC
:00000001FF
