:100000000C9472000C9493000C9493000C940203D3
:100010000C94F0020C9426030C9414030C9493009B
:100020000C9493000C9493000C9493000C94930004
:100030000C9493000C9473020C9493000C94930012
:100040000C9493000C9493000C9493000C949300E4
:100050000C9493000C9493000C9493000C94FF0167
:100060000C9493000C9449020C9493000C9493000C
:100070000C9493000C9493000C9493000C949300B4
:100080000C9493000C9493000C9493000C949300A4
:100090000C9493000C9493000C9493000C94930094
:1000A0000C9493000C9493000C9493000C94930084
:1000B0000C9493000C9493000C9493000C94930074
:1000C0000C9493000C9493000C9493000C94930064
:1000D0000C9493000C9493000C9493000C94930054
:1000E0000C94930011241FBECFEFD1E2DEBFCDBF31
:1000F00000E00CBF13E0A0E0B2E0EAE7FFE000E0C0
:100100000BBF02C007900D92AC3EB107D9F724E0B7
:10011000ACEEB3E001C01D92A832B207E1F70E9435
:1001200037030C94BB070C9400009091C00095FF1E
:10013000FCCF8093C60008958DE00E9495008AE070
:100140000C9495000F931F93CF93DF9300D000D0B2
:100150001F92CDB7DEB730E00AE010E0009769F4F7
:1001600080E327960FB6F894DEBF0FBECDBFDF91B8
:10017000CF911F910F910C94950021E0230FE1E0A6
:10018000F0E0EC0FFD1FE30FF11D37FDFA95B8010C
:100190000E944C07805D8083CB01322F009769F766
:1001A00012166CF41FEF120FE1E0F0E0EC0FFD1FF0
:1001B000E10FF11D80810E949500212FF1CF27963C
:1001C0000FB6F894DEBF0FBECDBFDF91CF911F9168
:1001D0000F910895CF93DF93EC018991882319F053
:1001E0000E949500FACFDF91CF91089528E080E03A
:1001F00090E0DC0130917A00306430937A003091E5
:100200007A0036FDFCCF4091780050917900840F40
:10021000951FA11DB11D215069F723E0B695A79543
:10022000979587952A95D1F7089594B3907F94BBBD
:10023000813041F028F0823039F0833039F0089570
:10024000A09A0895A19A0895A29A0895A39A08954C
:100250008B3008F08AE080931B0490E0880F991F90
:1002600090938900809388000895FC0180818133F8
:1002700051F48181823339F48281833321F481E026
:100280009381943309F080E008951092ED032E9845
:100290002F988DB3837F8DBB1092EE031092EF03E6
:1002A0001092F003089581E08093ED032E9A8DB3B0
:1002B0008C608DBB1092EE03089592B19F7092B93D
:1002C00092B140E1849F90011124922B92B9129A2D
:1002D00085E08A95F1F70000129887EC90E001978D
:1002E000F1F700C000000895CF93C82F109A8295AF
:1002F0008F700E945D018C2F8F700E945D0187ECD2
:1003000090E00197F1F700C00000CF910895EF92BF
:10031000FF920F931F93CF93DF9300D000D01F92D3
:10032000CDB7DEB78C0197FF2DC08DE20E9474011E
:1003300011950195110980E09AE0E92EF12C21E058
:10034000280FE1E0F0E0EC0FFD1FE80FF11D87FD45
:10035000FA95C801B7010E944C07805D80838B012C
:10036000822F672B61F71216F4F41FEF120FE1E0F2
:10037000F0E0EC0FFD1FE10FF11D80810E94740180
:10038000212FF1CF892BB9F680E327960FB6F89489
:10039000DEBF0FBECDBFDF91CF911F910F91FF90B8
:1003A000EF900C94740127960FB6F894DEBF0FBE41
:1003B000CDBFDF91CF911F910F91FF90EF900895E6
:1003C000CF93DF93EC018991882319F00E94740187
:1003D000FACFDF91CF910895CF93C82F10988295CF
:1003E0008F700E945D018C2F8F700E945D0187ECE1
:1003F00090E00197F1F700C00000CF9108951F929F
:100400000F920FB60F9211242F933F938F939F93C8
:10041000AF93BF938091240490912504A09126046A
:10042000B09127043091230423E0230F2D3758F592
:100430000196A11DB11D2093230480932404909361
:100440002504A0932604B093270480911F04909163
:100450002004A0912104B09122040196A11DB11D98
:1004600080931F0490932004A0932104B09322044E
:10047000BF91AF919F918F913F912F910F900FBEA0
:100480000F901F90189526E8230F0296A11DB11D0D
:10049000D2CF1F920F920FB60F9211240BB60F926C
:1004A0002F938F939F93EF93FF939091C60080912A
:1004B0001A048F5F8F7120911904281741F0E09181
:1004C0001A04F0E0E750FC4F908380931A04FF91E8
:1004D000EF919F918F912F910F900BBE0F900FBEB8
:1004E0000F901F9018951F920F920FB60F92112424
:1004F0000BB60F922F933F934F935F936F937F931E
:100500008F939F93AF93BF93CF93DF93EF93FF931B
:1005100050E040E0E1E0F0E0AFE0942F9F01042ED6
:1005200001C0220F0A94EAF72A2720930B018AE1DF
:100530008A95F1F700C026B120952F7091F070E0F8
:1005400060E030E0862FE901062E02C0D595C79500
:100550000A94E2F7C0FD40C06F5F7F4F64307105C1
:1005600089F74F5F5F4F44305105B9F68FEF909197
:1005700000029817E1F08F3FC1F09091F2039111C2
:1005800014C0282F26952695E4E02E9F9001112473
:100590002D5F3D4F982F9370290F311DF9019081E8
:1005A0009093F10391E09093F20380930002FF9106
:1005B000EF91DF91CF91BF91AF919F918F917F91FB
:1005C0006F915F914F913F912F910F900BBE0F90C4
:1005D0000FBE0F901F901895880F880F890FC7CFF7
:1005E0001F920F920FB60F9211248F9381E0809388
:1005F000EE0384E08093EC038F910F900FBE0F9079
:100600001F9018951F920F920FB60F9211248F937F
:1006100081E08093EE0383E08093EC038F910F9051
:100620000FBE0F901F9018951F920F920FB60F924A
:1006300011248F9381E08093EF0382E08093EC0399
:100640008F910F900FBE0F901F9018951F920F92D1
:100650000FB60F9211248F9381E08093EF03809364
:10066000EC038F910F900FBE0F901F901895CF93B2
:10067000DF93CDB7DEB7A0970FB6F894DEBF0FBEFD
:10068000CDBF789484B5826084BD84B5816084BD1B
:1006900085B5826085BD85B5816085BD80916E0020
:1006A000816080936E001092810080918100826051
:1006B000809381008091810081608093810080918E
:1006C00080008160809380008091B100846080937D
:1006D000B1008091B00081608093B0008091910062
:1006E000826080939100809191008160809391005D
:1006F000809190008160809390008091A100826041
:100700008093A1008091A10081608093A1008091DD
:10071000A00081608093A00080912101826080937D
:10072000210180912101816080932101809120012C
:1007300081608093200180917A00846080937A00A8
:1007400080917A00826080937A0080917A00816043
:1007500080937A0080917A00806880937A0010926A
:10076000C1008FEF81B912B82FEF40E782E021502E
:1007700040408040E1F700C00000109883E00E94F4
:100780005D01EFE1FEE43197F1F700C0000083E086
:100790000E945D0187E592E00197F1F700C000003B
:1007A00083E00E945D01E7ECF0E03197F1F700C0D3
:1007B000000082E00E945D0187EC90E00197F1F774
:1007C00000C0000088E20E94EC018CE00E94EC0175
:1007D00086E00E94EC0181E00E94EC01EFE3FFE182
:1007E0003197F1F700C0000080910A018F6080937B
:1007F0000A0180910B018F6080930B0187B1807F8C
:1008000087B988B18F6088B982E08093B00095E0A5
:100810009093B1009BE99093B30080937000109285
:10082000F1031092F2031092C50087E68093C40092
:100830001092C00088E98093C10086E08093C200D6
:1008400010921A041092190484B1806C84B985B195
:100850008F7385B980EF809369008FE080936A0081
:1008600080E38DBB1092ED031092EF031092EE0324
:100870001092F00383B38F6083BB84B3807F84BB0B
:1008800081E480937C0088E080937B0087E88093FC
:100890007A0080917A00806480937A0080917A0057
:1008A00086FDFCCF80917800909179008FE39FE1E5
:1008B0000197F1F700C000008091070188618093E3
:1008C000070180910801877E80930801259A81E8BD
:1008D000809380008AE080938100109289001092BA
:1008E000880010921B04789481E00E94EC01EFE3F1
:1008F000FFE13197F1F700C0000080E80E94EC01B1
:1009000083E192E00E94E00180EC0E94EC0184E22D
:1009100092E00E94E0010E949C0083E392E00E942A
:10092000EA000E949C001092F8038AE0782E882446
:100930008A9493E0992EA12CB12C20E0E22E20E0A5
:10094000F22E32E0D32ECC24C3948091EF0388237F
:1009500009F453C01092EF03C092F0032F9A8091D4
:10096000F003813009F05AC080E80E94EC0189E769
:1009700092E00E94E0018AE892E00E94EA000E9470
:100980009C008091F203882309F462C08091F203F5
:10099000882309F450C08091F1031092F103109262
:1009A000F203109202021092010290ED980F9A3019
:1009B00008F096C0E091F803E43008F049C091E0F7
:1009C0009E0F9093F803F0E0ED50FC4F8083E92FE9
:1009D000F0E0ED50FC4F108280EC0E94EC0189EBBE
:1009E00092E00E94E00100E01091F803011728F561
:1009F0008AE20E9474010F5FF7CF8091EE03882393
:100A000009F4BFCF1092EE038091ED03813009F01D
:100A1000B8CFD092ED03D092F003A0CF823009F08E
:100A2000B0CF80E80E94EC018AE992E00E94E001E8
:100A30008BEA92E0A2CF80E0B4CF143028F48FE5A7
:100A40000E9474011F5FF9CF8EE093E00E94E001E5
:100A50008091190490911A04981709F438C1E82F6D
:100A6000F0E0E750FC4F90819A3009F0B4C08E015D
:100A70000F5F1F4FD80120E0502E612E90911A0475
:100A8000809119049817D9F02F31C9F090911A0468
:100A900080911904981709F4A5C08091190490E079
:100AA00087509C4FFC019081809119048F5F8F715A
:100AB000809319049A3019F09D3009F094C0F80120
:100AC000E20FF11D1082F80181918F01882309F452
:100AD0008DC090E00E94A507F80131978083F3CF85
:100AE000813441F58091F8038430D1F483EF93E0B1
:100AF0000E9435018823A1F00E94530180E80E94E2
:100B0000EC0182EC92E00E94E00183ED92E00E9411
:100B1000EA000E949C001092F8031092F30398CF11
:100B200080E80E94EC018DED92E00E94E0018FEEE2
:100B300092E0EDCF8234B1F48091F803843081F7F4
:100B400083EF93E00E943501882351F30E94450111
:100B500080E80E94EC0183E192E00E94E0018CEFCA
:100B600092E0D5CF833459F580911B048F5F8B3091
:100B700008F08AE00E94280189EC0E94EC018BE0D9
:100B800093E00E94E00189EC0E94EC0183E193E094
:100B90000E94E00180911B0490E00E9487018FE297
:100BA00092E00E94E00186E193E00E94EA008091D9
:100BB0001B0490E00E94A2000E949C0049CF843454
:100BC00009F046CF80911B048150990B8F3F980705
:100BD00089F680E0CFCF90819D3009F448CF8F5FB8
:100BE0008F7138CF90E02F5F9D9348CF43E050E066
:100BF0006BE173E0852D962D0E94AD07892B71F472
:100C00000E94530180E80E94EC0182EC92E00E9475
:100C1000E00183ED92E00E94EA0057C047E050E017
:100C20006FE173E0852D962D0E94AD07892BA9F405
:100C3000CE0108960E943501882361F00E9445018B
:100C400080E80E94EC0183E192E00E94E0018CEFD9
:100C500092E0E1CF8FEE92E0DECF44E050E066E13B
:100C600073E0852D962D0E94AD07892B09F091C068
:100C7000FE01359680E0919120ED290F2A3030F465
:100C8000879D900D112480ED890FF5CF0E942801DA
:100C9000109202021092010289EC0E94EC0183E1A1
:100CA00093E00E94E00180911B0490E00E94870184
:100CB0008FE292E00E94E00187E293E00E94EA0066
:100CC00080911B0490E00E94A2000E949C00209151
:100CD0001D0430911E042F5F3F4F30931E0420935C
:100CE0001D048091010290910202019690930202EC
:100CF00080930102203D374008F444C010921E0446
:100D000010921D04803E9E42E0F00E94F6008C018D
:100D100080EC0E94EC0184EE93E00E94E0019801D7
:100D2000A8E2B0E00E948207A50194010E9460073A
:100D3000822F220F990B0E94870187EE93E00E9479
:100D4000E0010E94F6009C01A8E2B0E00E94820748
:100D5000A50194010E9460078091080183FD8EC067
:100D600022312CF4809108018860809308018091E1
:100D7000080184FD8AC02B312CF08091080180612C
:100D800080930801E114F10409F4DFCD0E94000012
:100D9000DCCD4CE050E06FE273E0852D962D0E9493
:100DA000AD07892B79F580EC0E94EC018CE393E090
:100DB0000E94E0018DE493E00E94EA000E949C0002
:100DC00000E012E080911C0490E001968370992766
:100DD00080931C040E9415018FE19EE40197F1F7B6
:100DE00000C000000150110969F784B3807F84BB03
:100DF00080EC0E94EC0180E693E00E94E00181E734
:100E000093E009CF4DE050E06BE672E0852D962D22
:100E10000E94AD07892B79F580EC0E94EC0183E8F4
:100E200093E00E94E00184E993E00E94EA000E94BE
:100E30009C0000E012E080911C0490E00396837017
:100E4000992780931C040E941501EFE1FEE431977D
:100E5000F1F700C000000150110969F784B3807FE9
:100E600084BB80EC0E94EC0187EA93E00E94E001E1
:100E700088EB93E0D0CE8AEC93E0CDCE25310CF414
:100E800076CF80910801877F70CF28310CF07ACF20
:100E9000809108018F7E74CF97FB072E16F4009483
:100EA00007D077FD09D00E94910707FC05D03EF4DA
:100EB000909581959F4F0895709561957F4F089506
:100EC000A1E21A2EAA1BBB1BFD010DC0AA1FBB1F4E
:100ED000EE1FFF1FA217B307E407F50720F0A21BC0
:100EE000B30BE40BF50B661F771F881F991F1A942D
:100EF00069F760957095809590959B01AC01BD0157
:100F0000CF010895A29FB001B39FC001A39F700DB0
:100F1000811D1124911DB29F700D811D1124911D01
:100F20000895AA1BBB1B51E107C0AA1FBB1FA61730
:100F3000B70710F0A61BB70B881F991F5A95A9F782
:100F400080959095BC01CD01089591110895815629
:100F50008A5108F4805285580895FB01DC01415004
:100F6000504030F08D910190801919F40020B9F7AC
:0A0F7000881B990B0895F894FFCF39
:100F7A00FF0F273132334134353642373839432A65
:100F8A00302344414C41524D413A20444553414358
:100F9A0054495600543A2D2D432020204C3A302FE4
:100FAA00313000436F6D616E646F733A2041524D68
:100FBA00202F2044495341524D3A78787878202F8F
:100FCA00204C555A3A302D3130202F20474152417A
:100FDA004A453A4142524952202F20474152414AFA
:100FEA00453A43455252415200212120494E434538
:100FFA004E44494F202121202000414C41524D416D
:10100A003A494E43454E44494F00212120494E5406
:10101A00525553494F4E2021212000414C41524DF7
:10102A00413A41434345534F00436F6469676F3AFE
:10103A002000414C41524D413A2041524D414441D8
:10104A002020004F4B3A41524D41444100434F4406
:10105A0049474F20494E434F52524543544F00454A
:10106A0052524F523A434F4449474F004F4B3A442A
:10107A0045534143544956414441002020202020F1
:10108A002020004C3A004C555A3A0041524D004437
:10109A00495341524D3A004F4B3A4C555A2C00474E
:1010AA004152414A453A414252495200474152410E
:1010BA004A452041425249454E444F20004F4B3A3F
:1010CA00474152414A455F41425249454E444F00C9
:1010DA00474152414A45204142494552544F2020F6
:1010EA00004F4B3A474152414A455F4142494552B6
:1010FA00544F00474152414A452043455252414EBE
:10110A00444F20004F4B3A474152414A455F4345BD
:10111A005252414E444F00474152414A45204345AD
:10112A00525241444F2020004F4B3A474152414AC4
:10113A00455F4345525241444F004552524F523A3D
:10114A00434F4D414E444F5F444553434F4E4F43E7
:0C115A0049444F00543A0043202020007C
:00000001FF
