:100000000C9472000C9493000C9493000C940203D3
:100010000C94F0020C9426030C9414030C9493009B
:100020000C9493000C9493000C9493000C94930004
:100030000C9493000C9473020C9493000C94930012
:100040000C9493000C9493000C9493000C949300E4
:100050000C9493000C9493000C9493000C94FF0167
:100060000C9493000C9449020C9493000C9493000C
:100070000C9493000C9493000C9493000C949300B4
:100080000C9493000C9493000C9493000C949300A4
:100090000C9493000C9493000C9493000C94930094
:1000A0000C9493000C9493000C9493000C94930084
:1000B0000C9493000C9493000C9493000C94930074
:1000C0000C9493000C9493000C9493000C94930064
:1000D0000C9493000C9493000C9493000C94930054
:1000E0000C94930011241FBECFEFD1E2DEBFCDBF31
:1000F00000E00CBF13E0A0E0B2E0ECE6FFE000E0BF
:100100000BBF02C007900D92AA3EB107D9F724E0B9
:10011000AAEEB3E001C01D92A632B207E1F70E9439
:1001200037030C94B4070C9400009091C00095FF25
:10013000FCCF8093C60008958DE00E9495008AE070
:100140000C9495000F931F93CF93DF9300D000D0B2
:100150001F92CDB7DEB730E00AE010E0009769F4F7
:1001600080E327960FB6F894DEBF0FBECDBFDF91B8
:10017000CF911F910F910C94950021E0230FE1E0A6
:10018000F0E0EC0FFD1FE30FF11D37FDFA95B8010C
:100190000E944507805D8083CB01322F009769F76D
:1001A00012166CF41FEF120FE1E0F0E0EC0FFD1FF0
:1001B000E10FF11D80810E949500212FF1CF27963C
:1001C0000FB6F894DEBF0FBECDBFDF91CF911F9168
:1001D0000F910895CF93DF93EC018991882319F053
:1001E0000E949500FACFDF91CF91089528E080E03A
:1001F00090E0DC0130917A00306430937A003091E5
:100200007A0036FDFCCF4091780050917900840F40
:10021000951FA11DB11D215069F723E0B695A79543
:10022000979587952A95D1F7089594B3907F94BBBD
:10023000813041F028F0823039F0833039F0089570
:10024000A09A0895A19A0895A29A0895A39A08954C
:100250008B3008F08AE08093190490E0880F991F92
:1002600090938900809388000895FC0180818133F8
:1002700051F48181823339F48281833321F481E026
:100280009381943309F080E008951092EB032E9847
:100290002F988DB3837F8DBB1092EC031092ED03EA
:1002A0001092EE03089581E08093EB032E9A8DB3B4
:1002B0008C608DBB1092EC03089592B19F7092B93F
:1002C00092B140E1849F90011124922B92B9129A2D
:1002D00085E08A95F1F70000129887EC90E001978D
:1002E000F1F700C000000895CF93C82F109A8295AF
:1002F0008F700E945D018C2F8F700E945D0187ECD2
:1003000090E00197F1F700C00000CF910895EF92BF
:10031000FF920F931F93CF93DF9300D000D01F92D3
:10032000CDB7DEB78C0197FF2DC08DE20E9474011E
:1003300011950195110980E09AE0E92EF12C21E058
:10034000280FE1E0F0E0EC0FFD1FE80FF11D87FD45
:10035000FA95C801B7010E944507805D80838B0133
:10036000822F672B61F71216F4F41FEF120FE1E0F2
:10037000F0E0EC0FFD1FE10FF11D80810E94740180
:10038000212FF1CF892BB9F680E327960FB6F89489
:10039000DEBF0FBECDBFDF91CF911F910F91FF90B8
:1003A000EF900C94740127960FB6F894DEBF0FBE41
:1003B000CDBFDF91CF911F910F91FF90EF900895E6
:1003C000CF93DF93EC018991882319F00E94740187
:1003D000FACFDF91CF910895CF93C82F10988295CF
:1003E0008F700E945D018C2F8F700E945D0187ECE1
:1003F00090E00197F1F700C00000CF9108951F929F
:100400000F920FB60F9211242F933F938F939F93C8
:10041000AF93BF938091220490912304A091240470
:10042000B09125043091210423E0230F2D3758F596
:100430000196A11DB11D2093210480932204909365
:100440002304A0932404B093250480911D0490916B
:100450001E04A0911F04B09120040196A11DB11D9E
:1004600080931D0490931E04A0931F04B093200456
:10047000BF91AF919F918F913F912F910F900FBEA0
:100480000F901F90189526E8230F0296A11DB11D0D
:10049000D2CF1F920F920FB60F9211240BB60F926C
:1004A0002F938F939F93EF93FF939091C60080912A
:1004B00018048F5F8F7120911704281741F0E09185
:1004C0001804F0E0E950FC4F908380931804FF91EA
:1004D000EF919F918F912F910F900BBE0F900FBEB8
:1004E0000F901F9018951F920F920FB60F92112424
:1004F0000BB60F922F933F934F935F936F937F931E
:100500008F939F93AF93BF93CF93DF93EF93FF931B
:1005100050E040E0E1E0F0E0AFE0942F9F01042ED6
:1005200001C0220F0A94EAF72A2720930B018AE1DF
:100530008A95F1F700C026B120952F7091F070E0F8
:1005400060E030E0862FE901062E02C0D595C79500
:100550000A94E2F7C0FD40C06F5F7F4F64307105C1
:1005600089F74F5F5F4F44305105B9F68FEF909197
:1005700000029817E1F08F3FC1F09091F0039111C4
:1005800014C0282F26952695E4E02E9F9001112473
:100590002D5F3D4F982F9370290F311DF9019081E8
:1005A0009093EF0391E09093F00380930002FF910A
:1005B000EF91DF91CF91BF91AF919F918F917F91FB
:1005C0006F915F914F913F912F910F900BBE0F90C4
:1005D0000FBE0F901F901895880F880F890FC7CFF7
:1005E0001F920F920FB60F9211248F9381E0809388
:1005F000EC0384E08093EA038F910F900FBE0F907D
:100600001F9018951F920F920FB60F9211248F937F
:1006100081E08093EC0383E08093EA038F910F9055
:100620000FBE0F901F9018951F920F920FB60F924A
:1006300011248F9381E08093ED0382E08093EA039D
:100640008F910F900FBE0F901F9018951F920F92D1
:100650000FB60F9211248F9381E08093ED03809366
:10066000EA038F910F900FBE0F901F901895CF93B4
:10067000DF93CDB7DEB7A0970FB6F894DEBF0FBEFD
:10068000CDBF789484B5826084BD84B5816084BD1B
:1006900085B5826085BD85B5816085BD80916E0020
:1006A000816080936E001092810080918100826051
:1006B000809381008091810081608093810080918E
:1006C00080008160809380008091B100846080937D
:1006D000B1008091B00081608093B0008091910062
:1006E000826080939100809191008160809391005D
:1006F000809190008160809390008091A100826041
:100700008093A1008091A10081608093A1008091DD
:10071000A00081608093A00080912101826080937D
:10072000210180912101816080932101809120012C
:1007300081608093200180917A00846080937A00A8
:1007400080917A00826080937A0080917A00816043
:1007500080937A0080917A00806880937A0010926A
:10076000C1008FEF81B912B82FEF40E782E021502E
:1007700040408040E1F700C00000109883E00E94F4
:100780005D01EFE1FEE43197F1F700C0000083E086
:100790000E945D0187E592E00197F1F700C000003B
:1007A00083E00E945D01E7ECF0E03197F1F700C0D3
:1007B000000082E00E945D0187EC90E00197F1F774
:1007C00000C0000088E20E94EC018CE00E94EC0175
:1007D00086E00E94EC0181E00E94EC01EFE3FFE182
:1007E0003197F1F700C0000080910A018F6080937B
:1007F0000A0180910B018F6080930B0187B1807F8C
:1008000087B988B18F6088B982E08093B00095E0A5
:100810009093B1009BE99093B30080937000109285
:10082000EF031092F0031092C50087E68093C40096
:100830001092C00088E98093C10086E08093C200D6
:10084000109218041092170484B1806C84B985B199
:100850008F7385B980EF809369008FE080936A0081
:1008600080E38DBB1092EB031092ED031092EC032A
:100870001092EE0383B38F6083BB84B3807F84BB0D
:1008800081E480937C0088E080937B0087E88093FC
:100890007A0080917A00806480937A0080917A0057
:1008A00086FDFCCF80917800909179008FE39FE1E5
:1008B0000197F1F700C000008091070188618093E3
:1008C000070180910801877E80930801259A81E8BD
:1008D000809380008AE080938100109289001092BA
:1008E000880010921904789481E00E94EC01EFE3F3
:1008F000FFE13197F1F700C0000080E80E94EC01B1
:1009000083E192E00E94E00180EC0E94EC0184E22D
:1009100092E00E94E0010E949C0083E392E00E942A
:10092000EA000E949C001092F6038AE0782E882448
:100930008A9493E0992EA12CB12C20E0E22E20E0A5
:10094000F22E32E0D32ECC24C3948091ED03882381
:1009500009F453C01092ED03C092EE032F9A8091D8
:10096000EE03813009F05AC080E80E94EC0189E76B
:1009700092E00E94E0018AE892E00E94EA000E9470
:100980009C008091F003882309F462C08091F003F9
:10099000882309F450C08091EF031092EF03109266
:1009A000F003109202021092010290ED980F9A301B
:1009B00008F096C0E091F603E43008F049C091E0F9
:1009C0009E0F9093F603F0E0EF50FC4F8083E92FE9
:1009D000F0E0EF50FC4F108280EC0E94EC0189EBBC
:1009E00092E00E94E00100E01091F603011728F563
:1009F0008AE20E9474010F5FF7CF8091EC03882395
:100A000009F4BFCF1092EC038091EB03813009F021
:100A1000B8CFD092EB03D092EE03A0CF823009F092
:100A2000B0CF80E80E94EC018AE992E00E94E001E8
:100A30008BEA92E0A2CF80E0B4CF143028F48FE5A7
:100A40000E9474011F5FF9CF82EC92E00E94E001E6
:100A50008091170490911804981709F431C1E82F78
:100A6000F0E0E950FC4F90819A3009F0ADC08E0162
:100A70000F5F1F4FD80120E0502E612E9091180477
:100A8000809117049817D9F02F31C9F0909118046C
:100A900080911704981709F49EC08091170490E084
:100AA00089509C4FFC019081809117048F5F8F715A
:100AB000809317049A3019F09D3009F08DC0F80129
:100AC000E20FF11D1082F80181918F01882309F452
:100AD00086C090E00E949E07F80131978083F3CF93
:100AE000813441F58091F6038430D1F481EF93E0B5
:100AF0000E9435018823A1F00E94530180E80E94E2
:100B0000EC0187EC92E00E94E00188ED92E00E9407
:100B1000EA000E949C001092F6031092F10398CF15
:100B200080E80E94EC0182EE92E00E94E00184EFF6
:100B300092E0EDCF8234B1F48091F603843081F7F6
:100B400081EF93E00E943501882351F30E94450113
:100B500080E80E94EC0183E192E00E94E00181E0E4
:100B600093E0D5CF833421F5809119048F5F8B30CA
:100B700008F08AE00E94280189EC0E94EC0180E1E3
:100B800093E00E94E0018091190490E00E948701A7
:100B90008FE292E00E94E00183E193E00E94EA008C
:100BA0008091190490E00E94A2000E949C0050CF06
:100BB000843409F04DCF809119048150990B8F3FF7
:100BC0009807C1F680E0D6CF90819D3009F44FCFD1
:100BD0008F5F8F713FCF90E02F5F9D934FCF43E0AA
:100BE00050E068E173E0852D962D0E94A607892BC1
:100BF00071F40E94530180E80E94EC0187EC92E0BE
:100C00000E94E00188ED92E00E94EA0057C047E0B0
:100C100050E06CE173E0852D962D0E94A607892B8C
:100C2000A9F4CE0108960E943501882361F00E9444
:100C3000450180E80E94EC0183E192E00E94E0011E
:100C400081E093E0E1CF84EF92E0DECF44E050E03A
:100C500063E173E0852D962D0E94A607892B09F08C
:100C600091C0FE01359680E0919120ED290F2A3048
:100C700030F4879D900D112480ED890FF5CF0E94EF
:100C80002801109202021092010289EC0E94EC01EC
:100C900080E193E00E94E0018091190490E00E94BD
:100CA00087018FE292E00E94E00184E293E00E94DB
:100CB000EA008091190490E00E94A2000E949C002A
:100CC00020911B0430911C042F5F3F4F30931C0474
:100CD00020931B048091010290910202019690934F
:100CE000020280930102203D374008F444C0109274
:100CF0001C0410921B04803E9E42E0F00E94F6000D
:100D00008C0180EC0E94EC0181EE93E00E94E001F6
:100D10009801A8E2B0E00E947B07A50194010E941F
:100D20005907822F220F990B0E94870184EE93E0CE
:100D30000E94E0010E94F6009C01A8E2B0E00E943F
:100D40007B07A50194010E9459078091080183FD4A
:100D50008EC022312CF480910801886080930801B4
:100D60008091080184FD8AC02B312CF0809108010C
:100D7000806180930801E114F10409F4E6CD0E943A
:100D80000000E3CD4CE050E06CE273E0852D962D41
:100D90000E94A607892B79F580EC0E94EC0189E37B
:100DA00093E00E94E0018AE493E00E94EA000E943E
:100DB0009C0000E012E080911A0490E0019683709C
:100DC000992780931A040E9415018FE19EE40197F0
:100DD000F1F700C000000150110969F784B3807F6A
:100DE00084BB80EC0E94EC018DE593E00E94E00161
:100DF0008EE693E009CF4DE050E06BE672E0852D82
:100E0000962D0E94A607892B79F580EC0E94EC01B3
:100E100080E893E00E94E00181E993E00E94EA000B
:100E20000E949C0000E012E080911A0490E003967A
:100E30008370992780931A040E941501EFE1FEE464
:100E40003197F1F700C000000150110969F784B330
:100E5000807F84BB80EC0E94EC0184EA93E00E94D6
:100E6000E00185EB93E0D0CE87EC93E0CDCE253149
:100E70000CF476CF80910801877F70CF28310CF079
:100E80007ACF809108018F7E74CF97FB072E16F4DE
:100E9000009407D077FD09D00E948A0707FC05D08F
:100EA0003EF4909581959F4F0895709561957F4F81
:100EB0000895A1E21A2EAA1BBB1BFD010DC0AA1F9B
:100EC000BB1FEE1FFF1FA217B307E407F50720F0B3
:100ED000A21BB30BE40BF50B661F771F881F991F2E
:100EE0001A9469F760957095809590959B01AC0177
:100EF000BD01CF010895A29FB001B39FC001A39F80
:100F0000700D811D1124911DB29F700D811D112442
:100F1000911D0895AA1BBB1B51E107C0AA1FBB1F4F
:100F2000A617B70710F0A61BB70B881F991F5A9575
:100F3000A9F780959095BC01CD0108959111089570
:100F400081568A5108F4805285580895FB01DC01CE
:100F50004150504030F08D910190801919F40020DB
:0C0F6000B9F7881B990B0895F894FFCF97
:100F6C00FF0F273132334134353642373839432A73
:100F7C00302344414C41524D413A20444553414366
:100F8C0054495600543A2D2D432020204C3A302FF2
:100F9C00313000436F6D616E646F733A2041524D76
:100FAC00202F2044495341524D3A78787878202F9D
:100FBC00204C555A3A302D3130202F204741524188
:100FCC004A453A4142524952202F20474152414A08
:100FDC00453A43455252415200212120494E434546
:100FEC004E44494F202121202000414C41524D417B
:100FFC003A494E43454E44494F00212120494E5415
:10100C00525553494F4E2021212000414C41524D05
:10101C00413A41434345534F00436F6469676F3A0C
:10102C0020002020202000414C41524D413A2041CB
:10103C00524D4144412020004F4B3A41524D4144C6
:10104C004100434F4449474F20494E434F5252456C
:10105C0043544F004552524F523A434F4449474F25
:10106C00004F4B3A44455341435449564144410087
:10107C004C3A004C555A3A0041524D0044495341A8
:10108C00524D3A004F4B3A4C555A2C004741524165
:10109C004A453A414252495200474152414A452041
:1010AC0041425249454E444F20004F4B3A47415222
:1010BC00414A455F41425249454E444F00474152D7
:1010CC00414A45204142494552544F2020004F4B44
:1010DC003A474152414A455F4142494552544F00BB
:1010EC00474152414A452043455252414E444F20BC
:1010FC00004F4B3A474152414A455F43455252419A
:10110C004E444F00474152414A45204345525241BB
:10111C00444F2020004F4B3A474152414A455F43D0
:10112C0045525241444F004552524F523A434F4D53
:10113C00414E444F5F444553434F4E4F4349444FF8
:0A114C0000543A0043202020000068
:00000001FF
