:020000040000FA
:100000000C9472000C9493000C9493000C94FF04D5
:100010000C94ED040C9423050C9411050C9493009E
:100020000C9493000C9493000C9493000C94930004
:100030000C9493000C9470040C9493000C94930013
:100040000C9493000C9493000C9493000C949300E4
:100050000C9493000C9493000C9493000C94F6036E
:100060000C9493000C9440040C9493000C94930013
:100070000C9493000C9493000C9493000C949300B4
:100080000C9493000C9493000C9493000C949300A4
:100090000C9493000C9493000C9493000C94930094
:1000A0000C9493000C9493000C9493000C94930084
:1000B0000C9493000C9493000C9493000C94930074
:1000C0000C9493000C9493000C9493000C94930064
:1000D0000C9493000C9493000C9493000C94930054
:1000E0000C94930011241FBECFEFD1E2DEBFCDBF31
:1000F00000E00CBF17E0A0E0B2E0E0E1FAE100E0D0
:100100000BBF02C007900D92A631B107D9F727E0C7
:10011000A6E1B7E001C01D92AB36B207E1F70E943D
:1001200034050C94060D0C9400009091C00095FFCE
:10013000FCCF8093C60008958DE00E9495008AE070
:100140000C9495000F931F93CF93DF9300D000D0B2
:100150001F92CDB7DEB730E00AE010E0009769F4F7
:1001600080E327960FB6F894DEBF0FBECDBFDF91B8
:10017000CF911F910F910C94950021E0230FE1E0A6
:10018000F0E0EC0FFD1FE30FF11D37FDFA95B8010C
:100190000E948C0C805D8083CB01322F009769F721
:1001A00012166CF41FEF120FE1E0F0E0EC0FFD1FF0
:1001B000E10FF11D80810E949500212FF1CF27963C
:1001C0000FB6F894DEBF0FBECDBFDF91CF911F9168
:1001D0000F910895CF93DF93EC018991882319F053
:1001E0000E949500FACFDF91CF9108958B3008F0EF
:1001F0008AE080935807E82FF0E0ED5FFD4F8081A3
:1002000090E090938900809388000895FC0180819C
:10021000813351F48181823339F48281833321F433
:1002200081E09381943309F080E0089510921707DC
:100230002E982F988DB3837F8DBB10921807109244
:10024000190710921A0710925707089581E08093BA
:1002500017072E9A8DB38C608DBB109218070895E6
:100260008770806480937C0080917B00886080939D
:100270007B0080917A00806480937A0080917A007C
:1002800086FDFCCF809178009091790020E180E09C
:1002900090E0DC0130917A00306430937A00309144
:1002A0007A0036FDFCCF4091780050917900840FA0
:1002B000951FA11DB11D215069F724E0B695A795A2
:1002C000979587952A95D1F70895CF92DF92EF926F
:1002D000FF92CF93DF938DE00E943001EC019C01EF
:1002E000A4E6B0E00E94C20CCC24CA9423E0D22E33
:1002F000E12CF12CA70196010E94A00C2093590734
:100300009E01AFEFB0E00E94C20CA70196010E94CF
:10031000A00C30E03093990020939800DF91CF91AA
:10032000FF90EF90DF90CF900895E2E0F1E08081C0
:100330008064808381E080936A070C946501FC01EE
:1003400080E02AE0919130ED390F3A3030F4829F0D
:10035000900D112480ED890FF5CF08955F926F9273
:100360007F928F929F92AF92BF92CF92DF92EF9245
:10037000FF920F931F93CF93DF93CDB7DEB72C97E8
:100380000FB6F894DEBF0FBECDBFCE0101965C0163
:10039000CC24DD24C81AD90A00EB10E0512C3E0110
:1003A0009DE0690E711CC8010E94760C81508E3F41
:1003B00018F575014601E0EB8E0E911CC4018E0DFF
:1003C0009F1D0E94760CF70181937F01E615F705CA
:1003D000A9F7C8010C960E94760CF82EC5010E9460
:1003E000EA0082E392E00E94EA008F2D90E00E94F2
:1003F000A2000E949C005394035F1F4FFDE0CF0EAC
:10040000D11C023381E0180771F6511006C086E353
:1004100092E00E94EA000E949C002C960FB6F8948D
:10042000DEBF0FBECDBFDF91CF911F910F91FF9027
:10043000EF90DF90CF90BF90AF909F908F907F9084
:100440006F905F90089592B19F7092B992B140E120
:10045000849F90011124922B92B9129A85E08A957B
:10046000F1F70000129887EC90E00197F1F700C0D7
:1004700000000895CF93C82F109A82958F700E9424
:1004800023028C2F8F700E94230287EC90E001974B
:10049000F1F700C00000CF910895EF92FF920F9303
:1004A0001F93CF93DF9300D000D01F92CDB7DEB75C
:1004B0008C0197FF2DC08DE20E943A0211950195A3
:1004C000110980E09AE0E92EF12C21E0280FE1E00B
:1004D000F0E0EC0FFD1FE80FF11D87FDFA95C80154
:1004E000B7010E948C0C805D80838B01822F672B6B
:1004F00061F71216F4F41FEF120FE1E0F0E0EC0FD9
:10050000FD1FE10FF11D80810E943A02212FF1CFE2
:10051000892BB9F680E327960FB6F894DEBF0FBE9D
:10052000CDBFDF91CF911F910F91FF90EF900C9471
:100530003A0227960FB6F894DEBF0FBECDBFDF910B
:10054000CF911F910F91FF90EF900895CF93DF937C
:10055000EC018991882319F00E943A02FACFDF91C9
:10056000CF910895CF93C82F109882958F700E94D5
:1005700023028C2F8F700E94230287EC90E001975A
:10058000F1F700C00000CF910895809157078F5F69
:1005900080935707833058F480E80E94B20282E4C7
:1005A00092E00E94A60284E592E00C94EA0082E0C8
:1005B0008093170783E080931A072F9A10925707AA
:1005C00080E80E94B20281E692E00E94A60282E7E1
:1005D00092E0EBCF4F925F926F927F928F929F92B9
:1005E000AF92BF92CF92DF92EF92FF920F931F9341
:1005F000CF93DF93CDB7DEB72C970FB6F894DEBF5D
:100600000FBECDBF2C01CE0101966C01EE24FF245C
:10061000E81AF90A80EB682E712C5E019DE0A90EA4
:10062000B11C86014701E0EB8E0E911CC401800FC6
:10063000911F0E94760CF80181938F01EA15FB054A
:10064000A9F74BE050E0B201C6010E94F80C892BDB
:1006500061F4C3010E94760C81508E3F20F460E06B
:10066000C3010E947E0C81E00CC0FDE06F0E711C86
:100670008DE0E80EF11C92E3691691E0790689F6A7
:1006800080E02C960FB6F894DEBF0FBECDBFDF9191
:10069000CF911F910F91FF90EF90DF90CF90BF907F
:1006A000AF909F908F907F906F905F904F90089544
:1006B0004F925F926F927F928F929F92AF92BF9272
:1006C000CF92DF92EF92FF920F931F93CF93DF931E
:1006D000CDB7DEB72C970FB6F894DEBF0FBECDBFF7
:1006E000C82E592ED62ECE0101967C010027112747
:1006F000081B190B8AE0482E5E019DE0A90EB11C73
:100700003701480180EB880E911CC401860D971DAE
:100710000E94760CF30181933F01EA15FB05A9F7CE
:100720004BE050E06C2D752DC7010E94F80C892B11
:1007300009F45AC04A94035F1F4F4110E1CF00EB08
:1007400010E0C8010E94760C81508E3F08F445C02D
:10075000EC2CF52CB12CA12CCA2CF70161917F0156
:10076000C8018A0D9B1D662379F00E947E0CFFEF65
:10077000AF1ABF0A8BE0A816B10471F760E0C80198
:100780000B960E947E0C0CC07C0160E0C7010E94A9
:100790007E0CC3949FEFE91AF90AECE0CE12F5CF74
:1007A0006D2DC8010C960E947E0C81E02C960FB630
:1007B000F894DEBF0FBECDBFDF91CF911F910F9197
:1007C000FF90EF90DF90CF90BF90AF909F908F9071
:1007D0007F906F905F904F900895035F1F4F02339B
:1007E000F1E01F0709F0ADCF80E0E0CF1F920F923C
:1007F0000FB60F9211242F933F938F939F93AF9334
:10080000BF938091660790916707A0916807B091A8
:1008100069073091650723E0230F2D3758F50196BE
:10082000A11DB11D2093650780936607909367070C
:10083000A0936807B0936907809161079091620760
:10084000A0916307B09164070196A11DB11D80932B
:10085000610790936207A0936307B0936407BF9109
:10086000AF919F918F913F912F910F900FBE0F905D
:100870001F90189526E8230F0296A11DB11DD2CF17
:100880001F920F920FB60F9211240BB60F922F9357
:100890008F939F93EF93FF939091C6008091C00038
:1008A00085FFFCCF9093C600809156078F5F8F71B4
:1008B00020915507281741F0E0915607F0E0EB5CD6
:1008C000F84F908380935607FF91EF919F918F91FE
:1008D0002F910F900BBE0F900FBE0F901F90189589
:1008E0001F920F920FB60F9211240BB60F922F93F7
:1008F0003F934F935F936F937F938F939F93AF93A8
:10090000BF93CF93DF93EF93FF9350E040E0E1E09C
:10091000F0E0AFE0942F9F01042E01C0220F0A9453
:10092000EAF72A2720930B018AE18A95F1F700C0A4
:1009300026B120952F7091F070E060E030E0862FB6
:10094000E901062E02C0D595C7950A94E2F7C0FDCD
:1009500040C06F5F7F4F6430710589F74F5F5F4F15
:1009600044305105B9F68FEF909100029817E1F0ED
:100970008F3FC1F090911C07911114C0282F26952C
:100980002695E4E02E9F90011124225F3D4F982F81
:100990009370290F311DF901908190931B0791E00D
:1009A00090931C0780930002FF91EF91DF91CF910C
:1009B000BF91AF919F918F917F916F915F914F9177
:1009C0003F912F910F900BBE0F900FBE0F901F9075
:1009D0001895880F880F890FC7CF1F920F920FB6F7
:1009E0000F9211248F9381E08093180784E0809305
:1009F00016078F910F900FBE0F901F9018951F92A2
:100A00000F920FB60F9211248F9381E080931807F5
:100A100083E0809316078F910F900FBE0F901F9069
:100A200018951F920F920FB60F9211248F9381E0A9
:100A30008093190782E0809316078F910F900FBE65
:100A40000F901F9018951F920F920FB60F921124BE
:100A50008F9381E080931907809316078F910F90F1
:100A60000FBE0F901F901895CF93DF93CDB7DEB7D1
:100A7000A0970FB6F894DEBF0FBECDBF789484B5B3
:100A8000826084BD84B5816084BD85B5826085BD8A
:100A900085B5816085BD80916E00816080936E0018
:100AA000109281008091810082608093810080910A
:100AB00081008160809381008091800081608093BB
:100AC00080008091B10084608093B1008091B0007B
:100AD00081608093B000809191008260809391004A
:100AE000809191008160809391008091900081605D
:100AF000809390008091A10082608093A1008091FA
:100B0000A10081608093A1008091A000816080930A
:100B1000A0008091210182608093210180912101B8
:100B20008160809321018091200181608093200168
:100B300080917A00846080937A0080917A0082604C
:100B400080937A0080917A00816080937A0080910E
:100B50007A00806880937A001092C1008FEF81B98B
:100B600012B82FEF40E782E0215040408040E1F78B
:100B700000C00000109883E00E942302EFE1FEE431
:100B80003197F1F700C0000083E00E94230287E55F
:100B900092E00197F1F700C0000083E00E94230279
:100BA000E7ECF0E03197F1F700C0000082E00E942E
:100BB000230287EC90E00197F1F700C0000088E283
:100BC0000E94B2028CE00E94B20286E00E94B20251
:100BD00081E00E94B202EFE3FFE13197F1F700C03C
:100BE000000080910A018F6080930A0180910B01BF
:100BF0008F6080930B0187B1807F87B988B18F6048
:100C000088B982E08093B00095E09093B1009BE9B1
:100C10009093B3008093700010921B0710921C07F2
:100C20001092C50087E68093C4001092C00088E946
:100C30008093C10086E08093C20010925607109204
:100C4000550784B1806C84B985B18F7385B980EF05
:100C5000809369008FE080936A0080E38DBB1092DF
:100C60001707109219071092180710921A0710927E
:100C7000570780E480937C0010927B0087E8809384
:100C80007A0080917A00806480937A0080917A0063
:100C900086FDFCCF809178009091790080910101D0
:100CA00088608093010182E88093A0008AE18093AC
:100CB000A1008FE39CE99093A7008093A60080EDAC
:100CC00097E09093A9008093A80080910701886124
:100CD0008093070180910801877E80930801259AFF
:100CE00021E8209380009AE090938100109289007F
:100CF00010928800109258078091010180628093C1
:100D00000101809102018F7D8093020110925E07A4
:100D100010925B0710925A0710925D0710925C07C1
:100D200080910101806480930101809102018F7B99
:100D3000809302016B9A20939000909391001092FF
:100D400099001092980010926A07109259077894AF
:100D500081E00E94B2028FE39FE10197F1F700C0AA
:100D6000000080E80E94B20281E892E00E94A602A0
:100D700080EC0E94B20282E992E00E94A6020E94E8
:100D80009C0081EA92E00E94EA000E949C008CEEA6
:100D900092E00E94EA000E949C001092220740ED1F
:100DA000C42E47E0D42E50EAA52E5FE0B52E442491
:100DB0004A9463E0562E612C712CFF24F3942CE3AB
:100DC000E22E30E0832E30E0932E809119078823A5
:100DD000D9F110921907F0921A072F9A80911A07E9
:100DE000813009F041C080E80E94B2028DE593E0B5
:100DF0000E94A6028EE693E00E94EA000E949C00F8
:100E000080911C07882309F410C180911C079091E0
:100E10003407882309F433C580911B0710921B0700
:100E200010921C078A32C1F5109202021092010240
:100E3000992331F11092340780EC0E94B2028DE9BF
:100E400093E00E94A602F1C0809118078823C1F2A6
:100E50001092180780911707813091F692E09093D5
:100E6000170790931A07B9CF823051F680E80E9495
:100E7000B2028EE793E00E94A6028FE893E0BCCF17
:100E8000F0923407109233071092230780EC0E94EF
:100E9000B2028EEA93E0D5CF992309F41FC21092D3
:100EA000020210920102833209F0F2C41092340758
:100EB00080E0E82FF0E0ED5DF84F9081992311F08C
:100EC0008F5FF7CF823058F08091230790ED980F15
:100ED0009A3028F40091240700530A3050F080E83B
:100EE0000E94B2028FEB93E00E94A60280ED93E095
:100EF00000C18053EAE08E9F000D112485E297E047
:100F00000E949F01182F61E470E085E297E00E9443
:100F1000ED0C312C009721F001960E949F01382E94
:100F20000F3109F42CC150F5043109F413C160F4F8
:100F30000A3009F4E1C00B3009F4C1C080E80E9416
:100F4000B2028BE196E0D0CF053109F4F0C00E314A
:100F5000A9F7809102018F7D8093020110925E07B4
:100F600010925B0710925A0780E80E94B20289EC47
:100F700094E00E94A6028AED94E0BBC0033309F41A
:100F800046C118F5093209F421C10233B9F61150EE
:100F90001A3008F049C1E12FF0E0EE0FFF1FE25ECA
:100FA000FD4F80819181009709F43EC10E94EA02C1
:100FB000882309F45CC180E80E94B20284E795E0CE
:100FC0000E94A60285E895E094C00A3509F472C132
:100FD0000B3509F456C10B3309F0B0CF80E80E94FD
:100FE000B20287EC95E00E94A60200EB10E0312CE3
:100FF000C8010E94760C81508E3F08F43394035F41
:101000001F4F0233F1E01F0799F7832D90E00E94F4
:101010004D0281ED95E00E94A60288ED95E00E94C8
:10102000EA000E949C000E94AE01809155079091B9
:101030005607981709F46BC3E82FF0E0EB5CF84F04
:1010400090819A3021F090819D3009F0EBC18E01A2
:101050000F5F1F4FD80120E0180190915607809133
:1010600055079817D9F02F31C9F090915607809104
:101070005507981709F4D9C18091550790E08B5C0A
:10108000984FFC019081809155078F5F8F718093FD
:1010900055079A3019F09D3009F0C8C1F801E20FE8
:1010A000F11D1082F80181918F01882309F4C1C1DB
:1010B00090E00E94E50CF80131978083F3CF80EC3B
:1010C0000E94B20282EE93E00E94A60283EF93E0B8
:1010D0000E94EA000E949C00B092A900A092A80081
:1010E00080EC0E94B20286E094E00E94A60287E1B2
:1010F00094E00E94EA00DBC080EC0E94B20289E228
:1011000094E00E94A6028AE394E00E94EA000E9412
:101110009C00D092A900C092A80080EC0E94B2026C
:101120008DE494E00E94A6028EE594E0E2CF0E9456
:10113000950180E80E94B20280E794E00E94A60236
:1011400081E894E00E94EA008091590790E00E94B3
:10115000A200ADC0809102018F7B809302011092AA
:1011600099001092980010926A0780E80E94B202DB
:101170008FE894E00E94A60280EA94E0BACF3E9CF9
:10118000C001112490935B0780935A07809102015C
:10119000806280930201F0925E0710925D071092C8
:1011A0005C0780E80E94B2028EEA94E00E94A602E8
:1011B0008FEB94E00E94EA00812F90E00E94A20051
:1011C0008BE796E00E94EA00832DC0CF812F0E941A
:1011D000F60089EC0E94B20287EB93E00E94A6021F
:1011E00089EC0E94B20287EE94E00E94A6028091F0
:1011F000580790E00E944D028DE992E00E94A602FD
:101200008AEE94E00E94EA00809158079FCF115027
:101210001A3050F4E12FF0E0EE0FFF1FE25EFD4FB9
:1012200080819181009751F480E80E94B20282EFA0
:1012300094E00E94A60283E095E05BCF632D0E94BC
:101240005803882351F080E80E94B2028EE195E0B5
:101250000E94A6028FE295E04CCF80E80E94B20285
:1012600083E495E00E94A60284E595E042CF80E801
:101270000E94B2028AE995E00E94A6028BEA95E0FC
:1012800038CF85E297E00E940601882371F00E9422
:1012900026011092570780E80E94B20281EF95E084
:1012A0000E94A60282E096E024CF0E94C5020E941E
:1012B0009C00BBCE85E297E00E9406018823A9F33B
:1012C0000E9416011092570780E80E94B20281E83E
:1012D00092E00E94A6028CE096E00BCF10920202F0
:1012E0001092010290ED980F9A3068F5E091220774
:1012F000E43008F09ACE91E09E0F90932207F0E040
:10130000E35EF84F8083E92FF0E0E35EF84F108250
:1013100080EC0E94B20281E396E00E94A60200E007
:1013200010912207011728F48AE20E943A020F5F07
:10133000F7CF143028F48FE50E943A021F5FF9CFEF
:101340008AEB93E07ECD813419F5809122078430B9
:10135000B1F48DE197E00E940601882381F00E949C
:1013600026011092570780E80E94B20281EF95E0B3
:101370000E94A60282E096E00E94EA0002C00E945B
:10138000C5020E949C001092220710921D074DCEAC
:101390008234C1F480912207843089F78DE197E08F
:1013A0000E940601882359F30E94160110925707E4
:1013B00080E80E94B20281E892E00E94A6028CE0DE
:1013C00096E0DACF833411F5809158078F5F8B3028
:1013D00008F08AE00E94F60089EC0E94B20287EBD6
:1013E00093E00E94A60289EC0E94B20287EE94E08C
:1013F0000E94A6028091580790E00E944D028DE95C
:1014000092E00E94A6028AE396E0FCCE843409F0C2
:101410000CCE809158078150990B8F3F9807D1F6D9
:1014200080E0D8CF8F5F8F7102CE90E02F5F9D93C9
:1014300014CE44E050E062E476E0C1010E94F80C72
:10144000892BD9F4CE0105960E940601882381F0EC
:101450000E9426011092570780E80E94B20281EF95
:1014600095E00E94A60282E096E00E94EA0002C097
:101470000E94C5020E949C004AC147E050E06FE311
:1014800076E0C1010E94F80C892BA1F4CE010896E8
:101490000E940601882361F30E94160110925707EB
:1014A00080E80E94B20281E892E00E94A6028CE0ED
:1014B00096E0DBCF44E050E06AE376E0C1010E94B1
:1014C000F80C892B21F5CE0105960E949F010E9400
:1014D000F600109202021092010289EC0E94B20200
:1014E00087EE94E00E94A6028091580790E00E9447
:1014F0004D028DE992E00E94A6028AEE94E00E94DD
:10150000EA008091580790E00E94A200B3CF4CE01F
:1015100050E067E476E0C1010E94F80C892BD9F411
:1015200080EC0E94B20282EE93E00E94A60283EF5A
:1015300093E00E94EA000E949C00B092A900A09251
:10154000A80080EC0E94B20286E094E00E94A6020D
:1015500087E194E08ACF4DE050E06EED72E0C1018A
:101560000E94F80C892BD9F480EC0E94B20289E227
:1015700094E00E94A6028AE394E00E94EA000E949E
:101580009C00D092A900C092A80080EC0E94B202F8
:101590008DE494E00E94A6028EE594E066CF46E0DA
:1015A00050E064E576E0C1010E94F80C892BC9F592
:1015B000CE0107960E949F01082F6CE270E0CE01D9
:1015C00007960E94ED0C10E0009721F001960E9412
:1015D0009F01182F1E9DC001112490935B078093DB
:1015E0005A0780910201806280930201F0925E07A7
:1015F00010925D0710925C0780E80E94B2028EEAAA
:1016000094E00E94A6028FEB94E00E94EA00802FF3
:1016100090E00E94A2008BE796E00E94EA00812FF2
:1016200072CF4AE050E06BE576E0C1010E94F80C11
:10163000892B71F4809102018F7B809302011092BB
:1016400099001092980010926A0780EA94E00DCFFA
:1016500049E050E066E676E0C1010E94F80C892B73
:1016600049F40E94950181E894E00E94EA0080918B
:10167000590749CF4CE050E060E776E0C1010E9495
:10168000F80C892BE9F46CE270E0CE010D960E9413
:10169000ED0C009791F0FC011192CF010E949F0187
:1016A000682FCE010D960E945803882319F08FE20F
:1016B00095E0DBCE84E595E0D8CE8DE796E0D5CEFB
:1016C0004CE050E063E976E0C1010E94F80C892B00
:1016D00061F4CE010D960E94EA02882319F085E894
:1016E00095E0C3CE8BEA95E0C0CE4CE050E060E5DB
:1016F00073E0C1010E94F80C892B09F083C088EDCA
:1017000095E00E94EA000E949C000E94AE01809138
:101710006A07813011F40E94650120915F073091C2
:1017200060072F5F3F4F3093600720935F078091E2
:1017300001029091020201969093020280930102AD
:10174000203D374008F446C01092600710925F07B2
:10175000803E9E42E8F089E00E9430018C0180ECDE
:101760000E94B2028AEB96E00E94A6029801A8E2CB
:10177000B0E00E94C20CA30192010E94A00C822F33
:10178000220F990B0E944D028DEB96E00E94A6025B
:1017900089E00E9430019C01A8E2B0E00E94C20CE6
:1017A000A30192010E94A00C8091080183FD2DC02D
:1017B00022312CF480910801886080930801809187
:1017C000080184FD28C02B312CF080910801806134
:1017D0008093080180915E07882369F080915C07FF
:1017E00090915D070196803A4FE09407D0F4909372
:1017F0005D0780935C078114910409F4E6CA0E9496
:101800000000DBCA80EA96E030CE2531C4F2809138
:101810000801877FD2CF2831ECF6809108018F7EB6
:10182000D7CF10925D0710925C0780915A07909174
:101830005B07009729F0019790935B0780935A0705
:1018400080915A0790915B07892BA9F6809102013C
:101850008F7D8093020110925E0710925B071092B9
:101860005A0780E80E94B20282EC96E00E94A6022B
:1018700083ED96E00E94EA000E949C00BCCF80E0CD
:10188000992309F42BCD109202021092010280E0FC
:1018900090ED980F9A3018F0813409F0C6CBE091A2
:1018A0003307EF3068F491E09E0F90933307F0E038
:1018B000ED5DF84F8083E92FF0E0ED5DF84F108289
:1018C00080EC0E94B2028CE296E00E94A60283E2C3
:1018D00097E00E94A602109133071C5F103108F0B8
:1018E000A4CB80E20E943A021F5FF8CFF999FECFA5
:1018F00092BD81BDF89A992780B50895262FF99950
:10190000FECF1FBA92BD81BD20BD0FB6F894FA9AE2
:10191000F99A0FBE0196089597FB072E16F40094CE
:1019200007D077FD09D00E94D10C07FC05D03EF40A
:10193000909581959F4F0895709561957F4F08957B
:10194000A1E21A2EAA1BBB1BFD010DC0AA1FBB1FC3
:10195000EE1FFF1FA217B307E407F50720F0A21B35
:10196000B30BE40BF50B661F771F881F991F1A94A2
:1019700069F760957095809590959B01AC01BD01CC
:10198000CF010895A29FB001B39FC001A39F700D26
:10199000811D1124911DB29F700D811D1124911D77
:1019A0000895AA1BBB1B51E107C0AA1FBB1FA617A6
:1019B000B70710F0A61BB70B881F991F5A95A9F7F8
:1019C00080959095BC01CD0108959111089581569F
:1019D0008A5108F4805285580895FC018191861738
:1019E00021F08823D9F7992708953197CF010895D9
:1019F000FB01DC014150504030F08D910190801985
:101A000019F40020B9F7881B990B0895F894FFCFBB
:101A1000FF0F27000204080E192C4E7CB4FF313250
:101A2000334134353642373839432A302344DD06D2
:101A3000E306E706EE06F406FB06020707070B07B8
:101A40001107207820004C49535441205641434906
:101A50004100434F4449474F20494E434F5252455E
:101A600043544F004552524F523A434F4449474F17
:101A700000212120494E545255534F20212120202E
:101A80002000414C41524D413A494E545255534F1A
:101A900000414C41524D413A204445534143544941
:101AA0005600543A2D2D432020204C3A302F31300F
:101AB00000436F6D616E646F733A2041524D3A7806
:101AC000787878202F2044495341524D3A787878DD
:101AD00078202F204C555A3A302D3130202F204776
:101AE0004152414A453A4142524952202F204741F2
:101AF00052414A453A43455252415200484F524E94
:101B00004F3A74656D702C6D696E202F20534F4EC7
:101B100049444F3A4F4E2028766F6C20706F7220E8
:101B2000706F7420413029202F20534F4E49444F6D
:101B30003A4F4646202F204D45524341444F3A41AB
:101B400044442C6E6F6D2C63616E74202F204D45C4
:101B5000524341444F3A44454C2C6E6F6D202F2028
:101B60004D45524341444F3A4C49535400212120A2
:101B7000494E43454E44494F202121202000414CED
:101B800041524D413A494E43454E44494F0021216F
:101B900020494E54525553494F4E20212120004197
:101BA0004C41524D413A41434345534F00434D440C
:101BB0002043414E43454C41444F20202000434D9B
:101BC000443A2020202020202020202020200043D4
:101BD0004D4420494E56414C49444F20202020007E
:101BE0004552524F523A434D445F5445434C414451
:101BF0004F00474152414A452041425249454E44D7
:101C00004F20004F4B3A474152414A455F414252B3
:101C100049454E444F00474152414A4520414249BF
:101C20004552544F2020004F4B3A474152414A45BC
:101C30005F4142494552544F00474152414A452075
:101C400043455252414E444F20004F4B3A47415278
:101C5000414A455F43455252414E444F004741522D
:101C6000414A45204345525241444F2020004F4BAA
:101C70003A474152414A455F4345525241444F0021
:101C8000534F4E49444F204F4E20202020202020EB
:101C9000004F4B3A534F4E49444F5F4F4E2C005329
:101CA0004F4E49444F204F46462020202020200000
:101CB0004F4B3A534F4E49444F5F4F464600484FB3
:101CC000524E4F3A204F4E20202020202020004FFF
:101CD0004B3A484F524E4F2C00484F524E4F3A20ED
:101CE0004F4646202020202020004F4B3A484F529C
:101CF0004E4F5F4F4646004C3A004F4B3A4C555AB8
:101D00002C0050524F4420444553434F4E4F4349BB
:101D1000444F004552524F523A50524F445543544B
:101D20004F5F444553434F4E4F4349444F004D4549
:101D3000524341444F202B20202020202020004FC0
:101D40004B3A4D45524341444F5F4147524547410D
:101D5000444F004D455243204C4C454E4F2F445567
:101D6000502020004552524F523A4D455243414473
:101D70004F5F4C4C454E4F5F4F5F4455504C49436D
:101D800041444F004D45524341444F202D202020D7
:101D900020202020004F4B3A4D45524341444F5F95
:101DA000454C494D494E41444F004D455243204E0C
:101DB0004F204558495354452020004552524F5218
:101DC0003A4D45524341444F5F4E4F5F454E434F5E
:101DD0004E545241444F004D45524341444F3A20E6
:101DE00000206974656D20002D2D2D204C49535421
:101DF00041204445204D45524341444F202D2D2D37
:101E000000414C41524D413A2041524D4144412004
:101E100020004F4B3A41524D414441004F4B3A4410
:101E20004553414354495641444100434D442044A5
:101E30004553434F4E4F4349444F2000434D443A8E
:101E400000436F6469676F3A20004C555A3A00446A
:101E5000495341524D3A00474152414A453A414265
:101E600052495200484F524E4F3A00534F4E494448
:101E70004F3A4F464600534F4E49444F3A4F4E005B
:101E80004D45524341444F3A4144442C004552523F
:101E90004F523A464F524D41544F5F4D4552434188
:101EA000444F004D45524341444F3A44454C2C0069
:101EB0004552524F523A434F4D414E444F5F444575
:101EC00053434F4E4F4349444F00543A0043202060
:101ED0002000484F524E4F3A204C4953544F202037
:101EE000202000484F524E4F3A46494E006C6563E1
:101EF00068650070616E00687565766F7300617269
:101F0000726F7A0061636569746500617A756361F7
:101F10007200636166650073616C00706173746167
:061F20000061677561001D
:020000040003F7
:10E000000D9489F10D94B2F10D94B2F10D94B2F129
:10E010000D94B2F10D94B2F10D94B2F10D94B2F1F0
:10E020000D94B2F10D94B2F10D94B2F10D94B2F1E0
:10E030000D94B2F10D94B2F10D94B2F10D94B2F1D0
:10E040000D94B2F10D94B2F10D94B2F10D94B2F1C0
:10E050000D94B2F10D94B2F10D94B2F10D94B2F1B0
:10E060000D94B2F10D94B2F10D94B2F10D94B2F1A0
:10E070000D94B2F10D94B2F10D94B2F10D94B2F190
:10E080000D94B2F10D94B2F10D94B2F10D94B2F180
:10E090000D94B2F10D94B2F10D94B2F10D94B2F170
:10E0A0000D94B2F10D94B2F10D94B2F10D94B2F160
:10E0B0000D94B2F10D94B2F10D94B2F10D94B2F150
:10E0C0000D94B2F10D94B2F10D94B2F10D94B2F140
:10E0D0000D94B2F10D94B2F10D94B2F10D94B2F130
:10E0E0000D94B2F141546D656761323536300041AF
:10E0F000726475696E6F206578706C6F72657220DE
:10E1000073746B3530305632206279204D4C530099
:10E11000426F6F746C6F616465723E004875683F52
:10E1200000436F6D70696C6564206F6E203D200048
:10E130004350552054797065202020203D20005FF9
:10E140005F4156525F415243485F5F3D2000415658
:10E1500052204C696243205665723D20004743437C
:10E160002056657273696F6E203D20004350552024
:10E1700049442020202020203D20004C6F7720663D
:10E18000757365202020203D20004869676820665F
:10E190007573652020203D200045787420667573D6
:10E1A00065202020203D20004C6F636B2066757336
:10E1B000652020203D20004D617220203720323024
:10E1C000313300312E362E3800342E332E350056A2
:10E1D00023202020414444522020206F7020636F70
:10E1E00064652020202020696E73747275637469E1
:10E1F0006F6E2061646472202020496E74657272B3
:10E20000757074006E6F20766563746F7200726A49
:10E210006D702020006A6D70200057686174207056
:10E220006F72743A00506F7274206E6F7420737541
:10E2300070706F72746564004D7573742062652030
:10E2400061206C6574746572002000577269747483
:10E25000696E672045450052656164696E672045B7
:10E26000450045452065727220636E743D00504F35
:10E27000525400303D5A65726F2061646472003FF1
:10E280003D43505520737461747300403D454550C3
:10E29000524F4D207465737400423D426C696E6B41
:10E2A000204C454400453D44756D70204545505215
:10E2B0004F4D00463D44756D7020464C415348001B
:10E2C000483D48656C70004C3D4C69737420492F83
:10E2D0004F20506F72747300513D51756974005234
:10E2E0003D44756D702052414D00563D73686F7707
:10E2F00020696E7465727275707420566563746FF0
:10E30000727300593D506F727420626C696E6B00BD
:10E310002A0011241FBECFEFD1E2DEBFCDBF01E046
:10E320000CBF12E0A0E0B2E0EEE1FDEF03E00BBFB6
:10E3300002C007900D92A030B107D9F712E0A0E01B
:10E34000B2E001C01D92AE30B107E1F70F9460F367
:10E350000D948DFE01E20EBF0FEF0DBF11241FBE05
:10E360000D9460F30D9400F020E030E040ED57E0B4
:10E3700005C0FA013197F1F72F5F3F4F2817390792
:10E38000C0F308959C01260F311DC901A0E0B0E043
:10E390002F5F3F4FABBFFC018791882361F08093D3
:10E3A000C6008091C00086FFFCCF8091C0008064D1
:10E3B0008093C000EACF08958DE08093C6008091DD
:10E3C000C00086FFFCCF8091C00080648093C000B5
:10E3D0008AE08093C6008091C00086FFFCCF8091C8
:10E3E000C00080648093C00008950F94C2F10F9420
:10E3F000DCF10895FC019081992359F09093C600B7
:10E400008091C00086FFFCCF8091C0008064809323
:10E41000C0003196992379F70895282F982F929567
:10E420009F70892F805D8A3308F0895F8093C600D2
:10E430008091C00086FFFCCF8091C00080648093F3
:10E44000C000822F8F70982F905D9A3308F0995FEB
:10E450009093C6008091C00086FFFCCF8091C000E1
:10E4600080648093C00008959C01FB01853691056E
:10E470001CF46330710594F0C90164E670E00F94F8
:10E480002EFE605D7F4F6093C6008091C00086FFC6
:10E49000FCCF8091C00080648093C0002B30310598
:10E4A00014F43297B4F0C90164E670E00F942EFEC4
:10E4B0006AE070E00F942EFE605D7F4F6093C600AF
:10E4C0008091C00086FFFCCF8091C0008064809363
:10E4D000C000C9016AE070E00F942EFEC0968093E0
:10E4E000C6008091C00086FFFCCF8091C000806490
:10E4F0008093C00008951F93182F8EE692EE60E07F
:10E500000F94C2F11093C6008091C00086FFFCCF2B
:10E510008091C00080648093C0000F94DCF11F9153
:10E5200008952F923F924F925F926F927F928F92B7
:10E530009F92AF92BF92CF92DF92EF92FF920F9392
:10E540001F93DF93CF93CDB7DEB762970FB6F894E2
:10E55000DEBF0FBECDBF382E622ECA01DB015C01CB
:10E560006D01772420E2222E2E010894411C511CBB
:10E570008BC081E0A81680E0B80681E0C80680E084
:10E58000D80628F0C601AA27BB270F940DF2BB2797
:10E59000AD2D9C2D8B2D0F940DF28A2D0F940DF225
:10E5A0002092C6008091C00086FFFCCF8091C00001
:10E5B00080648093C0009DE29093C6008091C0006B
:10E5C00086FFFCCF8091C00080648093C0002092C1
:10E5D000C6008091C00086FFFCCF8091C00080649F
:10E5E0008093C00019828601750188249924A1E0D6
:10E5F0003A1651F03A1620F0B2E03B1661F409C029
:10E600000BBFF701779007C0C7010F9477FE782EF4
:10E6100002C0F7017080872D0F940DF22092C60082
:10E620008091C00086FFFCCF8091C0008064809301
:10E63000C000872D8052F401EF70F0708F3520F408
:10E64000E40DF51D708204C0E40DF51D8EE280839B
:10E650000894E11CF11C011D111D0894811C911CE2
:10E6600090E18916910409F0C2CF80E190E0A0E02A
:10E67000B0E0A80EB91ECA1EDB1E198AC2010F9493
:10E68000FAF10F94DCF16A94662009F072CF629679
:10E690000FB6F894DEBF0FBECDBFCF91DF911F91B3
:10E6A0000F91FF90EF90DF90CF90BF90AF909F9031
:10E6B0008F907F906F905F904F903F902F90089534
:10E6C0002F923F924F925F926F927F928F929F9282
:10E6D000AF92BF92CF92DF92EF92FF920F931F9370
:10E6E000DF93CF93CDB7DEB7CD53D1400FB6F894BB
:10E6F000DEBF0FBECDBF01E20EBF0FEF0DBF94B75F
:10E70000F894A89514BE80916000886180936000A1
:10E7100010926000789493FF05C0E0910002F091A0
:10E7200001021995279A2F9A8091C00082608093E8
:10E73000C00080E18093C40088E18093C1000000A4
:10E74000EE24FF24870144E0A42EB12CCC24DD2448
:10E7500024C0C5010197F1F70894E11CF11C011DCB
:10E76000111D21E2E2162EE4F20620E0020720E06D
:10E77000120718F031E0C32ED12CC801B70127ECE5
:10E780003BE140E050E00F9441FE611571058105C9
:10E79000910519F485B1805885B98091C00087FD35
:10E7A00003C0C114D104A9F2A6014F5F5F4FC25E3E
:10E7B000DE4F59834883CE51D140C25EDE4F8881FF
:10E7C0009981CE51D140019711F00D9410FEC05D9A
:10E7D000DE4F19821882C053D14060E0C15DDE4F28
:10E7E0001882CF52D14088249924C35DDE4F19820C
:10E7F0001882CD52D140C05EDE4F188219821A8233
:10E800001B82C052D140CE5CDE4F188219821A8220
:10E810001B82C253D140EE24FF2487010BBFF701B6
:10E8200007911691C45CDE4F19830883CC53D14005
:10E830000D940BFEC25EDE4F28813981CE51D1404E
:10E840002130310509F52091C600C25EDE4F1982E4
:10E850001882CE51D14022C02F5F3F4F4F4F5F4FA4
:10E86000213082E138078AE7480780E0580780F0C6
:10E87000C45CDE4FE881F981CC53D140EF5FFF4F9C
:10E8800019F0EE27FF27099420E030E040E050E047
:10E890008091C00087FFE0CF2091C600C35DDE4FAE
:10E8A00048815981CD52D1404F5F5F4FC35DDE4FEC
:10E8B00059834883CD52D140213209F063C64A3092
:10E8C000510508F05FC60894811C911C53E0851621
:10E8D000910409F059C600E010E018C081E280936D
:10E8E000C6008091C00086FFFCCF8091C00080648C
:10E8F0008093C0002F5F3F4F2931310579F70F9486
:10E90000DCF10F5F1F4F0530110519F020E030E0FA
:10E91000E5CF10920A0210920B0210920C02109294
:10E920000D02109206021092070210920802109235
:10E930000902109202021092030210920402109235
:10E9400005028FEE90EE60E00F94F5F180E191EE1C
:10E9500060E00F94C2F18091C00087FFFCCF9091DE
:10E96000C600903608F09F759032B8F09093C600BC
:10E970008091C00086FFFCCF8091C00080648093AE
:10E98000C000A0E2A093C6008091C00086FFFCCF2B
:10E990008091C00080648093C000983409F4D7C18E
:10E9A0009934B8F4923409F459C1933458F490333B
:10E9B00019F1903308F4E3C59F33A1F1903409F0C5
:10E9C000DEC5BDC0953409F470C1963409F0D7C5D1
:10E9D00098C1923509F42BC2933538F49C3409F46C
:10E9E000F5C1913509F0CBC518C2963509F445C279
:10E9F000993509F0C4C567C483E792EE62E00F94CD
:10EA0000F5F110920602109207021092080210927D
:10EA1000090210920A0210920B0210920C0210923C
:10EA20000D0213C18FE792EE62E00F94F5F18FEEC5
:10EA300090EE60E00F94F5F181E291EE60E00F94CA
:10EA4000C2F187EB91EE60E00F94F5F180E391EE77
:10EA500060E00F94C2F184EE90EE60E00F94F5F167
:10EA60008FE391EE60E00F94C2F186E090E061E008
:10EA700070E00F9434F20F94DCF18DE591EE60E0DC
:10EA80000F94C2F189EC91EE60E00F94F5F18EE401
:10EA900091EE60E00F94C2F183EC91EE60E00F9490
:10EAA000F5F18CE691EE60E00F94C2F18EE10F94E7
:10EAB0000DF288E90F940DF281E00F940DF20F949E
:10EAC000DCF18BE791EE60E00F94C2F119E0E0E039
:10EAD000F0E010935700E4918E2F0F940DF20F94F5
:10EAE000DCF18AE891EE60E00F94C2F1E3E0F0E03F
:10EAF00010935700E4918E2F0F940DF20F94DCF1D8
:10EB000089E991EE60E00F94C2F1E2E0F0E0109349
:10EB10005700E4918E2F0F940DF20F94DCF188EAE8
:10EB200091EE60E00F94C2F1E1E0F0E01093570045
:10EB30001491812F0F940DF20F94DCF107CF8BE825
:10EB400092EE62E00F94F5F18BE492EE60E00F94A8
:10EB5000F5F10F94DCF100E010E019C0C8016F2D51
:10EB60000F947FFEFF2031F489E492EE60E00F9471
:10EB7000C2F10BC0F092C6008091C00086FFFCCFAE
:10EB80008091C00080648093C0000F5F1F4FC80158
:10EB900081519F41A0E0B0E0ABBFFC01F790BAE229
:10EBA000FB1621F0E2E000301E07C1F60F94DCF105
:10EBB0000F94DCF187E592EE60E00F94F5F10F948D
:10EBC000DCF1CC24DD2400E010E01EC0C8010F946D
:10EBD00077FEF82E882331F489E492EE60E00F94FA
:10EBE000C2F10BC08093C6008091C00086FFFCCFAD
:10EBF0008091C00080648093C000FE1419F00894D6
:10EC0000C11CD11C0F5F1F4FC80181519F41A0E063
:10EC1000B0E0ABBFFC01E790FAE2EF1621F022E092
:10EC20000030120799F60F94DCF10F94DCF182E6C4
:10EC300092EE60E00F94C2F1C60161E070E00F94C3
:10EC400034F20F94DCF10F94DCF110920202109276
:10EC50000302109204021092050278CE89E992EE26
:10EC600062E00F94F5F1279A2F9A16C02F9880E052
:10EC700090E0E0EDF7E03197F1F7019684369105E9
:10EC8000C1F72F9A80E090E0E0EDF7E03197F1F7DF
:10EC9000019684369105C1F78091C00087FFE6CFC9
:10ECA0008091C00087FFFCCF64C485EA92EE62E0E9
:10ECB0000F94F5F140910202509103026091040219
:10ECC0007091050281E020E10F9491F2809102029F
:10ECD00090910302A0910402B091050280509F4FD1
:10ECE000AF4FBF4F8093020290930302A0930402A0
:10ECF000B093050280509041A040B04008F426CE69
:10ED0000A4CF83EB92EE62E00F94F5F140910602FE
:10ED100050910702609108027091090280E020E1A1
:10ED20000F9491F28091060290910702A09108023F
:10ED3000B091090280509F4FAF4FBF4F80930602A2
:10ED400090930702A0930802B0930902FFCD80ECD4
:10ED500092EE62E00F94F5F183E792EE60E00F949B
:10ED6000F5F18FE792EE60E00F94F5F18BE892EE0B
:10ED700060E00F94F5F189E992EE60E00F94F5F10F
:10ED800085EA92EE60E00F94F5F183EB92EE60E09D
:10ED90000F94F5F180EC92EE60E00F94F5F187ECC2
:10EDA00092EE60E00F94F5F188ED92EE60E00F9442
:10EDB000F5F18FED92EE60E00F94F5F18AEE92EEB0
:10EDC00060E00F94F5F183E093EEBDCD87EC92EE19
:10EDD00062E00F94F5F181E40F947BF282E40F94EA
:10EDE0007BF283E40F947BF284E40F947BF285E45E
:10EDF0000F947BF286E40F947BF287E40F947BF20E
:10EE000088E40F947BF28AE40F947BF28BE40F94F6
:10EE10007BF28CE40F947BF299CD88ED92EE62E068
:10EE20000F94F5F1772473948824992409C48FED05
:10EE300092EE62E00F94F5F140910A0250910B02BC
:10EE400060910C0270910D0282E020E10F9491F22A
:10EE500080910A0290910B02A0910C02B0910D02D8
:10EE600080509F4FAF4FBF4F80930A0290930B0289
:10EE7000A0930C02B0930D0269CD8AEE92EE62E08F
:10EE80000F94F5F184EE90EE60E00F94F5F18FECC5
:10EE900091EE60E00F94F5F1662477244301CC5D98
:10EEA000DE4F19821882C452D140D401C301B695F5
:10EEB000A79597958795CA5DDE4F88839983AA8326
:10EEC000BB83C652D140CC5DDE4FA881B981C4520C
:10EED000D1401196CC5DDE4FB983A883C452D14096
:10EEE000CD0162E070E00F9434F2B0E2B093C6005E
:10EEF0008091C00086FFFCCF8091C0008064809329
:10EF0000C000EDE2E093C6008091C00086FFFCCF18
:10EF10008091C00080648093C000F0E2F093C6004E
:10EF20008091C00086FFFCCF8091C00080648093F8
:10EF3000C000CA5DDE4FE880F9800A811B81C6529D
:10EF4000D140BB27A12F902F8F2D0F940DF2CA5DBA
:10EF5000DE4F8881C652D1400F940DF2B0E2FB2EF5
:10EF6000F092C6008091C00086FFFCCF8091C00067
:10EF700080648093C0000DE30093C6008091C000C0
:10EF800086FFFCCF8091C00080648093C00010E2B7
:10EF90001093C6008091C00086FFFCCF8091C00016
:10EFA00080648093C0008BBEF3012791C65DDE4F65
:10EFB0002883CA52D140A22EBB24CC24DD2408943D
:10EFC000611C711C811C911C8BBEF3018791282E42
:10EFD0003324442455240894611C711C811C911C09
:10EFE0008BBEF3013791C55DDE4F3883CB52D140E4
:10EFF0000894611C711C811C911C8BBEF30147910C
:10F00000C45DDE4F4883CC52D140ADEFEA2EAFEF66
:10F01000FA2EAFEF0A2FAFEF1A2F6E0C7F1C801E57
:10F02000911E142D032DF22CEE24EA0CFB1C0C1D5A
:10F030001D1D0F940DF220E22093C6008091C000A8
:10F0400086FFFCCF8091C00080648093C000C65DC5
:10F05000DE4F8881CA52D1400F940DF230E23093D6
:10F06000C6008091C00086FFFCCF8091C000806404
:10F070008093C000C45DDE4F8881CC52D1400F9494
:10F080000DF240E24093C6008091C00086FFFCCFA5
:10F090008091C00080648093C000C55DDE4F888190
:10F0A000CB52D1400F940DF250E25093C6008091A4
:10F0B000C00086FFFCCF8091C00080648093C000B8
:10F0C0008FEFE8168FEFF80680E0080780E018075A
:10F0D00031F484E092EE60E00F94C2F1DFC0D80119
:10F0E000C7018070907CA070B0708050904CA040A0
:10F0F000B040D1F52FEF3FE340E050E0E222F322B1
:10F1000004231523CA5DDE4FA880B980CA80DB8046
:10F11000C652D140AE0CBF1CC01ED11EAA0CBB1CD7
:10F12000CC1CDD1C8EE092EE60E00F94C2F1BB2798
:10F13000A12F902F8F2D0F940DF28E2D0F940DF285
:10F1400030E23093C6008091C00086FFFCCF8091F2
:10F15000C00080648093C0004EE34093C60080915D
:10F16000C00086FFFCCF87C08EE09EEFA0E0B0E03D
:10F17000E822F9220A231B239CE0E91694E9F90608
:10F1800090E0090790E0190709F088C0C45DDE4FE0
:10F19000A881CC52D140EA2EFF2400E010E0102FCD
:10F1A0000F2DFE2CEE24C55DDE4FB881CB52D14031
:10F1B000EB0EF11C011D111DD601C501817090706F
:10F1C000A070B070DC0199278827E80EF91E0A1F8D
:10F1D0001B1F20EF30E040E050E0A222B322C42207
:10F1E000D52241E1AA0CBB1CCC1CDD1C4A95D1F7F1
:10F1F000EA0CFB1C0C1D1D1D81E090E0A0E0B0E0BE
:10F20000282239224A225B2235E1220C331C441C7D
:10F21000551C3A95D1F7E20CF31C041D151D57013E
:10F220006801AA0CBB1CCC1CDD1C85E192EE60E0E1
:10F230000F94C2F1C801AA27BB270F940DF2BB2778
:10F24000A12F902F8F2D0F940DF28E2D0F940DF274
:10F2500090E29093C6008091C00086FFFCCF809121
:10F26000C00080648093C000AEE3A093C60080918C
:10F27000C00086FFFCCF8091C00080648093C000F6
:10F28000C601AA27BB270F940DF2BB27AD2D9C2DDD
:10F290008B2D0F940DF28A2D0F940DF20F94DCF14B
:10F2A000CC5DDE4FE881F981C452D140F99709F471
:10F2B0004DCBF4E0EF2EF12C012D112D6E0C7F1CA7
:10F2C000801E911EF2CD83E093EE62E00F94F5F183
:10F2D0008AE192EE60E00F94C2F18091C00087FF56
:10F2E000FCCF1091C6001F751093C6008091C0001E
:10F2F00086FFFCCF8091C00080648093C0000F9493
:10F30000DCF1812F81548A3108F036C1163409F4BA
:10F3100095C0173490F4133409F44EC0143430F40B
:10F320001134F1F0123409F01DC130C0143409F465
:10F3300059C0153409F016C16BC01A3409F4C4C0A1
:10F340001B3438F4173409F48FC0183409F00AC19B
:10F35000A1C01B3409F4D2C01C3409F003C1E8C0B9
:10F360008FEF81B90DC082B1809582B980E090E0C5
:10F37000E0EDF7E03197F1F70196883C9105C1F790
:10F380008091C00087FFEFCF12B8EFC08FEF84B934
:10F390000DC085B1809585B980E090E0E0EDF7E0A3
:10F3A0003197F1F70196883C9105C1F78091C00033
:10F3B00087FFEFCF15B8D9C08FEF87B90DC088B1DF
:10F3C000809588B980E090E0E0EDF7E03197F1F7C3
:10F3D0000196883C9105C1F78091C00087FFEFCF6F
:10F3E00018B8C3C08FEF8AB90DC08BB180958BB9A7
:10F3F00080E090E0E0EDF7E03197F1F70196883C8E
:10F400009105C1F78091C00087FFEFCF1BB8ADC059
:10F410008FEF8DB90DC08EB180958EB980E090E0F0
:10F42000E0EDF7E03197F1F70196883C9105C1F7DF
:10F430008091C00087FFEFCF1EB897C08FEF80BBD1
:10F440000DC081B3809581BB80E090E0E0EDF7E0F6
:10F450003197F1F70196883C9105C1F78091C00082
:10F4600087FFEFCF11BA81C08FEF83BB0DC084B38C
:10F47000809584BB80E090E0E0EDF7E03197F1F714
:10F480000196883C9105C1F78091C00087FFEFCFBE
:10F4900014BA6BC08FEF809301010FC080910201FD
:10F4A00080958093020180E090E0E0EDF7E03197F5
:10F4B000F1F70196883C9105C1F78091C00087FF64
:10F4C000EDCF1092020151C08FEF809304010FC065
:10F4D0008091050180958093050180E090E0E0ED4A
:10F4E000F7E03197F1F70196883C9105C1F78091DB
:10F4F000C00087FFEDCF1092050137C08FEF8093DA
:10F5000007010FC08091080180958093080180E079
:10F5100090E0E0EDF7E03197F1F70196883C910536
:10F52000C1F78091C00087FFEDCF109208011DC088
:10F530008FEF80930A010FC080910B01809580931B
:10F540000B0180E090E0E0EDF7E03197F1F70196F4
:10F55000883C9105C1F78091C00087FFEDCF1092E4
:10F560000B0103C085E292EEEEC98091C00087FFD7
:10F57000FCCF8091C600EAC988E392EEE4C98CE131
:10F5800091EEE1C988249924933011F1943028F444
:10F59000913089F09230B8F408C0953061F195301F
:10F5A000F0F0963009F048C043C02B3109F042C951
:10F5B00091E06BE13FC96227C15DDE4F2883CF52E6
:10F5C000D14092E037C9B22FA0E0622793E032C960
:10F5D000822F90E0A82BB92B622794E02BC92E3004
:10F5E00009F039C3622795E0C05DDE4F19821882A9
:10F5F000C053D1401FC9E1E0F0E0EC0FFD1FC05D3A
:10F60000DE4F08811981C053D140E00FF11F2083E4
:10F610000F5F1F4FC05DDE4F19830883C053D14079
:10F6200062270A171B0709F005C9D80196E002C92D
:10F63000261709F010C303C0973009F0FBC87724E0
:10F640009981933109F412C19431C8F4963009F4C8
:10F65000D8C0973050F4923009F406C1933009F4C1
:10F660006DC0913009F059C253C0913109F477C08F
:10F67000923108F0BBC0903109F04FC2F5C098310B
:10F6800009F487C0993150F4953109F4EFC09531F0
:10F6900008F4C6C1963109F040C2C2C19A3109F4DA
:10F6A0006CC09A3108F491C09B3109F45BC09D3164
:10F6B00009F033C29D81903359F48F81882311F46E
:10F6C0009EE11CC0813011F091E018C098E916C08D
:10F6D000892F807591F0903539F4E0E0F0E089E011
:10F6E0008093570094910AC0983539F4E3E0F0E034
:10F6F00089E080935700949101C090E01A821B82A8
:10F700008D818C831D829E831F8227E030E009C299
:10F710001A8288E08B8381E48C8386E58D8382E581
:10F720008E8389E48F8383E5888780E589878FE5E9
:10F730008A8782E38B872BE030E0F3C18A818139AD
:10F7400041F0823941F0803911F48FE005C080E04A
:10F7500003C082E001C08AE01A828B8344C0772410
:10F76000739482C08D81882311F48EE12CC0813086
:10F7700011F081E028C088E926C01A82E1E0F0E0BB
:10F7800089E08093570084918B831C8224E030E0D1
:10F79000C8C18B81803589F48C81883039F4E2E0EE
:10F7A000F0E089E08093570084910DC0E0E0F0E044
:10F7B00089E080935700849106C0E3E0F0E089E09F
:10F7C0008093570084911A82DFCF8D81836C99E0FA
:10F7D000E1E0F0E0082E90935700E89507B600FCB2
:10F7E000FDCF1A821B8223E030E09BC180EC8A832C
:10F7F000CE5CDE4F188219821A821B82C253D1401E
:10F800008EC18A8190E0A0E0B0E0582F44273327D2
:10F8100022278B8190E0A0E0B0E0DC0199278827C7
:10F82000282B392B4A2B5B2B8D8190E0A0E0B0E098
:10F83000282B392B4A2B5B2B8C8190E0A0E0B0E089
:10F84000BA2FA92F982F8827282B392B4A2B5B2BCF
:10F85000220F331F441F551FC05EDE4F288339839C
:10F860004A835B83C052D1401A8259C13A81C95C34
:10F87000DE4F3883C753D140CA5CDE4F1882C6536F
:10F88000D1408B81C82EDD24CA5CDE4F488159816E
:10F89000C653D140C42AD52A933109F082C0CE5C28
:10F8A000DE4F88819981AA81BB81C253D1408050AB
:10F8B000904CA340B04030F583E0CE5CDE4FE88052
:10F8C000F9800A811B81C253D140F70100935B008C
:10F8D00080935700E89507B600FCFDCFCE5CDE4F65
:10F8E000088119812A813B81C253D14000501F4FAA
:10F8F0002F4F3F4FCE5CDE4F088319832A833B8313
:10F90000C253D140C05EDE4F488159816A817B81FC
:10F91000C052D140DE011B9631E08C9111962C91A2
:10F9200011971296C75CDE4F2883C953D140C85C3B
:10F93000DE4F1882C853D14090E0C85CDE4FE881AA
:10F94000F981C853D1408E2B9F2B0C01FA01609393
:10F950005B0030935700E89511244E5F5F4F6F4F67
:10F960007F4F0EEFE02E0FEFF02ECE0CDF1CC114F8
:10F97000D10499F685E0C05EDE4F088119812A81A5
:10F980003B81C052D140F80120935B008093570027
:10F99000E89507B600FCFDCF81E180935700E8951C
:10F9A00035C0C05EDE4F88819981AA81BB81C0527B
:10F9B000D140B695A795979587957C018601ABE0D8
:10F9C000AA2EB12CAC0EBD1E0BC0D5016D915D01F0
:10F9D000C7010F947FFE0894E11CF11C01501040F8
:10F9E0000115110591F7A60160E070E0440F551F65
:10F9F000661F771FC05EDE4FE880F9800A811B8199
:10FA0000C052D1404E0D5F1D601F711F1A82C05E33
:10FA1000DE4F488359836A837B83C052D1407FC0C5
:10FA2000FA80C55CDE4FF882CB53D140C65CDE4F16
:10FA30001882CA53D1408B81C82EDD24C65CDE4FAC
:10FA400008811981CA53D140C02AD12A1A828981DA
:10FA5000BE016D5F7F4F843121F59601C05EDE4FA0
:10FA6000E880F9800A811B81C052D1400BBFF701A9
:10FA700087919691DB018C9311969C936E5F7F4FDB
:10FA8000D801C7010296A11DB11DC05EDE4F88835B
:10FA90009983AA83BB83C052D14022503040F1F6F3
:10FAA00036C0C05EDE4F288139814A815B81C052F9
:10FAB000D1400894C108D108760100E010E0089414
:10FAC000C11CD11C0894E11CF11C011D111DE20E8A
:10FAD000F31E041F151F21BDBB27A52F942F832FB5
:10FAE00082BD2F5F3F4F4F4F5F4FF89A80B5DB01CC
:10FAF0008D93BD012E153F054007510761F7C05E8C
:10FB0000DE4F288339834A835B83C052D1409601FC
:10FB10002D5F3F4FFB01108204C080EC8A8322E0FE
:10FB200030E08BE18093C6008091C00086FFFCCF5F
:10FB30008091C00080648093C000C15DDE4FF88179
:10FB4000CF52D140F093C6008091C00086FFFCCF19
:10FB50008091C00080648093C000432F3093C60022
:10FB60008091C00086FFFCCF8091C00080648093AC
:10FB7000C000922F2093C6008091C00086FFFCCF6A
:10FB80008091C00080648093C0008EE08093C600A6
:10FB90008091C00086FFFCCF8091C000806480937C
:10FBA000C00065E1C15DDE4FE880CF52D1406E25D7
:10FBB00069276427FE01319610C090819093C6009A
:10FBC0008091C00086FFFCCF31968091C000806498
:10FBD0008093C0006927215030402115310569F715
:10FBE0006093C6008091C00086FFFCCF8091C0006A
:10FBF00080648093C00085B1805885B9772081F4F6
:10FC0000C15DDE4F0881CF52D1400F5FC15DDE4F35
:10FC10000883CF52D14090E0A0E0B0E00D941AF4F8
:10FC200027982F9880E090E020ED37E0F901319798
:10FC3000F1F7019684369105C9F700008091C00064
:10FC40008D7F8093C00081E180935700E895EE2777
:10FC5000FF270994FFCF90E00D941AF497FB092E2B
:10FC600007260AD077FD04D02ED006D000201AF443
:10FC7000709561957F4F0895F6F7909581959F4F08
:10FC80000895A1E21A2EAA1BBB1BFD010DC0AA1FDD
:10FC9000BB1FEE1FFF1FA217B307E407F50720F0F5
:10FCA000A21BB30BE40BF50B661F771F881F991F70
:10FCB0001A9469F760957095809590959B01AC01B9
:10FCC000BD01CF010895AA1BBB1B51E107C0AA1FAC
:10FCD000BB1FA617B70710F0A61BB70B881F991FED
:10FCE0005A95A9F780959095BC01CD010895F99991
:10FCF000FECF92BD81BDF89A992780B50895262F31
:10FD0000F999FECF1FBA92BD81BD20BD0FB6F89400
:0EFD1000FA9AF99A0FBE01960895F894FFCF63
:00000001FF
